{
	"Capstone/ForensicChain.sol": {
		"ForensicChain": {
			"abi": [
				{
					"inputs": [],
					"stateMutability": "nonpayable",
					"type": "constructor"
				},
				{
					"inputs": [
						{
							"internalType": "string",
							"name": "caseId",
							"type": "string"
						},
						{
							"internalType": "uint256",
							"name": "index",
							"type": "uint256"
						}
					],
					"name": "accessEvidenceLog",
					"outputs": [],
					"stateMutability": "nonpayable",
					"type": "function"
				},
				{
					"inputs": [
						{
							"internalType": "string",
							"name": "caseId",
							"type": "string"
						},
						{
							"internalType": "address",
							"name": "user",
							"type": "address"
						},
						{
							"internalType": "enum ForensicChain.Role",
							"name": "role",
							"type": "uint8"
						}
					],
					"name": "assignCaseRole",
					"outputs": [],
					"stateMutability": "nonpayable",
					"type": "function"
				},
				{
					"inputs": [
						{
							"internalType": "string",
							"name": "",
							"type": "string"
						},
						{
							"internalType": "uint256",
							"name": "",
							"type": "uint256"
						}
					],
					"name": "caseAuditTrail",
					"outputs": [
						{
							"internalType": "address",
							"name": "",
							"type": "address"
						}
					],
					"stateMutability": "view",
					"type": "function"
				},
				{
					"inputs": [
						{
							"internalType": "string",
							"name": "",
							"type": "string"
						},
						{
							"internalType": "uint256",
							"name": "",
							"type": "uint256"
						}
					],
					"name": "caseEvidenceMapping",
					"outputs": [
						{
							"internalType": "string",
							"name": "evidenceId",
							"type": "string"
						},
						{
							"internalType": "string",
							"name": "cidEncrypted",
							"type": "string"
						},
						{
							"internalType": "string",
							"name": "hash",
							"type": "string"
						},
						{
							"internalType": "enum ForensicChain.EvidenceType",
							"name": "evidenceType",
							"type": "uint8"
						},
						{
							"internalType": "address",
							"name": "submittedBy",
							"type": "address"
						},
						{
							"internalType": "bool",
							"name": "confirmed",
							"type": "bool"
						},
						{
							"internalType": "uint256",
							"name": "submittedAt",
							"type": "uint256"
						}
					],
					"stateMutability": "view",
					"type": "function"
				},
				{
					"inputs": [
						{
							"internalType": "string",
							"name": "",
							"type": "string"
						},
						{
							"internalType": "address",
							"name": "",
							"type": "address"
						}
					],
					"name": "caseRoles",
					"outputs": [
						{
							"internalType": "enum ForensicChain.Role",
							"name": "",
							"type": "uint8"
						}
					],
					"stateMutability": "view",
					"type": "function"
				},
				{
					"inputs": [
						{
							"internalType": "string",
							"name": "",
							"type": "string"
						}
					],
					"name": "cases",
					"outputs": [
						{
							"internalType": "string",
							"name": "caseId",
							"type": "string"
						},
						{
							"internalType": "string",
							"name": "title",
							"type": "string"
						},
						{
							"internalType": "string",
							"name": "description",
							"type": "string"
						},
						{
							"internalType": "address",
							"name": "createdBy",
							"type": "address"
						},
						{
							"internalType": "bool",
							"name": "seal",
							"type": "bool"
						},
						{
							"internalType": "bool",
							"name": "open",
							"type": "bool"
						},
						{
							"internalType": "uint256",
							"name": "evidenceCount",
							"type": "uint256"
						}
					],
					"stateMutability": "view",
					"type": "function"
				},
				{
					"inputs": [
						{
							"internalType": "string",
							"name": "caseId",
							"type": "string"
						}
					],
					"name": "closeCase",
					"outputs": [],
					"stateMutability": "nonpayable",
					"type": "function"
				},
				{
					"inputs": [
						{
							"internalType": "string",
							"name": "caseId",
							"type": "string"
						},
						{
							"internalType": "uint256",
							"name": "index",
							"type": "uint256"
						}
					],
					"name": "confirmCaseEvidence",
					"outputs": [],
					"stateMutability": "nonpayable",
					"type": "function"
				},
				{
					"inputs": [
						{
							"internalType": "string",
							"name": "caseId",
							"type": "string"
						},
						{
							"internalType": "string",
							"name": "firId",
							"type": "string"
						},
						{
							"internalType": "string",
							"name": "title",
							"type": "string"
						},
						{
							"internalType": "string",
							"name": "description",
							"type": "string"
						},
						{
							"internalType": "string[]",
							"name": "tags",
							"type": "string[]"
						}
					],
					"name": "createCaseFromFIR",
					"outputs": [],
					"stateMutability": "nonpayable",
					"type": "function"
				},
				{
					"inputs": [
						{
							"internalType": "string",
							"name": "",
							"type": "string"
						},
						{
							"internalType": "uint256",
							"name": "",
							"type": "uint256"
						},
						{
							"internalType": "address",
							"name": "",
							"type": "address"
						}
					],
					"name": "evidenceAccessed",
					"outputs": [
						{
							"internalType": "bool",
							"name": "",
							"type": "bool"
						}
					],
					"stateMutability": "view",
					"type": "function"
				},
				{
					"inputs": [
						{
							"internalType": "string",
							"name": "",
							"type": "string"
						},
						{
							"internalType": "address",
							"name": "",
							"type": "address"
						}
					],
					"name": "evidenceConfirmed",
					"outputs": [
						{
							"internalType": "bool",
							"name": "",
							"type": "bool"
						}
					],
					"stateMutability": "view",
					"type": "function"
				},
				{
					"inputs": [
						{
							"internalType": "string",
							"name": "firId",
							"type": "string"
						},
						{
							"internalType": "string",
							"name": "description",
							"type": "string"
						}
					],
					"name": "fileFIR",
					"outputs": [],
					"stateMutability": "nonpayable",
					"type": "function"
				},
				{
					"inputs": [
						{
							"internalType": "string",
							"name": "",
							"type": "string"
						}
					],
					"name": "firs",
					"outputs": [
						{
							"internalType": "string",
							"name": "firId",
							"type": "string"
						},
						{
							"internalType": "address",
							"name": "filedBy",
							"type": "address"
						},
						{
							"internalType": "string",
							"name": "description",
							"type": "string"
						},
						{
							"internalType": "uint256",
							"name": "timestamp",
							"type": "uint256"
						},
						{
							"internalType": "bool",
							"name": "promotedToCase",
							"type": "bool"
						},
						{
							"internalType": "string",
							"name": "associatedCaseId",
							"type": "string"
						}
					],
					"stateMutability": "view",
					"type": "function"
				},
				{
					"inputs": [
						{
							"internalType": "string",
							"name": "caseId",
							"type": "string"
						}
					],
					"name": "getCase",
					"outputs": [
						{
							"components": [
								{
									"internalType": "string",
									"name": "caseId",
									"type": "string"
								},
								{
									"internalType": "string",
									"name": "title",
									"type": "string"
								},
								{
									"internalType": "string",
									"name": "description",
									"type": "string"
								},
								{
									"internalType": "address",
									"name": "createdBy",
									"type": "address"
								},
								{
									"internalType": "bool",
									"name": "seal",
									"type": "bool"
								},
								{
									"internalType": "bool",
									"name": "open",
									"type": "bool"
								},
								{
									"internalType": "string[]",
									"name": "tags",
									"type": "string[]"
								},
								{
									"internalType": "uint256",
									"name": "evidenceCount",
									"type": "uint256"
								}
							],
							"internalType": "struct ForensicChain.Case",
							"name": "",
							"type": "tuple"
						}
					],
					"stateMutability": "view",
					"type": "function"
				},
				{
					"inputs": [
						{
							"internalType": "string",
							"name": "firId",
							"type": "string"
						}
					],
					"name": "getFIR",
					"outputs": [
						{
							"components": [
								{
									"internalType": "string",
									"name": "firId",
									"type": "string"
								},
								{
									"internalType": "address",
									"name": "filedBy",
									"type": "address"
								},
								{
									"internalType": "string",
									"name": "description",
									"type": "string"
								},
								{
									"internalType": "uint256",
									"name": "timestamp",
									"type": "uint256"
								},
								{
									"internalType": "bool",
									"name": "promotedToCase",
									"type": "bool"
								},
								{
									"internalType": "string",
									"name": "associatedCaseId",
									"type": "string"
								}
							],
							"internalType": "struct ForensicChain.FIR",
							"name": "",
							"type": "tuple"
						}
					],
					"stateMutability": "view",
					"type": "function"
				},
				{
					"inputs": [
						{
							"internalType": "address",
							"name": "user",
							"type": "address"
						}
					],
					"name": "getGlobalRole",
					"outputs": [
						{
							"internalType": "enum ForensicChain.Role",
							"name": "",
							"type": "uint8"
						}
					],
					"stateMutability": "view",
					"type": "function"
				},
				{
					"inputs": [
						{
							"internalType": "string",
							"name": "caseId",
							"type": "string"
						}
					],
					"name": "getMyRoleInCase",
					"outputs": [
						{
							"internalType": "enum ForensicChain.Role",
							"name": "",
							"type": "uint8"
						}
					],
					"stateMutability": "view",
					"type": "function"
				},
				{
					"inputs": [
						{
							"internalType": "address",
							"name": "",
							"type": "address"
						}
					],
					"name": "globalRoles",
					"outputs": [
						{
							"internalType": "enum ForensicChain.Role",
							"name": "",
							"type": "uint8"
						}
					],
					"stateMutability": "view",
					"type": "function"
				},
				{
					"inputs": [],
					"name": "isSystemLocked",
					"outputs": [
						{
							"internalType": "bool",
							"name": "",
							"type": "bool"
						}
					],
					"stateMutability": "view",
					"type": "function"
				},
				{
					"inputs": [],
					"name": "owner",
					"outputs": [
						{
							"internalType": "address",
							"name": "",
							"type": "address"
						}
					],
					"stateMutability": "view",
					"type": "function"
				},
				{
					"inputs": [
						{
							"internalType": "string",
							"name": "caseId",
							"type": "string"
						}
					],
					"name": "reopenCase",
					"outputs": [],
					"stateMutability": "nonpayable",
					"type": "function"
				},
				{
					"inputs": [
						{
							"internalType": "string",
							"name": "caseId",
							"type": "string"
						}
					],
					"name": "sealCase",
					"outputs": [],
					"stateMutability": "nonpayable",
					"type": "function"
				},
				{
					"inputs": [
						{
							"internalType": "address",
							"name": "user",
							"type": "address"
						},
						{
							"internalType": "enum ForensicChain.Role",
							"name": "role",
							"type": "uint8"
						}
					],
					"name": "setGlobalRole",
					"outputs": [],
					"stateMutability": "nonpayable",
					"type": "function"
				},
				{
					"inputs": [
						{
							"internalType": "string",
							"name": "caseId",
							"type": "string"
						},
						{
							"internalType": "string",
							"name": "evidenceId",
							"type": "string"
						},
						{
							"internalType": "string",
							"name": "cidEncrypted",
							"type": "string"
						},
						{
							"internalType": "string",
							"name": "hash",
							"type": "string"
						},
						{
							"internalType": "enum ForensicChain.EvidenceType",
							"name": "evidenceType",
							"type": "uint8"
						}
					],
					"name": "submitCaseEvidence",
					"outputs": [],
					"stateMutability": "nonpayable",
					"type": "function"
				},
				{
					"inputs": [
						{
							"internalType": "string",
							"name": "firId",
							"type": "string"
						},
						{
							"internalType": "string",
							"name": "evidenceId",
							"type": "string"
						},
						{
							"internalType": "string",
							"name": "cidEncrypted",
							"type": "string"
						},
						{
							"internalType": "string",
							"name": "hash",
							"type": "string"
						},
						{
							"internalType": "enum ForensicChain.EvidenceType",
							"name": "evidenceType",
							"type": "uint8"
						}
					],
					"name": "submitFIREvidence",
					"outputs": [],
					"stateMutability": "nonpayable",
					"type": "function"
				},
				{
					"inputs": [],
					"name": "toggleSystemLock",
					"outputs": [],
					"stateMutability": "nonpayable",
					"type": "function"
				},
				{
					"inputs": [
						{
							"internalType": "bytes32",
							"name": "",
							"type": "bytes32"
						}
					],
					"name": "usedCIDHash",
					"outputs": [
						{
							"internalType": "bool",
							"name": "",
							"type": "bool"
						}
					],
					"stateMutability": "view",
					"type": "function"
				}
			],
			"devdoc": {
				"kind": "dev",
				"methods": {},
				"version": 1
			},
			"evm": {
				"assembly": "    /* \"Capstone/ForensicChain.sol\":61:8364  contract ForensicChain {... */\n  mstore(0x40, 0x80)\n    /* \"Capstone/ForensicChain.sol\":2189:2287  constructor() {... */\n  callvalue\n  dup1\n  iszero\n  tag_1\n  jumpi\n  revert(0x00, 0x00)\ntag_1:\n  pop\n    /* \"Capstone/ForensicChain.sol\":2222:2232  msg.sender */\n  caller\n    /* \"Capstone/ForensicChain.sol\":2214:2219  owner */\n  0x00\n  0x00\n    /* \"Capstone/ForensicChain.sol\":2214:2232  owner = msg.sender */\n  0x0100\n  exp\n  dup2\n  sload\n  dup2\n  0xffffffffffffffffffffffffffffffffffffffff\n  mul\n  not\n  and\n  swap1\n  dup4\n  0xffffffffffffffffffffffffffffffffffffffff\n  and\n  mul\n  or\n  swap1\n  sstore\n  pop\n    /* \"Capstone/ForensicChain.sol\":2269:2279  Role.Court */\n  0x01\n    /* \"Capstone/ForensicChain.sol\":2243:2254  globalRoles */\n  dup1\n    /* \"Capstone/ForensicChain.sol\":2243:2266  globalRoles[msg.sender] */\n  0x00\n    /* \"Capstone/ForensicChain.sol\":2255:2265  msg.sender */\n  caller\n    /* \"Capstone/ForensicChain.sol\":2243:2266  globalRoles[msg.sender] */\n  0xffffffffffffffffffffffffffffffffffffffff\n  and\n  0xffffffffffffffffffffffffffffffffffffffff\n  and\n  dup2\n  mstore\n  0x20\n  add\n  swap1\n  dup2\n  mstore\n  0x20\n  add\n  0x00\n  keccak256\n  0x00\n    /* \"Capstone/ForensicChain.sol\":2243:2279  globalRoles[msg.sender] = Role.Court */\n  0x0100\n  exp\n  dup2\n  sload\n  dup2\n  0xff\n  mul\n  not\n  and\n  swap1\n  dup4\n  0x04\n  dup2\n  gt\n  iszero\n  tag_4\n  jumpi\n  tag_5\n  tag_6\n  jump\t// in\ntag_5:\ntag_4:\n  mul\n  or\n  swap1\n  sstore\n  pop\n    /* \"Capstone/ForensicChain.sol\":61:8364  contract ForensicChain {... */\n  jump(tag_7)\n    /* \"#utility.yul\":7:187   */\ntag_6:\n    /* \"#utility.yul\":55:132   */\n  0x4e487b7100000000000000000000000000000000000000000000000000000000\n    /* \"#utility.yul\":52:53   */\n  0x00\n    /* \"#utility.yul\":45:133   */\n  mstore\n    /* \"#utility.yul\":152:156   */\n  0x21\n    /* \"#utility.yul\":149:150   */\n  0x04\n    /* \"#utility.yul\":142:157   */\n  mstore\n    /* \"#utility.yul\":176:180   */\n  0x24\n    /* \"#utility.yul\":173:174   */\n  0x00\n    /* \"#utility.yul\":166:181   */\n  revert\n    /* \"Capstone/ForensicChain.sol\":61:8364  contract ForensicChain {... */\ntag_7:\n  dataSize(sub_0)\n  dup1\n  dataOffset(sub_0)\n  0x00\n  codecopy\n  0x00\n  return\nstop\n\nsub_0: assembly {\n        /* \"Capstone/ForensicChain.sol\":61:8364  contract ForensicChain {... */\n      mstore(0x40, 0x80)\n      callvalue\n      dup1\n      iszero\n      tag_1\n      jumpi\n      revert(0x00, 0x00)\n    tag_1:\n      pop\n      jumpi(tag_2, lt(calldatasize, 0x04))\n      shr(0xe0, calldataload(0x00))\n      dup1\n      0x96853b85\n      gt\n      tag_30\n      jumpi\n      dup1\n      0xcbbfe1fc\n      gt\n      tag_31\n      jumpi\n      dup1\n      0xd77bdf97\n      gt\n      tag_32\n      jumpi\n      dup1\n      0xd77bdf97\n      eq\n      tag_26\n      jumpi\n      dup1\n      0xdf965829\n      eq\n      tag_27\n      jumpi\n      dup1\n      0xf47dbf0d\n      eq\n      tag_28\n      jumpi\n      dup1\n      0xf6e715db\n      eq\n      tag_29\n      jumpi\n      jump(tag_2)\n    tag_32:\n      dup1\n      0xcbbfe1fc\n      eq\n      tag_23\n      jumpi\n      dup1\n      0xd235af82\n      eq\n      tag_24\n      jumpi\n      dup1\n      0xd4e06826\n      eq\n      tag_25\n      jumpi\n      jump(tag_2)\n    tag_31:\n      dup1\n      0xa23140d2\n      gt\n      tag_33\n      jumpi\n      dup1\n      0xa23140d2\n      eq\n      tag_19\n      jumpi\n      dup1\n      0xa5fd3618\n      eq\n      tag_20\n      jumpi\n      dup1\n      0xb934669f\n      eq\n      tag_21\n      jumpi\n      dup1\n      0xc0c0bd28\n      eq\n      tag_22\n      jumpi\n      jump(tag_2)\n    tag_33:\n      dup1\n      0x96853b85\n      eq\n      tag_16\n      jumpi\n      dup1\n      0x9d8d2a49\n      eq\n      tag_17\n      jumpi\n      dup1\n      0x9dc17586\n      eq\n      tag_18\n      jumpi\n      jump(tag_2)\n    tag_30:\n      dup1\n      0x6fa81f89\n      gt\n      tag_34\n      jumpi\n      dup1\n      0x832e943f\n      gt\n      tag_35\n      jumpi\n      dup1\n      0x832e943f\n      eq\n      tag_12\n      jumpi\n      dup1\n      0x8da5cb5b\n      eq\n      tag_13\n      jumpi\n      dup1\n      0x90712d6a\n      eq\n      tag_14\n      jumpi\n      dup1\n      0x95d95a60\n      eq\n      tag_15\n      jumpi\n      jump(tag_2)\n    tag_35:\n      dup1\n      0x6fa81f89\n      eq\n      tag_9\n      jumpi\n      dup1\n      0x78ac0caf\n      eq\n      tag_10\n      jumpi\n      dup1\n      0x79c7fdd3\n      eq\n      tag_11\n      jumpi\n      jump(tag_2)\n    tag_34:\n      dup1\n      0xa81646\n      eq\n      tag_3\n      jumpi\n      dup1\n      0x0871fd94\n      eq\n      tag_4\n      jumpi\n      dup1\n      0x2a8d05d8\n      eq\n      tag_5\n      jumpi\n      dup1\n      0x3e6a1a4f\n      eq\n      tag_6\n      jumpi\n      dup1\n      0x4966a761\n      eq\n      tag_7\n      jumpi\n      dup1\n      0x5df512eb\n      eq\n      tag_8\n      jumpi\n    tag_2:\n      revert(0x00, 0x00)\n        /* \"Capstone/ForensicChain.sol\":1164:1232  mapping(string => mapping(address => bool)) public evidenceConfirmed */\n    tag_3:\n      tag_36\n      0x04\n      dup1\n      calldatasize\n      sub\n      dup2\n      add\n      swap1\n      tag_37\n      swap2\n      swap1\n      tag_38\n      jump\t// in\n    tag_37:\n      tag_39\n      jump\t// in\n    tag_36:\n      mload(0x40)\n      tag_40\n      swap2\n      swap1\n      tag_41\n      jump\t// in\n    tag_40:\n      mload(0x40)\n      dup1\n      swap2\n      sub\n      swap1\n      return\n        /* \"Capstone/ForensicChain.sol\":8048:8361  function accessEvidenceLog(string memory caseId, uint index) external onlyCaseAssigned(caseId) {... */\n    tag_4:\n      tag_42\n      0x04\n      dup1\n      calldatasize\n      sub\n      dup2\n      add\n      swap1\n      tag_43\n      swap2\n      swap1\n      tag_44\n      jump\t// in\n    tag_43:\n      tag_45\n      jump\t// in\n    tag_42:\n      stop\n        /* \"Capstone/ForensicChain.sol\":1013:1047  mapping(string => FIR) public firs */\n    tag_5:\n      tag_46\n      0x04\n      dup1\n      calldatasize\n      sub\n      dup2\n      add\n      swap1\n      tag_47\n      swap2\n      swap1\n      tag_48\n      jump\t// in\n    tag_47:\n      tag_49\n      jump\t// in\n    tag_46:\n      mload(0x40)\n      tag_50\n      swap7\n      swap6\n      swap5\n      swap4\n      swap3\n      swap2\n      swap1\n      tag_51\n      jump\t// in\n    tag_50:\n      mload(0x40)\n      dup1\n      swap2\n      sub\n      swap1\n      return\n        /* \"Capstone/ForensicChain.sol\":7090:7282  function reopenCase(string memory caseId) external onlyCourt {... */\n    tag_6:\n      tag_52\n      0x04\n      dup1\n      calldatasize\n      sub\n      dup2\n      add\n      swap1\n      tag_53\n      swap2\n      swap1\n      tag_48\n      jump\t// in\n    tag_53:\n      tag_54\n      jump\t// in\n    tag_52:\n      stop\n        /* \"Capstone/ForensicChain.sol\":963:1006  mapping(address => Role) public globalRoles */\n    tag_7:\n      tag_55\n      0x04\n      dup1\n      calldatasize\n      sub\n      dup2\n      add\n      swap1\n      tag_56\n      swap2\n      swap1\n      tag_57\n      jump\t// in\n    tag_56:\n      tag_58\n      jump\t// in\n    tag_55:\n      mload(0x40)\n      tag_59\n      swap2\n      swap1\n      tag_60\n      jump\t// in\n    tag_59:\n      mload(0x40)\n      dup1\n      swap2\n      sub\n      swap1\n      return\n        /* \"Capstone/ForensicChain.sol\":1437:1511  mapping(string => mapping(uint256 => Evidence)) public caseEvidenceMapping */\n    tag_8:\n      tag_61\n      0x04\n      dup1\n      calldatasize\n      sub\n      dup2\n      add\n      swap1\n      tag_62\n      swap2\n      swap1\n      tag_44\n      jump\t// in\n    tag_62:\n      tag_63\n      jump\t// in\n    tag_61:\n      mload(0x40)\n      tag_64\n      swap8\n      swap7\n      swap6\n      swap5\n      swap4\n      swap3\n      swap2\n      swap1\n      tag_65\n      jump\t// in\n    tag_64:\n      mload(0x40)\n      dup1\n      swap2\n      sub\n      swap1\n      return\n        /* \"Capstone/ForensicChain.sol\":2295:2393  function toggleSystemLock() external onlyCourt {... */\n    tag_9:\n      tag_66\n      tag_67\n      jump\t// in\n    tag_66:\n      stop\n        /* \"Capstone/ForensicChain.sol\":2572:3007  function fileFIR(string memory firId, string memory description) external notLocked onlyRole(Role.Officer) {... */\n    tag_10:\n      tag_68\n      0x04\n      dup1\n      calldatasize\n      sub\n      dup2\n      add\n      swap1\n      tag_69\n      swap2\n      swap1\n      tag_70\n      jump\t// in\n    tag_69:\n      tag_71\n      jump\t// in\n    tag_68:\n      stop\n        /* \"Capstone/ForensicChain.sol\":2401:2564  function setGlobalRole(address user, Role role) external onlyCourt {... */\n    tag_11:\n      tag_72\n      0x04\n      dup1\n      calldatasize\n      sub\n      dup2\n      add\n      swap1\n      tag_73\n      swap2\n      swap1\n      tag_74\n      jump\t// in\n    tag_73:\n      tag_75\n      jump\t// in\n    tag_72:\n      stop\n        /* \"Capstone/ForensicChain.sol\":7290:7545  function closeCase(string memory caseId) external onlyCourt {... */\n    tag_12:\n      tag_76\n      0x04\n      dup1\n      calldatasize\n      sub\n      dup2\n      add\n      swap1\n      tag_77\n      swap2\n      swap1\n      tag_48\n      jump\t// in\n    tag_77:\n      tag_78\n      jump\t// in\n    tag_76:\n      stop\n        /* \"Capstone/ForensicChain.sol\":901:921  address public owner */\n    tag_13:\n      tag_79\n      tag_80\n      jump\t// in\n    tag_79:\n      mload(0x40)\n      tag_81\n      swap2\n      swap1\n      tag_82\n      jump\t// in\n    tag_81:\n      mload(0x40)\n      dup1\n      swap2\n      sub\n      swap1\n      return\n        /* \"Capstone/ForensicChain.sol\":6979:7082  function sealCase(string memory caseId) external onlyCourt {... */\n    tag_14:\n      tag_83\n      0x04\n      dup1\n      calldatasize\n      sub\n      dup2\n      add\n      swap1\n      tag_84\n      swap2\n      swap1\n      tag_48\n      jump\t// in\n    tag_84:\n      tag_85\n      jump\t// in\n    tag_83:\n      stop\n        /* \"Capstone/ForensicChain.sol\":5290:5536  function assignCaseRole(string memory caseId, address user, Role role) external notLocked onlyCourt {... */\n    tag_15:\n      tag_86\n      0x04\n      dup1\n      calldatasize\n      sub\n      dup2\n      add\n      swap1\n      tag_87\n      swap2\n      swap1\n      tag_88\n      jump\t// in\n    tag_87:\n      tag_89\n      jump\t// in\n    tag_86:\n      stop\n        /* \"Capstone/ForensicChain.sol\":7931:8040  function getFIR(string memory firId) external view returns (FIR memory) {... */\n    tag_16:\n      tag_90\n      0x04\n      dup1\n      calldatasize\n      sub\n      dup2\n      add\n      swap1\n      tag_91\n      swap2\n      swap1\n      tag_48\n      jump\t// in\n    tag_91:\n      tag_92\n      jump\t// in\n    tag_90:\n      mload(0x40)\n      tag_93\n      swap2\n      swap1\n      tag_94\n      jump\t// in\n    tag_93:\n      mload(0x40)\n      dup1\n      swap2\n      sub\n      swap1\n      return\n        /* \"Capstone/ForensicChain.sol\":6589:6971  function confirmCaseEvidence(string memory caseId, uint index) external notLocked onlyCaseAssigned(caseId) {... */\n    tag_17:\n      tag_95\n      0x04\n      dup1\n      calldatasize\n      sub\n      dup2\n      add\n      swap1\n      tag_96\n      swap2\n      swap1\n      tag_44\n      jump\t// in\n    tag_96:\n      tag_97\n      jump\t// in\n    tag_95:\n      stop\n        /* \"Capstone/ForensicChain.sol\":1239:1282  mapping(bytes32 => bool) public usedCIDHash */\n    tag_18:\n      tag_98\n      0x04\n      dup1\n      calldatasize\n      sub\n      dup2\n      add\n      swap1\n      tag_99\n      swap2\n      swap1\n      tag_100\n      jump\t// in\n    tag_99:\n      tag_101\n      jump\t// in\n    tag_98:\n      mload(0x40)\n      tag_102\n      swap2\n      swap1\n      tag_41\n      jump\t// in\n    tag_102:\n      mload(0x40)\n      dup1\n      swap2\n      sub\n      swap1\n      return\n        /* \"Capstone/ForensicChain.sol\":1097:1157  mapping(string => mapping(address => Role)) public caseRoles */\n    tag_19:\n      tag_103\n      0x04\n      dup1\n      calldatasize\n      sub\n      dup2\n      add\n      swap1\n      tag_104\n      swap2\n      swap1\n      tag_38\n      jump\t// in\n    tag_104:\n      tag_105\n      jump\t// in\n    tag_103:\n      mload(0x40)\n      tag_106\n      swap2\n      swap1\n      tag_60\n      jump\t// in\n    tag_106:\n      mload(0x40)\n      dup1\n      swap2\n      sub\n      swap1\n      return\n        /* \"Capstone/ForensicChain.sol\":1289:1339  mapping(string => address[]) public caseAuditTrail */\n    tag_20:\n      tag_107\n      0x04\n      dup1\n      calldatasize\n      sub\n      dup2\n      add\n      swap1\n      tag_108\n      swap2\n      swap1\n      tag_44\n      jump\t// in\n    tag_108:\n      tag_109\n      jump\t// in\n    tag_107:\n      mload(0x40)\n      tag_110\n      swap2\n      swap1\n      tag_82\n      jump\t// in\n    tag_110:\n      mload(0x40)\n      dup1\n      swap2\n      sub\n      swap1\n      return\n        /* \"Capstone/ForensicChain.sol\":4424:5282  function createCaseFromFIR(... */\n    tag_21:\n      tag_111\n      0x04\n      dup1\n      calldatasize\n      sub\n      dup2\n      add\n      swap1\n      tag_112\n      swap2\n      swap1\n      tag_113\n      jump\t// in\n    tag_112:\n      tag_114\n      jump\t// in\n    tag_111:\n      stop\n        /* \"Capstone/ForensicChain.sol\":5544:6581  function submitCaseEvidence(... */\n    tag_22:\n      tag_115\n      0x04\n      dup1\n      calldatasize\n      sub\n      dup2\n      add\n      swap1\n      tag_116\n      swap2\n      swap1\n      tag_117\n      jump\t// in\n    tag_116:\n      tag_118\n      jump\t// in\n    tag_115:\n      stop\n        /* \"Capstone/ForensicChain.sol\":7692:7801  function getGlobalRole(address user) external view returns (Role) {... */\n    tag_23:\n      tag_119\n      0x04\n      dup1\n      calldatasize\n      sub\n      dup2\n      add\n      swap1\n      tag_120\n      swap2\n      swap1\n      tag_57\n      jump\t// in\n    tag_120:\n      tag_121\n      jump\t// in\n    tag_119:\n      mload(0x40)\n      tag_122\n      swap2\n      swap1\n      tag_60\n      jump\t// in\n    tag_122:\n      mload(0x40)\n      dup1\n      swap2\n      sub\n      swap1\n      return\n        /* \"Capstone/ForensicChain.sol\":3015:4197  function submitFIREvidence(... */\n    tag_24:\n      tag_123\n      0x04\n      dup1\n      calldatasize\n      sub\n      dup2\n      add\n      swap1\n      tag_124\n      swap2\n      swap1\n      tag_117\n      jump\t// in\n    tag_124:\n      tag_125\n      jump\t// in\n    tag_123:\n      stop\n        /* \"Capstone/ForensicChain.sol\":7809:7923  function getCase(string memory caseId) external view returns (Case memory) {... */\n    tag_25:\n      tag_126\n      0x04\n      dup1\n      calldatasize\n      sub\n      dup2\n      add\n      swap1\n      tag_127\n      swap2\n      swap1\n      tag_48\n      jump\t// in\n    tag_127:\n      tag_128\n      jump\t// in\n    tag_126:\n      mload(0x40)\n      tag_129\n      swap2\n      swap1\n      tag_130\n      jump\t// in\n    tag_129:\n      mload(0x40)\n      dup1\n      swap2\n      sub\n      swap1\n      return\n        /* \"Capstone/ForensicChain.sol\":928:954  bool public isSystemLocked */\n    tag_26:\n      tag_131\n      tag_132\n      jump\t// in\n    tag_131:\n      mload(0x40)\n      tag_133\n      swap2\n      swap1\n      tag_41\n      jump\t// in\n    tag_133:\n      mload(0x40)\n      dup1\n      swap2\n      sub\n      swap1\n      return\n        /* \"Capstone/ForensicChain.sol\":1054:1090  mapping(string => Case) public cases */\n    tag_27:\n      tag_134\n      0x04\n      dup1\n      calldatasize\n      sub\n      dup2\n      add\n      swap1\n      tag_135\n      swap2\n      swap1\n      tag_48\n      jump\t// in\n    tag_135:\n      tag_136\n      jump\t// in\n    tag_134:\n      mload(0x40)\n      tag_137\n      swap8\n      swap7\n      swap6\n      swap5\n      swap4\n      swap3\n      swap2\n      swap1\n      tag_138\n      jump\t// in\n    tag_137:\n      mload(0x40)\n      dup1\n      swap2\n      sub\n      swap1\n      return\n        /* \"Capstone/ForensicChain.sol\":1346:1430  mapping(string => mapping(uint => mapping(address => bool))) public evidenceAccessed */\n    tag_28:\n      tag_139\n      0x04\n      dup1\n      calldatasize\n      sub\n      dup2\n      add\n      swap1\n      tag_140\n      swap2\n      swap1\n      tag_141\n      jump\t// in\n    tag_140:\n      tag_142\n      jump\t// in\n    tag_139:\n      mload(0x40)\n      tag_143\n      swap2\n      swap1\n      tag_41\n      jump\t// in\n    tag_143:\n      mload(0x40)\n      dup1\n      swap2\n      sub\n      swap1\n      return\n        /* \"Capstone/ForensicChain.sol\":7553:7684  function getMyRoleInCase(string memory caseId) external view returns (Role) {... */\n    tag_29:\n      tag_144\n      0x04\n      dup1\n      calldatasize\n      sub\n      dup2\n      add\n      swap1\n      tag_145\n      swap2\n      swap1\n      tag_48\n      jump\t// in\n    tag_145:\n      tag_146\n      jump\t// in\n    tag_144:\n      mload(0x40)\n      tag_147\n      swap2\n      swap1\n      tag_60\n      jump\t// in\n    tag_147:\n      mload(0x40)\n      dup1\n      swap2\n      sub\n      swap1\n      return\n        /* \"Capstone/ForensicChain.sol\":1164:1232  mapping(string => mapping(address => bool)) public evidenceConfirmed */\n    tag_39:\n      0x05\n      dup3\n      dup1\n      mload\n      0x20\n      dup2\n      add\n      dup3\n      add\n      dup1\n      mload\n      dup5\n      dup3\n      mstore\n      0x20\n      dup4\n      add\n      0x20\n      dup6\n      add\n      keccak256\n      dup2\n      dup4\n      mstore\n      dup1\n      swap6\n      pop\n      pop\n      pop\n      pop\n      pop\n      pop\n      0x20\n      mstore\n      dup1\n      0x00\n      mstore\n      keccak256(0x00, 0x40)\n      0x00\n      swap2\n      pop\n      swap2\n      pop\n      swap1\n      sload\n      swap1\n      0x0100\n      exp\n      swap1\n      div\n      0xff\n      and\n      dup2\n      jump\t// out\n        /* \"Capstone/ForensicChain.sol\":8048:8361  function accessEvidenceLog(string memory caseId, uint index) external onlyCaseAssigned(caseId) {... */\n    tag_45:\n        /* \"Capstone/ForensicChain.sol\":8135:8141  caseId */\n      dup2\n        /* \"Capstone/ForensicChain.sol\":1869:1878  Role.None */\n      0x00\n        /* \"Capstone/ForensicChain.sol\":1836:1878  caseRoles[caseId][msg.sender] != Role.None */\n      0x04\n      dup2\n      gt\n      iszero\n      tag_149\n      jumpi\n      tag_150\n      tag_151\n      jump\t// in\n    tag_150:\n    tag_149:\n        /* \"Capstone/ForensicChain.sol\":1836:1845  caseRoles */\n      0x04\n        /* \"Capstone/ForensicChain.sol\":1846:1852  caseId */\n      dup3\n        /* \"Capstone/ForensicChain.sol\":1836:1853  caseRoles[caseId] */\n      mload(0x40)\n      tag_152\n      swap2\n      swap1\n      tag_153\n      jump\t// in\n    tag_152:\n      swap1\n      dup2\n      mstore\n      0x20\n      add\n      mload(0x40)\n      dup1\n      swap2\n      sub\n      swap1\n      keccak256\n        /* \"Capstone/ForensicChain.sol\":1836:1865  caseRoles[caseId][msg.sender] */\n      0x00\n        /* \"Capstone/ForensicChain.sol\":1854:1864  msg.sender */\n      caller\n        /* \"Capstone/ForensicChain.sol\":1836:1865  caseRoles[caseId][msg.sender] */\n      0xffffffffffffffffffffffffffffffffffffffff\n      and\n      0xffffffffffffffffffffffffffffffffffffffff\n      and\n      dup2\n      mstore\n      0x20\n      add\n      swap1\n      dup2\n      mstore\n      0x20\n      add\n      0x00\n      keccak256\n      0x00\n      swap1\n      sload\n      swap1\n      0x0100\n      exp\n      swap1\n      div\n      0xff\n      and\n        /* \"Capstone/ForensicChain.sol\":1836:1878  caseRoles[caseId][msg.sender] != Role.None */\n      0x04\n      dup2\n      gt\n      iszero\n      tag_154\n      jumpi\n      tag_155\n      tag_151\n      jump\t// in\n    tag_155:\n    tag_154:\n      sub\n        /* \"Capstone/ForensicChain.sol\":1828:1903  require(caseRoles[caseId][msg.sender] != Role.None, \"Not assigned to case\") */\n      tag_156\n      jumpi\n      mload(0x40)\n      0x08c379a000000000000000000000000000000000000000000000000000000000\n      dup2\n      mstore\n      0x04\n      add\n      tag_157\n      swap1\n      tag_158\n      jump\t// in\n    tag_157:\n      mload(0x40)\n      dup1\n      swap2\n      sub\n      swap1\n      revert\n    tag_156:\n        /* \"Capstone/ForensicChain.sol\":8170:8175  cases */\n      0x03\n        /* \"Capstone/ForensicChain.sol\":8176:8182  caseId */\n      dup4\n        /* \"Capstone/ForensicChain.sol\":8170:8183  cases[caseId] */\n      mload(0x40)\n      tag_160\n      swap2\n      swap1\n      tag_153\n      jump\t// in\n    tag_160:\n      swap1\n      dup2\n      mstore\n      0x20\n      add\n      mload(0x40)\n      dup1\n      swap2\n      sub\n      swap1\n      keccak256\n        /* \"Capstone/ForensicChain.sol\":8170:8197  cases[caseId].evidenceCount */\n      0x05\n      add\n      sload\n        /* \"Capstone/ForensicChain.sol\":8162:8167  index */\n      dup3\n        /* \"Capstone/ForensicChain.sol\":8162:8197  index < cases[caseId].evidenceCount */\n      lt\n        /* \"Capstone/ForensicChain.sol\":8154:8215  require(index < cases[caseId].evidenceCount, \"Invalid index\") */\n      tag_161\n      jumpi\n      mload(0x40)\n      0x08c379a000000000000000000000000000000000000000000000000000000000\n      dup2\n      mstore\n      0x04\n      add\n      tag_162\n      swap1\n      tag_163\n      jump\t// in\n    tag_162:\n      mload(0x40)\n      dup1\n      swap2\n      sub\n      swap1\n      revert\n    tag_161:\n        /* \"Capstone/ForensicChain.sol\":8272:8276  true */\n      0x01\n        /* \"Capstone/ForensicChain.sol\":8226:8242  evidenceAccessed */\n      0x08\n        /* \"Capstone/ForensicChain.sol\":8243:8249  caseId */\n      dup5\n        /* \"Capstone/ForensicChain.sol\":8226:8250  evidenceAccessed[caseId] */\n      mload(0x40)\n      tag_164\n      swap2\n      swap1\n      tag_153\n      jump\t// in\n    tag_164:\n      swap1\n      dup2\n      mstore\n      0x20\n      add\n      mload(0x40)\n      dup1\n      swap2\n      sub\n      swap1\n      keccak256\n        /* \"Capstone/ForensicChain.sol\":8226:8257  evidenceAccessed[caseId][index] */\n      0x00\n        /* \"Capstone/ForensicChain.sol\":8251:8256  index */\n      dup5\n        /* \"Capstone/ForensicChain.sol\":8226:8257  evidenceAccessed[caseId][index] */\n      dup2\n      mstore\n      0x20\n      add\n      swap1\n      dup2\n      mstore\n      0x20\n      add\n      0x00\n      keccak256\n        /* \"Capstone/ForensicChain.sol\":8226:8269  evidenceAccessed[caseId][index][msg.sender] */\n      0x00\n        /* \"Capstone/ForensicChain.sol\":8258:8268  msg.sender */\n      caller\n        /* \"Capstone/ForensicChain.sol\":8226:8269  evidenceAccessed[caseId][index][msg.sender] */\n      0xffffffffffffffffffffffffffffffffffffffff\n      and\n      0xffffffffffffffffffffffffffffffffffffffff\n      and\n      dup2\n      mstore\n      0x20\n      add\n      swap1\n      dup2\n      mstore\n      0x20\n      add\n      0x00\n      keccak256\n      0x00\n        /* \"Capstone/ForensicChain.sol\":8226:8276  evidenceAccessed[caseId][index][msg.sender] = true */\n      0x0100\n      exp\n      dup2\n      sload\n      dup2\n      0xff\n      mul\n      not\n      and\n      swap1\n      dup4\n      iszero\n      iszero\n      mul\n      or\n      swap1\n      sstore\n      pop\n        /* \"Capstone/ForensicChain.sol\":8287:8306  caseEvidenceMapping */\n      0x09\n        /* \"Capstone/ForensicChain.sol\":8307:8313  caseId */\n      dup4\n        /* \"Capstone/ForensicChain.sol\":8287:8314  caseEvidenceMapping[caseId] */\n      mload(0x40)\n      tag_165\n      swap2\n      swap1\n      tag_153\n      jump\t// in\n    tag_165:\n      swap1\n      dup2\n      mstore\n      0x20\n      add\n      mload(0x40)\n      dup1\n      swap2\n      sub\n      swap1\n      keccak256\n        /* \"Capstone/ForensicChain.sol\":8287:8321  caseEvidenceMapping[caseId][index] */\n      0x00\n        /* \"Capstone/ForensicChain.sol\":8315:8320  index */\n      dup4\n        /* \"Capstone/ForensicChain.sol\":8287:8321  caseEvidenceMapping[caseId][index] */\n      dup2\n      mstore\n      0x20\n      add\n      swap1\n      dup2\n      mstore\n      0x20\n      add\n      0x00\n      keccak256\n        /* \"Capstone/ForensicChain.sol\":8287:8336  caseEvidenceMapping[caseId][index].chainOfCustody */\n      0x05\n      add\n        /* \"Capstone/ForensicChain.sol\":8342:8352  msg.sender */\n      caller\n        /* \"Capstone/ForensicChain.sol\":8287:8353  caseEvidenceMapping[caseId][index].chainOfCustody.push(msg.sender) */\n      swap1\n      dup1\n      0x01\n      dup2\n      sload\n      add\n      dup1\n      dup3\n      sstore\n      dup1\n      swap2\n      pop\n      pop\n      0x01\n      swap1\n      sub\n      swap1\n      0x00\n      mstore\n      keccak256(0x00, 0x20)\n      add\n      0x00\n      swap1\n      swap2\n      swap1\n      swap2\n      swap1\n      swap2\n      0x0100\n      exp\n      dup2\n      sload\n      dup2\n      0xffffffffffffffffffffffffffffffffffffffff\n      mul\n      not\n      and\n      swap1\n      dup4\n      0xffffffffffffffffffffffffffffffffffffffff\n      and\n      mul\n      or\n      swap1\n      sstore\n      pop\n        /* \"Capstone/ForensicChain.sol\":8048:8361  function accessEvidenceLog(string memory caseId, uint index) external onlyCaseAssigned(caseId) {... */\n      pop\n      pop\n      pop\n      jump\t// out\n        /* \"Capstone/ForensicChain.sol\":1013:1047  mapping(string => FIR) public firs */\n    tag_49:\n      0x02\n      dup2\n      dup1\n      mload\n      0x20\n      dup2\n      add\n      dup3\n      add\n      dup1\n      mload\n      dup5\n      dup3\n      mstore\n      0x20\n      dup4\n      add\n      0x20\n      dup6\n      add\n      keccak256\n      dup2\n      dup4\n      mstore\n      dup1\n      swap6\n      pop\n      pop\n      pop\n      pop\n      pop\n      pop\n      0x00\n      swap2\n      pop\n      swap1\n      pop\n      dup1\n      0x00\n      add\n      dup1\n      sload\n      tag_167\n      swap1\n      tag_168\n      jump\t// in\n    tag_167:\n      dup1\n      0x1f\n      add\n      0x20\n      dup1\n      swap2\n      div\n      mul\n      0x20\n      add\n      mload(0x40)\n      swap1\n      dup2\n      add\n      0x40\n      mstore\n      dup1\n      swap3\n      swap2\n      swap1\n      dup2\n      dup2\n      mstore\n      0x20\n      add\n      dup3\n      dup1\n      sload\n      tag_169\n      swap1\n      tag_168\n      jump\t// in\n    tag_169:\n      dup1\n      iszero\n      tag_170\n      jumpi\n      dup1\n      0x1f\n      lt\n      tag_171\n      jumpi\n      0x0100\n      dup1\n      dup4\n      sload\n      div\n      mul\n      dup4\n      mstore\n      swap2\n      0x20\n      add\n      swap2\n      jump(tag_170)\n    tag_171:\n      dup3\n      add\n      swap2\n      swap1\n      0x00\n      mstore\n      keccak256(0x00, 0x20)\n      swap1\n    tag_172:\n      dup2\n      sload\n      dup2\n      mstore\n      swap1\n      0x01\n      add\n      swap1\n      0x20\n      add\n      dup1\n      dup4\n      gt\n      tag_172\n      jumpi\n      dup3\n      swap1\n      sub\n      0x1f\n      and\n      dup3\n      add\n      swap2\n    tag_170:\n      pop\n      pop\n      pop\n      pop\n      pop\n      swap1\n      dup1\n      0x01\n      add\n      0x00\n      swap1\n      sload\n      swap1\n      0x0100\n      exp\n      swap1\n      div\n      0xffffffffffffffffffffffffffffffffffffffff\n      and\n      swap1\n      dup1\n      0x02\n      add\n      dup1\n      sload\n      tag_173\n      swap1\n      tag_168\n      jump\t// in\n    tag_173:\n      dup1\n      0x1f\n      add\n      0x20\n      dup1\n      swap2\n      div\n      mul\n      0x20\n      add\n      mload(0x40)\n      swap1\n      dup2\n      add\n      0x40\n      mstore\n      dup1\n      swap3\n      swap2\n      swap1\n      dup2\n      dup2\n      mstore\n      0x20\n      add\n      dup3\n      dup1\n      sload\n      tag_174\n      swap1\n      tag_168\n      jump\t// in\n    tag_174:\n      dup1\n      iszero\n      tag_175\n      jumpi\n      dup1\n      0x1f\n      lt\n      tag_176\n      jumpi\n      0x0100\n      dup1\n      dup4\n      sload\n      div\n      mul\n      dup4\n      mstore\n      swap2\n      0x20\n      add\n      swap2\n      jump(tag_175)\n    tag_176:\n      dup3\n      add\n      swap2\n      swap1\n      0x00\n      mstore\n      keccak256(0x00, 0x20)\n      swap1\n    tag_177:\n      dup2\n      sload\n      dup2\n      mstore\n      swap1\n      0x01\n      add\n      swap1\n      0x20\n      add\n      dup1\n      dup4\n      gt\n      tag_177\n      jumpi\n      dup3\n      swap1\n      sub\n      0x1f\n      and\n      dup3\n      add\n      swap2\n    tag_175:\n      pop\n      pop\n      pop\n      pop\n      pop\n      swap1\n      dup1\n      0x03\n      add\n      sload\n      swap1\n      dup1\n      0x04\n      add\n      0x00\n      swap1\n      sload\n      swap1\n      0x0100\n      exp\n      swap1\n      div\n      0xff\n      and\n      swap1\n      dup1\n      0x05\n      add\n      dup1\n      sload\n      tag_178\n      swap1\n      tag_168\n      jump\t// in\n    tag_178:\n      dup1\n      0x1f\n      add\n      0x20\n      dup1\n      swap2\n      div\n      mul\n      0x20\n      add\n      mload(0x40)\n      swap1\n      dup2\n      add\n      0x40\n      mstore\n      dup1\n      swap3\n      swap2\n      swap1\n      dup2\n      dup2\n      mstore\n      0x20\n      add\n      dup3\n      dup1\n      sload\n      tag_179\n      swap1\n      tag_168\n      jump\t// in\n    tag_179:\n      dup1\n      iszero\n      tag_180\n      jumpi\n      dup1\n      0x1f\n      lt\n      tag_181\n      jumpi\n      0x0100\n      dup1\n      dup4\n      sload\n      div\n      mul\n      dup4\n      mstore\n      swap2\n      0x20\n      add\n      swap2\n      jump(tag_180)\n    tag_181:\n      dup3\n      add\n      swap2\n      swap1\n      0x00\n      mstore\n      keccak256(0x00, 0x20)\n      swap1\n    tag_182:\n      dup2\n      sload\n      dup2\n      mstore\n      swap1\n      0x01\n      add\n      swap1\n      0x20\n      add\n      dup1\n      dup4\n      gt\n      tag_182\n      jumpi\n      dup3\n      swap1\n      sub\n      0x1f\n      and\n      dup3\n      add\n      swap2\n    tag_180:\n      pop\n      pop\n      pop\n      pop\n      pop\n      swap1\n      pop\n      dup7\n      jump\t// out\n        /* \"Capstone/ForensicChain.sol\":7090:7282  function reopenCase(string memory caseId) external onlyCourt {... */\n    tag_54:\n        /* \"Capstone/ForensicChain.sol\":1716:1726  Role.Court */\n      0x01\n        /* \"Capstone/ForensicChain.sol\":1689:1726  globalRoles[msg.sender] == Role.Court */\n      0x04\n      dup2\n      gt\n      iszero\n      tag_184\n      jumpi\n      tag_185\n      tag_151\n      jump\t// in\n    tag_185:\n    tag_184:\n        /* \"Capstone/ForensicChain.sol\":1689:1700  globalRoles */\n      0x01\n        /* \"Capstone/ForensicChain.sol\":1689:1712  globalRoles[msg.sender] */\n      0x00\n        /* \"Capstone/ForensicChain.sol\":1701:1711  msg.sender */\n      caller\n        /* \"Capstone/ForensicChain.sol\":1689:1712  globalRoles[msg.sender] */\n      0xffffffffffffffffffffffffffffffffffffffff\n      and\n      0xffffffffffffffffffffffffffffffffffffffff\n      and\n      dup2\n      mstore\n      0x20\n      add\n      swap1\n      dup2\n      mstore\n      0x20\n      add\n      0x00\n      keccak256\n      0x00\n      swap1\n      sload\n      swap1\n      0x0100\n      exp\n      swap1\n      div\n      0xff\n      and\n        /* \"Capstone/ForensicChain.sol\":1689:1726  globalRoles[msg.sender] == Role.Court */\n      0x04\n      dup2\n      gt\n      iszero\n      tag_186\n      jumpi\n      tag_187\n      tag_151\n      jump\t// in\n    tag_187:\n    tag_186:\n      eq\n        /* \"Capstone/ForensicChain.sol\":1681:1741  require(globalRoles[msg.sender] == Role.Court, \"Only Court\") */\n      tag_188\n      jumpi\n      mload(0x40)\n      0x08c379a000000000000000000000000000000000000000000000000000000000\n      dup2\n      mstore\n      0x04\n      add\n      tag_189\n      swap1\n      tag_190\n      jump\t// in\n    tag_189:\n      mload(0x40)\n      dup1\n      swap2\n      sub\n      swap1\n      revert\n    tag_188:\n        /* \"Capstone/ForensicChain.sol\":7170:7175  cases */\n      0x03\n        /* \"Capstone/ForensicChain.sol\":7176:7182  caseId */\n      dup2\n        /* \"Capstone/ForensicChain.sol\":7170:7183  cases[caseId] */\n      mload(0x40)\n      tag_192\n      swap2\n      swap1\n      tag_153\n      jump\t// in\n    tag_192:\n      swap1\n      dup2\n      mstore\n      0x20\n      add\n      mload(0x40)\n      dup1\n      swap2\n      sub\n      swap1\n      keccak256\n        /* \"Capstone/ForensicChain.sol\":7170:7188  cases[caseId].seal */\n      0x03\n      add\n      0x14\n      swap1\n      sload\n      swap1\n      0x0100\n      exp\n      swap1\n      div\n      0xff\n      and\n        /* \"Capstone/ForensicChain.sol\":7162:7201  require(cases[caseId].seal, \"Not seal\") */\n      tag_193\n      jumpi\n      mload(0x40)\n      0x08c379a000000000000000000000000000000000000000000000000000000000\n      dup2\n      mstore\n      0x04\n      add\n      tag_194\n      swap1\n      tag_195\n      jump\t// in\n    tag_194:\n      mload(0x40)\n      dup1\n      swap2\n      sub\n      swap1\n      revert\n    tag_193:\n        /* \"Capstone/ForensicChain.sol\":7233:7238  false */\n      0x00\n        /* \"Capstone/ForensicChain.sol\":7212:7217  cases */\n      0x03\n        /* \"Capstone/ForensicChain.sol\":7218:7224  caseId */\n      dup3\n        /* \"Capstone/ForensicChain.sol\":7212:7225  cases[caseId] */\n      mload(0x40)\n      tag_196\n      swap2\n      swap1\n      tag_153\n      jump\t// in\n    tag_196:\n      swap1\n      dup2\n      mstore\n      0x20\n      add\n      mload(0x40)\n      dup1\n      swap2\n      sub\n      swap1\n      keccak256\n        /* \"Capstone/ForensicChain.sol\":7212:7230  cases[caseId].seal */\n      0x03\n      add\n      0x14\n        /* \"Capstone/ForensicChain.sol\":7212:7238  cases[caseId].seal = false */\n      0x0100\n      exp\n      dup2\n      sload\n      dup2\n      0xff\n      mul\n      not\n      and\n      swap1\n      dup4\n      iszero\n      iszero\n      mul\n      or\n      swap1\n      sstore\n      pop\n        /* \"Capstone/ForensicChain.sol\":7270:7274  true */\n      0x01\n        /* \"Capstone/ForensicChain.sol\":7249:7254  cases */\n      0x03\n        /* \"Capstone/ForensicChain.sol\":7255:7261  caseId */\n      dup3\n        /* \"Capstone/ForensicChain.sol\":7249:7262  cases[caseId] */\n      mload(0x40)\n      tag_197\n      swap2\n      swap1\n      tag_153\n      jump\t// in\n    tag_197:\n      swap1\n      dup2\n      mstore\n      0x20\n      add\n      mload(0x40)\n      dup1\n      swap2\n      sub\n      swap1\n      keccak256\n        /* \"Capstone/ForensicChain.sol\":7249:7267  cases[caseId].open */\n      0x03\n      add\n      0x15\n        /* \"Capstone/ForensicChain.sol\":7249:7274  cases[caseId].open = true */\n      0x0100\n      exp\n      dup2\n      sload\n      dup2\n      0xff\n      mul\n      not\n      and\n      swap1\n      dup4\n      iszero\n      iszero\n      mul\n      or\n      swap1\n      sstore\n      pop\n        /* \"Capstone/ForensicChain.sol\":7090:7282  function reopenCase(string memory caseId) external onlyCourt {... */\n      pop\n      jump\t// out\n        /* \"Capstone/ForensicChain.sol\":963:1006  mapping(address => Role) public globalRoles */\n    tag_58:\n      mstore(0x20, 0x01)\n      dup1\n      0x00\n      mstore\n      keccak256(0x00, 0x40)\n      0x00\n      swap2\n      pop\n      sload\n      swap1\n      0x0100\n      exp\n      swap1\n      div\n      0xff\n      and\n      dup2\n      jump\t// out\n        /* \"Capstone/ForensicChain.sol\":1437:1511  mapping(string => mapping(uint256 => Evidence)) public caseEvidenceMapping */\n    tag_63:\n      0x09\n      dup3\n      dup1\n      mload\n      0x20\n      dup2\n      add\n      dup3\n      add\n      dup1\n      mload\n      dup5\n      dup3\n      mstore\n      0x20\n      dup4\n      add\n      0x20\n      dup6\n      add\n      keccak256\n      dup2\n      dup4\n      mstore\n      dup1\n      swap6\n      pop\n      pop\n      pop\n      pop\n      pop\n      pop\n      0x20\n      mstore\n      dup1\n      0x00\n      mstore\n      keccak256(0x00, 0x40)\n      0x00\n      swap2\n      pop\n      swap2\n      pop\n      pop\n      dup1\n      0x00\n      add\n      dup1\n      sload\n      tag_198\n      swap1\n      tag_168\n      jump\t// in\n    tag_198:\n      dup1\n      0x1f\n      add\n      0x20\n      dup1\n      swap2\n      div\n      mul\n      0x20\n      add\n      mload(0x40)\n      swap1\n      dup2\n      add\n      0x40\n      mstore\n      dup1\n      swap3\n      swap2\n      swap1\n      dup2\n      dup2\n      mstore\n      0x20\n      add\n      dup3\n      dup1\n      sload\n      tag_199\n      swap1\n      tag_168\n      jump\t// in\n    tag_199:\n      dup1\n      iszero\n      tag_200\n      jumpi\n      dup1\n      0x1f\n      lt\n      tag_201\n      jumpi\n      0x0100\n      dup1\n      dup4\n      sload\n      div\n      mul\n      dup4\n      mstore\n      swap2\n      0x20\n      add\n      swap2\n      jump(tag_200)\n    tag_201:\n      dup3\n      add\n      swap2\n      swap1\n      0x00\n      mstore\n      keccak256(0x00, 0x20)\n      swap1\n    tag_202:\n      dup2\n      sload\n      dup2\n      mstore\n      swap1\n      0x01\n      add\n      swap1\n      0x20\n      add\n      dup1\n      dup4\n      gt\n      tag_202\n      jumpi\n      dup3\n      swap1\n      sub\n      0x1f\n      and\n      dup3\n      add\n      swap2\n    tag_200:\n      pop\n      pop\n      pop\n      pop\n      pop\n      swap1\n      dup1\n      0x01\n      add\n      dup1\n      sload\n      tag_203\n      swap1\n      tag_168\n      jump\t// in\n    tag_203:\n      dup1\n      0x1f\n      add\n      0x20\n      dup1\n      swap2\n      div\n      mul\n      0x20\n      add\n      mload(0x40)\n      swap1\n      dup2\n      add\n      0x40\n      mstore\n      dup1\n      swap3\n      swap2\n      swap1\n      dup2\n      dup2\n      mstore\n      0x20\n      add\n      dup3\n      dup1\n      sload\n      tag_204\n      swap1\n      tag_168\n      jump\t// in\n    tag_204:\n      dup1\n      iszero\n      tag_205\n      jumpi\n      dup1\n      0x1f\n      lt\n      tag_206\n      jumpi\n      0x0100\n      dup1\n      dup4\n      sload\n      div\n      mul\n      dup4\n      mstore\n      swap2\n      0x20\n      add\n      swap2\n      jump(tag_205)\n    tag_206:\n      dup3\n      add\n      swap2\n      swap1\n      0x00\n      mstore\n      keccak256(0x00, 0x20)\n      swap1\n    tag_207:\n      dup2\n      sload\n      dup2\n      mstore\n      swap1\n      0x01\n      add\n      swap1\n      0x20\n      add\n      dup1\n      dup4\n      gt\n      tag_207\n      jumpi\n      dup3\n      swap1\n      sub\n      0x1f\n      and\n      dup3\n      add\n      swap2\n    tag_205:\n      pop\n      pop\n      pop\n      pop\n      pop\n      swap1\n      dup1\n      0x02\n      add\n      dup1\n      sload\n      tag_208\n      swap1\n      tag_168\n      jump\t// in\n    tag_208:\n      dup1\n      0x1f\n      add\n      0x20\n      dup1\n      swap2\n      div\n      mul\n      0x20\n      add\n      mload(0x40)\n      swap1\n      dup2\n      add\n      0x40\n      mstore\n      dup1\n      swap3\n      swap2\n      swap1\n      dup2\n      dup2\n      mstore\n      0x20\n      add\n      dup3\n      dup1\n      sload\n      tag_209\n      swap1\n      tag_168\n      jump\t// in\n    tag_209:\n      dup1\n      iszero\n      tag_210\n      jumpi\n      dup1\n      0x1f\n      lt\n      tag_211\n      jumpi\n      0x0100\n      dup1\n      dup4\n      sload\n      div\n      mul\n      dup4\n      mstore\n      swap2\n      0x20\n      add\n      swap2\n      jump(tag_210)\n    tag_211:\n      dup3\n      add\n      swap2\n      swap1\n      0x00\n      mstore\n      keccak256(0x00, 0x20)\n      swap1\n    tag_212:\n      dup2\n      sload\n      dup2\n      mstore\n      swap1\n      0x01\n      add\n      swap1\n      0x20\n      add\n      dup1\n      dup4\n      gt\n      tag_212\n      jumpi\n      dup3\n      swap1\n      sub\n      0x1f\n      and\n      dup3\n      add\n      swap2\n    tag_210:\n      pop\n      pop\n      pop\n      pop\n      pop\n      swap1\n      dup1\n      0x03\n      add\n      0x00\n      swap1\n      sload\n      swap1\n      0x0100\n      exp\n      swap1\n      div\n      0xff\n      and\n      swap1\n      dup1\n      0x03\n      add\n      0x01\n      swap1\n      sload\n      swap1\n      0x0100\n      exp\n      swap1\n      div\n      0xffffffffffffffffffffffffffffffffffffffff\n      and\n      swap1\n      dup1\n      0x03\n      add\n      0x15\n      swap1\n      sload\n      swap1\n      0x0100\n      exp\n      swap1\n      div\n      0xff\n      and\n      swap1\n      dup1\n      0x04\n      add\n      sload\n      swap1\n      pop\n      dup8\n      jump\t// out\n        /* \"Capstone/ForensicChain.sol\":2295:2393  function toggleSystemLock() external onlyCourt {... */\n    tag_67:\n        /* \"Capstone/ForensicChain.sol\":1716:1726  Role.Court */\n      0x01\n        /* \"Capstone/ForensicChain.sol\":1689:1726  globalRoles[msg.sender] == Role.Court */\n      0x04\n      dup2\n      gt\n      iszero\n      tag_214\n      jumpi\n      tag_215\n      tag_151\n      jump\t// in\n    tag_215:\n    tag_214:\n        /* \"Capstone/ForensicChain.sol\":1689:1700  globalRoles */\n      0x01\n        /* \"Capstone/ForensicChain.sol\":1689:1712  globalRoles[msg.sender] */\n      0x00\n        /* \"Capstone/ForensicChain.sol\":1701:1711  msg.sender */\n      caller\n        /* \"Capstone/ForensicChain.sol\":1689:1712  globalRoles[msg.sender] */\n      0xffffffffffffffffffffffffffffffffffffffff\n      and\n      0xffffffffffffffffffffffffffffffffffffffff\n      and\n      dup2\n      mstore\n      0x20\n      add\n      swap1\n      dup2\n      mstore\n      0x20\n      add\n      0x00\n      keccak256\n      0x00\n      swap1\n      sload\n      swap1\n      0x0100\n      exp\n      swap1\n      div\n      0xff\n      and\n        /* \"Capstone/ForensicChain.sol\":1689:1726  globalRoles[msg.sender] == Role.Court */\n      0x04\n      dup2\n      gt\n      iszero\n      tag_216\n      jumpi\n      tag_217\n      tag_151\n      jump\t// in\n    tag_217:\n    tag_216:\n      eq\n        /* \"Capstone/ForensicChain.sol\":1681:1741  require(globalRoles[msg.sender] == Role.Court, \"Only Court\") */\n      tag_218\n      jumpi\n      mload(0x40)\n      0x08c379a000000000000000000000000000000000000000000000000000000000\n      dup2\n      mstore\n      0x04\n      add\n      tag_219\n      swap1\n      tag_190\n      jump\t// in\n    tag_219:\n      mload(0x40)\n      dup1\n      swap2\n      sub\n      swap1\n      revert\n    tag_218:\n        /* \"Capstone/ForensicChain.sol\":2371:2385  isSystemLocked */\n      0x00\n      0x14\n      swap1\n      sload\n      swap1\n      0x0100\n      exp\n      swap1\n      div\n      0xff\n      and\n        /* \"Capstone/ForensicChain.sol\":2370:2385  !isSystemLocked */\n      iszero\n        /* \"Capstone/ForensicChain.sol\":2353:2367  isSystemLocked */\n      0x00\n      0x14\n        /* \"Capstone/ForensicChain.sol\":2353:2385  isSystemLocked = !isSystemLocked */\n      0x0100\n      exp\n      dup2\n      sload\n      dup2\n      0xff\n      mul\n      not\n      and\n      swap1\n      dup4\n      iszero\n      iszero\n      mul\n      or\n      swap1\n      sstore\n      pop\n        /* \"Capstone/ForensicChain.sol\":2295:2393  function toggleSystemLock() external onlyCourt {... */\n      jump\t// out\n        /* \"Capstone/ForensicChain.sol\":2572:3007  function fileFIR(string memory firId, string memory description) external notLocked onlyRole(Role.Officer) {... */\n    tag_71:\n        /* \"Capstone/ForensicChain.sol\":2118:2132  isSystemLocked */\n      0x00\n      0x14\n      swap1\n      sload\n      swap1\n      0x0100\n      exp\n      swap1\n      div\n      0xff\n      and\n        /* \"Capstone/ForensicChain.sol\":2117:2132  !isSystemLocked */\n      iszero\n        /* \"Capstone/ForensicChain.sol\":2109:2161  require(!isSystemLocked, \"System in emergency lock\") */\n      tag_222\n      jumpi\n      mload(0x40)\n      0x08c379a000000000000000000000000000000000000000000000000000000000\n      dup2\n      mstore\n      0x04\n      add\n      tag_223\n      swap1\n      tag_224\n      jump\t// in\n    tag_223:\n      mload(0x40)\n      dup1\n      swap2\n      sub\n      swap1\n      revert\n    tag_222:\n        /* \"Capstone/ForensicChain.sol\":2665:2677  Role.Officer */\n      0x02\n        /* \"Capstone/ForensicChain.sol\":1595:1599  role */\n      dup1\n        /* \"Capstone/ForensicChain.sol\":1568:1599  globalRoles[msg.sender] == role */\n      0x04\n      dup2\n      gt\n      iszero\n      tag_226\n      jumpi\n      tag_227\n      tag_151\n      jump\t// in\n    tag_227:\n    tag_226:\n        /* \"Capstone/ForensicChain.sol\":1568:1579  globalRoles */\n      0x01\n        /* \"Capstone/ForensicChain.sol\":1568:1591  globalRoles[msg.sender] */\n      0x00\n        /* \"Capstone/ForensicChain.sol\":1580:1590  msg.sender */\n      caller\n        /* \"Capstone/ForensicChain.sol\":1568:1591  globalRoles[msg.sender] */\n      0xffffffffffffffffffffffffffffffffffffffff\n      and\n      0xffffffffffffffffffffffffffffffffffffffff\n      and\n      dup2\n      mstore\n      0x20\n      add\n      swap1\n      dup2\n      mstore\n      0x20\n      add\n      0x00\n      keccak256\n      0x00\n      swap1\n      sload\n      swap1\n      0x0100\n      exp\n      swap1\n      div\n      0xff\n      and\n        /* \"Capstone/ForensicChain.sol\":1568:1599  globalRoles[msg.sender] == role */\n      0x04\n      dup2\n      gt\n      iszero\n      tag_228\n      jumpi\n      tag_229\n      tag_151\n      jump\t// in\n    tag_229:\n    tag_228:\n      eq\n        /* \"Capstone/ForensicChain.sol\":1560:1621  require(globalRoles[msg.sender] == role, \"Unauthorized role\") */\n      tag_230\n      jumpi\n      mload(0x40)\n      0x08c379a000000000000000000000000000000000000000000000000000000000\n      dup2\n      mstore\n      0x04\n      add\n      tag_231\n      swap1\n      tag_232\n      jump\t// in\n    tag_231:\n      mload(0x40)\n      dup1\n      swap2\n      sub\n      swap1\n      revert\n    tag_230:\n        /* \"Capstone/ForensicChain.sol\":2729:2730  0 */\n      0x00\n        /* \"Capstone/ForensicChain.sol\":2698:2731  firs[firId].filedBy == address(0) */\n      0xffffffffffffffffffffffffffffffffffffffff\n      and\n        /* \"Capstone/ForensicChain.sol\":2698:2702  firs */\n      0x02\n        /* \"Capstone/ForensicChain.sol\":2703:2708  firId */\n      dup5\n        /* \"Capstone/ForensicChain.sol\":2698:2709  firs[firId] */\n      mload(0x40)\n      tag_234\n      swap2\n      swap1\n      tag_153\n      jump\t// in\n    tag_234:\n      swap1\n      dup2\n      mstore\n      0x20\n      add\n      mload(0x40)\n      dup1\n      swap2\n      sub\n      swap1\n      keccak256\n        /* \"Capstone/ForensicChain.sol\":2698:2717  firs[firId].filedBy */\n      0x01\n      add\n      0x00\n      swap1\n      sload\n      swap1\n      0x0100\n      exp\n      swap1\n      div\n      0xffffffffffffffffffffffffffffffffffffffff\n      and\n        /* \"Capstone/ForensicChain.sol\":2698:2731  firs[firId].filedBy == address(0) */\n      0xffffffffffffffffffffffffffffffffffffffff\n      and\n      eq\n        /* \"Capstone/ForensicChain.sol\":2690:2746  require(firs[firId].filedBy == address(0), \"FIR exists\") */\n      tag_235\n      jumpi\n      mload(0x40)\n      0x08c379a000000000000000000000000000000000000000000000000000000000\n      dup2\n      mstore\n      0x04\n      add\n      tag_236\n      swap1\n      tag_237\n      jump\t// in\n    tag_236:\n      mload(0x40)\n      dup1\n      swap2\n      sub\n      swap1\n      revert\n    tag_235:\n        /* \"Capstone/ForensicChain.sol\":2771:2999  FIR({... */\n      mload(0x40)\n      dup1\n      0xc0\n      add\n      0x40\n      mstore\n      dup1\n        /* \"Capstone/ForensicChain.sol\":2797:2802  firId */\n      dup5\n        /* \"Capstone/ForensicChain.sol\":2771:2999  FIR({... */\n      dup2\n      mstore\n      0x20\n      add\n        /* \"Capstone/ForensicChain.sol\":2826:2836  msg.sender */\n      caller\n        /* \"Capstone/ForensicChain.sol\":2771:2999  FIR({... */\n      0xffffffffffffffffffffffffffffffffffffffff\n      and\n      dup2\n      mstore\n      0x20\n      add\n        /* \"Capstone/ForensicChain.sol\":2864:2875  description */\n      dup4\n        /* \"Capstone/ForensicChain.sol\":2771:2999  FIR({... */\n      dup2\n      mstore\n      0x20\n      add\n        /* \"Capstone/ForensicChain.sol\":2901:2916  block.timestamp */\n      timestamp\n        /* \"Capstone/ForensicChain.sol\":2771:2999  FIR({... */\n      dup2\n      mstore\n      0x20\n      add\n        /* \"Capstone/ForensicChain.sol\":2947:2952  false */\n      0x00\n        /* \"Capstone/ForensicChain.sol\":2771:2999  FIR({... */\n      iszero\n      iszero\n      dup2\n      mstore\n      0x20\n      add\n      mload(0x40)\n      dup1\n      0x20\n      add\n      0x40\n      mstore\n      dup1\n      0x00\n      dup2\n      mstore\n      pop\n      dup2\n      mstore\n      pop\n        /* \"Capstone/ForensicChain.sol\":2757:2761  firs */\n      0x02\n        /* \"Capstone/ForensicChain.sol\":2762:2767  firId */\n      dup5\n        /* \"Capstone/ForensicChain.sol\":2757:2768  firs[firId] */\n      mload(0x40)\n      tag_238\n      swap2\n      swap1\n      tag_153\n      jump\t// in\n    tag_238:\n      swap1\n      dup2\n      mstore\n      0x20\n      add\n      mload(0x40)\n      dup1\n      swap2\n      sub\n      swap1\n      keccak256\n        /* \"Capstone/ForensicChain.sol\":2757:2999  firs[firId] = FIR({... */\n      0x00\n      dup3\n      add\n      mload\n      dup2\n      0x00\n      add\n      swap1\n      dup2\n      tag_239\n      swap2\n      swap1\n      tag_240\n      jump\t// in\n    tag_239:\n      pop\n      0x20\n      dup3\n      add\n      mload\n      dup2\n      0x01\n      add\n      exp(0x0100, 0x00)\n      dup2\n      sload\n      dup2\n      0xffffffffffffffffffffffffffffffffffffffff\n      mul\n      not\n      and\n      swap1\n      dup4\n      0xffffffffffffffffffffffffffffffffffffffff\n      and\n      mul\n      or\n      swap1\n      sstore\n      pop\n      0x40\n      dup3\n      add\n      mload\n      dup2\n      0x02\n      add\n      swap1\n      dup2\n      tag_241\n      swap2\n      swap1\n      tag_240\n      jump\t// in\n    tag_241:\n      pop\n      0x60\n      dup3\n      add\n      mload\n      dup2\n      0x03\n      add\n      sstore\n      0x80\n      dup3\n      add\n      mload\n      dup2\n      0x04\n      add\n      exp(0x0100, 0x00)\n      dup2\n      sload\n      dup2\n      0xff\n      mul\n      not\n      and\n      swap1\n      dup4\n      iszero\n      iszero\n      mul\n      or\n      swap1\n      sstore\n      pop\n      0xa0\n      dup3\n      add\n      mload\n      dup2\n      0x05\n      add\n      swap1\n      dup2\n      tag_242\n      swap2\n      swap1\n      tag_240\n      jump\t// in\n    tag_242:\n      pop\n      swap1\n      pop\n      pop\n        /* \"Capstone/ForensicChain.sol\":2172:2173  _ */\n      pop\n        /* \"Capstone/ForensicChain.sol\":2572:3007  function fileFIR(string memory firId, string memory description) external notLocked onlyRole(Role.Officer) {... */\n      pop\n      pop\n      jump\t// out\n        /* \"Capstone/ForensicChain.sol\":2401:2564  function setGlobalRole(address user, Role role) external onlyCourt {... */\n    tag_75:\n        /* \"Capstone/ForensicChain.sol\":1716:1726  Role.Court */\n      0x01\n        /* \"Capstone/ForensicChain.sol\":1689:1726  globalRoles[msg.sender] == Role.Court */\n      0x04\n      dup2\n      gt\n      iszero\n      tag_244\n      jumpi\n      tag_245\n      tag_151\n      jump\t// in\n    tag_245:\n    tag_244:\n        /* \"Capstone/ForensicChain.sol\":1689:1700  globalRoles */\n      0x01\n        /* \"Capstone/ForensicChain.sol\":1689:1712  globalRoles[msg.sender] */\n      0x00\n        /* \"Capstone/ForensicChain.sol\":1701:1711  msg.sender */\n      caller\n        /* \"Capstone/ForensicChain.sol\":1689:1712  globalRoles[msg.sender] */\n      0xffffffffffffffffffffffffffffffffffffffff\n      and\n      0xffffffffffffffffffffffffffffffffffffffff\n      and\n      dup2\n      mstore\n      0x20\n      add\n      swap1\n      dup2\n      mstore\n      0x20\n      add\n      0x00\n      keccak256\n      0x00\n      swap1\n      sload\n      swap1\n      0x0100\n      exp\n      swap1\n      div\n      0xff\n      and\n        /* \"Capstone/ForensicChain.sol\":1689:1726  globalRoles[msg.sender] == Role.Court */\n      0x04\n      dup2\n      gt\n      iszero\n      tag_246\n      jumpi\n      tag_247\n      tag_151\n      jump\t// in\n    tag_247:\n    tag_246:\n      eq\n        /* \"Capstone/ForensicChain.sol\":1681:1741  require(globalRoles[msg.sender] == Role.Court, \"Only Court\") */\n      tag_248\n      jumpi\n      mload(0x40)\n      0x08c379a000000000000000000000000000000000000000000000000000000000\n      dup2\n      mstore\n      0x04\n      add\n      tag_249\n      swap1\n      tag_190\n      jump\t// in\n    tag_249:\n      mload(0x40)\n      dup1\n      swap2\n      sub\n      swap1\n      revert\n    tag_248:\n        /* \"Capstone/ForensicChain.sol\":2495:2504  Role.None */\n      0x00\n        /* \"Capstone/ForensicChain.sol\":2487:2504  role != Role.None */\n      0x04\n      dup2\n      gt\n      iszero\n      tag_251\n      jumpi\n      tag_252\n      tag_151\n      jump\t// in\n    tag_252:\n    tag_251:\n        /* \"Capstone/ForensicChain.sol\":2487:2491  role */\n      dup2\n        /* \"Capstone/ForensicChain.sol\":2487:2504  role != Role.None */\n      0x04\n      dup2\n      gt\n      iszero\n      tag_253\n      jumpi\n      tag_254\n      tag_151\n      jump\t// in\n    tag_254:\n    tag_253:\n      sub\n        /* \"Capstone/ForensicChain.sol\":2479:2521  require(role != Role.None, \"Invalid role\") */\n      tag_255\n      jumpi\n      mload(0x40)\n      0x08c379a000000000000000000000000000000000000000000000000000000000\n      dup2\n      mstore\n      0x04\n      add\n      tag_256\n      swap1\n      tag_257\n      jump\t// in\n    tag_256:\n      mload(0x40)\n      dup1\n      swap2\n      sub\n      swap1\n      revert\n    tag_255:\n        /* \"Capstone/ForensicChain.sol\":2552:2556  role */\n      dup1\n        /* \"Capstone/ForensicChain.sol\":2532:2543  globalRoles */\n      0x01\n        /* \"Capstone/ForensicChain.sol\":2532:2549  globalRoles[user] */\n      0x00\n        /* \"Capstone/ForensicChain.sol\":2544:2548  user */\n      dup5\n        /* \"Capstone/ForensicChain.sol\":2532:2549  globalRoles[user] */\n      0xffffffffffffffffffffffffffffffffffffffff\n      and\n      0xffffffffffffffffffffffffffffffffffffffff\n      and\n      dup2\n      mstore\n      0x20\n      add\n      swap1\n      dup2\n      mstore\n      0x20\n      add\n      0x00\n      keccak256\n      0x00\n        /* \"Capstone/ForensicChain.sol\":2532:2556  globalRoles[user] = role */\n      0x0100\n      exp\n      dup2\n      sload\n      dup2\n      0xff\n      mul\n      not\n      and\n      swap1\n      dup4\n      0x04\n      dup2\n      gt\n      iszero\n      tag_258\n      jumpi\n      tag_259\n      tag_151\n      jump\t// in\n    tag_259:\n    tag_258:\n      mul\n      or\n      swap1\n      sstore\n      pop\n        /* \"Capstone/ForensicChain.sol\":2401:2564  function setGlobalRole(address user, Role role) external onlyCourt {... */\n      pop\n      pop\n      jump\t// out\n        /* \"Capstone/ForensicChain.sol\":7290:7545  function closeCase(string memory caseId) external onlyCourt {... */\n    tag_78:\n        /* \"Capstone/ForensicChain.sol\":1716:1726  Role.Court */\n      0x01\n        /* \"Capstone/ForensicChain.sol\":1689:1726  globalRoles[msg.sender] == Role.Court */\n      0x04\n      dup2\n      gt\n      iszero\n      tag_261\n      jumpi\n      tag_262\n      tag_151\n      jump\t// in\n    tag_262:\n    tag_261:\n        /* \"Capstone/ForensicChain.sol\":1689:1700  globalRoles */\n      0x01\n        /* \"Capstone/ForensicChain.sol\":1689:1712  globalRoles[msg.sender] */\n      0x00\n        /* \"Capstone/ForensicChain.sol\":1701:1711  msg.sender */\n      caller\n        /* \"Capstone/ForensicChain.sol\":1689:1712  globalRoles[msg.sender] */\n      0xffffffffffffffffffffffffffffffffffffffff\n      and\n      0xffffffffffffffffffffffffffffffffffffffff\n      and\n      dup2\n      mstore\n      0x20\n      add\n      swap1\n      dup2\n      mstore\n      0x20\n      add\n      0x00\n      keccak256\n      0x00\n      swap1\n      sload\n      swap1\n      0x0100\n      exp\n      swap1\n      div\n      0xff\n      and\n        /* \"Capstone/ForensicChain.sol\":1689:1726  globalRoles[msg.sender] == Role.Court */\n      0x04\n      dup2\n      gt\n      iszero\n      tag_263\n      jumpi\n      tag_264\n      tag_151\n      jump\t// in\n    tag_264:\n    tag_263:\n      eq\n        /* \"Capstone/ForensicChain.sol\":1681:1741  require(globalRoles[msg.sender] == Role.Court, \"Only Court\") */\n      tag_265\n      jumpi\n      mload(0x40)\n      0x08c379a000000000000000000000000000000000000000000000000000000000\n      dup2\n      mstore\n      0x04\n      add\n      tag_266\n      swap1\n      tag_190\n      jump\t// in\n    tag_266:\n      mload(0x40)\n      dup1\n      swap2\n      sub\n      swap1\n      revert\n    tag_265:\n        /* \"Capstone/ForensicChain.sol\":7382:7387  false */\n      0x00\n        /* \"Capstone/ForensicChain.sol\":7361:7366  cases */\n      0x03\n        /* \"Capstone/ForensicChain.sol\":7367:7373  caseId */\n      dup3\n        /* \"Capstone/ForensicChain.sol\":7361:7374  cases[caseId] */\n      mload(0x40)\n      tag_268\n      swap2\n      swap1\n      tag_153\n      jump\t// in\n    tag_268:\n      swap1\n      dup2\n      mstore\n      0x20\n      add\n      mload(0x40)\n      dup1\n      swap2\n      sub\n      swap1\n      keccak256\n        /* \"Capstone/ForensicChain.sol\":7361:7379  cases[caseId].open */\n      0x03\n      add\n      0x15\n        /* \"Capstone/ForensicChain.sol\":7361:7387  cases[caseId].open = false */\n      0x0100\n      exp\n      dup2\n      sload\n      dup2\n      0xff\n      mul\n      not\n      and\n      swap1\n      dup4\n      iszero\n      iszero\n      mul\n      or\n      swap1\n      sstore\n      pop\n        /* \"Capstone/ForensicChain.sol\":7403:7409  uint i */\n      0x00\n        /* \"Capstone/ForensicChain.sol\":7412:7413  0 */\n      0x00\n        /* \"Capstone/ForensicChain.sol\":7403:7413  uint i = 0 */\n      swap1\n      pop\n        /* \"Capstone/ForensicChain.sol\":7398:7538  for (uint i = 0; i < caseAuditTrail[caseId].length; i++) {... */\n    tag_269:\n        /* \"Capstone/ForensicChain.sol\":7419:7433  caseAuditTrail */\n      0x07\n        /* \"Capstone/ForensicChain.sol\":7434:7440  caseId */\n      dup3\n        /* \"Capstone/ForensicChain.sol\":7419:7441  caseAuditTrail[caseId] */\n      mload(0x40)\n      tag_272\n      swap2\n      swap1\n      tag_153\n      jump\t// in\n    tag_272:\n      swap1\n      dup2\n      mstore\n      0x20\n      add\n      mload(0x40)\n      dup1\n      swap2\n      sub\n      swap1\n      keccak256\n        /* \"Capstone/ForensicChain.sol\":7419:7448  caseAuditTrail[caseId].length */\n      dup1\n      sload\n      swap1\n      pop\n        /* \"Capstone/ForensicChain.sol\":7415:7416  i */\n      dup2\n        /* \"Capstone/ForensicChain.sol\":7415:7448  i < caseAuditTrail[caseId].length */\n      lt\n        /* \"Capstone/ForensicChain.sol\":7398:7538  for (uint i = 0; i < caseAuditTrail[caseId].length; i++) {... */\n      iszero\n      tag_270\n      jumpi\n        /* \"Capstone/ForensicChain.sol\":7517:7526  Role.None */\n      0x00\n        /* \"Capstone/ForensicChain.sol\":7470:7479  caseRoles */\n      0x04\n        /* \"Capstone/ForensicChain.sol\":7480:7486  caseId */\n      dup4\n        /* \"Capstone/ForensicChain.sol\":7470:7487  caseRoles[caseId] */\n      mload(0x40)\n      tag_273\n      swap2\n      swap1\n      tag_153\n      jump\t// in\n    tag_273:\n      swap1\n      dup2\n      mstore\n      0x20\n      add\n      mload(0x40)\n      dup1\n      swap2\n      sub\n      swap1\n      keccak256\n        /* \"Capstone/ForensicChain.sol\":7470:7514  caseRoles[caseId][caseAuditTrail[caseId][i]] */\n      0x00\n        /* \"Capstone/ForensicChain.sol\":7488:7502  caseAuditTrail */\n      0x07\n        /* \"Capstone/ForensicChain.sol\":7503:7509  caseId */\n      dup6\n        /* \"Capstone/ForensicChain.sol\":7488:7510  caseAuditTrail[caseId] */\n      mload(0x40)\n      tag_274\n      swap2\n      swap1\n      tag_153\n      jump\t// in\n    tag_274:\n      swap1\n      dup2\n      mstore\n      0x20\n      add\n      mload(0x40)\n      dup1\n      swap2\n      sub\n      swap1\n      keccak256\n        /* \"Capstone/ForensicChain.sol\":7511:7512  i */\n      dup5\n        /* \"Capstone/ForensicChain.sol\":7488:7513  caseAuditTrail[caseId][i] */\n      dup2\n      sload\n      dup2\n      lt\n      tag_275\n      jumpi\n      tag_276\n      tag_277\n      jump\t// in\n    tag_276:\n    tag_275:\n      swap1\n      0x00\n      mstore\n      keccak256(0x00, 0x20)\n      add\n      0x00\n      swap1\n      sload\n      swap1\n      0x0100\n      exp\n      swap1\n      div\n      0xffffffffffffffffffffffffffffffffffffffff\n      and\n        /* \"Capstone/ForensicChain.sol\":7470:7514  caseRoles[caseId][caseAuditTrail[caseId][i]] */\n      0xffffffffffffffffffffffffffffffffffffffff\n      and\n      0xffffffffffffffffffffffffffffffffffffffff\n      and\n      dup2\n      mstore\n      0x20\n      add\n      swap1\n      dup2\n      mstore\n      0x20\n      add\n      0x00\n      keccak256\n      0x00\n        /* \"Capstone/ForensicChain.sol\":7470:7526  caseRoles[caseId][caseAuditTrail[caseId][i]] = Role.None */\n      0x0100\n      exp\n      dup2\n      sload\n      dup2\n      0xff\n      mul\n      not\n      and\n      swap1\n      dup4\n      0x04\n      dup2\n      gt\n      iszero\n      tag_279\n      jumpi\n      tag_280\n      tag_151\n      jump\t// in\n    tag_280:\n    tag_279:\n      mul\n      or\n      swap1\n      sstore\n      pop\n        /* \"Capstone/ForensicChain.sol\":7450:7453  i++ */\n      dup1\n      dup1\n      0x01\n      add\n      swap2\n      pop\n      pop\n        /* \"Capstone/ForensicChain.sol\":7398:7538  for (uint i = 0; i < caseAuditTrail[caseId].length; i++) {... */\n      jump(tag_269)\n    tag_270:\n      pop\n        /* \"Capstone/ForensicChain.sol\":7290:7545  function closeCase(string memory caseId) external onlyCourt {... */\n      pop\n      jump\t// out\n        /* \"Capstone/ForensicChain.sol\":901:921  address public owner */\n    tag_80:\n      0x00\n      0x00\n      swap1\n      sload\n      swap1\n      0x0100\n      exp\n      swap1\n      div\n      0xffffffffffffffffffffffffffffffffffffffff\n      and\n      dup2\n      jump\t// out\n        /* \"Capstone/ForensicChain.sol\":6979:7082  function sealCase(string memory caseId) external onlyCourt {... */\n    tag_85:\n        /* \"Capstone/ForensicChain.sol\":1716:1726  Role.Court */\n      0x01\n        /* \"Capstone/ForensicChain.sol\":1689:1726  globalRoles[msg.sender] == Role.Court */\n      0x04\n      dup2\n      gt\n      iszero\n      tag_282\n      jumpi\n      tag_283\n      tag_151\n      jump\t// in\n    tag_283:\n    tag_282:\n        /* \"Capstone/ForensicChain.sol\":1689:1700  globalRoles */\n      0x01\n        /* \"Capstone/ForensicChain.sol\":1689:1712  globalRoles[msg.sender] */\n      0x00\n        /* \"Capstone/ForensicChain.sol\":1701:1711  msg.sender */\n      caller\n        /* \"Capstone/ForensicChain.sol\":1689:1712  globalRoles[msg.sender] */\n      0xffffffffffffffffffffffffffffffffffffffff\n      and\n      0xffffffffffffffffffffffffffffffffffffffff\n      and\n      dup2\n      mstore\n      0x20\n      add\n      swap1\n      dup2\n      mstore\n      0x20\n      add\n      0x00\n      keccak256\n      0x00\n      swap1\n      sload\n      swap1\n      0x0100\n      exp\n      swap1\n      div\n      0xff\n      and\n        /* \"Capstone/ForensicChain.sol\":1689:1726  globalRoles[msg.sender] == Role.Court */\n      0x04\n      dup2\n      gt\n      iszero\n      tag_284\n      jumpi\n      tag_285\n      tag_151\n      jump\t// in\n    tag_285:\n    tag_284:\n      eq\n        /* \"Capstone/ForensicChain.sol\":1681:1741  require(globalRoles[msg.sender] == Role.Court, \"Only Court\") */\n      tag_286\n      jumpi\n      mload(0x40)\n      0x08c379a000000000000000000000000000000000000000000000000000000000\n      dup2\n      mstore\n      0x04\n      add\n      tag_287\n      swap1\n      tag_190\n      jump\t// in\n    tag_287:\n      mload(0x40)\n      dup1\n      swap2\n      sub\n      swap1\n      revert\n    tag_286:\n        /* \"Capstone/ForensicChain.sol\":7070:7074  true */\n      0x01\n        /* \"Capstone/ForensicChain.sol\":7049:7054  cases */\n      0x03\n        /* \"Capstone/ForensicChain.sol\":7055:7061  caseId */\n      dup3\n        /* \"Capstone/ForensicChain.sol\":7049:7062  cases[caseId] */\n      mload(0x40)\n      tag_289\n      swap2\n      swap1\n      tag_153\n      jump\t// in\n    tag_289:\n      swap1\n      dup2\n      mstore\n      0x20\n      add\n      mload(0x40)\n      dup1\n      swap2\n      sub\n      swap1\n      keccak256\n        /* \"Capstone/ForensicChain.sol\":7049:7067  cases[caseId].seal */\n      0x03\n      add\n      0x14\n        /* \"Capstone/ForensicChain.sol\":7049:7074  cases[caseId].seal = true */\n      0x0100\n      exp\n      dup2\n      sload\n      dup2\n      0xff\n      mul\n      not\n      and\n      swap1\n      dup4\n      iszero\n      iszero\n      mul\n      or\n      swap1\n      sstore\n      pop\n        /* \"Capstone/ForensicChain.sol\":6979:7082  function sealCase(string memory caseId) external onlyCourt {... */\n      pop\n      jump\t// out\n        /* \"Capstone/ForensicChain.sol\":5290:5536  function assignCaseRole(string memory caseId, address user, Role role) external notLocked onlyCourt {... */\n    tag_89:\n        /* \"Capstone/ForensicChain.sol\":2118:2132  isSystemLocked */\n      0x00\n      0x14\n      swap1\n      sload\n      swap1\n      0x0100\n      exp\n      swap1\n      div\n      0xff\n      and\n        /* \"Capstone/ForensicChain.sol\":2117:2132  !isSystemLocked */\n      iszero\n        /* \"Capstone/ForensicChain.sol\":2109:2161  require(!isSystemLocked, \"System in emergency lock\") */\n      tag_291\n      jumpi\n      mload(0x40)\n      0x08c379a000000000000000000000000000000000000000000000000000000000\n      dup2\n      mstore\n      0x04\n      add\n      tag_292\n      swap1\n      tag_224\n      jump\t// in\n    tag_292:\n      mload(0x40)\n      dup1\n      swap2\n      sub\n      swap1\n      revert\n    tag_291:\n        /* \"Capstone/ForensicChain.sol\":1716:1726  Role.Court */\n      0x01\n        /* \"Capstone/ForensicChain.sol\":1689:1726  globalRoles[msg.sender] == Role.Court */\n      0x04\n      dup2\n      gt\n      iszero\n      tag_294\n      jumpi\n      tag_295\n      tag_151\n      jump\t// in\n    tag_295:\n    tag_294:\n        /* \"Capstone/ForensicChain.sol\":1689:1700  globalRoles */\n      0x01\n        /* \"Capstone/ForensicChain.sol\":1689:1712  globalRoles[msg.sender] */\n      0x00\n        /* \"Capstone/ForensicChain.sol\":1701:1711  msg.sender */\n      caller\n        /* \"Capstone/ForensicChain.sol\":1689:1712  globalRoles[msg.sender] */\n      0xffffffffffffffffffffffffffffffffffffffff\n      and\n      0xffffffffffffffffffffffffffffffffffffffff\n      and\n      dup2\n      mstore\n      0x20\n      add\n      swap1\n      dup2\n      mstore\n      0x20\n      add\n      0x00\n      keccak256\n      0x00\n      swap1\n      sload\n      swap1\n      0x0100\n      exp\n      swap1\n      div\n      0xff\n      and\n        /* \"Capstone/ForensicChain.sol\":1689:1726  globalRoles[msg.sender] == Role.Court */\n      0x04\n      dup2\n      gt\n      iszero\n      tag_296\n      jumpi\n      tag_297\n      tag_151\n      jump\t// in\n    tag_297:\n    tag_296:\n      eq\n        /* \"Capstone/ForensicChain.sol\":1681:1741  require(globalRoles[msg.sender] == Role.Court, \"Only Court\") */\n      tag_298\n      jumpi\n      mload(0x40)\n      0x08c379a000000000000000000000000000000000000000000000000000000000\n      dup2\n      mstore\n      0x04\n      add\n      tag_299\n      swap1\n      tag_190\n      jump\t// in\n    tag_299:\n      mload(0x40)\n      dup1\n      swap2\n      sub\n      swap1\n      revert\n    tag_298:\n        /* \"Capstone/ForensicChain.sol\":5417:5426  Role.None */\n      0x00\n        /* \"Capstone/ForensicChain.sol\":5409:5426  role != Role.None */\n      0x04\n      dup2\n      gt\n      iszero\n      tag_301\n      jumpi\n      tag_302\n      tag_151\n      jump\t// in\n    tag_302:\n    tag_301:\n        /* \"Capstone/ForensicChain.sol\":5409:5413  role */\n      dup2\n        /* \"Capstone/ForensicChain.sol\":5409:5426  role != Role.None */\n      0x04\n      dup2\n      gt\n      iszero\n      tag_303\n      jumpi\n      tag_304\n      tag_151\n      jump\t// in\n    tag_304:\n    tag_303:\n      sub\n        /* \"Capstone/ForensicChain.sol\":5401:5443  require(role != Role.None, \"Invalid role\") */\n      tag_305\n      jumpi\n      mload(0x40)\n      0x08c379a000000000000000000000000000000000000000000000000000000000\n      dup2\n      mstore\n      0x04\n      add\n      tag_306\n      swap1\n      tag_257\n      jump\t// in\n    tag_306:\n      mload(0x40)\n      dup1\n      swap2\n      sub\n      swap1\n      revert\n    tag_305:\n        /* \"Capstone/ForensicChain.sol\":5480:5484  role */\n      dup1\n        /* \"Capstone/ForensicChain.sol\":5454:5463  caseRoles */\n      0x04\n        /* \"Capstone/ForensicChain.sol\":5464:5470  caseId */\n      dup5\n        /* \"Capstone/ForensicChain.sol\":5454:5471  caseRoles[caseId] */\n      mload(0x40)\n      tag_307\n      swap2\n      swap1\n      tag_153\n      jump\t// in\n    tag_307:\n      swap1\n      dup2\n      mstore\n      0x20\n      add\n      mload(0x40)\n      dup1\n      swap2\n      sub\n      swap1\n      keccak256\n        /* \"Capstone/ForensicChain.sol\":5454:5477  caseRoles[caseId][user] */\n      0x00\n        /* \"Capstone/ForensicChain.sol\":5472:5476  user */\n      dup5\n        /* \"Capstone/ForensicChain.sol\":5454:5477  caseRoles[caseId][user] */\n      0xffffffffffffffffffffffffffffffffffffffff\n      and\n      0xffffffffffffffffffffffffffffffffffffffff\n      and\n      dup2\n      mstore\n      0x20\n      add\n      swap1\n      dup2\n      mstore\n      0x20\n      add\n      0x00\n      keccak256\n      0x00\n        /* \"Capstone/ForensicChain.sol\":5454:5484  caseRoles[caseId][user] = role */\n      0x0100\n      exp\n      dup2\n      sload\n      dup2\n      0xff\n      mul\n      not\n      and\n      swap1\n      dup4\n      0x04\n      dup2\n      gt\n      iszero\n      tag_308\n      jumpi\n      tag_309\n      tag_151\n      jump\t// in\n    tag_309:\n    tag_308:\n      mul\n      or\n      swap1\n      sstore\n      pop\n        /* \"Capstone/ForensicChain.sol\":5495:5509  caseAuditTrail */\n      0x07\n        /* \"Capstone/ForensicChain.sol\":5510:5516  caseId */\n      dup4\n        /* \"Capstone/ForensicChain.sol\":5495:5517  caseAuditTrail[caseId] */\n      mload(0x40)\n      tag_310\n      swap2\n      swap1\n      tag_153\n      jump\t// in\n    tag_310:\n      swap1\n      dup2\n      mstore\n      0x20\n      add\n      mload(0x40)\n      dup1\n      swap2\n      sub\n      swap1\n      keccak256\n        /* \"Capstone/ForensicChain.sol\":5523:5527  user */\n      dup3\n        /* \"Capstone/ForensicChain.sol\":5495:5528  caseAuditTrail[caseId].push(user) */\n      swap1\n      dup1\n      0x01\n      dup2\n      sload\n      add\n      dup1\n      dup3\n      sstore\n      dup1\n      swap2\n      pop\n      pop\n      0x01\n      swap1\n      sub\n      swap1\n      0x00\n      mstore\n      keccak256(0x00, 0x20)\n      add\n      0x00\n      swap1\n      swap2\n      swap1\n      swap2\n      swap1\n      swap2\n      0x0100\n      exp\n      dup2\n      sload\n      dup2\n      0xffffffffffffffffffffffffffffffffffffffff\n      mul\n      not\n      and\n      swap1\n      dup4\n      0xffffffffffffffffffffffffffffffffffffffff\n      and\n      mul\n      or\n      swap1\n      sstore\n      pop\n        /* \"Capstone/ForensicChain.sol\":5290:5536  function assignCaseRole(string memory caseId, address user, Role role) external notLocked onlyCourt {... */\n      pop\n      pop\n      pop\n      jump\t// out\n        /* \"Capstone/ForensicChain.sol\":7931:8040  function getFIR(string memory firId) external view returns (FIR memory) {... */\n    tag_92:\n        /* \"Capstone/ForensicChain.sol\":7991:8001  FIR memory */\n      tag_312\n      tag_313\n      jump\t// in\n    tag_312:\n        /* \"Capstone/ForensicChain.sol\":8021:8025  firs */\n      0x02\n        /* \"Capstone/ForensicChain.sol\":8026:8031  firId */\n      dup3\n        /* \"Capstone/ForensicChain.sol\":8021:8032  firs[firId] */\n      mload(0x40)\n      tag_315\n      swap2\n      swap1\n      tag_153\n      jump\t// in\n    tag_315:\n      swap1\n      dup2\n      mstore\n      0x20\n      add\n      mload(0x40)\n      dup1\n      swap2\n      sub\n      swap1\n      keccak256\n        /* \"Capstone/ForensicChain.sol\":8014:8032  return firs[firId] */\n      mload(0x40)\n      dup1\n      0xc0\n      add\n      0x40\n      mstore\n      swap1\n      dup2\n      0x00\n      dup3\n      add\n      dup1\n      sload\n      tag_316\n      swap1\n      tag_168\n      jump\t// in\n    tag_316:\n      dup1\n      0x1f\n      add\n      0x20\n      dup1\n      swap2\n      div\n      mul\n      0x20\n      add\n      mload(0x40)\n      swap1\n      dup2\n      add\n      0x40\n      mstore\n      dup1\n      swap3\n      swap2\n      swap1\n      dup2\n      dup2\n      mstore\n      0x20\n      add\n      dup3\n      dup1\n      sload\n      tag_317\n      swap1\n      tag_168\n      jump\t// in\n    tag_317:\n      dup1\n      iszero\n      tag_318\n      jumpi\n      dup1\n      0x1f\n      lt\n      tag_319\n      jumpi\n      0x0100\n      dup1\n      dup4\n      sload\n      div\n      mul\n      dup4\n      mstore\n      swap2\n      0x20\n      add\n      swap2\n      jump(tag_318)\n    tag_319:\n      dup3\n      add\n      swap2\n      swap1\n      0x00\n      mstore\n      keccak256(0x00, 0x20)\n      swap1\n    tag_320:\n      dup2\n      sload\n      dup2\n      mstore\n      swap1\n      0x01\n      add\n      swap1\n      0x20\n      add\n      dup1\n      dup4\n      gt\n      tag_320\n      jumpi\n      dup3\n      swap1\n      sub\n      0x1f\n      and\n      dup3\n      add\n      swap2\n    tag_318:\n      pop\n      pop\n      pop\n      pop\n      pop\n      dup2\n      mstore\n      0x20\n      add\n      0x01\n      dup3\n      add\n      0x00\n      swap1\n      sload\n      swap1\n      0x0100\n      exp\n      swap1\n      div\n      0xffffffffffffffffffffffffffffffffffffffff\n      and\n      0xffffffffffffffffffffffffffffffffffffffff\n      and\n      0xffffffffffffffffffffffffffffffffffffffff\n      and\n      dup2\n      mstore\n      0x20\n      add\n      0x02\n      dup3\n      add\n      dup1\n      sload\n      tag_321\n      swap1\n      tag_168\n      jump\t// in\n    tag_321:\n      dup1\n      0x1f\n      add\n      0x20\n      dup1\n      swap2\n      div\n      mul\n      0x20\n      add\n      mload(0x40)\n      swap1\n      dup2\n      add\n      0x40\n      mstore\n      dup1\n      swap3\n      swap2\n      swap1\n      dup2\n      dup2\n      mstore\n      0x20\n      add\n      dup3\n      dup1\n      sload\n      tag_322\n      swap1\n      tag_168\n      jump\t// in\n    tag_322:\n      dup1\n      iszero\n      tag_323\n      jumpi\n      dup1\n      0x1f\n      lt\n      tag_324\n      jumpi\n      0x0100\n      dup1\n      dup4\n      sload\n      div\n      mul\n      dup4\n      mstore\n      swap2\n      0x20\n      add\n      swap2\n      jump(tag_323)\n    tag_324:\n      dup3\n      add\n      swap2\n      swap1\n      0x00\n      mstore\n      keccak256(0x00, 0x20)\n      swap1\n    tag_325:\n      dup2\n      sload\n      dup2\n      mstore\n      swap1\n      0x01\n      add\n      swap1\n      0x20\n      add\n      dup1\n      dup4\n      gt\n      tag_325\n      jumpi\n      dup3\n      swap1\n      sub\n      0x1f\n      and\n      dup3\n      add\n      swap2\n    tag_323:\n      pop\n      pop\n      pop\n      pop\n      pop\n      dup2\n      mstore\n      0x20\n      add\n      0x03\n      dup3\n      add\n      sload\n      dup2\n      mstore\n      0x20\n      add\n      0x04\n      dup3\n      add\n      0x00\n      swap1\n      sload\n      swap1\n      0x0100\n      exp\n      swap1\n      div\n      0xff\n      and\n      iszero\n      iszero\n      iszero\n      iszero\n      dup2\n      mstore\n      0x20\n      add\n      0x05\n      dup3\n      add\n      dup1\n      sload\n      tag_326\n      swap1\n      tag_168\n      jump\t// in\n    tag_326:\n      dup1\n      0x1f\n      add\n      0x20\n      dup1\n      swap2\n      div\n      mul\n      0x20\n      add\n      mload(0x40)\n      swap1\n      dup2\n      add\n      0x40\n      mstore\n      dup1\n      swap3\n      swap2\n      swap1\n      dup2\n      dup2\n      mstore\n      0x20\n      add\n      dup3\n      dup1\n      sload\n      tag_327\n      swap1\n      tag_168\n      jump\t// in\n    tag_327:\n      dup1\n      iszero\n      tag_328\n      jumpi\n      dup1\n      0x1f\n      lt\n      tag_329\n      jumpi\n      0x0100\n      dup1\n      dup4\n      sload\n      div\n      mul\n      dup4\n      mstore\n      swap2\n      0x20\n      add\n      swap2\n      jump(tag_328)\n    tag_329:\n      dup3\n      add\n      swap2\n      swap1\n      0x00\n      mstore\n      keccak256(0x00, 0x20)\n      swap1\n    tag_330:\n      dup2\n      sload\n      dup2\n      mstore\n      swap1\n      0x01\n      add\n      swap1\n      0x20\n      add\n      dup1\n      dup4\n      gt\n      tag_330\n      jumpi\n      dup3\n      swap1\n      sub\n      0x1f\n      and\n      dup3\n      add\n      swap2\n    tag_328:\n      pop\n      pop\n      pop\n      pop\n      pop\n      dup2\n      mstore\n      pop\n      pop\n      swap1\n      pop\n        /* \"Capstone/ForensicChain.sol\":7931:8040  function getFIR(string memory firId) external view returns (FIR memory) {... */\n      swap2\n      swap1\n      pop\n      jump\t// out\n        /* \"Capstone/ForensicChain.sol\":6589:6971  function confirmCaseEvidence(string memory caseId, uint index) external notLocked onlyCaseAssigned(caseId) {... */\n    tag_97:\n        /* \"Capstone/ForensicChain.sol\":2118:2132  isSystemLocked */\n      0x00\n      0x14\n      swap1\n      sload\n      swap1\n      0x0100\n      exp\n      swap1\n      div\n      0xff\n      and\n        /* \"Capstone/ForensicChain.sol\":2117:2132  !isSystemLocked */\n      iszero\n        /* \"Capstone/ForensicChain.sol\":2109:2161  require(!isSystemLocked, \"System in emergency lock\") */\n      tag_332\n      jumpi\n      mload(0x40)\n      0x08c379a000000000000000000000000000000000000000000000000000000000\n      dup2\n      mstore\n      0x04\n      add\n      tag_333\n      swap1\n      tag_224\n      jump\t// in\n    tag_333:\n      mload(0x40)\n      dup1\n      swap2\n      sub\n      swap1\n      revert\n    tag_332:\n        /* \"Capstone/ForensicChain.sol\":6688:6694  caseId */\n      dup2\n        /* \"Capstone/ForensicChain.sol\":1869:1878  Role.None */\n      0x00\n        /* \"Capstone/ForensicChain.sol\":1836:1878  caseRoles[caseId][msg.sender] != Role.None */\n      0x04\n      dup2\n      gt\n      iszero\n      tag_335\n      jumpi\n      tag_336\n      tag_151\n      jump\t// in\n    tag_336:\n    tag_335:\n        /* \"Capstone/ForensicChain.sol\":1836:1845  caseRoles */\n      0x04\n        /* \"Capstone/ForensicChain.sol\":1846:1852  caseId */\n      dup3\n        /* \"Capstone/ForensicChain.sol\":1836:1853  caseRoles[caseId] */\n      mload(0x40)\n      tag_337\n      swap2\n      swap1\n      tag_153\n      jump\t// in\n    tag_337:\n      swap1\n      dup2\n      mstore\n      0x20\n      add\n      mload(0x40)\n      dup1\n      swap2\n      sub\n      swap1\n      keccak256\n        /* \"Capstone/ForensicChain.sol\":1836:1865  caseRoles[caseId][msg.sender] */\n      0x00\n        /* \"Capstone/ForensicChain.sol\":1854:1864  msg.sender */\n      caller\n        /* \"Capstone/ForensicChain.sol\":1836:1865  caseRoles[caseId][msg.sender] */\n      0xffffffffffffffffffffffffffffffffffffffff\n      and\n      0xffffffffffffffffffffffffffffffffffffffff\n      and\n      dup2\n      mstore\n      0x20\n      add\n      swap1\n      dup2\n      mstore\n      0x20\n      add\n      0x00\n      keccak256\n      0x00\n      swap1\n      sload\n      swap1\n      0x0100\n      exp\n      swap1\n      div\n      0xff\n      and\n        /* \"Capstone/ForensicChain.sol\":1836:1878  caseRoles[caseId][msg.sender] != Role.None */\n      0x04\n      dup2\n      gt\n      iszero\n      tag_338\n      jumpi\n      tag_339\n      tag_151\n      jump\t// in\n    tag_339:\n    tag_338:\n      sub\n        /* \"Capstone/ForensicChain.sol\":1828:1903  require(caseRoles[caseId][msg.sender] != Role.None, \"Not assigned to case\") */\n      tag_340\n      jumpi\n      mload(0x40)\n      0x08c379a000000000000000000000000000000000000000000000000000000000\n      dup2\n      mstore\n      0x04\n      add\n      tag_341\n      swap1\n      tag_158\n      jump\t// in\n    tag_341:\n      mload(0x40)\n      dup1\n      swap2\n      sub\n      swap1\n      revert\n    tag_340:\n        /* \"Capstone/ForensicChain.sol\":6707:6725  Evidence storage e */\n      0x00\n        /* \"Capstone/ForensicChain.sol\":6728:6747  caseEvidenceMapping */\n      0x09\n        /* \"Capstone/ForensicChain.sol\":6748:6754  caseId */\n      dup5\n        /* \"Capstone/ForensicChain.sol\":6728:6755  caseEvidenceMapping[caseId] */\n      mload(0x40)\n      tag_343\n      swap2\n      swap1\n      tag_153\n      jump\t// in\n    tag_343:\n      swap1\n      dup2\n      mstore\n      0x20\n      add\n      mload(0x40)\n      dup1\n      swap2\n      sub\n      swap1\n      keccak256\n        /* \"Capstone/ForensicChain.sol\":6728:6762  caseEvidenceMapping[caseId][index] */\n      0x00\n        /* \"Capstone/ForensicChain.sol\":6756:6761  index */\n      dup5\n        /* \"Capstone/ForensicChain.sol\":6728:6762  caseEvidenceMapping[caseId][index] */\n      dup2\n      mstore\n      0x20\n      add\n      swap1\n      dup2\n      mstore\n      0x20\n      add\n      0x00\n      keccak256\n        /* \"Capstone/ForensicChain.sol\":6707:6762  Evidence storage e = caseEvidenceMapping[caseId][index] */\n      swap1\n      pop\n        /* \"Capstone/ForensicChain.sol\":6782:6783  e */\n      dup1\n        /* \"Capstone/ForensicChain.sol\":6782:6793  e.confirmed */\n      0x03\n      add\n      0x15\n      swap1\n      sload\n      swap1\n      0x0100\n      exp\n      swap1\n      div\n      0xff\n      and\n        /* \"Capstone/ForensicChain.sol\":6781:6793  !e.confirmed */\n      iszero\n        /* \"Capstone/ForensicChain.sol\":6773:6815  require(!e.confirmed, \"Already confirmed\") */\n      tag_344\n      jumpi\n      mload(0x40)\n      0x08c379a000000000000000000000000000000000000000000000000000000000\n      dup2\n      mstore\n      0x04\n      add\n      tag_345\n      swap1\n      tag_346\n      jump\t// in\n    tag_345:\n      mload(0x40)\n      dup1\n      swap2\n      sub\n      swap1\n      revert\n    tag_344:\n        /* \"Capstone/ForensicChain.sol\":6851:6861  msg.sender */\n      caller\n        /* \"Capstone/ForensicChain.sol\":6834:6861  e.submittedBy != msg.sender */\n      0xffffffffffffffffffffffffffffffffffffffff\n      and\n        /* \"Capstone/ForensicChain.sol\":6834:6835  e */\n      dup2\n        /* \"Capstone/ForensicChain.sol\":6834:6847  e.submittedBy */\n      0x03\n      add\n      0x01\n      swap1\n      sload\n      swap1\n      0x0100\n      exp\n      swap1\n      div\n      0xffffffffffffffffffffffffffffffffffffffff\n      and\n        /* \"Capstone/ForensicChain.sol\":6834:6861  e.submittedBy != msg.sender */\n      0xffffffffffffffffffffffffffffffffffffffff\n      and\n      sub\n        /* \"Capstone/ForensicChain.sol\":6826:6890  require(e.submittedBy != msg.sender, \"Self-confirmation denied\") */\n      tag_347\n      jumpi\n      mload(0x40)\n      0x08c379a000000000000000000000000000000000000000000000000000000000\n      dup2\n      mstore\n      0x04\n      add\n      tag_348\n      swap1\n      tag_349\n      jump\t// in\n    tag_348:\n      mload(0x40)\n      dup1\n      swap2\n      sub\n      swap1\n      revert\n    tag_347:\n        /* \"Capstone/ForensicChain.sol\":6915:6919  true */\n      0x01\n        /* \"Capstone/ForensicChain.sol\":6901:6902  e */\n      dup2\n        /* \"Capstone/ForensicChain.sol\":6901:6912  e.confirmed */\n      0x03\n      add\n      0x15\n        /* \"Capstone/ForensicChain.sol\":6901:6919  e.confirmed = true */\n      0x0100\n      exp\n      dup2\n      sload\n      dup2\n      0xff\n      mul\n      not\n      and\n      swap1\n      dup4\n      iszero\n      iszero\n      mul\n      or\n      swap1\n      sstore\n      pop\n        /* \"Capstone/ForensicChain.sol\":6930:6931  e */\n      dup1\n        /* \"Capstone/ForensicChain.sol\":6930:6946  e.chainOfCustody */\n      0x05\n      add\n        /* \"Capstone/ForensicChain.sol\":6952:6962  msg.sender */\n      caller\n        /* \"Capstone/ForensicChain.sol\":6930:6963  e.chainOfCustody.push(msg.sender) */\n      swap1\n      dup1\n      0x01\n      dup2\n      sload\n      add\n      dup1\n      dup3\n      sstore\n      dup1\n      swap2\n      pop\n      pop\n      0x01\n      swap1\n      sub\n      swap1\n      0x00\n      mstore\n      keccak256(0x00, 0x20)\n      add\n      0x00\n      swap1\n      swap2\n      swap1\n      swap2\n      swap1\n      swap2\n      0x0100\n      exp\n      dup2\n      sload\n      dup2\n      0xffffffffffffffffffffffffffffffffffffffff\n      mul\n      not\n      and\n      swap1\n      dup4\n      0xffffffffffffffffffffffffffffffffffffffff\n      and\n      mul\n      or\n      swap1\n      sstore\n      pop\n        /* \"Capstone/ForensicChain.sol\":6696:6971  {... */\n      pop\n        /* \"Capstone/ForensicChain.sol\":2172:2173  _ */\n      pop\n        /* \"Capstone/ForensicChain.sol\":6589:6971  function confirmCaseEvidence(string memory caseId, uint index) external notLocked onlyCaseAssigned(caseId) {... */\n      pop\n      pop\n      jump\t// out\n        /* \"Capstone/ForensicChain.sol\":1239:1282  mapping(bytes32 => bool) public usedCIDHash */\n    tag_101:\n      mstore(0x20, 0x06)\n      dup1\n      0x00\n      mstore\n      keccak256(0x00, 0x40)\n      0x00\n      swap2\n      pop\n      sload\n      swap1\n      0x0100\n      exp\n      swap1\n      div\n      0xff\n      and\n      dup2\n      jump\t// out\n        /* \"Capstone/ForensicChain.sol\":1097:1157  mapping(string => mapping(address => Role)) public caseRoles */\n    tag_105:\n      0x04\n      dup3\n      dup1\n      mload\n      0x20\n      dup2\n      add\n      dup3\n      add\n      dup1\n      mload\n      dup5\n      dup3\n      mstore\n      0x20\n      dup4\n      add\n      0x20\n      dup6\n      add\n      keccak256\n      dup2\n      dup4\n      mstore\n      dup1\n      swap6\n      pop\n      pop\n      pop\n      pop\n      pop\n      pop\n      0x20\n      mstore\n      dup1\n      0x00\n      mstore\n      keccak256(0x00, 0x40)\n      0x00\n      swap2\n      pop\n      swap2\n      pop\n      swap1\n      sload\n      swap1\n      0x0100\n      exp\n      swap1\n      div\n      0xff\n      and\n      dup2\n      jump\t// out\n        /* \"Capstone/ForensicChain.sol\":1289:1339  mapping(string => address[]) public caseAuditTrail */\n    tag_109:\n      0x07\n      dup3\n      dup1\n      mload\n      0x20\n      dup2\n      add\n      dup3\n      add\n      dup1\n      mload\n      dup5\n      dup3\n      mstore\n      0x20\n      dup4\n      add\n      0x20\n      dup6\n      add\n      keccak256\n      dup2\n      dup4\n      mstore\n      dup1\n      swap6\n      pop\n      pop\n      pop\n      pop\n      pop\n      pop\n      dup2\n      dup2\n      sload\n      dup2\n      lt\n      tag_351\n      jumpi\n      0x00\n      dup1\n      revert\n    tag_351:\n      swap1\n      0x00\n      mstore\n      keccak256(0x00, 0x20)\n      add\n      0x00\n      swap2\n      pop\n      swap2\n      pop\n      swap1\n      sload\n      swap1\n      0x0100\n      exp\n      swap1\n      div\n      0xffffffffffffffffffffffffffffffffffffffff\n      and\n      dup2\n      jump\t// out\n        /* \"Capstone/ForensicChain.sol\":4424:5282  function createCaseFromFIR(... */\n    tag_114:\n        /* \"Capstone/ForensicChain.sol\":2118:2132  isSystemLocked */\n      0x00\n      0x14\n      swap1\n      sload\n      swap1\n      0x0100\n      exp\n      swap1\n      div\n      0xff\n      and\n        /* \"Capstone/ForensicChain.sol\":2117:2132  !isSystemLocked */\n      iszero\n        /* \"Capstone/ForensicChain.sol\":2109:2161  require(!isSystemLocked, \"System in emergency lock\") */\n      tag_354\n      jumpi\n      mload(0x40)\n      0x08c379a000000000000000000000000000000000000000000000000000000000\n      dup2\n      mstore\n      0x04\n      add\n      tag_355\n      swap1\n      tag_224\n      jump\t// in\n    tag_355:\n      mload(0x40)\n      dup1\n      swap2\n      sub\n      swap1\n      revert\n    tag_354:\n        /* \"Capstone/ForensicChain.sol\":1716:1726  Role.Court */\n      0x01\n        /* \"Capstone/ForensicChain.sol\":1689:1726  globalRoles[msg.sender] == Role.Court */\n      0x04\n      dup2\n      gt\n      iszero\n      tag_357\n      jumpi\n      tag_358\n      tag_151\n      jump\t// in\n    tag_358:\n    tag_357:\n        /* \"Capstone/ForensicChain.sol\":1689:1700  globalRoles */\n      0x01\n        /* \"Capstone/ForensicChain.sol\":1689:1712  globalRoles[msg.sender] */\n      0x00\n        /* \"Capstone/ForensicChain.sol\":1701:1711  msg.sender */\n      caller\n        /* \"Capstone/ForensicChain.sol\":1689:1712  globalRoles[msg.sender] */\n      0xffffffffffffffffffffffffffffffffffffffff\n      and\n      0xffffffffffffffffffffffffffffffffffffffff\n      and\n      dup2\n      mstore\n      0x20\n      add\n      swap1\n      dup2\n      mstore\n      0x20\n      add\n      0x00\n      keccak256\n      0x00\n      swap1\n      sload\n      swap1\n      0x0100\n      exp\n      swap1\n      div\n      0xff\n      and\n        /* \"Capstone/ForensicChain.sol\":1689:1726  globalRoles[msg.sender] == Role.Court */\n      0x04\n      dup2\n      gt\n      iszero\n      tag_359\n      jumpi\n      tag_360\n      tag_151\n      jump\t// in\n    tag_360:\n    tag_359:\n      eq\n        /* \"Capstone/ForensicChain.sol\":1681:1741  require(globalRoles[msg.sender] == Role.Court, \"Only Court\") */\n      tag_361\n      jumpi\n      mload(0x40)\n      0x08c379a000000000000000000000000000000000000000000000000000000000\n      dup2\n      mstore\n      0x04\n      add\n      tag_362\n      swap1\n      tag_190\n      jump\t// in\n    tag_362:\n      mload(0x40)\n      dup1\n      swap2\n      sub\n      swap1\n      revert\n    tag_361:\n        /* \"Capstone/ForensicChain.sol\":4699:4700  0 */\n      0x00\n        /* \"Capstone/ForensicChain.sol\":4664:4701  cases[caseId].createdBy == address(0) */\n      0xffffffffffffffffffffffffffffffffffffffff\n      and\n        /* \"Capstone/ForensicChain.sol\":4664:4669  cases */\n      0x03\n        /* \"Capstone/ForensicChain.sol\":4670:4676  caseId */\n      dup7\n        /* \"Capstone/ForensicChain.sol\":4664:4677  cases[caseId] */\n      mload(0x40)\n      tag_364\n      swap2\n      swap1\n      tag_153\n      jump\t// in\n    tag_364:\n      swap1\n      dup2\n      mstore\n      0x20\n      add\n      mload(0x40)\n      dup1\n      swap2\n      sub\n      swap1\n      keccak256\n        /* \"Capstone/ForensicChain.sol\":4664:4687  cases[caseId].createdBy */\n      0x03\n      add\n      0x00\n      swap1\n      sload\n      swap1\n      0x0100\n      exp\n      swap1\n      div\n      0xffffffffffffffffffffffffffffffffffffffff\n      and\n        /* \"Capstone/ForensicChain.sol\":4664:4701  cases[caseId].createdBy == address(0) */\n      0xffffffffffffffffffffffffffffffffffffffff\n      and\n      eq\n        /* \"Capstone/ForensicChain.sol\":4656:4717  require(cases[caseId].createdBy == address(0), \"Case exists\") */\n      tag_365\n      jumpi\n      mload(0x40)\n      0x08c379a000000000000000000000000000000000000000000000000000000000\n      dup2\n      mstore\n      0x04\n      add\n      tag_366\n      swap1\n      tag_367\n      jump\t// in\n    tag_366:\n      mload(0x40)\n      dup1\n      swap2\n      sub\n      swap1\n      revert\n    tag_365:\n        /* \"Capstone/ForensicChain.sol\":4767:4768  0 */\n      0x00\n        /* \"Capstone/ForensicChain.sol\":4736:4769  firs[firId].filedBy != address(0) */\n      0xffffffffffffffffffffffffffffffffffffffff\n      and\n        /* \"Capstone/ForensicChain.sol\":4736:4740  firs */\n      0x02\n        /* \"Capstone/ForensicChain.sol\":4741:4746  firId */\n      dup6\n        /* \"Capstone/ForensicChain.sol\":4736:4747  firs[firId] */\n      mload(0x40)\n      tag_368\n      swap2\n      swap1\n      tag_153\n      jump\t// in\n    tag_368:\n      swap1\n      dup2\n      mstore\n      0x20\n      add\n      mload(0x40)\n      dup1\n      swap2\n      sub\n      swap1\n      keccak256\n        /* \"Capstone/ForensicChain.sol\":4736:4755  firs[firId].filedBy */\n      0x01\n      add\n      0x00\n      swap1\n      sload\n      swap1\n      0x0100\n      exp\n      swap1\n      div\n      0xffffffffffffffffffffffffffffffffffffffff\n      and\n        /* \"Capstone/ForensicChain.sol\":4736:4769  firs[firId].filedBy != address(0) */\n      0xffffffffffffffffffffffffffffffffffffffff\n      and\n      sub\n        /* \"Capstone/ForensicChain.sol\":4728:4787  require(firs[firId].filedBy != address(0), \"FIR not found\") */\n      tag_369\n      jumpi\n      mload(0x40)\n      0x08c379a000000000000000000000000000000000000000000000000000000000\n      dup2\n      mstore\n      0x04\n      add\n      tag_370\n      swap1\n      tag_371\n      jump\t// in\n    tag_370:\n      mload(0x40)\n      dup1\n      swap2\n      sub\n      swap1\n      revert\n    tag_369:\n        /* \"Capstone/ForensicChain.sol\":4807:4811  firs */\n      0x02\n        /* \"Capstone/ForensicChain.sol\":4812:4817  firId */\n      dup5\n        /* \"Capstone/ForensicChain.sol\":4807:4818  firs[firId] */\n      mload(0x40)\n      tag_372\n      swap2\n      swap1\n      tag_153\n      jump\t// in\n    tag_372:\n      swap1\n      dup2\n      mstore\n      0x20\n      add\n      mload(0x40)\n      dup1\n      swap2\n      sub\n      swap1\n      keccak256\n        /* \"Capstone/ForensicChain.sol\":4807:4833  firs[firId].promotedToCase */\n      0x04\n      add\n      0x00\n      swap1\n      sload\n      swap1\n      0x0100\n      exp\n      swap1\n      div\n      0xff\n      and\n        /* \"Capstone/ForensicChain.sol\":4806:4833  !firs[firId].promotedToCase */\n      iszero\n        /* \"Capstone/ForensicChain.sol\":4798:4854  require(!firs[firId].promotedToCase, \"Already promoted\") */\n      tag_373\n      jumpi\n      mload(0x40)\n      0x08c379a000000000000000000000000000000000000000000000000000000000\n      dup2\n      mstore\n      0x04\n      add\n      tag_374\n      swap1\n      tag_375\n      jump\t// in\n    tag_374:\n      mload(0x40)\n      dup1\n      swap2\n      sub\n      swap1\n      revert\n    tag_373:\n        /* \"Capstone/ForensicChain.sol\":4867:4881  Case storage c */\n      0x00\n        /* \"Capstone/ForensicChain.sol\":4884:4889  cases */\n      0x03\n        /* \"Capstone/ForensicChain.sol\":4890:4896  caseId */\n      dup7\n        /* \"Capstone/ForensicChain.sol\":4884:4897  cases[caseId] */\n      mload(0x40)\n      tag_376\n      swap2\n      swap1\n      tag_153\n      jump\t// in\n    tag_376:\n      swap1\n      dup2\n      mstore\n      0x20\n      add\n      mload(0x40)\n      dup1\n      swap2\n      sub\n      swap1\n      keccak256\n        /* \"Capstone/ForensicChain.sol\":4867:4897  Case storage c = cases[caseId] */\n      swap1\n      pop\n        /* \"Capstone/ForensicChain.sol\":4919:4925  caseId */\n      dup6\n        /* \"Capstone/ForensicChain.sol\":4908:4909  c */\n      dup2\n        /* \"Capstone/ForensicChain.sol\":4908:4916  c.caseId */\n      0x00\n      add\n        /* \"Capstone/ForensicChain.sol\":4908:4925  c.caseId = caseId */\n      swap1\n      dup2\n      tag_377\n      swap2\n      swap1\n      tag_240\n      jump\t// in\n    tag_377:\n      pop\n        /* \"Capstone/ForensicChain.sol\":4946:4951  title */\n      dup4\n        /* \"Capstone/ForensicChain.sol\":4936:4937  c */\n      dup2\n        /* \"Capstone/ForensicChain.sol\":4936:4943  c.title */\n      0x01\n      add\n        /* \"Capstone/ForensicChain.sol\":4936:4951  c.title = title */\n      swap1\n      dup2\n      tag_378\n      swap2\n      swap1\n      tag_240\n      jump\t// in\n    tag_378:\n      pop\n        /* \"Capstone/ForensicChain.sol\":4978:4989  description */\n      dup3\n        /* \"Capstone/ForensicChain.sol\":4962:4963  c */\n      dup2\n        /* \"Capstone/ForensicChain.sol\":4962:4975  c.description */\n      0x02\n      add\n        /* \"Capstone/ForensicChain.sol\":4962:4989  c.description = description */\n      swap1\n      dup2\n      tag_379\n      swap2\n      swap1\n      tag_240\n      jump\t// in\n    tag_379:\n      pop\n        /* \"Capstone/ForensicChain.sol\":5014:5024  msg.sender */\n      caller\n        /* \"Capstone/ForensicChain.sol\":5000:5001  c */\n      dup2\n        /* \"Capstone/ForensicChain.sol\":5000:5011  c.createdBy */\n      0x03\n      add\n      0x00\n        /* \"Capstone/ForensicChain.sol\":5000:5024  c.createdBy = msg.sender */\n      0x0100\n      exp\n      dup2\n      sload\n      dup2\n      0xffffffffffffffffffffffffffffffffffffffff\n      mul\n      not\n      and\n      swap1\n      dup4\n      0xffffffffffffffffffffffffffffffffffffffff\n      and\n      mul\n      or\n      swap1\n      sstore\n      pop\n        /* \"Capstone/ForensicChain.sol\":5044:5049  false */\n      0x00\n        /* \"Capstone/ForensicChain.sol\":5035:5036  c */\n      dup2\n        /* \"Capstone/ForensicChain.sol\":5035:5041  c.seal */\n      0x03\n      add\n      0x14\n        /* \"Capstone/ForensicChain.sol\":5035:5049  c.seal = false */\n      0x0100\n      exp\n      dup2\n      sload\n      dup2\n      0xff\n      mul\n      not\n      and\n      swap1\n      dup4\n      iszero\n      iszero\n      mul\n      or\n      swap1\n      sstore\n      pop\n        /* \"Capstone/ForensicChain.sol\":5069:5073  true */\n      0x01\n        /* \"Capstone/ForensicChain.sol\":5060:5061  c */\n      dup2\n        /* \"Capstone/ForensicChain.sol\":5060:5066  c.open */\n      0x03\n      add\n      0x15\n        /* \"Capstone/ForensicChain.sol\":5060:5073  c.open = true */\n      0x0100\n      exp\n      dup2\n      sload\n      dup2\n      0xff\n      mul\n      not\n      and\n      swap1\n      dup4\n      iszero\n      iszero\n      mul\n      or\n      swap1\n      sstore\n      pop\n        /* \"Capstone/ForensicChain.sol\":5093:5097  tags */\n      dup2\n        /* \"Capstone/ForensicChain.sol\":5084:5085  c */\n      dup2\n        /* \"Capstone/ForensicChain.sol\":5084:5090  c.tags */\n      0x04\n      add\n        /* \"Capstone/ForensicChain.sol\":5084:5097  c.tags = tags */\n      swap1\n      dup1\n      mload\n      swap1\n      0x20\n      add\n      swap1\n      tag_380\n      swap3\n      swap2\n      swap1\n      tag_381\n      jump\t// in\n    tag_380:\n      pop\n        /* \"Capstone/ForensicChain.sol\":5126:5127  0 */\n      0x00\n        /* \"Capstone/ForensicChain.sol\":5108:5109  c */\n      dup2\n        /* \"Capstone/ForensicChain.sol\":5108:5123  c.evidenceCount */\n      0x05\n      add\n        /* \"Capstone/ForensicChain.sol\":5108:5127  c.evidenceCount = 0 */\n      dup2\n      swap1\n      sstore\n      pop\n        /* \"Capstone/ForensicChain.sol\":5169:5173  true */\n      0x01\n        /* \"Capstone/ForensicChain.sol\":5140:5144  firs */\n      0x02\n        /* \"Capstone/ForensicChain.sol\":5145:5150  firId */\n      dup7\n        /* \"Capstone/ForensicChain.sol\":5140:5151  firs[firId] */\n      mload(0x40)\n      tag_382\n      swap2\n      swap1\n      tag_153\n      jump\t// in\n    tag_382:\n      swap1\n      dup2\n      mstore\n      0x20\n      add\n      mload(0x40)\n      dup1\n      swap2\n      sub\n      swap1\n      keccak256\n        /* \"Capstone/ForensicChain.sol\":5140:5166  firs[firId].promotedToCase */\n      0x04\n      add\n      0x00\n        /* \"Capstone/ForensicChain.sol\":5140:5173  firs[firId].promotedToCase = true */\n      0x0100\n      exp\n      dup2\n      sload\n      dup2\n      0xff\n      mul\n      not\n      and\n      swap1\n      dup4\n      iszero\n      iszero\n      mul\n      or\n      swap1\n      sstore\n      pop\n        /* \"Capstone/ForensicChain.sol\":5215:5221  caseId */\n      dup6\n        /* \"Capstone/ForensicChain.sol\":5184:5188  firs */\n      0x02\n        /* \"Capstone/ForensicChain.sol\":5189:5194  firId */\n      dup7\n        /* \"Capstone/ForensicChain.sol\":5184:5195  firs[firId] */\n      mload(0x40)\n      tag_383\n      swap2\n      swap1\n      tag_153\n      jump\t// in\n    tag_383:\n      swap1\n      dup2\n      mstore\n      0x20\n      add\n      mload(0x40)\n      dup1\n      swap2\n      sub\n      swap1\n      keccak256\n        /* \"Capstone/ForensicChain.sol\":5184:5212  firs[firId].associatedCaseId */\n      0x05\n      add\n        /* \"Capstone/ForensicChain.sol\":5184:5221  firs[firId].associatedCaseId = caseId */\n      swap1\n      dup2\n      tag_384\n      swap2\n      swap1\n      tag_240\n      jump\t// in\n    tag_384:\n      pop\n        /* \"Capstone/ForensicChain.sol\":5264:5274  Role.Court */\n      0x01\n        /* \"Capstone/ForensicChain.sol\":5232:5241  caseRoles */\n      0x04\n        /* \"Capstone/ForensicChain.sol\":5242:5248  caseId */\n      dup8\n        /* \"Capstone/ForensicChain.sol\":5232:5249  caseRoles[caseId] */\n      mload(0x40)\n      tag_385\n      swap2\n      swap1\n      tag_153\n      jump\t// in\n    tag_385:\n      swap1\n      dup2\n      mstore\n      0x20\n      add\n      mload(0x40)\n      dup1\n      swap2\n      sub\n      swap1\n      keccak256\n        /* \"Capstone/ForensicChain.sol\":5232:5261  caseRoles[caseId][msg.sender] */\n      0x00\n        /* \"Capstone/ForensicChain.sol\":5250:5260  msg.sender */\n      caller\n        /* \"Capstone/ForensicChain.sol\":5232:5261  caseRoles[caseId][msg.sender] */\n      0xffffffffffffffffffffffffffffffffffffffff\n      and\n      0xffffffffffffffffffffffffffffffffffffffff\n      and\n      dup2\n      mstore\n      0x20\n      add\n      swap1\n      dup2\n      mstore\n      0x20\n      add\n      0x00\n      keccak256\n      0x00\n        /* \"Capstone/ForensicChain.sol\":5232:5274  caseRoles[caseId][msg.sender] = Role.Court */\n      0x0100\n      exp\n      dup2\n      sload\n      dup2\n      0xff\n      mul\n      not\n      and\n      swap1\n      dup4\n      0x04\n      dup2\n      gt\n      iszero\n      tag_386\n      jumpi\n      tag_387\n      tag_151\n      jump\t// in\n    tag_387:\n    tag_386:\n      mul\n      or\n      swap1\n      sstore\n      pop\n        /* \"Capstone/ForensicChain.sol\":4645:5282  {... */\n      pop\n        /* \"Capstone/ForensicChain.sol\":4424:5282  function createCaseFromFIR(... */\n      pop\n      pop\n      pop\n      pop\n      pop\n      jump\t// out\n        /* \"Capstone/ForensicChain.sol\":5544:6581  function submitCaseEvidence(... */\n    tag_118:\n        /* \"Capstone/ForensicChain.sol\":2118:2132  isSystemLocked */\n      0x00\n      0x14\n      swap1\n      sload\n      swap1\n      0x0100\n      exp\n      swap1\n      div\n      0xff\n      and\n        /* \"Capstone/ForensicChain.sol\":2117:2132  !isSystemLocked */\n      iszero\n        /* \"Capstone/ForensicChain.sol\":2109:2161  require(!isSystemLocked, \"System in emergency lock\") */\n      tag_389\n      jumpi\n      mload(0x40)\n      0x08c379a000000000000000000000000000000000000000000000000000000000\n      dup2\n      mstore\n      0x04\n      add\n      tag_390\n      swap1\n      tag_224\n      jump\t// in\n    tag_390:\n      mload(0x40)\n      dup1\n      swap2\n      sub\n      swap1\n      revert\n    tag_389:\n        /* \"Capstone/ForensicChain.sol\":5783:5789  caseId */\n      dup5\n        /* \"Capstone/ForensicChain.sol\":1869:1878  Role.None */\n      0x00\n        /* \"Capstone/ForensicChain.sol\":1836:1878  caseRoles[caseId][msg.sender] != Role.None */\n      0x04\n      dup2\n      gt\n      iszero\n      tag_392\n      jumpi\n      tag_393\n      tag_151\n      jump\t// in\n    tag_393:\n    tag_392:\n        /* \"Capstone/ForensicChain.sol\":1836:1845  caseRoles */\n      0x04\n        /* \"Capstone/ForensicChain.sol\":1846:1852  caseId */\n      dup3\n        /* \"Capstone/ForensicChain.sol\":1836:1853  caseRoles[caseId] */\n      mload(0x40)\n      tag_394\n      swap2\n      swap1\n      tag_153\n      jump\t// in\n    tag_394:\n      swap1\n      dup2\n      mstore\n      0x20\n      add\n      mload(0x40)\n      dup1\n      swap2\n      sub\n      swap1\n      keccak256\n        /* \"Capstone/ForensicChain.sol\":1836:1865  caseRoles[caseId][msg.sender] */\n      0x00\n        /* \"Capstone/ForensicChain.sol\":1854:1864  msg.sender */\n      caller\n        /* \"Capstone/ForensicChain.sol\":1836:1865  caseRoles[caseId][msg.sender] */\n      0xffffffffffffffffffffffffffffffffffffffff\n      and\n      0xffffffffffffffffffffffffffffffffffffffff\n      and\n      dup2\n      mstore\n      0x20\n      add\n      swap1\n      dup2\n      mstore\n      0x20\n      add\n      0x00\n      keccak256\n      0x00\n      swap1\n      sload\n      swap1\n      0x0100\n      exp\n      swap1\n      div\n      0xff\n      and\n        /* \"Capstone/ForensicChain.sol\":1836:1878  caseRoles[caseId][msg.sender] != Role.None */\n      0x04\n      dup2\n      gt\n      iszero\n      tag_395\n      jumpi\n      tag_396\n      tag_151\n      jump\t// in\n    tag_396:\n    tag_395:\n      sub\n        /* \"Capstone/ForensicChain.sol\":1828:1903  require(caseRoles[caseId][msg.sender] != Role.None, \"Not assigned to case\") */\n      tag_397\n      jumpi\n      mload(0x40)\n      0x08c379a000000000000000000000000000000000000000000000000000000000\n      dup2\n      mstore\n      0x04\n      add\n      tag_398\n      swap1\n      tag_158\n      jump\t// in\n    tag_398:\n      mload(0x40)\n      dup1\n      swap2\n      sub\n      swap1\n      revert\n    tag_397:\n        /* \"Capstone/ForensicChain.sol\":5800:5806  caseId */\n      dup6\n        /* \"Capstone/ForensicChain.sol\":1990:1995  cases */\n      0x03\n        /* \"Capstone/ForensicChain.sol\":1996:2002  caseId */\n      dup2\n        /* \"Capstone/ForensicChain.sol\":1990:2003  cases[caseId] */\n      mload(0x40)\n      tag_400\n      swap2\n      swap1\n      tag_153\n      jump\t// in\n    tag_400:\n      swap1\n      dup2\n      mstore\n      0x20\n      add\n      mload(0x40)\n      dup1\n      swap2\n      sub\n      swap1\n      keccak256\n        /* \"Capstone/ForensicChain.sol\":1990:2008  cases[caseId].open */\n      0x03\n      add\n      0x15\n      swap1\n      sload\n      swap1\n      0x0100\n      exp\n      swap1\n      div\n      0xff\n      and\n        /* \"Capstone/ForensicChain.sol\":1990:2031  cases[caseId].open && !cases[caseId].seal */\n      dup1\n      iszero\n      tag_401\n      jumpi\n      pop\n        /* \"Capstone/ForensicChain.sol\":2013:2018  cases */\n      0x03\n        /* \"Capstone/ForensicChain.sol\":2019:2025  caseId */\n      dup2\n        /* \"Capstone/ForensicChain.sol\":2013:2026  cases[caseId] */\n      mload(0x40)\n      tag_402\n      swap2\n      swap1\n      tag_153\n      jump\t// in\n    tag_402:\n      swap1\n      dup2\n      mstore\n      0x20\n      add\n      mload(0x40)\n      dup1\n      swap2\n      sub\n      swap1\n      keccak256\n        /* \"Capstone/ForensicChain.sol\":2013:2031  cases[caseId].seal */\n      0x03\n      add\n      0x14\n      swap1\n      sload\n      swap1\n      0x0100\n      exp\n      swap1\n      div\n      0xff\n      and\n        /* \"Capstone/ForensicChain.sol\":2012:2031  !cases[caseId].seal */\n      iszero\n        /* \"Capstone/ForensicChain.sol\":1990:2031  cases[caseId].open && !cases[caseId].seal */\n    tag_401:\n        /* \"Capstone/ForensicChain.sol\":1982:2049  require(cases[caseId].open && !cases[caseId].seal, \"Case not open\") */\n      tag_403\n      jumpi\n      mload(0x40)\n      0x08c379a000000000000000000000000000000000000000000000000000000000\n      dup2\n      mstore\n      0x04\n      add\n      tag_404\n      swap1\n      tag_405\n      jump\t// in\n    tag_404:\n      mload(0x40)\n      dup1\n      swap2\n      sub\n      swap1\n      revert\n    tag_403:\n        /* \"Capstone/ForensicChain.sol\":5868:5880  Role.Officer */\n      0x02\n        /* \"Capstone/ForensicChain.sol\":5841:5880  globalRoles[msg.sender] == Role.Officer */\n      0x04\n      dup2\n      gt\n      iszero\n      tag_407\n      jumpi\n      tag_408\n      tag_151\n      jump\t// in\n    tag_408:\n    tag_407:\n        /* \"Capstone/ForensicChain.sol\":5841:5852  globalRoles */\n      0x01\n        /* \"Capstone/ForensicChain.sol\":5841:5864  globalRoles[msg.sender] */\n      0x00\n        /* \"Capstone/ForensicChain.sol\":5853:5863  msg.sender */\n      caller\n        /* \"Capstone/ForensicChain.sol\":5841:5864  globalRoles[msg.sender] */\n      0xffffffffffffffffffffffffffffffffffffffff\n      and\n      0xffffffffffffffffffffffffffffffffffffffff\n      and\n      dup2\n      mstore\n      0x20\n      add\n      swap1\n      dup2\n      mstore\n      0x20\n      add\n      0x00\n      keccak256\n      0x00\n      swap1\n      sload\n      swap1\n      0x0100\n      exp\n      swap1\n      div\n      0xff\n      and\n        /* \"Capstone/ForensicChain.sol\":5841:5880  globalRoles[msg.sender] == Role.Officer */\n      0x04\n      dup2\n      gt\n      iszero\n      tag_409\n      jumpi\n      tag_410\n      tag_151\n      jump\t// in\n    tag_410:\n    tag_409:\n      eq\n        /* \"Capstone/ForensicChain.sol\":5841:5937  globalRoles[msg.sender] == Role.Officer ||... */\n      dup1\n      tag_411\n      jumpi\n      pop\n        /* \"Capstone/ForensicChain.sol\":5924:5937  Role.Forensic */\n      0x03\n        /* \"Capstone/ForensicChain.sol\":5897:5937  globalRoles[msg.sender] == Role.Forensic */\n      0x04\n      dup2\n      gt\n      iszero\n      tag_412\n      jumpi\n      tag_413\n      tag_151\n      jump\t// in\n    tag_413:\n    tag_412:\n        /* \"Capstone/ForensicChain.sol\":5897:5908  globalRoles */\n      0x01\n        /* \"Capstone/ForensicChain.sol\":5897:5920  globalRoles[msg.sender] */\n      0x00\n        /* \"Capstone/ForensicChain.sol\":5909:5919  msg.sender */\n      caller\n        /* \"Capstone/ForensicChain.sol\":5897:5920  globalRoles[msg.sender] */\n      0xffffffffffffffffffffffffffffffffffffffff\n      and\n      0xffffffffffffffffffffffffffffffffffffffff\n      and\n      dup2\n      mstore\n      0x20\n      add\n      swap1\n      dup2\n      mstore\n      0x20\n      add\n      0x00\n      keccak256\n      0x00\n      swap1\n      sload\n      swap1\n      0x0100\n      exp\n      swap1\n      div\n      0xff\n      and\n        /* \"Capstone/ForensicChain.sol\":5897:5937  globalRoles[msg.sender] == Role.Forensic */\n      0x04\n      dup2\n      gt\n      iszero\n      tag_414\n      jumpi\n      tag_415\n      tag_151\n      jump\t// in\n    tag_415:\n    tag_414:\n      eq\n        /* \"Capstone/ForensicChain.sol\":5841:5937  globalRoles[msg.sender] == Role.Officer ||... */\n    tag_411:\n        /* \"Capstone/ForensicChain.sol\":5819:6001  require(... */\n      tag_416\n      jumpi\n      mload(0x40)\n      0x08c379a000000000000000000000000000000000000000000000000000000000\n      dup2\n      mstore\n      0x04\n      add\n      tag_417\n      swap1\n      tag_418\n      jump\t// in\n    tag_417:\n      mload(0x40)\n      dup1\n      swap2\n      sub\n      swap1\n      revert\n    tag_416:\n        /* \"Capstone/ForensicChain.sol\":6014:6028  bytes32 unique */\n      0x00\n        /* \"Capstone/ForensicChain.sol\":6058:6070  cidEncrypted */\n      dup6\n        /* \"Capstone/ForensicChain.sol\":6072:6076  hash */\n      dup6\n        /* \"Capstone/ForensicChain.sol\":6041:6077  abi.encodePacked(cidEncrypted, hash) */\n      add(0x20, mload(0x40))\n      tag_419\n      swap3\n      swap2\n      swap1\n      tag_420\n      jump\t// in\n    tag_419:\n      mload(0x40)\n      0x20\n      dup2\n      dup4\n      sub\n      sub\n      dup2\n      mstore\n      swap1\n      0x40\n      mstore\n        /* \"Capstone/ForensicChain.sol\":6031:6078  keccak256(abi.encodePacked(cidEncrypted, hash)) */\n      dup1\n      mload\n      swap1\n      0x20\n      add\n      keccak256\n        /* \"Capstone/ForensicChain.sol\":6014:6078  bytes32 unique = keccak256(abi.encodePacked(cidEncrypted, hash)) */\n      swap1\n      pop\n        /* \"Capstone/ForensicChain.sol\":6098:6109  usedCIDHash */\n      0x06\n        /* \"Capstone/ForensicChain.sol\":6098:6117  usedCIDHash[unique] */\n      0x00\n        /* \"Capstone/ForensicChain.sol\":6110:6116  unique */\n      dup3\n        /* \"Capstone/ForensicChain.sol\":6098:6117  usedCIDHash[unique] */\n      dup2\n      mstore\n      0x20\n      add\n      swap1\n      dup2\n      mstore\n      0x20\n      add\n      0x00\n      keccak256\n      0x00\n      swap1\n      sload\n      swap1\n      0x0100\n      exp\n      swap1\n      div\n      0xff\n      and\n        /* \"Capstone/ForensicChain.sol\":6097:6117  !usedCIDHash[unique] */\n      iszero\n        /* \"Capstone/ForensicChain.sol\":6089:6140  require(!usedCIDHash[unique], \"Duplicate evidence\") */\n      tag_421\n      jumpi\n      mload(0x40)\n      0x08c379a000000000000000000000000000000000000000000000000000000000\n      dup2\n      mstore\n      0x04\n      add\n      tag_422\n      swap1\n      tag_423\n      jump\t// in\n    tag_422:\n      mload(0x40)\n      dup1\n      swap2\n      sub\n      swap1\n      revert\n    tag_421:\n        /* \"Capstone/ForensicChain.sol\":6153:6170  Evidence memory e */\n      0x00\n        /* \"Capstone/ForensicChain.sol\":6173:6497  Evidence({... */\n      mload(0x40)\n      dup1\n      0x0100\n      add\n      0x40\n      mstore\n      dup1\n        /* \"Capstone/ForensicChain.sol\":6209:6219  evidenceId */\n      dup10\n        /* \"Capstone/ForensicChain.sol\":6173:6497  Evidence({... */\n      dup2\n      mstore\n      0x20\n      add\n        /* \"Capstone/ForensicChain.sol\":6248:6260  cidEncrypted */\n      dup9\n        /* \"Capstone/ForensicChain.sol\":6173:6497  Evidence({... */\n      dup2\n      mstore\n      0x20\n      add\n        /* \"Capstone/ForensicChain.sol\":6281:6285  hash */\n      dup8\n        /* \"Capstone/ForensicChain.sol\":6173:6497  Evidence({... */\n      dup2\n      mstore\n      0x20\n      add\n        /* \"Capstone/ForensicChain.sol\":6314:6326  evidenceType */\n      dup7\n        /* \"Capstone/ForensicChain.sol\":6173:6497  Evidence({... */\n      0x03\n      dup2\n      gt\n      iszero\n      tag_424\n      jumpi\n      tag_425\n      tag_151\n      jump\t// in\n    tag_425:\n    tag_424:\n      dup2\n      mstore\n      0x20\n      add\n        /* \"Capstone/ForensicChain.sol\":6354:6364  msg.sender */\n      caller\n        /* \"Capstone/ForensicChain.sol\":6173:6497  Evidence({... */\n      0xffffffffffffffffffffffffffffffffffffffff\n      and\n      dup2\n      mstore\n      0x20\n      add\n        /* \"Capstone/ForensicChain.sol\":6390:6395  false */\n      0x00\n        /* \"Capstone/ForensicChain.sol\":6173:6497  Evidence({... */\n      iszero\n      iszero\n      dup2\n      mstore\n      0x20\n      add\n        /* \"Capstone/ForensicChain.sol\":6423:6438  block.timestamp */\n      timestamp\n        /* \"Capstone/ForensicChain.sol\":6173:6497  Evidence({... */\n      dup2\n      mstore\n      0x20\n      add\n        /* \"Capstone/ForensicChain.sol\":6483:6484  0 */\n      0x00\n        /* \"Capstone/ForensicChain.sol\":6469:6485  new address[](0) */\n      0xffffffffffffffff\n      dup2\n      gt\n      iszero\n      tag_426\n      jumpi\n      tag_427\n      tag_428\n      jump\t// in\n    tag_427:\n    tag_426:\n      mload(0x40)\n      swap1\n      dup1\n      dup3\n      mstore\n      dup1\n      0x20\n      mul\n      0x20\n      add\n      dup3\n      add\n      0x40\n      mstore\n      dup1\n      iszero\n      tag_429\n      jumpi\n      dup2\n      0x20\n      add\n      0x20\n      dup3\n      mul\n      dup1\n      calldatasize\n      dup4\n      calldatacopy\n      dup1\n      dup3\n      add\n      swap2\n      pop\n      pop\n      swap1\n      pop\n    tag_429:\n      pop\n        /* \"Capstone/ForensicChain.sol\":6173:6497  Evidence({... */\n      dup2\n      mstore\n      pop\n        /* \"Capstone/ForensicChain.sol\":6153:6497  Evidence memory e = Evidence({... */\n      swap1\n      pop\n        /* \"Capstone/ForensicChain.sol\":6510:6536  _addNewEvidence(caseId, e) */\n      tag_430\n        /* \"Capstone/ForensicChain.sol\":6526:6532  caseId */\n      dup10\n        /* \"Capstone/ForensicChain.sol\":6534:6535  e */\n      dup3\n        /* \"Capstone/ForensicChain.sol\":6510:6525  _addNewEvidence */\n      tag_431\n        /* \"Capstone/ForensicChain.sol\":6510:6536  _addNewEvidence(caseId, e) */\n      jump\t// in\n    tag_430:\n        /* \"Capstone/ForensicChain.sol\":6569:6573  true */\n      0x01\n        /* \"Capstone/ForensicChain.sol\":6547:6558  usedCIDHash */\n      0x06\n        /* \"Capstone/ForensicChain.sol\":6547:6566  usedCIDHash[unique] */\n      0x00\n        /* \"Capstone/ForensicChain.sol\":6559:6565  unique */\n      dup5\n        /* \"Capstone/ForensicChain.sol\":6547:6566  usedCIDHash[unique] */\n      dup2\n      mstore\n      0x20\n      add\n      swap1\n      dup2\n      mstore\n      0x20\n      add\n      0x00\n      keccak256\n      0x00\n        /* \"Capstone/ForensicChain.sol\":6547:6573  usedCIDHash[unique] = true */\n      0x0100\n      exp\n      dup2\n      sload\n      dup2\n      0xff\n      mul\n      not\n      and\n      swap1\n      dup4\n      iszero\n      iszero\n      mul\n      or\n      swap1\n      sstore\n      pop\n        /* \"Capstone/ForensicChain.sol\":5808:6581  {... */\n      pop\n      pop\n        /* \"Capstone/ForensicChain.sol\":1914:1915  _ */\n      pop\n        /* \"Capstone/ForensicChain.sol\":2172:2173  _ */\n      pop\n        /* \"Capstone/ForensicChain.sol\":5544:6581  function submitCaseEvidence(... */\n      pop\n      pop\n      pop\n      pop\n      pop\n      jump\t// out\n        /* \"Capstone/ForensicChain.sol\":7692:7801  function getGlobalRole(address user) external view returns (Role) {... */\n    tag_121:\n        /* \"Capstone/ForensicChain.sol\":7752:7756  Role */\n      0x00\n        /* \"Capstone/ForensicChain.sol\":7776:7787  globalRoles */\n      0x01\n        /* \"Capstone/ForensicChain.sol\":7776:7793  globalRoles[user] */\n      0x00\n        /* \"Capstone/ForensicChain.sol\":7788:7792  user */\n      dup4\n        /* \"Capstone/ForensicChain.sol\":7776:7793  globalRoles[user] */\n      0xffffffffffffffffffffffffffffffffffffffff\n      and\n      0xffffffffffffffffffffffffffffffffffffffff\n      and\n      dup2\n      mstore\n      0x20\n      add\n      swap1\n      dup2\n      mstore\n      0x20\n      add\n      0x00\n      keccak256\n      0x00\n      swap1\n      sload\n      swap1\n      0x0100\n      exp\n      swap1\n      div\n      0xff\n      and\n        /* \"Capstone/ForensicChain.sol\":7769:7793  return globalRoles[user] */\n      swap1\n      pop\n        /* \"Capstone/ForensicChain.sol\":7692:7801  function getGlobalRole(address user) external view returns (Role) {... */\n      swap2\n      swap1\n      pop\n      jump\t// out\n        /* \"Capstone/ForensicChain.sol\":3015:4197  function submitFIREvidence(... */\n    tag_125:\n        /* \"Capstone/ForensicChain.sol\":2118:2132  isSystemLocked */\n      0x00\n      0x14\n      swap1\n      sload\n      swap1\n      0x0100\n      exp\n      swap1\n      div\n      0xff\n      and\n        /* \"Capstone/ForensicChain.sol\":2117:2132  !isSystemLocked */\n      iszero\n        /* \"Capstone/ForensicChain.sol\":2109:2161  require(!isSystemLocked, \"System in emergency lock\") */\n      tag_434\n      jumpi\n      mload(0x40)\n      0x08c379a000000000000000000000000000000000000000000000000000000000\n      dup2\n      mstore\n      0x04\n      add\n      tag_435\n      swap1\n      tag_224\n      jump\t// in\n    tag_435:\n      mload(0x40)\n      dup1\n      swap2\n      sub\n      swap1\n      revert\n    tag_434:\n        /* \"Capstone/ForensicChain.sol\":3281:3293  Role.Officer */\n      0x02\n        /* \"Capstone/ForensicChain.sol\":3254:3293  globalRoles[msg.sender] == Role.Officer */\n      0x04\n      dup2\n      gt\n      iszero\n      tag_437\n      jumpi\n      tag_438\n      tag_151\n      jump\t// in\n    tag_438:\n    tag_437:\n        /* \"Capstone/ForensicChain.sol\":3254:3265  globalRoles */\n      0x01\n        /* \"Capstone/ForensicChain.sol\":3254:3277  globalRoles[msg.sender] */\n      0x00\n        /* \"Capstone/ForensicChain.sol\":3266:3276  msg.sender */\n      caller\n        /* \"Capstone/ForensicChain.sol\":3254:3277  globalRoles[msg.sender] */\n      0xffffffffffffffffffffffffffffffffffffffff\n      and\n      0xffffffffffffffffffffffffffffffffffffffff\n      and\n      dup2\n      mstore\n      0x20\n      add\n      swap1\n      dup2\n      mstore\n      0x20\n      add\n      0x00\n      keccak256\n      0x00\n      swap1\n      sload\n      swap1\n      0x0100\n      exp\n      swap1\n      div\n      0xff\n      and\n        /* \"Capstone/ForensicChain.sol\":3254:3293  globalRoles[msg.sender] == Role.Officer */\n      0x04\n      dup2\n      gt\n      iszero\n      tag_439\n      jumpi\n      tag_440\n      tag_151\n      jump\t// in\n    tag_440:\n    tag_439:\n      eq\n        /* \"Capstone/ForensicChain.sol\":3254:3337  globalRoles[msg.sender] == Role.Officer || globalRoles[msg.sender] == Role.Forensic */\n      dup1\n      tag_441\n      jumpi\n      pop\n        /* \"Capstone/ForensicChain.sol\":3324:3337  Role.Forensic */\n      0x03\n        /* \"Capstone/ForensicChain.sol\":3297:3337  globalRoles[msg.sender] == Role.Forensic */\n      0x04\n      dup2\n      gt\n      iszero\n      tag_442\n      jumpi\n      tag_443\n      tag_151\n      jump\t// in\n    tag_443:\n    tag_442:\n        /* \"Capstone/ForensicChain.sol\":3297:3308  globalRoles */\n      0x01\n        /* \"Capstone/ForensicChain.sol\":3297:3320  globalRoles[msg.sender] */\n      0x00\n        /* \"Capstone/ForensicChain.sol\":3309:3319  msg.sender */\n      caller\n        /* \"Capstone/ForensicChain.sol\":3297:3320  globalRoles[msg.sender] */\n      0xffffffffffffffffffffffffffffffffffffffff\n      and\n      0xffffffffffffffffffffffffffffffffffffffff\n      and\n      dup2\n      mstore\n      0x20\n      add\n      swap1\n      dup2\n      mstore\n      0x20\n      add\n      0x00\n      keccak256\n      0x00\n      swap1\n      sload\n      swap1\n      0x0100\n      exp\n      swap1\n      div\n      0xff\n      and\n        /* \"Capstone/ForensicChain.sol\":3297:3337  globalRoles[msg.sender] == Role.Forensic */\n      0x04\n      dup2\n      gt\n      iszero\n      tag_444\n      jumpi\n      tag_445\n      tag_151\n      jump\t// in\n    tag_445:\n    tag_444:\n      eq\n        /* \"Capstone/ForensicChain.sol\":3254:3337  globalRoles[msg.sender] == Role.Officer || globalRoles[msg.sender] == Role.Forensic */\n    tag_441:\n        /* \"Capstone/ForensicChain.sol\":3246:3354  require(globalRoles[msg.sender] == Role.Officer || globalRoles[msg.sender] == Role.Forensic, \"Unauthorized\") */\n      tag_446\n      jumpi\n      mload(0x40)\n      0x08c379a000000000000000000000000000000000000000000000000000000000\n      dup2\n      mstore\n      0x04\n      add\n      tag_447\n      swap1\n      tag_448\n      jump\t// in\n    tag_447:\n      mload(0x40)\n      dup1\n      swap2\n      sub\n      swap1\n      revert\n    tag_446:\n        /* \"Capstone/ForensicChain.sol\":3404:3405  0 */\n      0x00\n        /* \"Capstone/ForensicChain.sol\":3373:3406  firs[firId].filedBy != address(0) */\n      0xffffffffffffffffffffffffffffffffffffffff\n      and\n        /* \"Capstone/ForensicChain.sol\":3373:3377  firs */\n      0x02\n        /* \"Capstone/ForensicChain.sol\":3378:3383  firId */\n      dup7\n        /* \"Capstone/ForensicChain.sol\":3373:3384  firs[firId] */\n      mload(0x40)\n      tag_449\n      swap2\n      swap1\n      tag_153\n      jump\t// in\n    tag_449:\n      swap1\n      dup2\n      mstore\n      0x20\n      add\n      mload(0x40)\n      dup1\n      swap2\n      sub\n      swap1\n      keccak256\n        /* \"Capstone/ForensicChain.sol\":3373:3392  firs[firId].filedBy */\n      0x01\n      add\n      0x00\n      swap1\n      sload\n      swap1\n      0x0100\n      exp\n      swap1\n      div\n      0xffffffffffffffffffffffffffffffffffffffff\n      and\n        /* \"Capstone/ForensicChain.sol\":3373:3406  firs[firId].filedBy != address(0) */\n      0xffffffffffffffffffffffffffffffffffffffff\n      and\n      sub\n        /* \"Capstone/ForensicChain.sol\":3365:3424  require(firs[firId].filedBy != address(0), \"FIR not found\") */\n      tag_450\n      jumpi\n      mload(0x40)\n      0x08c379a000000000000000000000000000000000000000000000000000000000\n      dup2\n      mstore\n      0x04\n      add\n      tag_451\n      swap1\n      tag_371\n      jump\t// in\n    tag_451:\n      mload(0x40)\n      dup1\n      swap2\n      sub\n      swap1\n      revert\n    tag_450:\n        /* \"Capstone/ForensicChain.sol\":3444:3448  firs */\n      0x02\n        /* \"Capstone/ForensicChain.sol\":3449:3454  firId */\n      dup6\n        /* \"Capstone/ForensicChain.sol\":3444:3455  firs[firId] */\n      mload(0x40)\n      tag_452\n      swap2\n      swap1\n      tag_153\n      jump\t// in\n    tag_452:\n      swap1\n      dup2\n      mstore\n      0x20\n      add\n      mload(0x40)\n      dup1\n      swap2\n      sub\n      swap1\n      keccak256\n        /* \"Capstone/ForensicChain.sol\":3444:3470  firs[firId].promotedToCase */\n      0x04\n      add\n      0x00\n      swap1\n      sload\n      swap1\n      0x0100\n      exp\n      swap1\n      div\n      0xff\n      and\n        /* \"Capstone/ForensicChain.sol\":3443:3470  !firs[firId].promotedToCase */\n      iszero\n        /* \"Capstone/ForensicChain.sol\":3435:3487  require(!firs[firId].promotedToCase, \"FIR promoted\") */\n      tag_453\n      jumpi\n      mload(0x40)\n      0x08c379a000000000000000000000000000000000000000000000000000000000\n      dup2\n      mstore\n      0x04\n      add\n      tag_454\n      swap1\n      tag_455\n      jump\t// in\n    tag_454:\n      mload(0x40)\n      dup1\n      swap2\n      sub\n      swap1\n      revert\n    tag_453:\n        /* \"Capstone/ForensicChain.sol\":3498:3512  bytes32 unique */\n      0x00\n        /* \"Capstone/ForensicChain.sol\":3542:3554  cidEncrypted */\n      dup4\n        /* \"Capstone/ForensicChain.sol\":3556:3560  hash */\n      dup4\n        /* \"Capstone/ForensicChain.sol\":3525:3561  abi.encodePacked(cidEncrypted, hash) */\n      add(0x20, mload(0x40))\n      tag_456\n      swap3\n      swap2\n      swap1\n      tag_420\n      jump\t// in\n    tag_456:\n      mload(0x40)\n      0x20\n      dup2\n      dup4\n      sub\n      sub\n      dup2\n      mstore\n      swap1\n      0x40\n      mstore\n        /* \"Capstone/ForensicChain.sol\":3515:3562  keccak256(abi.encodePacked(cidEncrypted, hash)) */\n      dup1\n      mload\n      swap1\n      0x20\n      add\n      keccak256\n        /* \"Capstone/ForensicChain.sol\":3498:3562  bytes32 unique = keccak256(abi.encodePacked(cidEncrypted, hash)) */\n      swap1\n      pop\n        /* \"Capstone/ForensicChain.sol\":3582:3593  usedCIDHash */\n      0x06\n        /* \"Capstone/ForensicChain.sol\":3582:3601  usedCIDHash[unique] */\n      0x00\n        /* \"Capstone/ForensicChain.sol\":3594:3600  unique */\n      dup3\n        /* \"Capstone/ForensicChain.sol\":3582:3601  usedCIDHash[unique] */\n      dup2\n      mstore\n      0x20\n      add\n      swap1\n      dup2\n      mstore\n      0x20\n      add\n      0x00\n      keccak256\n      0x00\n      swap1\n      sload\n      swap1\n      0x0100\n      exp\n      swap1\n      div\n      0xff\n      and\n        /* \"Capstone/ForensicChain.sol\":3581:3601  !usedCIDHash[unique] */\n      iszero\n        /* \"Capstone/ForensicChain.sol\":3573:3624  require(!usedCIDHash[unique], \"Duplicate evidence\") */\n      tag_457\n      jumpi\n      mload(0x40)\n      0x08c379a000000000000000000000000000000000000000000000000000000000\n      dup2\n      mstore\n      0x04\n      add\n      tag_458\n      swap1\n      tag_423\n      jump\t// in\n    tag_458:\n      mload(0x40)\n      dup1\n      swap2\n      sub\n      swap1\n      revert\n    tag_457:\n        /* \"Capstone/ForensicChain.sol\":3637:3657  string memory caseId */\n      0x00\n        /* \"Capstone/ForensicChain.sol\":3660:3664  firs */\n      0x02\n        /* \"Capstone/ForensicChain.sol\":3665:3670  firId */\n      dup8\n        /* \"Capstone/ForensicChain.sol\":3660:3671  firs[firId] */\n      mload(0x40)\n      tag_459\n      swap2\n      swap1\n      tag_153\n      jump\t// in\n    tag_459:\n      swap1\n      dup2\n      mstore\n      0x20\n      add\n      mload(0x40)\n      dup1\n      swap2\n      sub\n      swap1\n      keccak256\n        /* \"Capstone/ForensicChain.sol\":3660:3688  firs[firId].associatedCaseId */\n      0x05\n      add\n        /* \"Capstone/ForensicChain.sol\":3637:3688  string memory caseId = firs[firId].associatedCaseId */\n      dup1\n      sload\n      tag_460\n      swap1\n      tag_168\n      jump\t// in\n    tag_460:\n      dup1\n      0x1f\n      add\n      0x20\n      dup1\n      swap2\n      div\n      mul\n      0x20\n      add\n      mload(0x40)\n      swap1\n      dup2\n      add\n      0x40\n      mstore\n      dup1\n      swap3\n      swap2\n      swap1\n      dup2\n      dup2\n      mstore\n      0x20\n      add\n      dup3\n      dup1\n      sload\n      tag_461\n      swap1\n      tag_168\n      jump\t// in\n    tag_461:\n      dup1\n      iszero\n      tag_462\n      jumpi\n      dup1\n      0x1f\n      lt\n      tag_463\n      jumpi\n      0x0100\n      dup1\n      dup4\n      sload\n      div\n      mul\n      dup4\n      mstore\n      swap2\n      0x20\n      add\n      swap2\n      jump(tag_462)\n    tag_463:\n      dup3\n      add\n      swap2\n      swap1\n      0x00\n      mstore\n      keccak256(0x00, 0x20)\n      swap1\n    tag_464:\n      dup2\n      sload\n      dup2\n      mstore\n      swap1\n      0x01\n      add\n      swap1\n      0x20\n      add\n      dup1\n      dup4\n      gt\n      tag_464\n      jumpi\n      dup3\n      swap1\n      sub\n      0x1f\n      and\n      dup3\n      add\n      swap2\n    tag_462:\n      pop\n      pop\n      pop\n      pop\n      pop\n      swap1\n      pop\n        /* \"Capstone/ForensicChain.sol\":3731:3732  0 */\n      0x00\n        /* \"Capstone/ForensicChain.sol\":3713:3719  caseId */\n      dup2\n        /* \"Capstone/ForensicChain.sol\":3707:3727  bytes(caseId).length */\n      mload\n        /* \"Capstone/ForensicChain.sol\":3707:3732  bytes(caseId).length != 0 */\n      sub\n        /* \"Capstone/ForensicChain.sol\":3699:3756  require(bytes(caseId).length != 0, \"Case not associated\") */\n      tag_465\n      jumpi\n      mload(0x40)\n      0x08c379a000000000000000000000000000000000000000000000000000000000\n      dup2\n      mstore\n      0x04\n      add\n      tag_466\n      swap1\n      tag_467\n      jump\t// in\n    tag_466:\n      mload(0x40)\n      dup1\n      swap2\n      sub\n      swap1\n      revert\n    tag_465:\n        /* \"Capstone/ForensicChain.sol\":3769:3786  Evidence memory e */\n      0x00\n        /* \"Capstone/ForensicChain.sol\":3789:4113  Evidence({... */\n      mload(0x40)\n      dup1\n      0x0100\n      add\n      0x40\n      mstore\n      dup1\n        /* \"Capstone/ForensicChain.sol\":3825:3835  evidenceId */\n      dup9\n        /* \"Capstone/ForensicChain.sol\":3789:4113  Evidence({... */\n      dup2\n      mstore\n      0x20\n      add\n        /* \"Capstone/ForensicChain.sol\":3864:3876  cidEncrypted */\n      dup8\n        /* \"Capstone/ForensicChain.sol\":3789:4113  Evidence({... */\n      dup2\n      mstore\n      0x20\n      add\n        /* \"Capstone/ForensicChain.sol\":3897:3901  hash */\n      dup7\n        /* \"Capstone/ForensicChain.sol\":3789:4113  Evidence({... */\n      dup2\n      mstore\n      0x20\n      add\n        /* \"Capstone/ForensicChain.sol\":3930:3942  evidenceType */\n      dup6\n        /* \"Capstone/ForensicChain.sol\":3789:4113  Evidence({... */\n      0x03\n      dup2\n      gt\n      iszero\n      tag_468\n      jumpi\n      tag_469\n      tag_151\n      jump\t// in\n    tag_469:\n    tag_468:\n      dup2\n      mstore\n      0x20\n      add\n        /* \"Capstone/ForensicChain.sol\":3970:3980  msg.sender */\n      caller\n        /* \"Capstone/ForensicChain.sol\":3789:4113  Evidence({... */\n      0xffffffffffffffffffffffffffffffffffffffff\n      and\n      dup2\n      mstore\n      0x20\n      add\n        /* \"Capstone/ForensicChain.sol\":4006:4011  false */\n      0x00\n        /* \"Capstone/ForensicChain.sol\":3789:4113  Evidence({... */\n      iszero\n      iszero\n      dup2\n      mstore\n      0x20\n      add\n        /* \"Capstone/ForensicChain.sol\":4039:4054  block.timestamp */\n      timestamp\n        /* \"Capstone/ForensicChain.sol\":3789:4113  Evidence({... */\n      dup2\n      mstore\n      0x20\n      add\n        /* \"Capstone/ForensicChain.sol\":4099:4100  0 */\n      0x00\n        /* \"Capstone/ForensicChain.sol\":4085:4101  new address[](0) */\n      0xffffffffffffffff\n      dup2\n      gt\n      iszero\n      tag_470\n      jumpi\n      tag_471\n      tag_428\n      jump\t// in\n    tag_471:\n    tag_470:\n      mload(0x40)\n      swap1\n      dup1\n      dup3\n      mstore\n      dup1\n      0x20\n      mul\n      0x20\n      add\n      dup3\n      add\n      0x40\n      mstore\n      dup1\n      iszero\n      tag_472\n      jumpi\n      dup2\n      0x20\n      add\n      0x20\n      dup3\n      mul\n      dup1\n      calldatasize\n      dup4\n      calldatacopy\n      dup1\n      dup3\n      add\n      swap2\n      pop\n      pop\n      swap1\n      pop\n    tag_472:\n      pop\n        /* \"Capstone/ForensicChain.sol\":3789:4113  Evidence({... */\n      dup2\n      mstore\n      pop\n        /* \"Capstone/ForensicChain.sol\":3769:4113  Evidence memory e = Evidence({... */\n      swap1\n      pop\n        /* \"Capstone/ForensicChain.sol\":4126:4152  _addNewEvidence(caseId, e) */\n      tag_473\n        /* \"Capstone/ForensicChain.sol\":4142:4148  caseId */\n      dup3\n        /* \"Capstone/ForensicChain.sol\":4150:4151  e */\n      dup3\n        /* \"Capstone/ForensicChain.sol\":4126:4141  _addNewEvidence */\n      tag_431\n        /* \"Capstone/ForensicChain.sol\":4126:4152  _addNewEvidence(caseId, e) */\n      jump\t// in\n    tag_473:\n        /* \"Capstone/ForensicChain.sol\":4185:4189  true */\n      0x01\n        /* \"Capstone/ForensicChain.sol\":4163:4174  usedCIDHash */\n      0x06\n        /* \"Capstone/ForensicChain.sol\":4163:4182  usedCIDHash[unique] */\n      0x00\n        /* \"Capstone/ForensicChain.sol\":4175:4181  unique */\n      dup6\n        /* \"Capstone/ForensicChain.sol\":4163:4182  usedCIDHash[unique] */\n      dup2\n      mstore\n      0x20\n      add\n      swap1\n      dup2\n      mstore\n      0x20\n      add\n      0x00\n      keccak256\n      0x00\n        /* \"Capstone/ForensicChain.sol\":4163:4189  usedCIDHash[unique] = true */\n      0x0100\n      exp\n      dup2\n      sload\n      dup2\n      0xff\n      mul\n      not\n      and\n      swap1\n      dup4\n      iszero\n      iszero\n      mul\n      or\n      swap1\n      sstore\n      pop\n        /* \"Capstone/ForensicChain.sol\":3235:4197  {... */\n      pop\n      pop\n      pop\n        /* \"Capstone/ForensicChain.sol\":3015:4197  function submitFIREvidence(... */\n      pop\n      pop\n      pop\n      pop\n      pop\n      jump\t// out\n        /* \"Capstone/ForensicChain.sol\":7809:7923  function getCase(string memory caseId) external view returns (Case memory) {... */\n    tag_128:\n        /* \"Capstone/ForensicChain.sol\":7871:7882  Case memory */\n      tag_474\n      tag_475\n      jump\t// in\n    tag_474:\n        /* \"Capstone/ForensicChain.sol\":7902:7907  cases */\n      0x03\n        /* \"Capstone/ForensicChain.sol\":7908:7914  caseId */\n      dup3\n        /* \"Capstone/ForensicChain.sol\":7902:7915  cases[caseId] */\n      mload(0x40)\n      tag_477\n      swap2\n      swap1\n      tag_153\n      jump\t// in\n    tag_477:\n      swap1\n      dup2\n      mstore\n      0x20\n      add\n      mload(0x40)\n      dup1\n      swap2\n      sub\n      swap1\n      keccak256\n        /* \"Capstone/ForensicChain.sol\":7895:7915  return cases[caseId] */\n      mload(0x40)\n      dup1\n      0x0100\n      add\n      0x40\n      mstore\n      swap1\n      dup2\n      0x00\n      dup3\n      add\n      dup1\n      sload\n      tag_478\n      swap1\n      tag_168\n      jump\t// in\n    tag_478:\n      dup1\n      0x1f\n      add\n      0x20\n      dup1\n      swap2\n      div\n      mul\n      0x20\n      add\n      mload(0x40)\n      swap1\n      dup2\n      add\n      0x40\n      mstore\n      dup1\n      swap3\n      swap2\n      swap1\n      dup2\n      dup2\n      mstore\n      0x20\n      add\n      dup3\n      dup1\n      sload\n      tag_479\n      swap1\n      tag_168\n      jump\t// in\n    tag_479:\n      dup1\n      iszero\n      tag_480\n      jumpi\n      dup1\n      0x1f\n      lt\n      tag_481\n      jumpi\n      0x0100\n      dup1\n      dup4\n      sload\n      div\n      mul\n      dup4\n      mstore\n      swap2\n      0x20\n      add\n      swap2\n      jump(tag_480)\n    tag_481:\n      dup3\n      add\n      swap2\n      swap1\n      0x00\n      mstore\n      keccak256(0x00, 0x20)\n      swap1\n    tag_482:\n      dup2\n      sload\n      dup2\n      mstore\n      swap1\n      0x01\n      add\n      swap1\n      0x20\n      add\n      dup1\n      dup4\n      gt\n      tag_482\n      jumpi\n      dup3\n      swap1\n      sub\n      0x1f\n      and\n      dup3\n      add\n      swap2\n    tag_480:\n      pop\n      pop\n      pop\n      pop\n      pop\n      dup2\n      mstore\n      0x20\n      add\n      0x01\n      dup3\n      add\n      dup1\n      sload\n      tag_483\n      swap1\n      tag_168\n      jump\t// in\n    tag_483:\n      dup1\n      0x1f\n      add\n      0x20\n      dup1\n      swap2\n      div\n      mul\n      0x20\n      add\n      mload(0x40)\n      swap1\n      dup2\n      add\n      0x40\n      mstore\n      dup1\n      swap3\n      swap2\n      swap1\n      dup2\n      dup2\n      mstore\n      0x20\n      add\n      dup3\n      dup1\n      sload\n      tag_484\n      swap1\n      tag_168\n      jump\t// in\n    tag_484:\n      dup1\n      iszero\n      tag_485\n      jumpi\n      dup1\n      0x1f\n      lt\n      tag_486\n      jumpi\n      0x0100\n      dup1\n      dup4\n      sload\n      div\n      mul\n      dup4\n      mstore\n      swap2\n      0x20\n      add\n      swap2\n      jump(tag_485)\n    tag_486:\n      dup3\n      add\n      swap2\n      swap1\n      0x00\n      mstore\n      keccak256(0x00, 0x20)\n      swap1\n    tag_487:\n      dup2\n      sload\n      dup2\n      mstore\n      swap1\n      0x01\n      add\n      swap1\n      0x20\n      add\n      dup1\n      dup4\n      gt\n      tag_487\n      jumpi\n      dup3\n      swap1\n      sub\n      0x1f\n      and\n      dup3\n      add\n      swap2\n    tag_485:\n      pop\n      pop\n      pop\n      pop\n      pop\n      dup2\n      mstore\n      0x20\n      add\n      0x02\n      dup3\n      add\n      dup1\n      sload\n      tag_488\n      swap1\n      tag_168\n      jump\t// in\n    tag_488:\n      dup1\n      0x1f\n      add\n      0x20\n      dup1\n      swap2\n      div\n      mul\n      0x20\n      add\n      mload(0x40)\n      swap1\n      dup2\n      add\n      0x40\n      mstore\n      dup1\n      swap3\n      swap2\n      swap1\n      dup2\n      dup2\n      mstore\n      0x20\n      add\n      dup3\n      dup1\n      sload\n      tag_489\n      swap1\n      tag_168\n      jump\t// in\n    tag_489:\n      dup1\n      iszero\n      tag_490\n      jumpi\n      dup1\n      0x1f\n      lt\n      tag_491\n      jumpi\n      0x0100\n      dup1\n      dup4\n      sload\n      div\n      mul\n      dup4\n      mstore\n      swap2\n      0x20\n      add\n      swap2\n      jump(tag_490)\n    tag_491:\n      dup3\n      add\n      swap2\n      swap1\n      0x00\n      mstore\n      keccak256(0x00, 0x20)\n      swap1\n    tag_492:\n      dup2\n      sload\n      dup2\n      mstore\n      swap1\n      0x01\n      add\n      swap1\n      0x20\n      add\n      dup1\n      dup4\n      gt\n      tag_492\n      jumpi\n      dup3\n      swap1\n      sub\n      0x1f\n      and\n      dup3\n      add\n      swap2\n    tag_490:\n      pop\n      pop\n      pop\n      pop\n      pop\n      dup2\n      mstore\n      0x20\n      add\n      0x03\n      dup3\n      add\n      0x00\n      swap1\n      sload\n      swap1\n      0x0100\n      exp\n      swap1\n      div\n      0xffffffffffffffffffffffffffffffffffffffff\n      and\n      0xffffffffffffffffffffffffffffffffffffffff\n      and\n      0xffffffffffffffffffffffffffffffffffffffff\n      and\n      dup2\n      mstore\n      0x20\n      add\n      0x03\n      dup3\n      add\n      0x14\n      swap1\n      sload\n      swap1\n      0x0100\n      exp\n      swap1\n      div\n      0xff\n      and\n      iszero\n      iszero\n      iszero\n      iszero\n      dup2\n      mstore\n      0x20\n      add\n      0x03\n      dup3\n      add\n      0x15\n      swap1\n      sload\n      swap1\n      0x0100\n      exp\n      swap1\n      div\n      0xff\n      and\n      iszero\n      iszero\n      iszero\n      iszero\n      dup2\n      mstore\n      0x20\n      add\n      0x04\n      dup3\n      add\n      dup1\n      sload\n      dup1\n      0x20\n      mul\n      0x20\n      add\n      mload(0x40)\n      swap1\n      dup2\n      add\n      0x40\n      mstore\n      dup1\n      swap3\n      swap2\n      swap1\n      dup2\n      dup2\n      mstore\n      0x20\n      add\n      0x00\n      swap1\n    tag_493:\n      dup3\n      dup3\n      lt\n      iszero\n      tag_494\n      jumpi\n      dup4\n      dup3\n      swap1\n      0x00\n      mstore\n      keccak256(0x00, 0x20)\n      add\n      dup1\n      sload\n      tag_496\n      swap1\n      tag_168\n      jump\t// in\n    tag_496:\n      dup1\n      0x1f\n      add\n      0x20\n      dup1\n      swap2\n      div\n      mul\n      0x20\n      add\n      mload(0x40)\n      swap1\n      dup2\n      add\n      0x40\n      mstore\n      dup1\n      swap3\n      swap2\n      swap1\n      dup2\n      dup2\n      mstore\n      0x20\n      add\n      dup3\n      dup1\n      sload\n      tag_497\n      swap1\n      tag_168\n      jump\t// in\n    tag_497:\n      dup1\n      iszero\n      tag_498\n      jumpi\n      dup1\n      0x1f\n      lt\n      tag_499\n      jumpi\n      0x0100\n      dup1\n      dup4\n      sload\n      div\n      mul\n      dup4\n      mstore\n      swap2\n      0x20\n      add\n      swap2\n      jump(tag_498)\n    tag_499:\n      dup3\n      add\n      swap2\n      swap1\n      0x00\n      mstore\n      keccak256(0x00, 0x20)\n      swap1\n    tag_500:\n      dup2\n      sload\n      dup2\n      mstore\n      swap1\n      0x01\n      add\n      swap1\n      0x20\n      add\n      dup1\n      dup4\n      gt\n      tag_500\n      jumpi\n      dup3\n      swap1\n      sub\n      0x1f\n      and\n      dup3\n      add\n      swap2\n    tag_498:\n      pop\n      pop\n      pop\n      pop\n      pop\n      dup2\n      mstore\n      0x20\n      add\n      swap1\n      0x01\n      add\n      swap1\n      jump(tag_493)\n    tag_494:\n      pop\n      pop\n      pop\n      pop\n      dup2\n      mstore\n      0x20\n      add\n      0x05\n      dup3\n      add\n      sload\n      dup2\n      mstore\n      pop\n      pop\n      swap1\n      pop\n        /* \"Capstone/ForensicChain.sol\":7809:7923  function getCase(string memory caseId) external view returns (Case memory) {... */\n      swap2\n      swap1\n      pop\n      jump\t// out\n        /* \"Capstone/ForensicChain.sol\":928:954  bool public isSystemLocked */\n    tag_132:\n      0x00\n      0x14\n      swap1\n      sload\n      swap1\n      0x0100\n      exp\n      swap1\n      div\n      0xff\n      and\n      dup2\n      jump\t// out\n        /* \"Capstone/ForensicChain.sol\":1054:1090  mapping(string => Case) public cases */\n    tag_136:\n      0x03\n      dup2\n      dup1\n      mload\n      0x20\n      dup2\n      add\n      dup3\n      add\n      dup1\n      mload\n      dup5\n      dup3\n      mstore\n      0x20\n      dup4\n      add\n      0x20\n      dup6\n      add\n      keccak256\n      dup2\n      dup4\n      mstore\n      dup1\n      swap6\n      pop\n      pop\n      pop\n      pop\n      pop\n      pop\n      0x00\n      swap2\n      pop\n      swap1\n      pop\n      dup1\n      0x00\n      add\n      dup1\n      sload\n      tag_501\n      swap1\n      tag_168\n      jump\t// in\n    tag_501:\n      dup1\n      0x1f\n      add\n      0x20\n      dup1\n      swap2\n      div\n      mul\n      0x20\n      add\n      mload(0x40)\n      swap1\n      dup2\n      add\n      0x40\n      mstore\n      dup1\n      swap3\n      swap2\n      swap1\n      dup2\n      dup2\n      mstore\n      0x20\n      add\n      dup3\n      dup1\n      sload\n      tag_502\n      swap1\n      tag_168\n      jump\t// in\n    tag_502:\n      dup1\n      iszero\n      tag_503\n      jumpi\n      dup1\n      0x1f\n      lt\n      tag_504\n      jumpi\n      0x0100\n      dup1\n      dup4\n      sload\n      div\n      mul\n      dup4\n      mstore\n      swap2\n      0x20\n      add\n      swap2\n      jump(tag_503)\n    tag_504:\n      dup3\n      add\n      swap2\n      swap1\n      0x00\n      mstore\n      keccak256(0x00, 0x20)\n      swap1\n    tag_505:\n      dup2\n      sload\n      dup2\n      mstore\n      swap1\n      0x01\n      add\n      swap1\n      0x20\n      add\n      dup1\n      dup4\n      gt\n      tag_505\n      jumpi\n      dup3\n      swap1\n      sub\n      0x1f\n      and\n      dup3\n      add\n      swap2\n    tag_503:\n      pop\n      pop\n      pop\n      pop\n      pop\n      swap1\n      dup1\n      0x01\n      add\n      dup1\n      sload\n      tag_506\n      swap1\n      tag_168\n      jump\t// in\n    tag_506:\n      dup1\n      0x1f\n      add\n      0x20\n      dup1\n      swap2\n      div\n      mul\n      0x20\n      add\n      mload(0x40)\n      swap1\n      dup2\n      add\n      0x40\n      mstore\n      dup1\n      swap3\n      swap2\n      swap1\n      dup2\n      dup2\n      mstore\n      0x20\n      add\n      dup3\n      dup1\n      sload\n      tag_507\n      swap1\n      tag_168\n      jump\t// in\n    tag_507:\n      dup1\n      iszero\n      tag_508\n      jumpi\n      dup1\n      0x1f\n      lt\n      tag_509\n      jumpi\n      0x0100\n      dup1\n      dup4\n      sload\n      div\n      mul\n      dup4\n      mstore\n      swap2\n      0x20\n      add\n      swap2\n      jump(tag_508)\n    tag_509:\n      dup3\n      add\n      swap2\n      swap1\n      0x00\n      mstore\n      keccak256(0x00, 0x20)\n      swap1\n    tag_510:\n      dup2\n      sload\n      dup2\n      mstore\n      swap1\n      0x01\n      add\n      swap1\n      0x20\n      add\n      dup1\n      dup4\n      gt\n      tag_510\n      jumpi\n      dup3\n      swap1\n      sub\n      0x1f\n      and\n      dup3\n      add\n      swap2\n    tag_508:\n      pop\n      pop\n      pop\n      pop\n      pop\n      swap1\n      dup1\n      0x02\n      add\n      dup1\n      sload\n      tag_511\n      swap1\n      tag_168\n      jump\t// in\n    tag_511:\n      dup1\n      0x1f\n      add\n      0x20\n      dup1\n      swap2\n      div\n      mul\n      0x20\n      add\n      mload(0x40)\n      swap1\n      dup2\n      add\n      0x40\n      mstore\n      dup1\n      swap3\n      swap2\n      swap1\n      dup2\n      dup2\n      mstore\n      0x20\n      add\n      dup3\n      dup1\n      sload\n      tag_512\n      swap1\n      tag_168\n      jump\t// in\n    tag_512:\n      dup1\n      iszero\n      tag_513\n      jumpi\n      dup1\n      0x1f\n      lt\n      tag_514\n      jumpi\n      0x0100\n      dup1\n      dup4\n      sload\n      div\n      mul\n      dup4\n      mstore\n      swap2\n      0x20\n      add\n      swap2\n      jump(tag_513)\n    tag_514:\n      dup3\n      add\n      swap2\n      swap1\n      0x00\n      mstore\n      keccak256(0x00, 0x20)\n      swap1\n    tag_515:\n      dup2\n      sload\n      dup2\n      mstore\n      swap1\n      0x01\n      add\n      swap1\n      0x20\n      add\n      dup1\n      dup4\n      gt\n      tag_515\n      jumpi\n      dup3\n      swap1\n      sub\n      0x1f\n      and\n      dup3\n      add\n      swap2\n    tag_513:\n      pop\n      pop\n      pop\n      pop\n      pop\n      swap1\n      dup1\n      0x03\n      add\n      0x00\n      swap1\n      sload\n      swap1\n      0x0100\n      exp\n      swap1\n      div\n      0xffffffffffffffffffffffffffffffffffffffff\n      and\n      swap1\n      dup1\n      0x03\n      add\n      0x14\n      swap1\n      sload\n      swap1\n      0x0100\n      exp\n      swap1\n      div\n      0xff\n      and\n      swap1\n      dup1\n      0x03\n      add\n      0x15\n      swap1\n      sload\n      swap1\n      0x0100\n      exp\n      swap1\n      div\n      0xff\n      and\n      swap1\n      dup1\n      0x05\n      add\n      sload\n      swap1\n      pop\n      dup8\n      jump\t// out\n        /* \"Capstone/ForensicChain.sol\":1346:1430  mapping(string => mapping(uint => mapping(address => bool))) public evidenceAccessed */\n    tag_142:\n      0x08\n      dup4\n      dup1\n      mload\n      0x20\n      dup2\n      add\n      dup3\n      add\n      dup1\n      mload\n      dup5\n      dup3\n      mstore\n      0x20\n      dup4\n      add\n      0x20\n      dup6\n      add\n      keccak256\n      dup2\n      dup4\n      mstore\n      dup1\n      swap6\n      pop\n      pop\n      pop\n      pop\n      pop\n      pop\n      0x20\n      mstore\n      dup2\n      0x00\n      mstore\n      mstore(0x20, keccak256(0x00, 0x40))\n      dup1\n      0x00\n      mstore\n      keccak256(0x00, 0x40)\n      0x00\n      swap3\n      pop\n      swap3\n      pop\n      pop\n      swap1\n      sload\n      swap1\n      0x0100\n      exp\n      swap1\n      div\n      0xff\n      and\n      dup2\n      jump\t// out\n        /* \"Capstone/ForensicChain.sol\":7553:7684  function getMyRoleInCase(string memory caseId) external view returns (Role) {... */\n    tag_146:\n        /* \"Capstone/ForensicChain.sol\":7623:7627  Role */\n      0x00\n        /* \"Capstone/ForensicChain.sol\":7647:7656  caseRoles */\n      0x04\n        /* \"Capstone/ForensicChain.sol\":7657:7663  caseId */\n      dup3\n        /* \"Capstone/ForensicChain.sol\":7647:7664  caseRoles[caseId] */\n      mload(0x40)\n      tag_517\n      swap2\n      swap1\n      tag_153\n      jump\t// in\n    tag_517:\n      swap1\n      dup2\n      mstore\n      0x20\n      add\n      mload(0x40)\n      dup1\n      swap2\n      sub\n      swap1\n      keccak256\n        /* \"Capstone/ForensicChain.sol\":7647:7676  caseRoles[caseId][msg.sender] */\n      0x00\n        /* \"Capstone/ForensicChain.sol\":7665:7675  msg.sender */\n      caller\n        /* \"Capstone/ForensicChain.sol\":7647:7676  caseRoles[caseId][msg.sender] */\n      0xffffffffffffffffffffffffffffffffffffffff\n      and\n      0xffffffffffffffffffffffffffffffffffffffff\n      and\n      dup2\n      mstore\n      0x20\n      add\n      swap1\n      dup2\n      mstore\n      0x20\n      add\n      0x00\n      keccak256\n      0x00\n      swap1\n      sload\n      swap1\n      0x0100\n      exp\n      swap1\n      div\n      0xff\n      and\n        /* \"Capstone/ForensicChain.sol\":7640:7676  return caseRoles[caseId][msg.sender] */\n      swap1\n      pop\n        /* \"Capstone/ForensicChain.sol\":7553:7684  function getMyRoleInCase(string memory caseId) external view returns (Role) {... */\n      swap2\n      swap1\n      pop\n      jump\t// out\n        /* \"Capstone/ForensicChain.sol\":4205:4416  function _addNewEvidence(string memory caseId, Evidence memory e) internal {... */\n    tag_431:\n        /* \"Capstone/ForensicChain.sol\":4291:4305  Case storage c */\n      0x00\n        /* \"Capstone/ForensicChain.sol\":4308:4313  cases */\n      0x03\n        /* \"Capstone/ForensicChain.sol\":4314:4320  caseId */\n      dup4\n        /* \"Capstone/ForensicChain.sol\":4308:4321  cases[caseId] */\n      mload(0x40)\n      tag_519\n      swap2\n      swap1\n      tag_153\n      jump\t// in\n    tag_519:\n      swap1\n      dup2\n      mstore\n      0x20\n      add\n      mload(0x40)\n      dup1\n      swap2\n      sub\n      swap1\n      keccak256\n        /* \"Capstone/ForensicChain.sol\":4291:4321  Case storage c = cases[caseId] */\n      swap1\n      pop\n        /* \"Capstone/ForensicChain.sol\":4379:4380  e */\n      dup2\n        /* \"Capstone/ForensicChain.sol\":4332:4351  caseEvidenceMapping */\n      0x09\n        /* \"Capstone/ForensicChain.sol\":4352:4358  caseId */\n      dup5\n        /* \"Capstone/ForensicChain.sol\":4332:4359  caseEvidenceMapping[caseId] */\n      mload(0x40)\n      tag_520\n      swap2\n      swap1\n      tag_153\n      jump\t// in\n    tag_520:\n      swap1\n      dup2\n      mstore\n      0x20\n      add\n      mload(0x40)\n      dup1\n      swap2\n      sub\n      swap1\n      keccak256\n        /* \"Capstone/ForensicChain.sol\":4332:4376  caseEvidenceMapping[caseId][c.evidenceCount] */\n      0x00\n        /* \"Capstone/ForensicChain.sol\":4360:4361  c */\n      dup4\n        /* \"Capstone/ForensicChain.sol\":4360:4375  c.evidenceCount */\n      0x05\n      add\n      sload\n        /* \"Capstone/ForensicChain.sol\":4332:4376  caseEvidenceMapping[caseId][c.evidenceCount] */\n      dup2\n      mstore\n      0x20\n      add\n      swap1\n      dup2\n      mstore\n      0x20\n      add\n      0x00\n      keccak256\n        /* \"Capstone/ForensicChain.sol\":4332:4380  caseEvidenceMapping[caseId][c.evidenceCount] = e */\n      0x00\n      dup3\n      add\n      mload\n      dup2\n      0x00\n      add\n      swap1\n      dup2\n      tag_521\n      swap2\n      swap1\n      tag_240\n      jump\t// in\n    tag_521:\n      pop\n      0x20\n      dup3\n      add\n      mload\n      dup2\n      0x01\n      add\n      swap1\n      dup2\n      tag_522\n      swap2\n      swap1\n      tag_240\n      jump\t// in\n    tag_522:\n      pop\n      0x40\n      dup3\n      add\n      mload\n      dup2\n      0x02\n      add\n      swap1\n      dup2\n      tag_523\n      swap2\n      swap1\n      tag_240\n      jump\t// in\n    tag_523:\n      pop\n      0x60\n      dup3\n      add\n      mload\n      dup2\n      0x03\n      add\n      exp(0x0100, 0x00)\n      dup2\n      sload\n      dup2\n      0xff\n      mul\n      not\n      and\n      swap1\n      dup4\n      0x03\n      dup2\n      gt\n      iszero\n      tag_524\n      jumpi\n      tag_525\n      tag_151\n      jump\t// in\n    tag_525:\n    tag_524:\n      mul\n      or\n      swap1\n      sstore\n      pop\n      0x80\n      dup3\n      add\n      mload\n      dup2\n      0x03\n      add\n      exp(0x0100, 0x01)\n      dup2\n      sload\n      dup2\n      0xffffffffffffffffffffffffffffffffffffffff\n      mul\n      not\n      and\n      swap1\n      dup4\n      0xffffffffffffffffffffffffffffffffffffffff\n      and\n      mul\n      or\n      swap1\n      sstore\n      pop\n      0xa0\n      dup3\n      add\n      mload\n      dup2\n      0x03\n      add\n      exp(0x0100, 0x15)\n      dup2\n      sload\n      dup2\n      0xff\n      mul\n      not\n      and\n      swap1\n      dup4\n      iszero\n      iszero\n      mul\n      or\n      swap1\n      sstore\n      pop\n      0xc0\n      dup3\n      add\n      mload\n      dup2\n      0x04\n      add\n      sstore\n      0xe0\n      dup3\n      add\n      mload\n      dup2\n      0x05\n      add\n      swap1\n      dup1\n      mload\n      swap1\n      0x20\n      add\n      swap1\n      tag_526\n      swap3\n      swap2\n      swap1\n      tag_527\n      jump\t// in\n    tag_526:\n      pop\n      swap1\n      pop\n      pop\n        /* \"Capstone/ForensicChain.sol\":4391:4392  c */\n      dup1\n        /* \"Capstone/ForensicChain.sol\":4391:4406  c.evidenceCount */\n      0x05\n      add\n      0x00\n        /* \"Capstone/ForensicChain.sol\":4391:4408  c.evidenceCount++ */\n      dup2\n      sload\n      dup1\n      swap3\n      swap2\n      swap1\n      tag_528\n      swap1\n      tag_529\n      jump\t// in\n    tag_528:\n      swap2\n      swap1\n      pop\n      sstore\n      pop\n        /* \"Capstone/ForensicChain.sol\":4280:4416  {... */\n      pop\n        /* \"Capstone/ForensicChain.sol\":4205:4416  function _addNewEvidence(string memory caseId, Evidence memory e) internal {... */\n      pop\n      pop\n      jump\t// out\n    tag_313:\n      mload(0x40)\n      dup1\n      0xc0\n      add\n      0x40\n      mstore\n      dup1\n      0x60\n      dup2\n      mstore\n      0x20\n      add\n      and(0xffffffffffffffffffffffffffffffffffffffff, 0x00)\n      dup2\n      mstore\n      0x20\n      add\n      0x60\n      dup2\n      mstore\n      0x20\n      add\n      0x00\n      dup2\n      mstore\n      0x20\n      add\n      iszero(iszero(0x00))\n      dup2\n      mstore\n      0x20\n      add\n      0x60\n      dup2\n      mstore\n      pop\n      swap1\n      jump\t// out\n    tag_381:\n      dup3\n      dup1\n      sload\n      dup3\n      dup3\n      sstore\n      swap1\n      0x00\n      mstore\n      keccak256(0x00, 0x20)\n      swap1\n      dup2\n      add\n      swap3\n      dup3\n      iszero\n      tag_530\n      jumpi\n      swap2\n      0x20\n      mul\n      dup3\n      add\n    tag_531:\n      dup3\n      dup2\n      gt\n      iszero\n      tag_532\n      jumpi\n      dup3\n      mload\n      dup3\n      swap1\n      dup2\n      tag_533\n      swap2\n      swap1\n      tag_240\n      jump\t// in\n    tag_533:\n      pop\n      swap2\n      0x20\n      add\n      swap2\n      swap1\n      0x01\n      add\n      swap1\n      jump(tag_531)\n    tag_532:\n    tag_530:\n      pop\n      swap1\n      pop\n      tag_534\n      swap2\n      swap1\n      tag_535\n      jump\t// in\n    tag_534:\n      pop\n      swap1\n      jump\t// out\n    tag_475:\n      mload(0x40)\n      dup1\n      0x0100\n      add\n      0x40\n      mstore\n      dup1\n      0x60\n      dup2\n      mstore\n      0x20\n      add\n      0x60\n      dup2\n      mstore\n      0x20\n      add\n      0x60\n      dup2\n      mstore\n      0x20\n      add\n      and(0xffffffffffffffffffffffffffffffffffffffff, 0x00)\n      dup2\n      mstore\n      0x20\n      add\n      iszero(iszero(0x00))\n      dup2\n      mstore\n      0x20\n      add\n      iszero(iszero(0x00))\n      dup2\n      mstore\n      0x20\n      add\n      0x60\n      dup2\n      mstore\n      0x20\n      add\n      0x00\n      dup2\n      mstore\n      pop\n      swap1\n      jump\t// out\n    tag_527:\n      dup3\n      dup1\n      sload\n      dup3\n      dup3\n      sstore\n      swap1\n      0x00\n      mstore\n      keccak256(0x00, 0x20)\n      swap1\n      dup2\n      add\n      swap3\n      dup3\n      iszero\n      tag_536\n      jumpi\n      swap2\n      0x20\n      mul\n      dup3\n      add\n    tag_537:\n      dup3\n      dup2\n      gt\n      iszero\n      tag_538\n      jumpi\n      dup3\n      mload\n      dup3\n      exp(0x0100, 0x00)\n      dup2\n      sload\n      dup2\n      0xffffffffffffffffffffffffffffffffffffffff\n      mul\n      not\n      and\n      swap1\n      dup4\n      0xffffffffffffffffffffffffffffffffffffffff\n      and\n      mul\n      or\n      swap1\n      sstore\n      pop\n      swap2\n      0x20\n      add\n      swap2\n      swap1\n      0x01\n      add\n      swap1\n      jump(tag_537)\n    tag_538:\n    tag_536:\n      pop\n      swap1\n      pop\n      tag_539\n      swap2\n      swap1\n      tag_540\n      jump\t// in\n    tag_539:\n      pop\n      swap1\n      jump\t// out\n    tag_535:\n    tag_541:\n      dup1\n      dup3\n      gt\n      iszero\n      tag_542\n      jumpi\n      0x00\n      dup2\n      dup2\n      tag_543\n      swap2\n      swap1\n      tag_544\n      jump\t// in\n    tag_543:\n      pop\n      0x01\n      add\n      jump(tag_541)\n    tag_542:\n      pop\n      swap1\n      jump\t// out\n    tag_540:\n    tag_545:\n      dup1\n      dup3\n      gt\n      iszero\n      tag_546\n      jumpi\n      0x00\n      dup2\n      0x00\n      swap1\n      sstore\n      pop\n      0x01\n      add\n      jump(tag_545)\n    tag_546:\n      pop\n      swap1\n      jump\t// out\n    tag_544:\n      pop\n      dup1\n      sload\n      tag_547\n      swap1\n      tag_168\n      jump\t// in\n    tag_547:\n      0x00\n      dup3\n      sstore\n      dup1\n      0x1f\n      lt\n      tag_549\n      jumpi\n      pop\n      jump(tag_548)\n    tag_549:\n      0x1f\n      add\n      0x20\n      swap1\n      div\n      swap1\n      0x00\n      mstore\n      keccak256(0x00, 0x20)\n      swap1\n      dup2\n      add\n      swap1\n      tag_550\n      swap2\n      swap1\n      tag_540\n      jump\t// in\n    tag_550:\n    tag_548:\n      pop\n      jump\t// out\n        /* \"#utility.yul\":7:82   */\n    tag_551:\n        /* \"#utility.yul\":40:46   */\n      0x00\n        /* \"#utility.yul\":73:75   */\n      0x40\n        /* \"#utility.yul\":67:76   */\n      mload\n        /* \"#utility.yul\":57:76   */\n      swap1\n      pop\n        /* \"#utility.yul\":7:82   */\n      swap1\n      jump\t// out\n        /* \"#utility.yul\":88:205   */\n    tag_552:\n        /* \"#utility.yul\":197:198   */\n      0x00\n        /* \"#utility.yul\":194:195   */\n      0x00\n        /* \"#utility.yul\":187:199   */\n      revert\n        /* \"#utility.yul\":211:328   */\n    tag_553:\n        /* \"#utility.yul\":320:321   */\n      0x00\n        /* \"#utility.yul\":317:318   */\n      0x00\n        /* \"#utility.yul\":310:322   */\n      revert\n        /* \"#utility.yul\":334:451   */\n    tag_554:\n        /* \"#utility.yul\":443:444   */\n      0x00\n        /* \"#utility.yul\":440:441   */\n      0x00\n        /* \"#utility.yul\":433:445   */\n      revert\n        /* \"#utility.yul\":457:574   */\n    tag_555:\n        /* \"#utility.yul\":566:567   */\n      0x00\n        /* \"#utility.yul\":563:564   */\n      0x00\n        /* \"#utility.yul\":556:568   */\n      revert\n        /* \"#utility.yul\":580:682   */\n    tag_556:\n        /* \"#utility.yul\":621:627   */\n      0x00\n        /* \"#utility.yul\":672:674   */\n      0x1f\n        /* \"#utility.yul\":668:675   */\n      not\n        /* \"#utility.yul\":663:665   */\n      0x1f\n        /* \"#utility.yul\":656:661   */\n      dup4\n        /* \"#utility.yul\":652:666   */\n      add\n        /* \"#utility.yul\":648:676   */\n      and\n        /* \"#utility.yul\":638:676   */\n      swap1\n      pop\n        /* \"#utility.yul\":580:682   */\n      swap2\n      swap1\n      pop\n      jump\t// out\n        /* \"#utility.yul\":688:868   */\n    tag_428:\n        /* \"#utility.yul\":736:813   */\n      0x4e487b7100000000000000000000000000000000000000000000000000000000\n        /* \"#utility.yul\":733:734   */\n      0x00\n        /* \"#utility.yul\":726:814   */\n      mstore\n        /* \"#utility.yul\":833:837   */\n      0x41\n        /* \"#utility.yul\":830:831   */\n      0x04\n        /* \"#utility.yul\":823:838   */\n      mstore\n        /* \"#utility.yul\":857:861   */\n      0x24\n        /* \"#utility.yul\":854:855   */\n      0x00\n        /* \"#utility.yul\":847:862   */\n      revert\n        /* \"#utility.yul\":874:1155   */\n    tag_557:\n        /* \"#utility.yul\":957:984   */\n      tag_676\n        /* \"#utility.yul\":979:983   */\n      dup3\n        /* \"#utility.yul\":957:984   */\n      tag_556\n      jump\t// in\n    tag_676:\n        /* \"#utility.yul\":949:955   */\n      dup2\n        /* \"#utility.yul\":945:985   */\n      add\n        /* \"#utility.yul\":1087:1093   */\n      dup2\n        /* \"#utility.yul\":1075:1085   */\n      dup2\n        /* \"#utility.yul\":1072:1094   */\n      lt\n        /* \"#utility.yul\":1051:1069   */\n      0xffffffffffffffff\n        /* \"#utility.yul\":1039:1049   */\n      dup3\n        /* \"#utility.yul\":1036:1070   */\n      gt\n        /* \"#utility.yul\":1033:1095   */\n      or\n        /* \"#utility.yul\":1030:1118   */\n      iszero\n      tag_677\n      jumpi\n        /* \"#utility.yul\":1098:1116   */\n      tag_678\n      tag_428\n      jump\t// in\n    tag_678:\n        /* \"#utility.yul\":1030:1118   */\n    tag_677:\n        /* \"#utility.yul\":1138:1148   */\n      dup1\n        /* \"#utility.yul\":1134:1136   */\n      0x40\n        /* \"#utility.yul\":1127:1149   */\n      mstore\n        /* \"#utility.yul\":917:1155   */\n      pop\n        /* \"#utility.yul\":874:1155   */\n      pop\n      pop\n      jump\t// out\n        /* \"#utility.yul\":1161:1290   */\n    tag_558:\n        /* \"#utility.yul\":1195:1201   */\n      0x00\n        /* \"#utility.yul\":1222:1242   */\n      tag_680\n      tag_551\n      jump\t// in\n    tag_680:\n        /* \"#utility.yul\":1212:1242   */\n      swap1\n      pop\n        /* \"#utility.yul\":1251:1284   */\n      tag_681\n        /* \"#utility.yul\":1279:1283   */\n      dup3\n        /* \"#utility.yul\":1271:1277   */\n      dup3\n        /* \"#utility.yul\":1251:1284   */\n      tag_557\n      jump\t// in\n    tag_681:\n        /* \"#utility.yul\":1161:1290   */\n      swap2\n      swap1\n      pop\n      jump\t// out\n        /* \"#utility.yul\":1296:1604   */\n    tag_559:\n        /* \"#utility.yul\":1358:1362   */\n      0x00\n        /* \"#utility.yul\":1448:1466   */\n      0xffffffffffffffff\n        /* \"#utility.yul\":1440:1446   */\n      dup3\n        /* \"#utility.yul\":1437:1467   */\n      gt\n        /* \"#utility.yul\":1434:1490   */\n      iszero\n      tag_683\n      jumpi\n        /* \"#utility.yul\":1470:1488   */\n      tag_684\n      tag_428\n      jump\t// in\n    tag_684:\n        /* \"#utility.yul\":1434:1490   */\n    tag_683:\n        /* \"#utility.yul\":1508:1537   */\n      tag_685\n        /* \"#utility.yul\":1530:1536   */\n      dup3\n        /* \"#utility.yul\":1508:1537   */\n      tag_556\n      jump\t// in\n    tag_685:\n        /* \"#utility.yul\":1500:1537   */\n      swap1\n      pop\n        /* \"#utility.yul\":1592:1596   */\n      0x20\n        /* \"#utility.yul\":1586:1590   */\n      dup2\n        /* \"#utility.yul\":1582:1597   */\n      add\n        /* \"#utility.yul\":1574:1597   */\n      swap1\n      pop\n        /* \"#utility.yul\":1296:1604   */\n      swap2\n      swap1\n      pop\n      jump\t// out\n        /* \"#utility.yul\":1610:1758   */\n    tag_560:\n        /* \"#utility.yul\":1708:1714   */\n      dup3\n        /* \"#utility.yul\":1703:1706   */\n      dup2\n        /* \"#utility.yul\":1698:1701   */\n      dup4\n        /* \"#utility.yul\":1685:1715   */\n      calldatacopy\n        /* \"#utility.yul\":1749:1750   */\n      0x00\n        /* \"#utility.yul\":1740:1746   */\n      dup4\n        /* \"#utility.yul\":1735:1738   */\n      dup4\n        /* \"#utility.yul\":1731:1747   */\n      add\n        /* \"#utility.yul\":1724:1751   */\n      mstore\n        /* \"#utility.yul\":1610:1758   */\n      pop\n      pop\n      pop\n      jump\t// out\n        /* \"#utility.yul\":1764:2189   */\n    tag_561:\n        /* \"#utility.yul\":1842:1847   */\n      0x00\n        /* \"#utility.yul\":1867:1933   */\n      tag_688\n        /* \"#utility.yul\":1883:1932   */\n      tag_689\n        /* \"#utility.yul\":1925:1931   */\n      dup5\n        /* \"#utility.yul\":1883:1932   */\n      tag_559\n      jump\t// in\n    tag_689:\n        /* \"#utility.yul\":1867:1933   */\n      tag_558\n      jump\t// in\n    tag_688:\n        /* \"#utility.yul\":1858:1933   */\n      swap1\n      pop\n        /* \"#utility.yul\":1956:1962   */\n      dup3\n        /* \"#utility.yul\":1949:1954   */\n      dup2\n        /* \"#utility.yul\":1942:1963   */\n      mstore\n        /* \"#utility.yul\":1994:1998   */\n      0x20\n        /* \"#utility.yul\":1987:1992   */\n      dup2\n        /* \"#utility.yul\":1983:1999   */\n      add\n        /* \"#utility.yul\":2032:2035   */\n      dup5\n        /* \"#utility.yul\":2023:2029   */\n      dup5\n        /* \"#utility.yul\":2018:2021   */\n      dup5\n        /* \"#utility.yul\":2014:2030   */\n      add\n        /* \"#utility.yul\":2011:2036   */\n      gt\n        /* \"#utility.yul\":2008:2120   */\n      iszero\n      tag_690\n      jumpi\n        /* \"#utility.yul\":2039:2118   */\n      tag_691\n      tag_555\n      jump\t// in\n    tag_691:\n        /* \"#utility.yul\":2008:2120   */\n    tag_690:\n        /* \"#utility.yul\":2129:2183   */\n      tag_692\n        /* \"#utility.yul\":2176:2182   */\n      dup5\n        /* \"#utility.yul\":2171:2174   */\n      dup3\n        /* \"#utility.yul\":2166:2169   */\n      dup6\n        /* \"#utility.yul\":2129:2183   */\n      tag_560\n      jump\t// in\n    tag_692:\n        /* \"#utility.yul\":1848:2189   */\n      pop\n        /* \"#utility.yul\":1764:2189   */\n      swap4\n      swap3\n      pop\n      pop\n      pop\n      jump\t// out\n        /* \"#utility.yul\":2209:2549   */\n    tag_562:\n        /* \"#utility.yul\":2265:2270   */\n      0x00\n        /* \"#utility.yul\":2314:2317   */\n      dup3\n        /* \"#utility.yul\":2307:2311   */\n      0x1f\n        /* \"#utility.yul\":2299:2305   */\n      dup4\n        /* \"#utility.yul\":2295:2312   */\n      add\n        /* \"#utility.yul\":2291:2318   */\n      slt\n        /* \"#utility.yul\":2281:2403   */\n      tag_694\n      jumpi\n        /* \"#utility.yul\":2322:2401   */\n      tag_695\n      tag_554\n      jump\t// in\n    tag_695:\n        /* \"#utility.yul\":2281:2403   */\n    tag_694:\n        /* \"#utility.yul\":2439:2445   */\n      dup2\n        /* \"#utility.yul\":2426:2446   */\n      calldataload\n        /* \"#utility.yul\":2464:2543   */\n      tag_696\n        /* \"#utility.yul\":2539:2542   */\n      dup5\n        /* \"#utility.yul\":2531:2537   */\n      dup3\n        /* \"#utility.yul\":2524:2528   */\n      0x20\n        /* \"#utility.yul\":2516:2522   */\n      dup7\n        /* \"#utility.yul\":2512:2529   */\n      add\n        /* \"#utility.yul\":2464:2543   */\n      tag_561\n      jump\t// in\n    tag_696:\n        /* \"#utility.yul\":2455:2543   */\n      swap2\n      pop\n        /* \"#utility.yul\":2271:2549   */\n      pop\n        /* \"#utility.yul\":2209:2549   */\n      swap3\n      swap2\n      pop\n      pop\n      jump\t// out\n        /* \"#utility.yul\":2555:2681   */\n    tag_563:\n        /* \"#utility.yul\":2592:2599   */\n      0x00\n        /* \"#utility.yul\":2632:2674   */\n      0xffffffffffffffffffffffffffffffffffffffff\n        /* \"#utility.yul\":2625:2630   */\n      dup3\n        /* \"#utility.yul\":2621:2675   */\n      and\n        /* \"#utility.yul\":2610:2675   */\n      swap1\n      pop\n        /* \"#utility.yul\":2555:2681   */\n      swap2\n      swap1\n      pop\n      jump\t// out\n        /* \"#utility.yul\":2687:2783   */\n    tag_564:\n        /* \"#utility.yul\":2724:2731   */\n      0x00\n        /* \"#utility.yul\":2753:2777   */\n      tag_699\n        /* \"#utility.yul\":2771:2776   */\n      dup3\n        /* \"#utility.yul\":2753:2777   */\n      tag_563\n      jump\t// in\n    tag_699:\n        /* \"#utility.yul\":2742:2777   */\n      swap1\n      pop\n        /* \"#utility.yul\":2687:2783   */\n      swap2\n      swap1\n      pop\n      jump\t// out\n        /* \"#utility.yul\":2789:2911   */\n    tag_565:\n        /* \"#utility.yul\":2862:2886   */\n      tag_701\n        /* \"#utility.yul\":2880:2885   */\n      dup2\n        /* \"#utility.yul\":2862:2886   */\n      tag_564\n      jump\t// in\n    tag_701:\n        /* \"#utility.yul\":2855:2860   */\n      dup2\n        /* \"#utility.yul\":2852:2887   */\n      eq\n        /* \"#utility.yul\":2842:2905   */\n      tag_702\n      jumpi\n        /* \"#utility.yul\":2901:2902   */\n      0x00\n        /* \"#utility.yul\":2898:2899   */\n      0x00\n        /* \"#utility.yul\":2891:2903   */\n      revert\n        /* \"#utility.yul\":2842:2905   */\n    tag_702:\n        /* \"#utility.yul\":2789:2911   */\n      pop\n      jump\t// out\n        /* \"#utility.yul\":2917:3056   */\n    tag_566:\n        /* \"#utility.yul\":2963:2968   */\n      0x00\n        /* \"#utility.yul\":3001:3007   */\n      dup2\n        /* \"#utility.yul\":2988:3008   */\n      calldataload\n        /* \"#utility.yul\":2979:3008   */\n      swap1\n      pop\n        /* \"#utility.yul\":3017:3050   */\n      tag_704\n        /* \"#utility.yul\":3044:3049   */\n      dup2\n        /* \"#utility.yul\":3017:3050   */\n      tag_565\n      jump\t// in\n    tag_704:\n        /* \"#utility.yul\":2917:3056   */\n      swap3\n      swap2\n      pop\n      pop\n      jump\t// out\n        /* \"#utility.yul\":3062:3716   */\n    tag_38:\n        /* \"#utility.yul\":3140:3146   */\n      0x00\n        /* \"#utility.yul\":3148:3154   */\n      0x00\n        /* \"#utility.yul\":3197:3199   */\n      0x40\n        /* \"#utility.yul\":3185:3194   */\n      dup4\n        /* \"#utility.yul\":3176:3183   */\n      dup6\n        /* \"#utility.yul\":3172:3195   */\n      sub\n        /* \"#utility.yul\":3168:3200   */\n      slt\n        /* \"#utility.yul\":3165:3284   */\n      iszero\n      tag_706\n      jumpi\n        /* \"#utility.yul\":3203:3282   */\n      tag_707\n      tag_552\n      jump\t// in\n    tag_707:\n        /* \"#utility.yul\":3165:3284   */\n    tag_706:\n        /* \"#utility.yul\":3351:3352   */\n      0x00\n        /* \"#utility.yul\":3340:3349   */\n      dup4\n        /* \"#utility.yul\":3336:3353   */\n      add\n        /* \"#utility.yul\":3323:3354   */\n      calldataload\n        /* \"#utility.yul\":3381:3399   */\n      0xffffffffffffffff\n        /* \"#utility.yul\":3373:3379   */\n      dup2\n        /* \"#utility.yul\":3370:3400   */\n      gt\n        /* \"#utility.yul\":3367:3484   */\n      iszero\n      tag_708\n      jumpi\n        /* \"#utility.yul\":3403:3482   */\n      tag_709\n      tag_553\n      jump\t// in\n    tag_709:\n        /* \"#utility.yul\":3367:3484   */\n    tag_708:\n        /* \"#utility.yul\":3508:3571   */\n      tag_710\n        /* \"#utility.yul\":3563:3570   */\n      dup6\n        /* \"#utility.yul\":3554:3560   */\n      dup3\n        /* \"#utility.yul\":3543:3552   */\n      dup7\n        /* \"#utility.yul\":3539:3561   */\n      add\n        /* \"#utility.yul\":3508:3571   */\n      tag_562\n      jump\t// in\n    tag_710:\n        /* \"#utility.yul\":3498:3571   */\n      swap3\n      pop\n        /* \"#utility.yul\":3294:3581   */\n      pop\n        /* \"#utility.yul\":3620:3622   */\n      0x20\n        /* \"#utility.yul\":3646:3699   */\n      tag_711\n        /* \"#utility.yul\":3691:3698   */\n      dup6\n        /* \"#utility.yul\":3682:3688   */\n      dup3\n        /* \"#utility.yul\":3671:3680   */\n      dup7\n        /* \"#utility.yul\":3667:3689   */\n      add\n        /* \"#utility.yul\":3646:3699   */\n      tag_566\n      jump\t// in\n    tag_711:\n        /* \"#utility.yul\":3636:3699   */\n      swap2\n      pop\n        /* \"#utility.yul\":3591:3709   */\n      pop\n        /* \"#utility.yul\":3062:3716   */\n      swap3\n      pop\n      swap3\n      swap1\n      pop\n      jump\t// out\n        /* \"#utility.yul\":3722:3812   */\n    tag_567:\n        /* \"#utility.yul\":3756:3763   */\n      0x00\n        /* \"#utility.yul\":3799:3804   */\n      dup2\n        /* \"#utility.yul\":3792:3805   */\n      iszero\n        /* \"#utility.yul\":3785:3806   */\n      iszero\n        /* \"#utility.yul\":3774:3806   */\n      swap1\n      pop\n        /* \"#utility.yul\":3722:3812   */\n      swap2\n      swap1\n      pop\n      jump\t// out\n        /* \"#utility.yul\":3818:3927   */\n    tag_568:\n        /* \"#utility.yul\":3899:3920   */\n      tag_714\n        /* \"#utility.yul\":3914:3919   */\n      dup2\n        /* \"#utility.yul\":3899:3920   */\n      tag_567\n      jump\t// in\n    tag_714:\n        /* \"#utility.yul\":3894:3897   */\n      dup3\n        /* \"#utility.yul\":3887:3921   */\n      mstore\n        /* \"#utility.yul\":3818:3927   */\n      pop\n      pop\n      jump\t// out\n        /* \"#utility.yul\":3933:4143   */\n    tag_41:\n        /* \"#utility.yul\":4020:4024   */\n      0x00\n        /* \"#utility.yul\":4058:4060   */\n      0x20\n        /* \"#utility.yul\":4047:4056   */\n      dup3\n        /* \"#utility.yul\":4043:4061   */\n      add\n        /* \"#utility.yul\":4035:4061   */\n      swap1\n      pop\n        /* \"#utility.yul\":4071:4136   */\n      tag_716\n        /* \"#utility.yul\":4133:4134   */\n      0x00\n        /* \"#utility.yul\":4122:4131   */\n      dup4\n        /* \"#utility.yul\":4118:4135   */\n      add\n        /* \"#utility.yul\":4109:4115   */\n      dup5\n        /* \"#utility.yul\":4071:4136   */\n      tag_568\n      jump\t// in\n    tag_716:\n        /* \"#utility.yul\":3933:4143   */\n      swap3\n      swap2\n      pop\n      pop\n      jump\t// out\n        /* \"#utility.yul\":4149:4226   */\n    tag_569:\n        /* \"#utility.yul\":4186:4193   */\n      0x00\n        /* \"#utility.yul\":4215:4220   */\n      dup2\n        /* \"#utility.yul\":4204:4220   */\n      swap1\n      pop\n        /* \"#utility.yul\":4149:4226   */\n      swap2\n      swap1\n      pop\n      jump\t// out\n        /* \"#utility.yul\":4232:4354   */\n    tag_570:\n        /* \"#utility.yul\":4305:4329   */\n      tag_719\n        /* \"#utility.yul\":4323:4328   */\n      dup2\n        /* \"#utility.yul\":4305:4329   */\n      tag_569\n      jump\t// in\n    tag_719:\n        /* \"#utility.yul\":4298:4303   */\n      dup2\n        /* \"#utility.yul\":4295:4330   */\n      eq\n        /* \"#utility.yul\":4285:4348   */\n      tag_720\n      jumpi\n        /* \"#utility.yul\":4344:4345   */\n      0x00\n        /* \"#utility.yul\":4341:4342   */\n      0x00\n        /* \"#utility.yul\":4334:4346   */\n      revert\n        /* \"#utility.yul\":4285:4348   */\n    tag_720:\n        /* \"#utility.yul\":4232:4354   */\n      pop\n      jump\t// out\n        /* \"#utility.yul\":4360:4499   */\n    tag_571:\n        /* \"#utility.yul\":4406:4411   */\n      0x00\n        /* \"#utility.yul\":4444:4450   */\n      dup2\n        /* \"#utility.yul\":4431:4451   */\n      calldataload\n        /* \"#utility.yul\":4422:4451   */\n      swap1\n      pop\n        /* \"#utility.yul\":4460:4493   */\n      tag_722\n        /* \"#utility.yul\":4487:4492   */\n      dup2\n        /* \"#utility.yul\":4460:4493   */\n      tag_570\n      jump\t// in\n    tag_722:\n        /* \"#utility.yul\":4360:4499   */\n      swap3\n      swap2\n      pop\n      pop\n      jump\t// out\n        /* \"#utility.yul\":4505:5159   */\n    tag_44:\n        /* \"#utility.yul\":4583:4589   */\n      0x00\n        /* \"#utility.yul\":4591:4597   */\n      0x00\n        /* \"#utility.yul\":4640:4642   */\n      0x40\n        /* \"#utility.yul\":4628:4637   */\n      dup4\n        /* \"#utility.yul\":4619:4626   */\n      dup6\n        /* \"#utility.yul\":4615:4638   */\n      sub\n        /* \"#utility.yul\":4611:4643   */\n      slt\n        /* \"#utility.yul\":4608:4727   */\n      iszero\n      tag_724\n      jumpi\n        /* \"#utility.yul\":4646:4725   */\n      tag_725\n      tag_552\n      jump\t// in\n    tag_725:\n        /* \"#utility.yul\":4608:4727   */\n    tag_724:\n        /* \"#utility.yul\":4794:4795   */\n      0x00\n        /* \"#utility.yul\":4783:4792   */\n      dup4\n        /* \"#utility.yul\":4779:4796   */\n      add\n        /* \"#utility.yul\":4766:4797   */\n      calldataload\n        /* \"#utility.yul\":4824:4842   */\n      0xffffffffffffffff\n        /* \"#utility.yul\":4816:4822   */\n      dup2\n        /* \"#utility.yul\":4813:4843   */\n      gt\n        /* \"#utility.yul\":4810:4927   */\n      iszero\n      tag_726\n      jumpi\n        /* \"#utility.yul\":4846:4925   */\n      tag_727\n      tag_553\n      jump\t// in\n    tag_727:\n        /* \"#utility.yul\":4810:4927   */\n    tag_726:\n        /* \"#utility.yul\":4951:5014   */\n      tag_728\n        /* \"#utility.yul\":5006:5013   */\n      dup6\n        /* \"#utility.yul\":4997:5003   */\n      dup3\n        /* \"#utility.yul\":4986:4995   */\n      dup7\n        /* \"#utility.yul\":4982:5004   */\n      add\n        /* \"#utility.yul\":4951:5014   */\n      tag_562\n      jump\t// in\n    tag_728:\n        /* \"#utility.yul\":4941:5014   */\n      swap3\n      pop\n        /* \"#utility.yul\":4737:5024   */\n      pop\n        /* \"#utility.yul\":5063:5065   */\n      0x20\n        /* \"#utility.yul\":5089:5142   */\n      tag_729\n        /* \"#utility.yul\":5134:5141   */\n      dup6\n        /* \"#utility.yul\":5125:5131   */\n      dup3\n        /* \"#utility.yul\":5114:5123   */\n      dup7\n        /* \"#utility.yul\":5110:5132   */\n      add\n        /* \"#utility.yul\":5089:5142   */\n      tag_571\n      jump\t// in\n    tag_729:\n        /* \"#utility.yul\":5079:5142   */\n      swap2\n      pop\n        /* \"#utility.yul\":5034:5152   */\n      pop\n        /* \"#utility.yul\":4505:5159   */\n      swap3\n      pop\n      swap3\n      swap1\n      pop\n      jump\t// out\n        /* \"#utility.yul\":5165:5674   */\n    tag_48:\n        /* \"#utility.yul\":5234:5240   */\n      0x00\n        /* \"#utility.yul\":5283:5285   */\n      0x20\n        /* \"#utility.yul\":5271:5280   */\n      dup3\n        /* \"#utility.yul\":5262:5269   */\n      dup5\n        /* \"#utility.yul\":5258:5281   */\n      sub\n        /* \"#utility.yul\":5254:5286   */\n      slt\n        /* \"#utility.yul\":5251:5370   */\n      iszero\n      tag_731\n      jumpi\n        /* \"#utility.yul\":5289:5368   */\n      tag_732\n      tag_552\n      jump\t// in\n    tag_732:\n        /* \"#utility.yul\":5251:5370   */\n    tag_731:\n        /* \"#utility.yul\":5437:5438   */\n      0x00\n        /* \"#utility.yul\":5426:5435   */\n      dup3\n        /* \"#utility.yul\":5422:5439   */\n      add\n        /* \"#utility.yul\":5409:5440   */\n      calldataload\n        /* \"#utility.yul\":5467:5485   */\n      0xffffffffffffffff\n        /* \"#utility.yul\":5459:5465   */\n      dup2\n        /* \"#utility.yul\":5456:5486   */\n      gt\n        /* \"#utility.yul\":5453:5570   */\n      iszero\n      tag_733\n      jumpi\n        /* \"#utility.yul\":5489:5568   */\n      tag_734\n      tag_553\n      jump\t// in\n    tag_734:\n        /* \"#utility.yul\":5453:5570   */\n    tag_733:\n        /* \"#utility.yul\":5594:5657   */\n      tag_735\n        /* \"#utility.yul\":5649:5656   */\n      dup5\n        /* \"#utility.yul\":5640:5646   */\n      dup3\n        /* \"#utility.yul\":5629:5638   */\n      dup6\n        /* \"#utility.yul\":5625:5647   */\n      add\n        /* \"#utility.yul\":5594:5657   */\n      tag_562\n      jump\t// in\n    tag_735:\n        /* \"#utility.yul\":5584:5657   */\n      swap2\n      pop\n        /* \"#utility.yul\":5380:5667   */\n      pop\n        /* \"#utility.yul\":5165:5674   */\n      swap3\n      swap2\n      pop\n      pop\n      jump\t// out\n        /* \"#utility.yul\":5680:5779   */\n    tag_572:\n        /* \"#utility.yul\":5732:5738   */\n      0x00\n        /* \"#utility.yul\":5766:5771   */\n      dup2\n        /* \"#utility.yul\":5760:5772   */\n      mload\n        /* \"#utility.yul\":5750:5772   */\n      swap1\n      pop\n        /* \"#utility.yul\":5680:5779   */\n      swap2\n      swap1\n      pop\n      jump\t// out\n        /* \"#utility.yul\":5785:5954   */\n    tag_573:\n        /* \"#utility.yul\":5869:5880   */\n      0x00\n        /* \"#utility.yul\":5903:5909   */\n      dup3\n        /* \"#utility.yul\":5898:5901   */\n      dup3\n        /* \"#utility.yul\":5891:5910   */\n      mstore\n        /* \"#utility.yul\":5943:5947   */\n      0x20\n        /* \"#utility.yul\":5938:5941   */\n      dup3\n        /* \"#utility.yul\":5934:5948   */\n      add\n        /* \"#utility.yul\":5919:5948   */\n      swap1\n      pop\n        /* \"#utility.yul\":5785:5954   */\n      swap3\n      swap2\n      pop\n      pop\n      jump\t// out\n        /* \"#utility.yul\":5960:6099   */\n    tag_574:\n        /* \"#utility.yul\":6049:6055   */\n      dup3\n        /* \"#utility.yul\":6044:6047   */\n      dup2\n        /* \"#utility.yul\":6039:6042   */\n      dup4\n        /* \"#utility.yul\":6033:6056   */\n      mcopy\n        /* \"#utility.yul\":6090:6091   */\n      0x00\n        /* \"#utility.yul\":6081:6087   */\n      dup4\n        /* \"#utility.yul\":6076:6079   */\n      dup4\n        /* \"#utility.yul\":6072:6088   */\n      add\n        /* \"#utility.yul\":6065:6092   */\n      mstore\n        /* \"#utility.yul\":5960:6099   */\n      pop\n      pop\n      pop\n      jump\t// out\n        /* \"#utility.yul\":6105:6482   */\n    tag_575:\n        /* \"#utility.yul\":6193:6196   */\n      0x00\n        /* \"#utility.yul\":6221:6260   */\n      tag_740\n        /* \"#utility.yul\":6254:6259   */\n      dup3\n        /* \"#utility.yul\":6221:6260   */\n      tag_572\n      jump\t// in\n    tag_740:\n        /* \"#utility.yul\":6276:6347   */\n      tag_741\n        /* \"#utility.yul\":6340:6346   */\n      dup2\n        /* \"#utility.yul\":6335:6338   */\n      dup6\n        /* \"#utility.yul\":6276:6347   */\n      tag_573\n      jump\t// in\n    tag_741:\n        /* \"#utility.yul\":6269:6347   */\n      swap4\n      pop\n        /* \"#utility.yul\":6356:6421   */\n      tag_742\n        /* \"#utility.yul\":6414:6420   */\n      dup2\n        /* \"#utility.yul\":6409:6412   */\n      dup6\n        /* \"#utility.yul\":6402:6406   */\n      0x20\n        /* \"#utility.yul\":6395:6400   */\n      dup7\n        /* \"#utility.yul\":6391:6407   */\n      add\n        /* \"#utility.yul\":6356:6421   */\n      tag_574\n      jump\t// in\n    tag_742:\n        /* \"#utility.yul\":6446:6475   */\n      tag_743\n        /* \"#utility.yul\":6468:6474   */\n      dup2\n        /* \"#utility.yul\":6446:6475   */\n      tag_556\n      jump\t// in\n    tag_743:\n        /* \"#utility.yul\":6441:6444   */\n      dup5\n        /* \"#utility.yul\":6437:6476   */\n      add\n        /* \"#utility.yul\":6430:6476   */\n      swap2\n      pop\n        /* \"#utility.yul\":6197:6482   */\n      pop\n        /* \"#utility.yul\":6105:6482   */\n      swap3\n      swap2\n      pop\n      pop\n      jump\t// out\n        /* \"#utility.yul\":6488:6606   */\n    tag_576:\n        /* \"#utility.yul\":6575:6599   */\n      tag_745\n        /* \"#utility.yul\":6593:6598   */\n      dup2\n        /* \"#utility.yul\":6575:6599   */\n      tag_564\n      jump\t// in\n    tag_745:\n        /* \"#utility.yul\":6570:6573   */\n      dup3\n        /* \"#utility.yul\":6563:6600   */\n      mstore\n        /* \"#utility.yul\":6488:6606   */\n      pop\n      pop\n      jump\t// out\n        /* \"#utility.yul\":6612:6730   */\n    tag_577:\n        /* \"#utility.yul\":6699:6723   */\n      tag_747\n        /* \"#utility.yul\":6717:6722   */\n      dup2\n        /* \"#utility.yul\":6699:6723   */\n      tag_569\n      jump\t// in\n    tag_747:\n        /* \"#utility.yul\":6694:6697   */\n      dup3\n        /* \"#utility.yul\":6687:6724   */\n      mstore\n        /* \"#utility.yul\":6612:6730   */\n      pop\n      pop\n      jump\t// out\n        /* \"#utility.yul\":6736:7772   */\n    tag_51:\n        /* \"#utility.yul\":7023:7027   */\n      0x00\n        /* \"#utility.yul\":7061:7064   */\n      0xc0\n        /* \"#utility.yul\":7050:7059   */\n      dup3\n        /* \"#utility.yul\":7046:7065   */\n      add\n        /* \"#utility.yul\":7038:7065   */\n      swap1\n      pop\n        /* \"#utility.yul\":7111:7120   */\n      dup2\n        /* \"#utility.yul\":7105:7109   */\n      dup2\n        /* \"#utility.yul\":7101:7121   */\n      sub\n        /* \"#utility.yul\":7097:7098   */\n      0x00\n        /* \"#utility.yul\":7086:7095   */\n      dup4\n        /* \"#utility.yul\":7082:7099   */\n      add\n        /* \"#utility.yul\":7075:7122   */\n      mstore\n        /* \"#utility.yul\":7139:7217   */\n      tag_749\n        /* \"#utility.yul\":7212:7216   */\n      dup2\n        /* \"#utility.yul\":7203:7209   */\n      dup10\n        /* \"#utility.yul\":7139:7217   */\n      tag_575\n      jump\t// in\n    tag_749:\n        /* \"#utility.yul\":7131:7217   */\n      swap1\n      pop\n        /* \"#utility.yul\":7227:7299   */\n      tag_750\n        /* \"#utility.yul\":7295:7297   */\n      0x20\n        /* \"#utility.yul\":7284:7293   */\n      dup4\n        /* \"#utility.yul\":7280:7298   */\n      add\n        /* \"#utility.yul\":7271:7277   */\n      dup9\n        /* \"#utility.yul\":7227:7299   */\n      tag_576\n      jump\t// in\n    tag_750:\n        /* \"#utility.yul\":7346:7355   */\n      dup2\n        /* \"#utility.yul\":7340:7344   */\n      dup2\n        /* \"#utility.yul\":7336:7356   */\n      sub\n        /* \"#utility.yul\":7331:7333   */\n      0x40\n        /* \"#utility.yul\":7320:7329   */\n      dup4\n        /* \"#utility.yul\":7316:7334   */\n      add\n        /* \"#utility.yul\":7309:7357   */\n      mstore\n        /* \"#utility.yul\":7374:7452   */\n      tag_751\n        /* \"#utility.yul\":7447:7451   */\n      dup2\n        /* \"#utility.yul\":7438:7444   */\n      dup8\n        /* \"#utility.yul\":7374:7452   */\n      tag_575\n      jump\t// in\n    tag_751:\n        /* \"#utility.yul\":7366:7452   */\n      swap1\n      pop\n        /* \"#utility.yul\":7462:7534   */\n      tag_752\n        /* \"#utility.yul\":7530:7532   */\n      0x60\n        /* \"#utility.yul\":7519:7528   */\n      dup4\n        /* \"#utility.yul\":7515:7533   */\n      add\n        /* \"#utility.yul\":7506:7512   */\n      dup7\n        /* \"#utility.yul\":7462:7534   */\n      tag_577\n      jump\t// in\n    tag_752:\n        /* \"#utility.yul\":7544:7611   */\n      tag_753\n        /* \"#utility.yul\":7606:7609   */\n      0x80\n        /* \"#utility.yul\":7595:7604   */\n      dup4\n        /* \"#utility.yul\":7591:7610   */\n      add\n        /* \"#utility.yul\":7582:7588   */\n      dup6\n        /* \"#utility.yul\":7544:7611   */\n      tag_568\n      jump\t// in\n    tag_753:\n        /* \"#utility.yul\":7659:7668   */\n      dup2\n        /* \"#utility.yul\":7653:7657   */\n      dup2\n        /* \"#utility.yul\":7649:7669   */\n      sub\n        /* \"#utility.yul\":7643:7646   */\n      0xa0\n        /* \"#utility.yul\":7632:7641   */\n      dup4\n        /* \"#utility.yul\":7628:7647   */\n      add\n        /* \"#utility.yul\":7621:7670   */\n      mstore\n        /* \"#utility.yul\":7687:7765   */\n      tag_754\n        /* \"#utility.yul\":7760:7764   */\n      dup2\n        /* \"#utility.yul\":7751:7757   */\n      dup5\n        /* \"#utility.yul\":7687:7765   */\n      tag_575\n      jump\t// in\n    tag_754:\n        /* \"#utility.yul\":7679:7765   */\n      swap1\n      pop\n        /* \"#utility.yul\":6736:7772   */\n      swap8\n      swap7\n      pop\n      pop\n      pop\n      pop\n      pop\n      pop\n      pop\n      jump\t// out\n        /* \"#utility.yul\":7778:8107   */\n    tag_57:\n        /* \"#utility.yul\":7837:7843   */\n      0x00\n        /* \"#utility.yul\":7886:7888   */\n      0x20\n        /* \"#utility.yul\":7874:7883   */\n      dup3\n        /* \"#utility.yul\":7865:7872   */\n      dup5\n        /* \"#utility.yul\":7861:7884   */\n      sub\n        /* \"#utility.yul\":7857:7889   */\n      slt\n        /* \"#utility.yul\":7854:7973   */\n      iszero\n      tag_756\n      jumpi\n        /* \"#utility.yul\":7892:7971   */\n      tag_757\n      tag_552\n      jump\t// in\n    tag_757:\n        /* \"#utility.yul\":7854:7973   */\n    tag_756:\n        /* \"#utility.yul\":8012:8013   */\n      0x00\n        /* \"#utility.yul\":8037:8090   */\n      tag_758\n        /* \"#utility.yul\":8082:8089   */\n      dup5\n        /* \"#utility.yul\":8073:8079   */\n      dup3\n        /* \"#utility.yul\":8062:8071   */\n      dup6\n        /* \"#utility.yul\":8058:8080   */\n      add\n        /* \"#utility.yul\":8037:8090   */\n      tag_566\n      jump\t// in\n    tag_758:\n        /* \"#utility.yul\":8027:8090   */\n      swap2\n      pop\n        /* \"#utility.yul\":7983:8100   */\n      pop\n        /* \"#utility.yul\":7778:8107   */\n      swap3\n      swap2\n      pop\n      pop\n      jump\t// out\n        /* \"#utility.yul\":8113:8293   */\n    tag_151:\n        /* \"#utility.yul\":8161:8238   */\n      0x4e487b7100000000000000000000000000000000000000000000000000000000\n        /* \"#utility.yul\":8158:8159   */\n      0x00\n        /* \"#utility.yul\":8151:8239   */\n      mstore\n        /* \"#utility.yul\":8258:8262   */\n      0x21\n        /* \"#utility.yul\":8255:8256   */\n      0x04\n        /* \"#utility.yul\":8248:8263   */\n      mstore\n        /* \"#utility.yul\":8282:8286   */\n      0x24\n        /* \"#utility.yul\":8279:8280   */\n      0x00\n        /* \"#utility.yul\":8272:8287   */\n      revert\n        /* \"#utility.yul\":8299:8410   */\n    tag_578:\n        /* \"#utility.yul\":8378:8379   */\n      0x05\n        /* \"#utility.yul\":8371:8376   */\n      dup2\n        /* \"#utility.yul\":8368:8380   */\n      lt\n        /* \"#utility.yul\":8358:8404   */\n      tag_761\n      jumpi\n        /* \"#utility.yul\":8384:8402   */\n      tag_762\n      tag_151\n      jump\t// in\n    tag_762:\n        /* \"#utility.yul\":8358:8404   */\n    tag_761:\n        /* \"#utility.yul\":8299:8410   */\n      pop\n      jump\t// out\n        /* \"#utility.yul\":8416:8539   */\n    tag_579:\n        /* \"#utility.yul\":8459:8466   */\n      0x00\n        /* \"#utility.yul\":8488:8493   */\n      dup2\n        /* \"#utility.yul\":8477:8493   */\n      swap1\n      pop\n        /* \"#utility.yul\":8494:8533   */\n      tag_764\n        /* \"#utility.yul\":8527:8532   */\n      dup3\n        /* \"#utility.yul\":8494:8533   */\n      tag_578\n      jump\t// in\n    tag_764:\n        /* \"#utility.yul\":8416:8539   */\n      swap2\n      swap1\n      pop\n      jump\t// out\n        /* \"#utility.yul\":8545:8668   */\n    tag_580:\n        /* \"#utility.yul\":8599:8608   */\n      0x00\n        /* \"#utility.yul\":8632:8662   */\n      tag_766\n        /* \"#utility.yul\":8656:8661   */\n      dup3\n        /* \"#utility.yul\":8632:8662   */\n      tag_579\n      jump\t// in\n    tag_766:\n        /* \"#utility.yul\":8619:8662   */\n      swap1\n      pop\n        /* \"#utility.yul\":8545:8668   */\n      swap2\n      swap1\n      pop\n      jump\t// out\n        /* \"#utility.yul\":8674:8813   */\n    tag_581:\n        /* \"#utility.yul\":8765:8806   */\n      tag_768\n        /* \"#utility.yul\":8800:8805   */\n      dup2\n        /* \"#utility.yul\":8765:8806   */\n      tag_580\n      jump\t// in\n    tag_768:\n        /* \"#utility.yul\":8760:8763   */\n      dup3\n        /* \"#utility.yul\":8753:8807   */\n      mstore\n        /* \"#utility.yul\":8674:8813   */\n      pop\n      pop\n      jump\t// out\n        /* \"#utility.yul\":8819:9049   */\n    tag_60:\n        /* \"#utility.yul\":8916:8920   */\n      0x00\n        /* \"#utility.yul\":8954:8956   */\n      0x20\n        /* \"#utility.yul\":8943:8952   */\n      dup3\n        /* \"#utility.yul\":8939:8957   */\n      add\n        /* \"#utility.yul\":8931:8957   */\n      swap1\n      pop\n        /* \"#utility.yul\":8967:9042   */\n      tag_770\n        /* \"#utility.yul\":9039:9040   */\n      0x00\n        /* \"#utility.yul\":9028:9037   */\n      dup4\n        /* \"#utility.yul\":9024:9041   */\n      add\n        /* \"#utility.yul\":9015:9021   */\n      dup5\n        /* \"#utility.yul\":8967:9042   */\n      tag_581\n      jump\t// in\n    tag_770:\n        /* \"#utility.yul\":8819:9049   */\n      swap3\n      swap2\n      pop\n      pop\n      jump\t// out\n        /* \"#utility.yul\":9055:9175   */\n    tag_582:\n        /* \"#utility.yul\":9143:9144   */\n      0x04\n        /* \"#utility.yul\":9136:9141   */\n      dup2\n        /* \"#utility.yul\":9133:9145   */\n      lt\n        /* \"#utility.yul\":9123:9169   */\n      tag_772\n      jumpi\n        /* \"#utility.yul\":9149:9167   */\n      tag_773\n      tag_151\n      jump\t// in\n    tag_773:\n        /* \"#utility.yul\":9123:9169   */\n    tag_772:\n        /* \"#utility.yul\":9055:9175   */\n      pop\n      jump\t// out\n        /* \"#utility.yul\":9181:9322   */\n    tag_583:\n        /* \"#utility.yul\":9233:9240   */\n      0x00\n        /* \"#utility.yul\":9262:9267   */\n      dup2\n        /* \"#utility.yul\":9251:9267   */\n      swap1\n      pop\n        /* \"#utility.yul\":9268:9316   */\n      tag_775\n        /* \"#utility.yul\":9310:9315   */\n      dup3\n        /* \"#utility.yul\":9268:9316   */\n      tag_582\n      jump\t// in\n    tag_775:\n        /* \"#utility.yul\":9181:9322   */\n      swap2\n      swap1\n      pop\n      jump\t// out\n        /* \"#utility.yul\":9328:9469   */\n    tag_584:\n        /* \"#utility.yul\":9391:9400   */\n      0x00\n        /* \"#utility.yul\":9424:9463   */\n      tag_777\n        /* \"#utility.yul\":9457:9462   */\n      dup3\n        /* \"#utility.yul\":9424:9463   */\n      tag_583\n      jump\t// in\n    tag_777:\n        /* \"#utility.yul\":9411:9463   */\n      swap1\n      pop\n        /* \"#utility.yul\":9328:9469   */\n      swap2\n      swap1\n      pop\n      jump\t// out\n        /* \"#utility.yul\":9475:9632   */\n    tag_585:\n        /* \"#utility.yul\":9575:9625   */\n      tag_779\n        /* \"#utility.yul\":9619:9624   */\n      dup2\n        /* \"#utility.yul\":9575:9625   */\n      tag_584\n      jump\t// in\n    tag_779:\n        /* \"#utility.yul\":9570:9573   */\n      dup3\n        /* \"#utility.yul\":9563:9626   */\n      mstore\n        /* \"#utility.yul\":9475:9632   */\n      pop\n      pop\n      jump\t// out\n        /* \"#utility.yul\":9638:10811   */\n    tag_65:\n        /* \"#utility.yul\":9966:9970   */\n      0x00\n        /* \"#utility.yul\":10004:10007   */\n      0xe0\n        /* \"#utility.yul\":9993:10002   */\n      dup3\n        /* \"#utility.yul\":9989:10008   */\n      add\n        /* \"#utility.yul\":9981:10008   */\n      swap1\n      pop\n        /* \"#utility.yul\":10054:10063   */\n      dup2\n        /* \"#utility.yul\":10048:10052   */\n      dup2\n        /* \"#utility.yul\":10044:10064   */\n      sub\n        /* \"#utility.yul\":10040:10041   */\n      0x00\n        /* \"#utility.yul\":10029:10038   */\n      dup4\n        /* \"#utility.yul\":10025:10042   */\n      add\n        /* \"#utility.yul\":10018:10065   */\n      mstore\n        /* \"#utility.yul\":10082:10160   */\n      tag_781\n        /* \"#utility.yul\":10155:10159   */\n      dup2\n        /* \"#utility.yul\":10146:10152   */\n      dup11\n        /* \"#utility.yul\":10082:10160   */\n      tag_575\n      jump\t// in\n    tag_781:\n        /* \"#utility.yul\":10074:10160   */\n      swap1\n      pop\n        /* \"#utility.yul\":10207:10216   */\n      dup2\n        /* \"#utility.yul\":10201:10205   */\n      dup2\n        /* \"#utility.yul\":10197:10217   */\n      sub\n        /* \"#utility.yul\":10192:10194   */\n      0x20\n        /* \"#utility.yul\":10181:10190   */\n      dup4\n        /* \"#utility.yul\":10177:10195   */\n      add\n        /* \"#utility.yul\":10170:10218   */\n      mstore\n        /* \"#utility.yul\":10235:10313   */\n      tag_782\n        /* \"#utility.yul\":10308:10312   */\n      dup2\n        /* \"#utility.yul\":10299:10305   */\n      dup10\n        /* \"#utility.yul\":10235:10313   */\n      tag_575\n      jump\t// in\n    tag_782:\n        /* \"#utility.yul\":10227:10313   */\n      swap1\n      pop\n        /* \"#utility.yul\":10360:10369   */\n      dup2\n        /* \"#utility.yul\":10354:10358   */\n      dup2\n        /* \"#utility.yul\":10350:10370   */\n      sub\n        /* \"#utility.yul\":10345:10347   */\n      0x40\n        /* \"#utility.yul\":10334:10343   */\n      dup4\n        /* \"#utility.yul\":10330:10348   */\n      add\n        /* \"#utility.yul\":10323:10371   */\n      mstore\n        /* \"#utility.yul\":10388:10466   */\n      tag_783\n        /* \"#utility.yul\":10461:10465   */\n      dup2\n        /* \"#utility.yul\":10452:10458   */\n      dup9\n        /* \"#utility.yul\":10388:10466   */\n      tag_575\n      jump\t// in\n    tag_783:\n        /* \"#utility.yul\":10380:10466   */\n      swap1\n      pop\n        /* \"#utility.yul\":10476:10561   */\n      tag_784\n        /* \"#utility.yul\":10557:10559   */\n      0x60\n        /* \"#utility.yul\":10546:10555   */\n      dup4\n        /* \"#utility.yul\":10542:10560   */\n      add\n        /* \"#utility.yul\":10533:10539   */\n      dup8\n        /* \"#utility.yul\":10476:10561   */\n      tag_585\n      jump\t// in\n    tag_784:\n        /* \"#utility.yul\":10571:10644   */\n      tag_785\n        /* \"#utility.yul\":10639:10642   */\n      0x80\n        /* \"#utility.yul\":10628:10637   */\n      dup4\n        /* \"#utility.yul\":10624:10643   */\n      add\n        /* \"#utility.yul\":10615:10621   */\n      dup7\n        /* \"#utility.yul\":10571:10644   */\n      tag_576\n      jump\t// in\n    tag_785:\n        /* \"#utility.yul\":10654:10721   */\n      tag_786\n        /* \"#utility.yul\":10716:10719   */\n      0xa0\n        /* \"#utility.yul\":10705:10714   */\n      dup4\n        /* \"#utility.yul\":10701:10720   */\n      add\n        /* \"#utility.yul\":10692:10698   */\n      dup6\n        /* \"#utility.yul\":10654:10721   */\n      tag_568\n      jump\t// in\n    tag_786:\n        /* \"#utility.yul\":10731:10804   */\n      tag_787\n        /* \"#utility.yul\":10799:10802   */\n      0xc0\n        /* \"#utility.yul\":10788:10797   */\n      dup4\n        /* \"#utility.yul\":10784:10803   */\n      add\n        /* \"#utility.yul\":10775:10781   */\n      dup5\n        /* \"#utility.yul\":10731:10804   */\n      tag_577\n      jump\t// in\n    tag_787:\n        /* \"#utility.yul\":9638:10811   */\n      swap9\n      swap8\n      pop\n      pop\n      pop\n      pop\n      pop\n      pop\n      pop\n      pop\n      jump\t// out\n        /* \"#utility.yul\":10817:11651   */\n    tag_70:\n        /* \"#utility.yul\":10905:10911   */\n      0x00\n        /* \"#utility.yul\":10913:10919   */\n      0x00\n        /* \"#utility.yul\":10962:10964   */\n      0x40\n        /* \"#utility.yul\":10950:10959   */\n      dup4\n        /* \"#utility.yul\":10941:10948   */\n      dup6\n        /* \"#utility.yul\":10937:10960   */\n      sub\n        /* \"#utility.yul\":10933:10965   */\n      slt\n        /* \"#utility.yul\":10930:11049   */\n      iszero\n      tag_789\n      jumpi\n        /* \"#utility.yul\":10968:11047   */\n      tag_790\n      tag_552\n      jump\t// in\n    tag_790:\n        /* \"#utility.yul\":10930:11049   */\n    tag_789:\n        /* \"#utility.yul\":11116:11117   */\n      0x00\n        /* \"#utility.yul\":11105:11114   */\n      dup4\n        /* \"#utility.yul\":11101:11118   */\n      add\n        /* \"#utility.yul\":11088:11119   */\n      calldataload\n        /* \"#utility.yul\":11146:11164   */\n      0xffffffffffffffff\n        /* \"#utility.yul\":11138:11144   */\n      dup2\n        /* \"#utility.yul\":11135:11165   */\n      gt\n        /* \"#utility.yul\":11132:11249   */\n      iszero\n      tag_791\n      jumpi\n        /* \"#utility.yul\":11168:11247   */\n      tag_792\n      tag_553\n      jump\t// in\n    tag_792:\n        /* \"#utility.yul\":11132:11249   */\n    tag_791:\n        /* \"#utility.yul\":11273:11336   */\n      tag_793\n        /* \"#utility.yul\":11328:11335   */\n      dup6\n        /* \"#utility.yul\":11319:11325   */\n      dup3\n        /* \"#utility.yul\":11308:11317   */\n      dup7\n        /* \"#utility.yul\":11304:11326   */\n      add\n        /* \"#utility.yul\":11273:11336   */\n      tag_562\n      jump\t// in\n    tag_793:\n        /* \"#utility.yul\":11263:11336   */\n      swap3\n      pop\n        /* \"#utility.yul\":11059:11346   */\n      pop\n        /* \"#utility.yul\":11413:11415   */\n      0x20\n        /* \"#utility.yul\":11402:11411   */\n      dup4\n        /* \"#utility.yul\":11398:11416   */\n      add\n        /* \"#utility.yul\":11385:11417   */\n      calldataload\n        /* \"#utility.yul\":11444:11462   */\n      0xffffffffffffffff\n        /* \"#utility.yul\":11436:11442   */\n      dup2\n        /* \"#utility.yul\":11433:11463   */\n      gt\n        /* \"#utility.yul\":11430:11547   */\n      iszero\n      tag_794\n      jumpi\n        /* \"#utility.yul\":11466:11545   */\n      tag_795\n      tag_553\n      jump\t// in\n    tag_795:\n        /* \"#utility.yul\":11430:11547   */\n    tag_794:\n        /* \"#utility.yul\":11571:11634   */\n      tag_796\n        /* \"#utility.yul\":11626:11633   */\n      dup6\n        /* \"#utility.yul\":11617:11623   */\n      dup3\n        /* \"#utility.yul\":11606:11615   */\n      dup7\n        /* \"#utility.yul\":11602:11624   */\n      add\n        /* \"#utility.yul\":11571:11634   */\n      tag_562\n      jump\t// in\n    tag_796:\n        /* \"#utility.yul\":11561:11634   */\n      swap2\n      pop\n        /* \"#utility.yul\":11356:11644   */\n      pop\n        /* \"#utility.yul\":10817:11651   */\n      swap3\n      pop\n      swap3\n      swap1\n      pop\n      jump\t// out\n        /* \"#utility.yul\":11657:11762   */\n    tag_586:\n        /* \"#utility.yul\":11736:11737   */\n      0x05\n        /* \"#utility.yul\":11729:11734   */\n      dup2\n        /* \"#utility.yul\":11726:11738   */\n      lt\n        /* \"#utility.yul\":11716:11756   */\n      tag_798\n      jumpi\n        /* \"#utility.yul\":11752:11753   */\n      0x00\n        /* \"#utility.yul\":11749:11750   */\n      0x00\n        /* \"#utility.yul\":11742:11754   */\n      revert\n        /* \"#utility.yul\":11716:11756   */\n    tag_798:\n        /* \"#utility.yul\":11657:11762   */\n      pop\n      jump\t// out\n        /* \"#utility.yul\":11768:11919   */\n    tag_587:\n        /* \"#utility.yul\":11820:11825   */\n      0x00\n        /* \"#utility.yul\":11858:11864   */\n      dup2\n        /* \"#utility.yul\":11845:11865   */\n      calldataload\n        /* \"#utility.yul\":11836:11865   */\n      swap1\n      pop\n        /* \"#utility.yul\":11874:11913   */\n      tag_800\n        /* \"#utility.yul\":11907:11912   */\n      dup2\n        /* \"#utility.yul\":11874:11913   */\n      tag_586\n      jump\t// in\n    tag_800:\n        /* \"#utility.yul\":11768:11919   */\n      swap3\n      swap2\n      pop\n      pop\n      jump\t// out\n        /* \"#utility.yul\":11925:12411   */\n    tag_74:\n        /* \"#utility.yul\":11999:12005   */\n      0x00\n        /* \"#utility.yul\":12007:12013   */\n      0x00\n        /* \"#utility.yul\":12056:12058   */\n      0x40\n        /* \"#utility.yul\":12044:12053   */\n      dup4\n        /* \"#utility.yul\":12035:12042   */\n      dup6\n        /* \"#utility.yul\":12031:12054   */\n      sub\n        /* \"#utility.yul\":12027:12059   */\n      slt\n        /* \"#utility.yul\":12024:12143   */\n      iszero\n      tag_802\n      jumpi\n        /* \"#utility.yul\":12062:12141   */\n      tag_803\n      tag_552\n      jump\t// in\n    tag_803:\n        /* \"#utility.yul\":12024:12143   */\n    tag_802:\n        /* \"#utility.yul\":12182:12183   */\n      0x00\n        /* \"#utility.yul\":12207:12260   */\n      tag_804\n        /* \"#utility.yul\":12252:12259   */\n      dup6\n        /* \"#utility.yul\":12243:12249   */\n      dup3\n        /* \"#utility.yul\":12232:12241   */\n      dup7\n        /* \"#utility.yul\":12228:12250   */\n      add\n        /* \"#utility.yul\":12207:12260   */\n      tag_566\n      jump\t// in\n    tag_804:\n        /* \"#utility.yul\":12197:12260   */\n      swap3\n      pop\n        /* \"#utility.yul\":12153:12270   */\n      pop\n        /* \"#utility.yul\":12309:12311   */\n      0x20\n        /* \"#utility.yul\":12335:12394   */\n      tag_805\n        /* \"#utility.yul\":12386:12393   */\n      dup6\n        /* \"#utility.yul\":12377:12383   */\n      dup3\n        /* \"#utility.yul\":12366:12375   */\n      dup7\n        /* \"#utility.yul\":12362:12384   */\n      add\n        /* \"#utility.yul\":12335:12394   */\n      tag_587\n      jump\t// in\n    tag_805:\n        /* \"#utility.yul\":12325:12394   */\n      swap2\n      pop\n        /* \"#utility.yul\":12280:12404   */\n      pop\n        /* \"#utility.yul\":11925:12411   */\n      swap3\n      pop\n      swap3\n      swap1\n      pop\n      jump\t// out\n        /* \"#utility.yul\":12417:12639   */\n    tag_82:\n        /* \"#utility.yul\":12510:12514   */\n      0x00\n        /* \"#utility.yul\":12548:12550   */\n      0x20\n        /* \"#utility.yul\":12537:12546   */\n      dup3\n        /* \"#utility.yul\":12533:12551   */\n      add\n        /* \"#utility.yul\":12525:12551   */\n      swap1\n      pop\n        /* \"#utility.yul\":12561:12632   */\n      tag_807\n        /* \"#utility.yul\":12629:12630   */\n      0x00\n        /* \"#utility.yul\":12618:12627   */\n      dup4\n        /* \"#utility.yul\":12614:12631   */\n      add\n        /* \"#utility.yul\":12605:12611   */\n      dup5\n        /* \"#utility.yul\":12561:12632   */\n      tag_576\n      jump\t// in\n    tag_807:\n        /* \"#utility.yul\":12417:12639   */\n      swap3\n      swap2\n      pop\n      pop\n      jump\t// out\n        /* \"#utility.yul\":12645:13456   */\n    tag_88:\n        /* \"#utility.yul\":12738:12744   */\n      0x00\n        /* \"#utility.yul\":12746:12752   */\n      0x00\n        /* \"#utility.yul\":12754:12760   */\n      0x00\n        /* \"#utility.yul\":12803:12805   */\n      0x60\n        /* \"#utility.yul\":12791:12800   */\n      dup5\n        /* \"#utility.yul\":12782:12789   */\n      dup7\n        /* \"#utility.yul\":12778:12801   */\n      sub\n        /* \"#utility.yul\":12774:12806   */\n      slt\n        /* \"#utility.yul\":12771:12890   */\n      iszero\n      tag_809\n      jumpi\n        /* \"#utility.yul\":12809:12888   */\n      tag_810\n      tag_552\n      jump\t// in\n    tag_810:\n        /* \"#utility.yul\":12771:12890   */\n    tag_809:\n        /* \"#utility.yul\":12957:12958   */\n      0x00\n        /* \"#utility.yul\":12946:12955   */\n      dup5\n        /* \"#utility.yul\":12942:12959   */\n      add\n        /* \"#utility.yul\":12929:12960   */\n      calldataload\n        /* \"#utility.yul\":12987:13005   */\n      0xffffffffffffffff\n        /* \"#utility.yul\":12979:12985   */\n      dup2\n        /* \"#utility.yul\":12976:13006   */\n      gt\n        /* \"#utility.yul\":12973:13090   */\n      iszero\n      tag_811\n      jumpi\n        /* \"#utility.yul\":13009:13088   */\n      tag_812\n      tag_553\n      jump\t// in\n    tag_812:\n        /* \"#utility.yul\":12973:13090   */\n    tag_811:\n        /* \"#utility.yul\":13114:13177   */\n      tag_813\n        /* \"#utility.yul\":13169:13176   */\n      dup7\n        /* \"#utility.yul\":13160:13166   */\n      dup3\n        /* \"#utility.yul\":13149:13158   */\n      dup8\n        /* \"#utility.yul\":13145:13167   */\n      add\n        /* \"#utility.yul\":13114:13177   */\n      tag_562\n      jump\t// in\n    tag_813:\n        /* \"#utility.yul\":13104:13177   */\n      swap4\n      pop\n        /* \"#utility.yul\":12900:13187   */\n      pop\n        /* \"#utility.yul\":13226:13228   */\n      0x20\n        /* \"#utility.yul\":13252:13305   */\n      tag_814\n        /* \"#utility.yul\":13297:13304   */\n      dup7\n        /* \"#utility.yul\":13288:13294   */\n      dup3\n        /* \"#utility.yul\":13277:13286   */\n      dup8\n        /* \"#utility.yul\":13273:13295   */\n      add\n        /* \"#utility.yul\":13252:13305   */\n      tag_566\n      jump\t// in\n    tag_814:\n        /* \"#utility.yul\":13242:13305   */\n      swap3\n      pop\n        /* \"#utility.yul\":13197:13315   */\n      pop\n        /* \"#utility.yul\":13354:13356   */\n      0x40\n        /* \"#utility.yul\":13380:13439   */\n      tag_815\n        /* \"#utility.yul\":13431:13438   */\n      dup7\n        /* \"#utility.yul\":13422:13428   */\n      dup3\n        /* \"#utility.yul\":13411:13420   */\n      dup8\n        /* \"#utility.yul\":13407:13429   */\n      add\n        /* \"#utility.yul\":13380:13439   */\n      tag_587\n      jump\t// in\n    tag_815:\n        /* \"#utility.yul\":13370:13439   */\n      swap2\n      pop\n        /* \"#utility.yul\":13325:13449   */\n      pop\n        /* \"#utility.yul\":12645:13456   */\n      swap3\n      pop\n      swap3\n      pop\n      swap3\n      jump\t// out\n        /* \"#utility.yul\":13462:13621   */\n    tag_588:\n        /* \"#utility.yul\":13536:13547   */\n      0x00\n        /* \"#utility.yul\":13570:13576   */\n      dup3\n        /* \"#utility.yul\":13565:13568   */\n      dup3\n        /* \"#utility.yul\":13558:13577   */\n      mstore\n        /* \"#utility.yul\":13610:13614   */\n      0x20\n        /* \"#utility.yul\":13605:13608   */\n      dup3\n        /* \"#utility.yul\":13601:13615   */\n      add\n        /* \"#utility.yul\":13586:13615   */\n      swap1\n      pop\n        /* \"#utility.yul\":13462:13621   */\n      swap3\n      swap2\n      pop\n      pop\n      jump\t// out\n        /* \"#utility.yul\":13627:13984   */\n    tag_589:\n        /* \"#utility.yul\":13705:13708   */\n      0x00\n        /* \"#utility.yul\":13733:13772   */\n      tag_818\n        /* \"#utility.yul\":13766:13771   */\n      dup3\n        /* \"#utility.yul\":13733:13772   */\n      tag_572\n      jump\t// in\n    tag_818:\n        /* \"#utility.yul\":13788:13849   */\n      tag_819\n        /* \"#utility.yul\":13842:13848   */\n      dup2\n        /* \"#utility.yul\":13837:13840   */\n      dup6\n        /* \"#utility.yul\":13788:13849   */\n      tag_588\n      jump\t// in\n    tag_819:\n        /* \"#utility.yul\":13781:13849   */\n      swap4\n      pop\n        /* \"#utility.yul\":13858:13923   */\n      tag_820\n        /* \"#utility.yul\":13916:13922   */\n      dup2\n        /* \"#utility.yul\":13911:13914   */\n      dup6\n        /* \"#utility.yul\":13904:13908   */\n      0x20\n        /* \"#utility.yul\":13897:13902   */\n      dup7\n        /* \"#utility.yul\":13893:13909   */\n      add\n        /* \"#utility.yul\":13858:13923   */\n      tag_574\n      jump\t// in\n    tag_820:\n        /* \"#utility.yul\":13948:13977   */\n      tag_821\n        /* \"#utility.yul\":13970:13976   */\n      dup2\n        /* \"#utility.yul\":13948:13977   */\n      tag_556\n      jump\t// in\n    tag_821:\n        /* \"#utility.yul\":13943:13946   */\n      dup5\n        /* \"#utility.yul\":13939:13978   */\n      add\n        /* \"#utility.yul\":13932:13978   */\n      swap2\n      pop\n        /* \"#utility.yul\":13709:13984   */\n      pop\n        /* \"#utility.yul\":13627:13984   */\n      swap3\n      swap2\n      pop\n      pop\n      jump\t// out\n        /* \"#utility.yul\":13990:14098   */\n    tag_590:\n        /* \"#utility.yul\":14067:14091   */\n      tag_823\n        /* \"#utility.yul\":14085:14090   */\n      dup2\n        /* \"#utility.yul\":14067:14091   */\n      tag_564\n      jump\t// in\n    tag_823:\n        /* \"#utility.yul\":14062:14065   */\n      dup3\n        /* \"#utility.yul\":14055:14092   */\n      mstore\n        /* \"#utility.yul\":13990:14098   */\n      pop\n      pop\n      jump\t// out\n        /* \"#utility.yul\":14104:14212   */\n    tag_591:\n        /* \"#utility.yul\":14181:14205   */\n      tag_825\n        /* \"#utility.yul\":14199:14204   */\n      dup2\n        /* \"#utility.yul\":14181:14205   */\n      tag_569\n      jump\t// in\n    tag_825:\n        /* \"#utility.yul\":14176:14179   */\n      dup3\n        /* \"#utility.yul\":14169:14206   */\n      mstore\n        /* \"#utility.yul\":14104:14212   */\n      pop\n      pop\n      jump\t// out\n        /* \"#utility.yul\":14218:14317   */\n    tag_592:\n        /* \"#utility.yul\":14289:14310   */\n      tag_827\n        /* \"#utility.yul\":14304:14309   */\n      dup2\n        /* \"#utility.yul\":14289:14310   */\n      tag_567\n      jump\t// in\n    tag_827:\n        /* \"#utility.yul\":14284:14287   */\n      dup3\n        /* \"#utility.yul\":14277:14311   */\n      mstore\n        /* \"#utility.yul\":14218:14317   */\n      pop\n      pop\n      jump\t// out\n        /* \"#utility.yul\":14383:15847   */\n    tag_593:\n        /* \"#utility.yul\":14490:14493   */\n      0x00\n        /* \"#utility.yul\":14526:14530   */\n      0xc0\n        /* \"#utility.yul\":14521:14524   */\n      dup4\n        /* \"#utility.yul\":14517:14531   */\n      add\n        /* \"#utility.yul\":14614:14618   */\n      0x00\n        /* \"#utility.yul\":14607:14612   */\n      dup4\n        /* \"#utility.yul\":14603:14619   */\n      add\n        /* \"#utility.yul\":14597:14620   */\n      mload\n        /* \"#utility.yul\":14667:14670   */\n      dup5\n        /* \"#utility.yul\":14661:14665   */\n      dup3\n        /* \"#utility.yul\":14657:14671   */\n      sub\n        /* \"#utility.yul\":14650:14654   */\n      0x00\n        /* \"#utility.yul\":14645:14648   */\n      dup7\n        /* \"#utility.yul\":14641:14655   */\n      add\n        /* \"#utility.yul\":14634:14672   */\n      mstore\n        /* \"#utility.yul\":14693:14766   */\n      tag_829\n        /* \"#utility.yul\":14761:14765   */\n      dup3\n        /* \"#utility.yul\":14747:14759   */\n      dup3\n        /* \"#utility.yul\":14693:14766   */\n      tag_589\n      jump\t// in\n    tag_829:\n        /* \"#utility.yul\":14685:14766   */\n      swap2\n      pop\n        /* \"#utility.yul\":14541:14777   */\n      pop\n        /* \"#utility.yul\":14862:14866   */\n      0x20\n        /* \"#utility.yul\":14855:14860   */\n      dup4\n        /* \"#utility.yul\":14851:14867   */\n      add\n        /* \"#utility.yul\":14845:14868   */\n      mload\n        /* \"#utility.yul\":14881:14944   */\n      tag_830\n        /* \"#utility.yul\":14938:14942   */\n      0x20\n        /* \"#utility.yul\":14933:14936   */\n      dup7\n        /* \"#utility.yul\":14929:14943   */\n      add\n        /* \"#utility.yul\":14915:14927   */\n      dup3\n        /* \"#utility.yul\":14881:14944   */\n      tag_590\n      jump\t// in\n    tag_830:\n        /* \"#utility.yul\":14787:14954   */\n      pop\n        /* \"#utility.yul\":15043:15047   */\n      0x40\n        /* \"#utility.yul\":15036:15041   */\n      dup4\n        /* \"#utility.yul\":15032:15048   */\n      add\n        /* \"#utility.yul\":15026:15049   */\n      mload\n        /* \"#utility.yul\":15096:15099   */\n      dup5\n        /* \"#utility.yul\":15090:15094   */\n      dup3\n        /* \"#utility.yul\":15086:15100   */\n      sub\n        /* \"#utility.yul\":15079:15083   */\n      0x40\n        /* \"#utility.yul\":15074:15077   */\n      dup7\n        /* \"#utility.yul\":15070:15084   */\n      add\n        /* \"#utility.yul\":15063:15101   */\n      mstore\n        /* \"#utility.yul\":15122:15195   */\n      tag_831\n        /* \"#utility.yul\":15190:15194   */\n      dup3\n        /* \"#utility.yul\":15176:15188   */\n      dup3\n        /* \"#utility.yul\":15122:15195   */\n      tag_589\n      jump\t// in\n    tag_831:\n        /* \"#utility.yul\":15114:15195   */\n      swap2\n      pop\n        /* \"#utility.yul\":14964:15206   */\n      pop\n        /* \"#utility.yul\":15293:15297   */\n      0x60\n        /* \"#utility.yul\":15286:15291   */\n      dup4\n        /* \"#utility.yul\":15282:15298   */\n      add\n        /* \"#utility.yul\":15276:15299   */\n      mload\n        /* \"#utility.yul\":15312:15375   */\n      tag_832\n        /* \"#utility.yul\":15369:15373   */\n      0x60\n        /* \"#utility.yul\":15364:15367   */\n      dup7\n        /* \"#utility.yul\":15360:15374   */\n      add\n        /* \"#utility.yul\":15346:15358   */\n      dup3\n        /* \"#utility.yul\":15312:15375   */\n      tag_591\n      jump\t// in\n    tag_832:\n        /* \"#utility.yul\":15216:15385   */\n      pop\n        /* \"#utility.yul\":15477:15481   */\n      0x80\n        /* \"#utility.yul\":15470:15475   */\n      dup4\n        /* \"#utility.yul\":15466:15482   */\n      add\n        /* \"#utility.yul\":15460:15483   */\n      mload\n        /* \"#utility.yul\":15496:15553   */\n      tag_833\n        /* \"#utility.yul\":15547:15551   */\n      0x80\n        /* \"#utility.yul\":15542:15545   */\n      dup7\n        /* \"#utility.yul\":15538:15552   */\n      add\n        /* \"#utility.yul\":15524:15536   */\n      dup3\n        /* \"#utility.yul\":15496:15553   */\n      tag_592\n      jump\t// in\n    tag_833:\n        /* \"#utility.yul\":15395:15563   */\n      pop\n        /* \"#utility.yul\":15657:15661   */\n      0xa0\n        /* \"#utility.yul\":15650:15655   */\n      dup4\n        /* \"#utility.yul\":15646:15662   */\n      add\n        /* \"#utility.yul\":15640:15663   */\n      mload\n        /* \"#utility.yul\":15710:15713   */\n      dup5\n        /* \"#utility.yul\":15704:15708   */\n      dup3\n        /* \"#utility.yul\":15700:15714   */\n      sub\n        /* \"#utility.yul\":15693:15697   */\n      0xa0\n        /* \"#utility.yul\":15688:15691   */\n      dup7\n        /* \"#utility.yul\":15684:15698   */\n      add\n        /* \"#utility.yul\":15677:15715   */\n      mstore\n        /* \"#utility.yul\":15736:15809   */\n      tag_834\n        /* \"#utility.yul\":15804:15808   */\n      dup3\n        /* \"#utility.yul\":15790:15802   */\n      dup3\n        /* \"#utility.yul\":15736:15809   */\n      tag_589\n      jump\t// in\n    tag_834:\n        /* \"#utility.yul\":15728:15809   */\n      swap2\n      pop\n        /* \"#utility.yul\":15573:15820   */\n      pop\n        /* \"#utility.yul\":15837:15841   */\n      dup1\n        /* \"#utility.yul\":15830:15841   */\n      swap2\n      pop\n        /* \"#utility.yul\":14495:15847   */\n      pop\n        /* \"#utility.yul\":14383:15847   */\n      swap3\n      swap2\n      pop\n      pop\n      jump\t// out\n        /* \"#utility.yul\":15853:16202   */\n    tag_94:\n        /* \"#utility.yul\":15984:15988   */\n      0x00\n        /* \"#utility.yul\":16022:16024   */\n      0x20\n        /* \"#utility.yul\":16011:16020   */\n      dup3\n        /* \"#utility.yul\":16007:16025   */\n      add\n        /* \"#utility.yul\":15999:16025   */\n      swap1\n      pop\n        /* \"#utility.yul\":16071:16080   */\n      dup2\n        /* \"#utility.yul\":16065:16069   */\n      dup2\n        /* \"#utility.yul\":16061:16081   */\n      sub\n        /* \"#utility.yul\":16057:16058   */\n      0x00\n        /* \"#utility.yul\":16046:16055   */\n      dup4\n        /* \"#utility.yul\":16042:16059   */\n      add\n        /* \"#utility.yul\":16035:16082   */\n      mstore\n        /* \"#utility.yul\":16099:16195   */\n      tag_836\n        /* \"#utility.yul\":16190:16194   */\n      dup2\n        /* \"#utility.yul\":16181:16187   */\n      dup5\n        /* \"#utility.yul\":16099:16195   */\n      tag_593\n      jump\t// in\n    tag_836:\n        /* \"#utility.yul\":16091:16195   */\n      swap1\n      pop\n        /* \"#utility.yul\":15853:16202   */\n      swap3\n      swap2\n      pop\n      pop\n      jump\t// out\n        /* \"#utility.yul\":16208:16285   */\n    tag_594:\n        /* \"#utility.yul\":16245:16252   */\n      0x00\n        /* \"#utility.yul\":16274:16279   */\n      dup2\n        /* \"#utility.yul\":16263:16279   */\n      swap1\n      pop\n        /* \"#utility.yul\":16208:16285   */\n      swap2\n      swap1\n      pop\n      jump\t// out\n        /* \"#utility.yul\":16291:16413   */\n    tag_595:\n        /* \"#utility.yul\":16364:16388   */\n      tag_839\n        /* \"#utility.yul\":16382:16387   */\n      dup2\n        /* \"#utility.yul\":16364:16388   */\n      tag_594\n      jump\t// in\n    tag_839:\n        /* \"#utility.yul\":16357:16362   */\n      dup2\n        /* \"#utility.yul\":16354:16389   */\n      eq\n        /* \"#utility.yul\":16344:16407   */\n      tag_840\n      jumpi\n        /* \"#utility.yul\":16403:16404   */\n      0x00\n        /* \"#utility.yul\":16400:16401   */\n      0x00\n        /* \"#utility.yul\":16393:16405   */\n      revert\n        /* \"#utility.yul\":16344:16407   */\n    tag_840:\n        /* \"#utility.yul\":16291:16413   */\n      pop\n      jump\t// out\n        /* \"#utility.yul\":16419:16558   */\n    tag_596:\n        /* \"#utility.yul\":16465:16470   */\n      0x00\n        /* \"#utility.yul\":16503:16509   */\n      dup2\n        /* \"#utility.yul\":16490:16510   */\n      calldataload\n        /* \"#utility.yul\":16481:16510   */\n      swap1\n      pop\n        /* \"#utility.yul\":16519:16552   */\n      tag_842\n        /* \"#utility.yul\":16546:16551   */\n      dup2\n        /* \"#utility.yul\":16519:16552   */\n      tag_595\n      jump\t// in\n    tag_842:\n        /* \"#utility.yul\":16419:16558   */\n      swap3\n      swap2\n      pop\n      pop\n      jump\t// out\n        /* \"#utility.yul\":16564:16893   */\n    tag_100:\n        /* \"#utility.yul\":16623:16629   */\n      0x00\n        /* \"#utility.yul\":16672:16674   */\n      0x20\n        /* \"#utility.yul\":16660:16669   */\n      dup3\n        /* \"#utility.yul\":16651:16658   */\n      dup5\n        /* \"#utility.yul\":16647:16670   */\n      sub\n        /* \"#utility.yul\":16643:16675   */\n      slt\n        /* \"#utility.yul\":16640:16759   */\n      iszero\n      tag_844\n      jumpi\n        /* \"#utility.yul\":16678:16757   */\n      tag_845\n      tag_552\n      jump\t// in\n    tag_845:\n        /* \"#utility.yul\":16640:16759   */\n    tag_844:\n        /* \"#utility.yul\":16798:16799   */\n      0x00\n        /* \"#utility.yul\":16823:16876   */\n      tag_846\n        /* \"#utility.yul\":16868:16875   */\n      dup5\n        /* \"#utility.yul\":16859:16865   */\n      dup3\n        /* \"#utility.yul\":16848:16857   */\n      dup6\n        /* \"#utility.yul\":16844:16866   */\n      add\n        /* \"#utility.yul\":16823:16876   */\n      tag_596\n      jump\t// in\n    tag_846:\n        /* \"#utility.yul\":16813:16876   */\n      swap2\n      pop\n        /* \"#utility.yul\":16769:16886   */\n      pop\n        /* \"#utility.yul\":16564:16893   */\n      swap3\n      swap2\n      pop\n      pop\n      jump\t// out\n        /* \"#utility.yul\":16899:17220   */\n    tag_597:\n        /* \"#utility.yul\":16986:16990   */\n      0x00\n        /* \"#utility.yul\":17076:17094   */\n      0xffffffffffffffff\n        /* \"#utility.yul\":17068:17074   */\n      dup3\n        /* \"#utility.yul\":17065:17095   */\n      gt\n        /* \"#utility.yul\":17062:17118   */\n      iszero\n      tag_848\n      jumpi\n        /* \"#utility.yul\":17098:17116   */\n      tag_849\n      tag_428\n      jump\t// in\n    tag_849:\n        /* \"#utility.yul\":17062:17118   */\n    tag_848:\n        /* \"#utility.yul\":17148:17152   */\n      0x20\n        /* \"#utility.yul\":17140:17146   */\n      dup3\n        /* \"#utility.yul\":17136:17153   */\n      mul\n        /* \"#utility.yul\":17128:17153   */\n      swap1\n      pop\n        /* \"#utility.yul\":17208:17212   */\n      0x20\n        /* \"#utility.yul\":17202:17206   */\n      dup2\n        /* \"#utility.yul\":17198:17213   */\n      add\n        /* \"#utility.yul\":17190:17213   */\n      swap1\n      pop\n        /* \"#utility.yul\":16899:17220   */\n      swap2\n      swap1\n      pop\n      jump\t// out\n        /* \"#utility.yul\":17226:17343   */\n    tag_598:\n        /* \"#utility.yul\":17335:17336   */\n      0x00\n        /* \"#utility.yul\":17332:17333   */\n      0x00\n        /* \"#utility.yul\":17325:17337   */\n      revert\n        /* \"#utility.yul\":17365:18310   */\n    tag_599:\n        /* \"#utility.yul\":17471:17476   */\n      0x00\n        /* \"#utility.yul\":17496:17587   */\n      tag_852\n        /* \"#utility.yul\":17512:17586   */\n      tag_853\n        /* \"#utility.yul\":17579:17585   */\n      dup5\n        /* \"#utility.yul\":17512:17586   */\n      tag_597\n      jump\t// in\n    tag_853:\n        /* \"#utility.yul\":17496:17587   */\n      tag_558\n      jump\t// in\n    tag_852:\n        /* \"#utility.yul\":17487:17587   */\n      swap1\n      pop\n        /* \"#utility.yul\":17607:17612   */\n      dup1\n        /* \"#utility.yul\":17636:17642   */\n      dup4\n        /* \"#utility.yul\":17629:17634   */\n      dup3\n        /* \"#utility.yul\":17622:17643   */\n      mstore\n        /* \"#utility.yul\":17670:17674   */\n      0x20\n        /* \"#utility.yul\":17663:17668   */\n      dup3\n        /* \"#utility.yul\":17659:17675   */\n      add\n        /* \"#utility.yul\":17652:17675   */\n      swap1\n      pop\n        /* \"#utility.yul\":17723:17727   */\n      0x20\n        /* \"#utility.yul\":17715:17721   */\n      dup5\n        /* \"#utility.yul\":17711:17728   */\n      mul\n        /* \"#utility.yul\":17703:17709   */\n      dup4\n        /* \"#utility.yul\":17699:17729   */\n      add\n        /* \"#utility.yul\":17752:17755   */\n      dup6\n        /* \"#utility.yul\":17744:17750   */\n      dup2\n        /* \"#utility.yul\":17741:17756   */\n      gt\n        /* \"#utility.yul\":17738:17860   */\n      iszero\n      tag_854\n      jumpi\n        /* \"#utility.yul\":17771:17850   */\n      tag_855\n      tag_598\n      jump\t// in\n    tag_855:\n        /* \"#utility.yul\":17738:17860   */\n    tag_854:\n        /* \"#utility.yul\":17886:17892   */\n      dup4\n        /* \"#utility.yul\":17869:18304   */\n    tag_856:\n        /* \"#utility.yul\":17903:17909   */\n      dup2\n        /* \"#utility.yul\":17898:17901   */\n      dup2\n        /* \"#utility.yul\":17895:17910   */\n      lt\n        /* \"#utility.yul\":17869:18304   */\n      iszero\n      tag_858\n      jumpi\n        /* \"#utility.yul\":17992:17995   */\n      dup1\n        /* \"#utility.yul\":17979:17996   */\n      calldataload\n        /* \"#utility.yul\":18028:18046   */\n      0xffffffffffffffff\n        /* \"#utility.yul\":18015:18026   */\n      dup2\n        /* \"#utility.yul\":18012:18047   */\n      gt\n        /* \"#utility.yul\":18009:18131   */\n      iszero\n      tag_859\n      jumpi\n        /* \"#utility.yul\":18050:18129   */\n      tag_860\n      tag_554\n      jump\t// in\n    tag_860:\n        /* \"#utility.yul\":18009:18131   */\n    tag_859:\n        /* \"#utility.yul\":18174:18185   */\n      dup1\n        /* \"#utility.yul\":18166:18172   */\n      dup7\n        /* \"#utility.yul\":18162:18186   */\n      add\n        /* \"#utility.yul\":18212:18259   */\n      tag_861\n        /* \"#utility.yul\":18255:18258   */\n      dup10\n        /* \"#utility.yul\":18243:18253   */\n      dup3\n        /* \"#utility.yul\":18212:18259   */\n      tag_562\n      jump\t// in\n    tag_861:\n        /* \"#utility.yul\":18207:18210   */\n      dup6\n        /* \"#utility.yul\":18200:18260   */\n      mstore\n        /* \"#utility.yul\":18289:18293   */\n      0x20\n        /* \"#utility.yul\":18284:18287   */\n      dup6\n        /* \"#utility.yul\":18280:18294   */\n      add\n        /* \"#utility.yul\":18273:18294   */\n      swap5\n      pop\n        /* \"#utility.yul\":17945:18304   */\n      pop\n      pop\n        /* \"#utility.yul\":17929:17933   */\n      0x20\n        /* \"#utility.yul\":17924:17927   */\n      dup2\n        /* \"#utility.yul\":17920:17934   */\n      add\n        /* \"#utility.yul\":17913:17934   */\n      swap1\n      pop\n        /* \"#utility.yul\":17869:18304   */\n      jump(tag_856)\n    tag_858:\n        /* \"#utility.yul\":17873:17894   */\n      pop\n        /* \"#utility.yul\":17477:18310   */\n      pop\n      pop\n        /* \"#utility.yul\":17365:18310   */\n      swap4\n      swap3\n      pop\n      pop\n      pop\n      jump\t// out\n        /* \"#utility.yul\":18332:18722   */\n    tag_600:\n        /* \"#utility.yul\":18413:18418   */\n      0x00\n        /* \"#utility.yul\":18462:18465   */\n      dup3\n        /* \"#utility.yul\":18455:18459   */\n      0x1f\n        /* \"#utility.yul\":18447:18453   */\n      dup4\n        /* \"#utility.yul\":18443:18460   */\n      add\n        /* \"#utility.yul\":18439:18466   */\n      slt\n        /* \"#utility.yul\":18429:18551   */\n      tag_863\n      jumpi\n        /* \"#utility.yul\":18470:18549   */\n      tag_864\n      tag_554\n      jump\t// in\n    tag_864:\n        /* \"#utility.yul\":18429:18551   */\n    tag_863:\n        /* \"#utility.yul\":18587:18593   */\n      dup2\n        /* \"#utility.yul\":18574:18594   */\n      calldataload\n        /* \"#utility.yul\":18612:18716   */\n      tag_865\n        /* \"#utility.yul\":18712:18715   */\n      dup5\n        /* \"#utility.yul\":18704:18710   */\n      dup3\n        /* \"#utility.yul\":18697:18701   */\n      0x20\n        /* \"#utility.yul\":18689:18695   */\n      dup7\n        /* \"#utility.yul\":18685:18702   */\n      add\n        /* \"#utility.yul\":18612:18716   */\n      tag_599\n      jump\t// in\n    tag_865:\n        /* \"#utility.yul\":18603:18716   */\n      swap2\n      pop\n        /* \"#utility.yul\":18419:18722   */\n      pop\n        /* \"#utility.yul\":18332:18722   */\n      swap3\n      swap2\n      pop\n      pop\n      jump\t// out\n        /* \"#utility.yul\":18728:20589   */\n    tag_113:\n        /* \"#utility.yul\":18898:18904   */\n      0x00\n        /* \"#utility.yul\":18906:18912   */\n      0x00\n        /* \"#utility.yul\":18914:18920   */\n      0x00\n        /* \"#utility.yul\":18922:18928   */\n      0x00\n        /* \"#utility.yul\":18930:18936   */\n      0x00\n        /* \"#utility.yul\":18979:18982   */\n      0xa0\n        /* \"#utility.yul\":18967:18976   */\n      dup7\n        /* \"#utility.yul\":18958:18965   */\n      dup9\n        /* \"#utility.yul\":18954:18977   */\n      sub\n        /* \"#utility.yul\":18950:18983   */\n      slt\n        /* \"#utility.yul\":18947:19067   */\n      iszero\n      tag_867\n      jumpi\n        /* \"#utility.yul\":18986:19065   */\n      tag_868\n      tag_552\n      jump\t// in\n    tag_868:\n        /* \"#utility.yul\":18947:19067   */\n    tag_867:\n        /* \"#utility.yul\":19134:19135   */\n      0x00\n        /* \"#utility.yul\":19123:19132   */\n      dup7\n        /* \"#utility.yul\":19119:19136   */\n      add\n        /* \"#utility.yul\":19106:19137   */\n      calldataload\n        /* \"#utility.yul\":19164:19182   */\n      0xffffffffffffffff\n        /* \"#utility.yul\":19156:19162   */\n      dup2\n        /* \"#utility.yul\":19153:19183   */\n      gt\n        /* \"#utility.yul\":19150:19267   */\n      iszero\n      tag_869\n      jumpi\n        /* \"#utility.yul\":19186:19265   */\n      tag_870\n      tag_553\n      jump\t// in\n    tag_870:\n        /* \"#utility.yul\":19150:19267   */\n    tag_869:\n        /* \"#utility.yul\":19291:19354   */\n      tag_871\n        /* \"#utility.yul\":19346:19353   */\n      dup9\n        /* \"#utility.yul\":19337:19343   */\n      dup3\n        /* \"#utility.yul\":19326:19335   */\n      dup10\n        /* \"#utility.yul\":19322:19344   */\n      add\n        /* \"#utility.yul\":19291:19354   */\n      tag_562\n      jump\t// in\n    tag_871:\n        /* \"#utility.yul\":19281:19354   */\n      swap6\n      pop\n        /* \"#utility.yul\":19077:19364   */\n      pop\n        /* \"#utility.yul\":19431:19433   */\n      0x20\n        /* \"#utility.yul\":19420:19429   */\n      dup7\n        /* \"#utility.yul\":19416:19434   */\n      add\n        /* \"#utility.yul\":19403:19435   */\n      calldataload\n        /* \"#utility.yul\":19462:19480   */\n      0xffffffffffffffff\n        /* \"#utility.yul\":19454:19460   */\n      dup2\n        /* \"#utility.yul\":19451:19481   */\n      gt\n        /* \"#utility.yul\":19448:19565   */\n      iszero\n      tag_872\n      jumpi\n        /* \"#utility.yul\":19484:19563   */\n      tag_873\n      tag_553\n      jump\t// in\n    tag_873:\n        /* \"#utility.yul\":19448:19565   */\n    tag_872:\n        /* \"#utility.yul\":19589:19652   */\n      tag_874\n        /* \"#utility.yul\":19644:19651   */\n      dup9\n        /* \"#utility.yul\":19635:19641   */\n      dup3\n        /* \"#utility.yul\":19624:19633   */\n      dup10\n        /* \"#utility.yul\":19620:19642   */\n      add\n        /* \"#utility.yul\":19589:19652   */\n      tag_562\n      jump\t// in\n    tag_874:\n        /* \"#utility.yul\":19579:19652   */\n      swap5\n      pop\n        /* \"#utility.yul\":19374:19662   */\n      pop\n        /* \"#utility.yul\":19729:19731   */\n      0x40\n        /* \"#utility.yul\":19718:19727   */\n      dup7\n        /* \"#utility.yul\":19714:19732   */\n      add\n        /* \"#utility.yul\":19701:19733   */\n      calldataload\n        /* \"#utility.yul\":19760:19778   */\n      0xffffffffffffffff\n        /* \"#utility.yul\":19752:19758   */\n      dup2\n        /* \"#utility.yul\":19749:19779   */\n      gt\n        /* \"#utility.yul\":19746:19863   */\n      iszero\n      tag_875\n      jumpi\n        /* \"#utility.yul\":19782:19861   */\n      tag_876\n      tag_553\n      jump\t// in\n    tag_876:\n        /* \"#utility.yul\":19746:19863   */\n    tag_875:\n        /* \"#utility.yul\":19887:19950   */\n      tag_877\n        /* \"#utility.yul\":19942:19949   */\n      dup9\n        /* \"#utility.yul\":19933:19939   */\n      dup3\n        /* \"#utility.yul\":19922:19931   */\n      dup10\n        /* \"#utility.yul\":19918:19940   */\n      add\n        /* \"#utility.yul\":19887:19950   */\n      tag_562\n      jump\t// in\n    tag_877:\n        /* \"#utility.yul\":19877:19950   */\n      swap4\n      pop\n        /* \"#utility.yul\":19672:19960   */\n      pop\n        /* \"#utility.yul\":20027:20029   */\n      0x60\n        /* \"#utility.yul\":20016:20025   */\n      dup7\n        /* \"#utility.yul\":20012:20030   */\n      add\n        /* \"#utility.yul\":19999:20031   */\n      calldataload\n        /* \"#utility.yul\":20058:20076   */\n      0xffffffffffffffff\n        /* \"#utility.yul\":20050:20056   */\n      dup2\n        /* \"#utility.yul\":20047:20077   */\n      gt\n        /* \"#utility.yul\":20044:20161   */\n      iszero\n      tag_878\n      jumpi\n        /* \"#utility.yul\":20080:20159   */\n      tag_879\n      tag_553\n      jump\t// in\n    tag_879:\n        /* \"#utility.yul\":20044:20161   */\n    tag_878:\n        /* \"#utility.yul\":20185:20248   */\n      tag_880\n        /* \"#utility.yul\":20240:20247   */\n      dup9\n        /* \"#utility.yul\":20231:20237   */\n      dup3\n        /* \"#utility.yul\":20220:20229   */\n      dup10\n        /* \"#utility.yul\":20216:20238   */\n      add\n        /* \"#utility.yul\":20185:20248   */\n      tag_562\n      jump\t// in\n    tag_880:\n        /* \"#utility.yul\":20175:20248   */\n      swap3\n      pop\n        /* \"#utility.yul\":19970:20258   */\n      pop\n        /* \"#utility.yul\":20325:20328   */\n      0x80\n        /* \"#utility.yul\":20314:20323   */\n      dup7\n        /* \"#utility.yul\":20310:20329   */\n      add\n        /* \"#utility.yul\":20297:20330   */\n      calldataload\n        /* \"#utility.yul\":20357:20375   */\n      0xffffffffffffffff\n        /* \"#utility.yul\":20349:20355   */\n      dup2\n        /* \"#utility.yul\":20346:20376   */\n      gt\n        /* \"#utility.yul\":20343:20460   */\n      iszero\n      tag_881\n      jumpi\n        /* \"#utility.yul\":20379:20458   */\n      tag_882\n      tag_553\n      jump\t// in\n    tag_882:\n        /* \"#utility.yul\":20343:20460   */\n    tag_881:\n        /* \"#utility.yul\":20484:20572   */\n      tag_883\n        /* \"#utility.yul\":20564:20571   */\n      dup9\n        /* \"#utility.yul\":20555:20561   */\n      dup3\n        /* \"#utility.yul\":20544:20553   */\n      dup10\n        /* \"#utility.yul\":20540:20562   */\n      add\n        /* \"#utility.yul\":20484:20572   */\n      tag_600\n      jump\t// in\n    tag_883:\n        /* \"#utility.yul\":20474:20572   */\n      swap2\n      pop\n        /* \"#utility.yul\":20268:20582   */\n      pop\n        /* \"#utility.yul\":18728:20589   */\n      swap3\n      swap6\n      pop\n      swap3\n      swap6\n      swap1\n      swap4\n      pop\n      jump\t// out\n        /* \"#utility.yul\":20595:20709   */\n    tag_601:\n        /* \"#utility.yul\":20683:20684   */\n      0x04\n        /* \"#utility.yul\":20676:20681   */\n      dup2\n        /* \"#utility.yul\":20673:20685   */\n      lt\n        /* \"#utility.yul\":20663:20703   */\n      tag_885\n      jumpi\n        /* \"#utility.yul\":20699:20700   */\n      0x00\n        /* \"#utility.yul\":20696:20697   */\n      0x00\n        /* \"#utility.yul\":20689:20701   */\n      revert\n        /* \"#utility.yul\":20663:20703   */\n    tag_885:\n        /* \"#utility.yul\":20595:20709   */\n      pop\n      jump\t// out\n        /* \"#utility.yul\":20715:20884   */\n    tag_602:\n        /* \"#utility.yul\":20776:20781   */\n      0x00\n        /* \"#utility.yul\":20814:20820   */\n      dup2\n        /* \"#utility.yul\":20801:20821   */\n      calldataload\n        /* \"#utility.yul\":20792:20821   */\n      swap1\n      pop\n        /* \"#utility.yul\":20830:20878   */\n      tag_887\n        /* \"#utility.yul\":20872:20877   */\n      dup2\n        /* \"#utility.yul\":20830:20878   */\n      tag_601\n      jump\t// in\n    tag_887:\n        /* \"#utility.yul\":20715:20884   */\n      swap3\n      swap2\n      pop\n      pop\n      jump\t// out\n        /* \"#utility.yul\":20890:22551   */\n    tag_117:\n        /* \"#utility.yul\":21040:21046   */\n      0x00\n        /* \"#utility.yul\":21048:21054   */\n      0x00\n        /* \"#utility.yul\":21056:21062   */\n      0x00\n        /* \"#utility.yul\":21064:21070   */\n      0x00\n        /* \"#utility.yul\":21072:21078   */\n      0x00\n        /* \"#utility.yul\":21121:21124   */\n      0xa0\n        /* \"#utility.yul\":21109:21118   */\n      dup7\n        /* \"#utility.yul\":21100:21107   */\n      dup9\n        /* \"#utility.yul\":21096:21119   */\n      sub\n        /* \"#utility.yul\":21092:21125   */\n      slt\n        /* \"#utility.yul\":21089:21209   */\n      iszero\n      tag_889\n      jumpi\n        /* \"#utility.yul\":21128:21207   */\n      tag_890\n      tag_552\n      jump\t// in\n    tag_890:\n        /* \"#utility.yul\":21089:21209   */\n    tag_889:\n        /* \"#utility.yul\":21276:21277   */\n      0x00\n        /* \"#utility.yul\":21265:21274   */\n      dup7\n        /* \"#utility.yul\":21261:21278   */\n      add\n        /* \"#utility.yul\":21248:21279   */\n      calldataload\n        /* \"#utility.yul\":21306:21324   */\n      0xffffffffffffffff\n        /* \"#utility.yul\":21298:21304   */\n      dup2\n        /* \"#utility.yul\":21295:21325   */\n      gt\n        /* \"#utility.yul\":21292:21409   */\n      iszero\n      tag_891\n      jumpi\n        /* \"#utility.yul\":21328:21407   */\n      tag_892\n      tag_553\n      jump\t// in\n    tag_892:\n        /* \"#utility.yul\":21292:21409   */\n    tag_891:\n        /* \"#utility.yul\":21433:21496   */\n      tag_893\n        /* \"#utility.yul\":21488:21495   */\n      dup9\n        /* \"#utility.yul\":21479:21485   */\n      dup3\n        /* \"#utility.yul\":21468:21477   */\n      dup10\n        /* \"#utility.yul\":21464:21486   */\n      add\n        /* \"#utility.yul\":21433:21496   */\n      tag_562\n      jump\t// in\n    tag_893:\n        /* \"#utility.yul\":21423:21496   */\n      swap6\n      pop\n        /* \"#utility.yul\":21219:21506   */\n      pop\n        /* \"#utility.yul\":21573:21575   */\n      0x20\n        /* \"#utility.yul\":21562:21571   */\n      dup7\n        /* \"#utility.yul\":21558:21576   */\n      add\n        /* \"#utility.yul\":21545:21577   */\n      calldataload\n        /* \"#utility.yul\":21604:21622   */\n      0xffffffffffffffff\n        /* \"#utility.yul\":21596:21602   */\n      dup2\n        /* \"#utility.yul\":21593:21623   */\n      gt\n        /* \"#utility.yul\":21590:21707   */\n      iszero\n      tag_894\n      jumpi\n        /* \"#utility.yul\":21626:21705   */\n      tag_895\n      tag_553\n      jump\t// in\n    tag_895:\n        /* \"#utility.yul\":21590:21707   */\n    tag_894:\n        /* \"#utility.yul\":21731:21794   */\n      tag_896\n        /* \"#utility.yul\":21786:21793   */\n      dup9\n        /* \"#utility.yul\":21777:21783   */\n      dup3\n        /* \"#utility.yul\":21766:21775   */\n      dup10\n        /* \"#utility.yul\":21762:21784   */\n      add\n        /* \"#utility.yul\":21731:21794   */\n      tag_562\n      jump\t// in\n    tag_896:\n        /* \"#utility.yul\":21721:21794   */\n      swap5\n      pop\n        /* \"#utility.yul\":21516:21804   */\n      pop\n        /* \"#utility.yul\":21871:21873   */\n      0x40\n        /* \"#utility.yul\":21860:21869   */\n      dup7\n        /* \"#utility.yul\":21856:21874   */\n      add\n        /* \"#utility.yul\":21843:21875   */\n      calldataload\n        /* \"#utility.yul\":21902:21920   */\n      0xffffffffffffffff\n        /* \"#utility.yul\":21894:21900   */\n      dup2\n        /* \"#utility.yul\":21891:21921   */\n      gt\n        /* \"#utility.yul\":21888:22005   */\n      iszero\n      tag_897\n      jumpi\n        /* \"#utility.yul\":21924:22003   */\n      tag_898\n      tag_553\n      jump\t// in\n    tag_898:\n        /* \"#utility.yul\":21888:22005   */\n    tag_897:\n        /* \"#utility.yul\":22029:22092   */\n      tag_899\n        /* \"#utility.yul\":22084:22091   */\n      dup9\n        /* \"#utility.yul\":22075:22081   */\n      dup3\n        /* \"#utility.yul\":22064:22073   */\n      dup10\n        /* \"#utility.yul\":22060:22082   */\n      add\n        /* \"#utility.yul\":22029:22092   */\n      tag_562\n      jump\t// in\n    tag_899:\n        /* \"#utility.yul\":22019:22092   */\n      swap4\n      pop\n        /* \"#utility.yul\":21814:22102   */\n      pop\n        /* \"#utility.yul\":22169:22171   */\n      0x60\n        /* \"#utility.yul\":22158:22167   */\n      dup7\n        /* \"#utility.yul\":22154:22172   */\n      add\n        /* \"#utility.yul\":22141:22173   */\n      calldataload\n        /* \"#utility.yul\":22200:22218   */\n      0xffffffffffffffff\n        /* \"#utility.yul\":22192:22198   */\n      dup2\n        /* \"#utility.yul\":22189:22219   */\n      gt\n        /* \"#utility.yul\":22186:22303   */\n      iszero\n      tag_900\n      jumpi\n        /* \"#utility.yul\":22222:22301   */\n      tag_901\n      tag_553\n      jump\t// in\n    tag_901:\n        /* \"#utility.yul\":22186:22303   */\n    tag_900:\n        /* \"#utility.yul\":22327:22390   */\n      tag_902\n        /* \"#utility.yul\":22382:22389   */\n      dup9\n        /* \"#utility.yul\":22373:22379   */\n      dup3\n        /* \"#utility.yul\":22362:22371   */\n      dup10\n        /* \"#utility.yul\":22358:22380   */\n      add\n        /* \"#utility.yul\":22327:22390   */\n      tag_562\n      jump\t// in\n    tag_902:\n        /* \"#utility.yul\":22317:22390   */\n      swap3\n      pop\n        /* \"#utility.yul\":22112:22400   */\n      pop\n        /* \"#utility.yul\":22439:22442   */\n      0x80\n        /* \"#utility.yul\":22466:22534   */\n      tag_903\n        /* \"#utility.yul\":22526:22533   */\n      dup9\n        /* \"#utility.yul\":22517:22523   */\n      dup3\n        /* \"#utility.yul\":22506:22515   */\n      dup10\n        /* \"#utility.yul\":22502:22524   */\n      add\n        /* \"#utility.yul\":22466:22534   */\n      tag_602\n      jump\t// in\n    tag_903:\n        /* \"#utility.yul\":22456:22534   */\n      swap2\n      pop\n        /* \"#utility.yul\":22410:22544   */\n      pop\n        /* \"#utility.yul\":20890:22551   */\n      swap3\n      swap6\n      pop\n      swap3\n      swap6\n      swap1\n      swap4\n      pop\n      jump\t// out\n        /* \"#utility.yul\":22557:22681   */\n    tag_603:\n        /* \"#utility.yul\":22634:22640   */\n      0x00\n        /* \"#utility.yul\":22668:22673   */\n      dup2\n        /* \"#utility.yul\":22662:22674   */\n      mload\n        /* \"#utility.yul\":22652:22674   */\n      swap1\n      pop\n        /* \"#utility.yul\":22557:22681   */\n      swap2\n      swap1\n      pop\n      jump\t// out\n        /* \"#utility.yul\":22687:22871   */\n    tag_604:\n        /* \"#utility.yul\":22786:22797   */\n      0x00\n        /* \"#utility.yul\":22820:22826   */\n      dup3\n        /* \"#utility.yul\":22815:22818   */\n      dup3\n        /* \"#utility.yul\":22808:22827   */\n      mstore\n        /* \"#utility.yul\":22860:22864   */\n      0x20\n        /* \"#utility.yul\":22855:22858   */\n      dup3\n        /* \"#utility.yul\":22851:22865   */\n      add\n        /* \"#utility.yul\":22836:22865   */\n      swap1\n      pop\n        /* \"#utility.yul\":22687:22871   */\n      swap3\n      swap2\n      pop\n      pop\n      jump\t// out\n        /* \"#utility.yul\":22877:23019   */\n    tag_605:\n        /* \"#utility.yul\":22954:22958   */\n      0x00\n        /* \"#utility.yul\":22977:22980   */\n      dup2\n        /* \"#utility.yul\":22969:22980   */\n      swap1\n      pop\n        /* \"#utility.yul\":23007:23011   */\n      0x20\n        /* \"#utility.yul\":23002:23005   */\n      dup3\n        /* \"#utility.yul\":22998:23012   */\n      add\n        /* \"#utility.yul\":22990:23012   */\n      swap1\n      pop\n        /* \"#utility.yul\":22877:23019   */\n      swap2\n      swap1\n      pop\n      jump\t// out\n        /* \"#utility.yul\":23025:23221   */\n    tag_606:\n        /* \"#utility.yul\":23114:23124   */\n      0x00\n        /* \"#utility.yul\":23149:23215   */\n      tag_908\n        /* \"#utility.yul\":23211:23214   */\n      dup4\n        /* \"#utility.yul\":23203:23209   */\n      dup4\n        /* \"#utility.yul\":23149:23215   */\n      tag_589\n      jump\t// in\n    tag_908:\n        /* \"#utility.yul\":23135:23215   */\n      swap1\n      pop\n        /* \"#utility.yul\":23025:23221   */\n      swap3\n      swap2\n      pop\n      pop\n      jump\t// out\n        /* \"#utility.yul\":23227:23350   */\n    tag_607:\n        /* \"#utility.yul\":23307:23311   */\n      0x00\n        /* \"#utility.yul\":23339:23343   */\n      0x20\n        /* \"#utility.yul\":23334:23337   */\n      dup3\n        /* \"#utility.yul\":23330:23344   */\n      add\n        /* \"#utility.yul\":23322:23344   */\n      swap1\n      pop\n        /* \"#utility.yul\":23227:23350   */\n      swap2\n      swap1\n      pop\n      jump\t// out\n        /* \"#utility.yul\":23384:24355   */\n    tag_608:\n        /* \"#utility.yul\":23513:23516   */\n      0x00\n        /* \"#utility.yul\":23542:23606   */\n      tag_911\n        /* \"#utility.yul\":23600:23605   */\n      dup3\n        /* \"#utility.yul\":23542:23606   */\n      tag_603\n      jump\t// in\n    tag_911:\n        /* \"#utility.yul\":23622:23708   */\n      tag_912\n        /* \"#utility.yul\":23701:23707   */\n      dup2\n        /* \"#utility.yul\":23696:23699   */\n      dup6\n        /* \"#utility.yul\":23622:23708   */\n      tag_604\n      jump\t// in\n    tag_912:\n        /* \"#utility.yul\":23615:23708   */\n      swap4\n      pop\n        /* \"#utility.yul\":23734:23737   */\n      dup4\n        /* \"#utility.yul\":23779:23783   */\n      0x20\n        /* \"#utility.yul\":23771:23777   */\n      dup3\n        /* \"#utility.yul\":23767:23784   */\n      mul\n        /* \"#utility.yul\":23762:23765   */\n      dup6\n        /* \"#utility.yul\":23758:23785   */\n      add\n        /* \"#utility.yul\":23809:23875   */\n      tag_913\n        /* \"#utility.yul\":23869:23874   */\n      dup6\n        /* \"#utility.yul\":23809:23875   */\n      tag_605\n      jump\t// in\n    tag_913:\n        /* \"#utility.yul\":23898:23905   */\n      dup1\n        /* \"#utility.yul\":23929:23930   */\n      0x00\n        /* \"#utility.yul\":23914:24310   */\n    tag_914:\n        /* \"#utility.yul\":23939:23945   */\n      dup6\n        /* \"#utility.yul\":23936:23937   */\n      dup2\n        /* \"#utility.yul\":23933:23946   */\n      lt\n        /* \"#utility.yul\":23914:24310   */\n      iszero\n      tag_916\n      jumpi\n        /* \"#utility.yul\":24010:24019   */\n      dup5\n        /* \"#utility.yul\":24004:24008   */\n      dup5\n        /* \"#utility.yul\":24000:24020   */\n      sub\n        /* \"#utility.yul\":23995:23998   */\n      dup10\n        /* \"#utility.yul\":23988:24021   */\n      mstore\n        /* \"#utility.yul\":24061:24067   */\n      dup2\n        /* \"#utility.yul\":24055:24068   */\n      mload\n        /* \"#utility.yul\":24089:24173   */\n      tag_917\n        /* \"#utility.yul\":24168:24172   */\n      dup6\n        /* \"#utility.yul\":24153:24166   */\n      dup3\n        /* \"#utility.yul\":24089:24173   */\n      tag_606\n      jump\t// in\n    tag_917:\n        /* \"#utility.yul\":24081:24173   */\n      swap5\n      pop\n        /* \"#utility.yul\":24196:24266   */\n      tag_918\n        /* \"#utility.yul\":24259:24265   */\n      dup4\n        /* \"#utility.yul\":24196:24266   */\n      tag_607\n      jump\t// in\n    tag_918:\n        /* \"#utility.yul\":24186:24266   */\n      swap3\n      pop\n        /* \"#utility.yul\":24295:24299   */\n      0x20\n        /* \"#utility.yul\":24290:24293   */\n      dup11\n        /* \"#utility.yul\":24286:24300   */\n      add\n        /* \"#utility.yul\":24279:24300   */\n      swap10\n      pop\n        /* \"#utility.yul\":23974:24310   */\n      pop\n        /* \"#utility.yul\":23961:23962   */\n      0x01\n        /* \"#utility.yul\":23958:23959   */\n      dup2\n        /* \"#utility.yul\":23954:23963   */\n      add\n        /* \"#utility.yul\":23949:23963   */\n      swap1\n      pop\n        /* \"#utility.yul\":23914:24310   */\n      jump(tag_914)\n    tag_916:\n        /* \"#utility.yul\":23918:23932   */\n      pop\n        /* \"#utility.yul\":24326:24330   */\n      dup3\n        /* \"#utility.yul\":24319:24330   */\n      swap8\n      pop\n        /* \"#utility.yul\":24346:24349   */\n      dup8\n        /* \"#utility.yul\":24339:24349   */\n      swap6\n      pop\n        /* \"#utility.yul\":23518:24355   */\n      pop\n      pop\n      pop\n      pop\n      pop\n        /* \"#utility.yul\":23384:24355   */\n      swap3\n      swap2\n      pop\n      pop\n      jump\t// out\n        /* \"#utility.yul\":24423:26340   */\n    tag_609:\n        /* \"#utility.yul\":24532:24535   */\n      0x00\n        /* \"#utility.yul\":24568:24574   */\n      0x0100\n        /* \"#utility.yul\":24563:24566   */\n      dup4\n        /* \"#utility.yul\":24559:24575   */\n      add\n        /* \"#utility.yul\":24659:24663   */\n      0x00\n        /* \"#utility.yul\":24652:24657   */\n      dup4\n        /* \"#utility.yul\":24648:24664   */\n      add\n        /* \"#utility.yul\":24642:24665   */\n      mload\n        /* \"#utility.yul\":24712:24715   */\n      dup5\n        /* \"#utility.yul\":24706:24710   */\n      dup3\n        /* \"#utility.yul\":24702:24716   */\n      sub\n        /* \"#utility.yul\":24695:24699   */\n      0x00\n        /* \"#utility.yul\":24690:24693   */\n      dup7\n        /* \"#utility.yul\":24686:24700   */\n      add\n        /* \"#utility.yul\":24679:24717   */\n      mstore\n        /* \"#utility.yul\":24738:24811   */\n      tag_920\n        /* \"#utility.yul\":24806:24810   */\n      dup3\n        /* \"#utility.yul\":24792:24804   */\n      dup3\n        /* \"#utility.yul\":24738:24811   */\n      tag_589\n      jump\t// in\n    tag_920:\n        /* \"#utility.yul\":24730:24811   */\n      swap2\n      pop\n        /* \"#utility.yul\":24585:24822   */\n      pop\n        /* \"#utility.yul\":24905:24909   */\n      0x20\n        /* \"#utility.yul\":24898:24903   */\n      dup4\n        /* \"#utility.yul\":24894:24910   */\n      add\n        /* \"#utility.yul\":24888:24911   */\n      mload\n        /* \"#utility.yul\":24958:24961   */\n      dup5\n        /* \"#utility.yul\":24952:24956   */\n      dup3\n        /* \"#utility.yul\":24948:24962   */\n      sub\n        /* \"#utility.yul\":24941:24945   */\n      0x20\n        /* \"#utility.yul\":24936:24939   */\n      dup7\n        /* \"#utility.yul\":24932:24946   */\n      add\n        /* \"#utility.yul\":24925:24963   */\n      mstore\n        /* \"#utility.yul\":24984:25057   */\n      tag_921\n        /* \"#utility.yul\":25052:25056   */\n      dup3\n        /* \"#utility.yul\":25038:25050   */\n      dup3\n        /* \"#utility.yul\":24984:25057   */\n      tag_589\n      jump\t// in\n    tag_921:\n        /* \"#utility.yul\":24976:25057   */\n      swap2\n      pop\n        /* \"#utility.yul\":24832:25068   */\n      pop\n        /* \"#utility.yul\":25157:25161   */\n      0x40\n        /* \"#utility.yul\":25150:25155   */\n      dup4\n        /* \"#utility.yul\":25146:25162   */\n      add\n        /* \"#utility.yul\":25140:25163   */\n      mload\n        /* \"#utility.yul\":25210:25213   */\n      dup5\n        /* \"#utility.yul\":25204:25208   */\n      dup3\n        /* \"#utility.yul\":25200:25214   */\n      sub\n        /* \"#utility.yul\":25193:25197   */\n      0x40\n        /* \"#utility.yul\":25188:25191   */\n      dup7\n        /* \"#utility.yul\":25184:25198   */\n      add\n        /* \"#utility.yul\":25177:25215   */\n      mstore\n        /* \"#utility.yul\":25236:25309   */\n      tag_922\n        /* \"#utility.yul\":25304:25308   */\n      dup3\n        /* \"#utility.yul\":25290:25302   */\n      dup3\n        /* \"#utility.yul\":25236:25309   */\n      tag_589\n      jump\t// in\n    tag_922:\n        /* \"#utility.yul\":25228:25309   */\n      swap2\n      pop\n        /* \"#utility.yul\":25078:25320   */\n      pop\n        /* \"#utility.yul\":25407:25411   */\n      0x60\n        /* \"#utility.yul\":25400:25405   */\n      dup4\n        /* \"#utility.yul\":25396:25412   */\n      add\n        /* \"#utility.yul\":25390:25413   */\n      mload\n        /* \"#utility.yul\":25426:25489   */\n      tag_923\n        /* \"#utility.yul\":25483:25487   */\n      0x60\n        /* \"#utility.yul\":25478:25481   */\n      dup7\n        /* \"#utility.yul\":25474:25488   */\n      add\n        /* \"#utility.yul\":25460:25472   */\n      dup3\n        /* \"#utility.yul\":25426:25489   */\n      tag_590\n      jump\t// in\n    tag_923:\n        /* \"#utility.yul\":25330:25499   */\n      pop\n        /* \"#utility.yul\":25581:25585   */\n      0x80\n        /* \"#utility.yul\":25574:25579   */\n      dup4\n        /* \"#utility.yul\":25570:25586   */\n      add\n        /* \"#utility.yul\":25564:25587   */\n      mload\n        /* \"#utility.yul\":25600:25657   */\n      tag_924\n        /* \"#utility.yul\":25651:25655   */\n      0x80\n        /* \"#utility.yul\":25646:25649   */\n      dup7\n        /* \"#utility.yul\":25642:25656   */\n      add\n        /* \"#utility.yul\":25628:25640   */\n      dup3\n        /* \"#utility.yul\":25600:25657   */\n      tag_592\n      jump\t// in\n    tag_924:\n        /* \"#utility.yul\":25509:25667   */\n      pop\n        /* \"#utility.yul\":25749:25753   */\n      0xa0\n        /* \"#utility.yul\":25742:25747   */\n      dup4\n        /* \"#utility.yul\":25738:25754   */\n      add\n        /* \"#utility.yul\":25732:25755   */\n      mload\n        /* \"#utility.yul\":25768:25825   */\n      tag_925\n        /* \"#utility.yul\":25819:25823   */\n      0xa0\n        /* \"#utility.yul\":25814:25817   */\n      dup7\n        /* \"#utility.yul\":25810:25824   */\n      add\n        /* \"#utility.yul\":25796:25808   */\n      dup3\n        /* \"#utility.yul\":25768:25825   */\n      tag_592\n      jump\t// in\n    tag_925:\n        /* \"#utility.yul\":25677:25835   */\n      pop\n        /* \"#utility.yul\":25917:25921   */\n      0xc0\n        /* \"#utility.yul\":25910:25915   */\n      dup4\n        /* \"#utility.yul\":25906:25922   */\n      add\n        /* \"#utility.yul\":25900:25923   */\n      mload\n        /* \"#utility.yul\":25970:25973   */\n      dup5\n        /* \"#utility.yul\":25964:25968   */\n      dup3\n        /* \"#utility.yul\":25960:25974   */\n      sub\n        /* \"#utility.yul\":25953:25957   */\n      0xc0\n        /* \"#utility.yul\":25948:25951   */\n      dup7\n        /* \"#utility.yul\":25944:25958   */\n      add\n        /* \"#utility.yul\":25937:25975   */\n      mstore\n        /* \"#utility.yul\":25996:26119   */\n      tag_926\n        /* \"#utility.yul\":26114:26118   */\n      dup3\n        /* \"#utility.yul\":26100:26112   */\n      dup3\n        /* \"#utility.yul\":25996:26119   */\n      tag_608\n      jump\t// in\n    tag_926:\n        /* \"#utility.yul\":25988:26119   */\n      swap2\n      pop\n        /* \"#utility.yul\":25845:26130   */\n      pop\n        /* \"#utility.yul\":26221:26225   */\n      0xe0\n        /* \"#utility.yul\":26214:26219   */\n      dup4\n        /* \"#utility.yul\":26210:26226   */\n      add\n        /* \"#utility.yul\":26204:26227   */\n      mload\n        /* \"#utility.yul\":26240:26303   */\n      tag_927\n        /* \"#utility.yul\":26297:26301   */\n      0xe0\n        /* \"#utility.yul\":26292:26295   */\n      dup7\n        /* \"#utility.yul\":26288:26302   */\n      add\n        /* \"#utility.yul\":26274:26286   */\n      dup3\n        /* \"#utility.yul\":26240:26303   */\n      tag_591\n      jump\t// in\n    tag_927:\n        /* \"#utility.yul\":26140:26313   */\n      pop\n        /* \"#utility.yul\":26330:26334   */\n      dup1\n        /* \"#utility.yul\":26323:26334   */\n      swap2\n      pop\n        /* \"#utility.yul\":24537:26340   */\n      pop\n        /* \"#utility.yul\":24423:26340   */\n      swap3\n      swap2\n      pop\n      pop\n      jump\t// out\n        /* \"#utility.yul\":26346:26699   */\n    tag_130:\n        /* \"#utility.yul\":26479:26483   */\n      0x00\n        /* \"#utility.yul\":26517:26519   */\n      0x20\n        /* \"#utility.yul\":26506:26515   */\n      dup3\n        /* \"#utility.yul\":26502:26520   */\n      add\n        /* \"#utility.yul\":26494:26520   */\n      swap1\n      pop\n        /* \"#utility.yul\":26566:26575   */\n      dup2\n        /* \"#utility.yul\":26560:26564   */\n      dup2\n        /* \"#utility.yul\":26556:26576   */\n      sub\n        /* \"#utility.yul\":26552:26553   */\n      0x00\n        /* \"#utility.yul\":26541:26550   */\n      dup4\n        /* \"#utility.yul\":26537:26554   */\n      add\n        /* \"#utility.yul\":26530:26577   */\n      mstore\n        /* \"#utility.yul\":26594:26692   */\n      tag_929\n        /* \"#utility.yul\":26687:26691   */\n      dup2\n        /* \"#utility.yul\":26678:26684   */\n      dup5\n        /* \"#utility.yul\":26594:26692   */\n      tag_609\n      jump\t// in\n    tag_929:\n        /* \"#utility.yul\":26586:26692   */\n      swap1\n      pop\n        /* \"#utility.yul\":26346:26699   */\n      swap3\n      swap2\n      pop\n      pop\n      jump\t// out\n        /* \"#utility.yul\":26705:27840   */\n    tag_138:\n        /* \"#utility.yul\":27014:27018   */\n      0x00\n        /* \"#utility.yul\":27052:27055   */\n      0xe0\n        /* \"#utility.yul\":27041:27050   */\n      dup3\n        /* \"#utility.yul\":27037:27056   */\n      add\n        /* \"#utility.yul\":27029:27056   */\n      swap1\n      pop\n        /* \"#utility.yul\":27102:27111   */\n      dup2\n        /* \"#utility.yul\":27096:27100   */\n      dup2\n        /* \"#utility.yul\":27092:27112   */\n      sub\n        /* \"#utility.yul\":27088:27089   */\n      0x00\n        /* \"#utility.yul\":27077:27086   */\n      dup4\n        /* \"#utility.yul\":27073:27090   */\n      add\n        /* \"#utility.yul\":27066:27113   */\n      mstore\n        /* \"#utility.yul\":27130:27208   */\n      tag_931\n        /* \"#utility.yul\":27203:27207   */\n      dup2\n        /* \"#utility.yul\":27194:27200   */\n      dup11\n        /* \"#utility.yul\":27130:27208   */\n      tag_575\n      jump\t// in\n    tag_931:\n        /* \"#utility.yul\":27122:27208   */\n      swap1\n      pop\n        /* \"#utility.yul\":27255:27264   */\n      dup2\n        /* \"#utility.yul\":27249:27253   */\n      dup2\n        /* \"#utility.yul\":27245:27265   */\n      sub\n        /* \"#utility.yul\":27240:27242   */\n      0x20\n        /* \"#utility.yul\":27229:27238   */\n      dup4\n        /* \"#utility.yul\":27225:27243   */\n      add\n        /* \"#utility.yul\":27218:27266   */\n      mstore\n        /* \"#utility.yul\":27283:27361   */\n      tag_932\n        /* \"#utility.yul\":27356:27360   */\n      dup2\n        /* \"#utility.yul\":27347:27353   */\n      dup10\n        /* \"#utility.yul\":27283:27361   */\n      tag_575\n      jump\t// in\n    tag_932:\n        /* \"#utility.yul\":27275:27361   */\n      swap1\n      pop\n        /* \"#utility.yul\":27408:27417   */\n      dup2\n        /* \"#utility.yul\":27402:27406   */\n      dup2\n        /* \"#utility.yul\":27398:27418   */\n      sub\n        /* \"#utility.yul\":27393:27395   */\n      0x40\n        /* \"#utility.yul\":27382:27391   */\n      dup4\n        /* \"#utility.yul\":27378:27396   */\n      add\n        /* \"#utility.yul\":27371:27419   */\n      mstore\n        /* \"#utility.yul\":27436:27514   */\n      tag_933\n        /* \"#utility.yul\":27509:27513   */\n      dup2\n        /* \"#utility.yul\":27500:27506   */\n      dup9\n        /* \"#utility.yul\":27436:27514   */\n      tag_575\n      jump\t// in\n    tag_933:\n        /* \"#utility.yul\":27428:27514   */\n      swap1\n      pop\n        /* \"#utility.yul\":27524:27596   */\n      tag_934\n        /* \"#utility.yul\":27592:27594   */\n      0x60\n        /* \"#utility.yul\":27581:27590   */\n      dup4\n        /* \"#utility.yul\":27577:27595   */\n      add\n        /* \"#utility.yul\":27568:27574   */\n      dup8\n        /* \"#utility.yul\":27524:27596   */\n      tag_576\n      jump\t// in\n    tag_934:\n        /* \"#utility.yul\":27606:27673   */\n      tag_935\n        /* \"#utility.yul\":27668:27671   */\n      0x80\n        /* \"#utility.yul\":27657:27666   */\n      dup4\n        /* \"#utility.yul\":27653:27672   */\n      add\n        /* \"#utility.yul\":27644:27650   */\n      dup7\n        /* \"#utility.yul\":27606:27673   */\n      tag_568\n      jump\t// in\n    tag_935:\n        /* \"#utility.yul\":27683:27750   */\n      tag_936\n        /* \"#utility.yul\":27745:27748   */\n      0xa0\n        /* \"#utility.yul\":27734:27743   */\n      dup4\n        /* \"#utility.yul\":27730:27749   */\n      add\n        /* \"#utility.yul\":27721:27727   */\n      dup6\n        /* \"#utility.yul\":27683:27750   */\n      tag_568\n      jump\t// in\n    tag_936:\n        /* \"#utility.yul\":27760:27833   */\n      tag_937\n        /* \"#utility.yul\":27828:27831   */\n      0xc0\n        /* \"#utility.yul\":27817:27826   */\n      dup4\n        /* \"#utility.yul\":27813:27832   */\n      add\n        /* \"#utility.yul\":27804:27810   */\n      dup5\n        /* \"#utility.yul\":27760:27833   */\n      tag_577\n      jump\t// in\n    tag_937:\n        /* \"#utility.yul\":26705:27840   */\n      swap9\n      swap8\n      pop\n      pop\n      pop\n      pop\n      pop\n      pop\n      pop\n      pop\n      jump\t// out\n        /* \"#utility.yul\":27846:28645   */\n    tag_141:\n        /* \"#utility.yul\":27933:27939   */\n      0x00\n        /* \"#utility.yul\":27941:27947   */\n      0x00\n        /* \"#utility.yul\":27949:27955   */\n      0x00\n        /* \"#utility.yul\":27998:28000   */\n      0x60\n        /* \"#utility.yul\":27986:27995   */\n      dup5\n        /* \"#utility.yul\":27977:27984   */\n      dup7\n        /* \"#utility.yul\":27973:27996   */\n      sub\n        /* \"#utility.yul\":27969:28001   */\n      slt\n        /* \"#utility.yul\":27966:28085   */\n      iszero\n      tag_939\n      jumpi\n        /* \"#utility.yul\":28004:28083   */\n      tag_940\n      tag_552\n      jump\t// in\n    tag_940:\n        /* \"#utility.yul\":27966:28085   */\n    tag_939:\n        /* \"#utility.yul\":28152:28153   */\n      0x00\n        /* \"#utility.yul\":28141:28150   */\n      dup5\n        /* \"#utility.yul\":28137:28154   */\n      add\n        /* \"#utility.yul\":28124:28155   */\n      calldataload\n        /* \"#utility.yul\":28182:28200   */\n      0xffffffffffffffff\n        /* \"#utility.yul\":28174:28180   */\n      dup2\n        /* \"#utility.yul\":28171:28201   */\n      gt\n        /* \"#utility.yul\":28168:28285   */\n      iszero\n      tag_941\n      jumpi\n        /* \"#utility.yul\":28204:28283   */\n      tag_942\n      tag_553\n      jump\t// in\n    tag_942:\n        /* \"#utility.yul\":28168:28285   */\n    tag_941:\n        /* \"#utility.yul\":28309:28372   */\n      tag_943\n        /* \"#utility.yul\":28364:28371   */\n      dup7\n        /* \"#utility.yul\":28355:28361   */\n      dup3\n        /* \"#utility.yul\":28344:28353   */\n      dup8\n        /* \"#utility.yul\":28340:28362   */\n      add\n        /* \"#utility.yul\":28309:28372   */\n      tag_562\n      jump\t// in\n    tag_943:\n        /* \"#utility.yul\":28299:28372   */\n      swap4\n      pop\n        /* \"#utility.yul\":28095:28382   */\n      pop\n        /* \"#utility.yul\":28421:28423   */\n      0x20\n        /* \"#utility.yul\":28447:28500   */\n      tag_944\n        /* \"#utility.yul\":28492:28499   */\n      dup7\n        /* \"#utility.yul\":28483:28489   */\n      dup3\n        /* \"#utility.yul\":28472:28481   */\n      dup8\n        /* \"#utility.yul\":28468:28490   */\n      add\n        /* \"#utility.yul\":28447:28500   */\n      tag_571\n      jump\t// in\n    tag_944:\n        /* \"#utility.yul\":28437:28500   */\n      swap3\n      pop\n        /* \"#utility.yul\":28392:28510   */\n      pop\n        /* \"#utility.yul\":28549:28551   */\n      0x40\n        /* \"#utility.yul\":28575:28628   */\n      tag_945\n        /* \"#utility.yul\":28620:28627   */\n      dup7\n        /* \"#utility.yul\":28611:28617   */\n      dup3\n        /* \"#utility.yul\":28600:28609   */\n      dup8\n        /* \"#utility.yul\":28596:28618   */\n      add\n        /* \"#utility.yul\":28575:28628   */\n      tag_566\n      jump\t// in\n    tag_945:\n        /* \"#utility.yul\":28565:28628   */\n      swap2\n      pop\n        /* \"#utility.yul\":28520:28638   */\n      pop\n        /* \"#utility.yul\":27846:28645   */\n      swap3\n      pop\n      swap3\n      pop\n      swap3\n      jump\t// out\n        /* \"#utility.yul\":28651:28799   */\n    tag_610:\n        /* \"#utility.yul\":28753:28764   */\n      0x00\n        /* \"#utility.yul\":28790:28793   */\n      dup2\n        /* \"#utility.yul\":28775:28793   */\n      swap1\n      pop\n        /* \"#utility.yul\":28651:28799   */\n      swap3\n      swap2\n      pop\n      pop\n      jump\t// out\n        /* \"#utility.yul\":28805:29195   */\n    tag_611:\n        /* \"#utility.yul\":28911:28914   */\n      0x00\n        /* \"#utility.yul\":28939:28978   */\n      tag_948\n        /* \"#utility.yul\":28972:28977   */\n      dup3\n        /* \"#utility.yul\":28939:28978   */\n      tag_572\n      jump\t// in\n    tag_948:\n        /* \"#utility.yul\":28994:29083   */\n      tag_949\n        /* \"#utility.yul\":29076:29082   */\n      dup2\n        /* \"#utility.yul\":29071:29074   */\n      dup6\n        /* \"#utility.yul\":28994:29083   */\n      tag_610\n      jump\t// in\n    tag_949:\n        /* \"#utility.yul\":28987:29083   */\n      swap4\n      pop\n        /* \"#utility.yul\":29092:29157   */\n      tag_950\n        /* \"#utility.yul\":29150:29156   */\n      dup2\n        /* \"#utility.yul\":29145:29148   */\n      dup6\n        /* \"#utility.yul\":29138:29142   */\n      0x20\n        /* \"#utility.yul\":29131:29136   */\n      dup7\n        /* \"#utility.yul\":29127:29143   */\n      add\n        /* \"#utility.yul\":29092:29157   */\n      tag_574\n      jump\t// in\n    tag_950:\n        /* \"#utility.yul\":29182:29188   */\n      dup1\n        /* \"#utility.yul\":29177:29180   */\n      dup5\n        /* \"#utility.yul\":29173:29189   */\n      add\n        /* \"#utility.yul\":29166:29189   */\n      swap2\n      pop\n        /* \"#utility.yul\":28915:29195   */\n      pop\n        /* \"#utility.yul\":28805:29195   */\n      swap3\n      swap2\n      pop\n      pop\n      jump\t// out\n        /* \"#utility.yul\":29201:29476   */\n    tag_153:\n        /* \"#utility.yul\":29333:29336   */\n      0x00\n        /* \"#utility.yul\":29355:29450   */\n      tag_952\n        /* \"#utility.yul\":29446:29449   */\n      dup3\n        /* \"#utility.yul\":29437:29443   */\n      dup5\n        /* \"#utility.yul\":29355:29450   */\n      tag_611\n      jump\t// in\n    tag_952:\n        /* \"#utility.yul\":29348:29450   */\n      swap2\n      pop\n        /* \"#utility.yul\":29467:29470   */\n      dup2\n        /* \"#utility.yul\":29460:29470   */\n      swap1\n      pop\n        /* \"#utility.yul\":29201:29476   */\n      swap3\n      swap2\n      pop\n      pop\n      jump\t// out\n        /* \"#utility.yul\":29482:29652   */\n    tag_612:\n        /* \"#utility.yul\":29622:29644   */\n      0x4e6f742061737369676e656420746f2063617365000000000000000000000000\n        /* \"#utility.yul\":29618:29619   */\n      0x00\n        /* \"#utility.yul\":29610:29616   */\n      dup3\n        /* \"#utility.yul\":29606:29620   */\n      add\n        /* \"#utility.yul\":29599:29645   */\n      mstore\n        /* \"#utility.yul\":29482:29652   */\n      pop\n      jump\t// out\n        /* \"#utility.yul\":29658:30024   */\n    tag_613:\n        /* \"#utility.yul\":29800:29803   */\n      0x00\n        /* \"#utility.yul\":29821:29888   */\n      tag_955\n        /* \"#utility.yul\":29885:29887   */\n      0x14\n        /* \"#utility.yul\":29880:29883   */\n      dup4\n        /* \"#utility.yul\":29821:29888   */\n      tag_573\n      jump\t// in\n    tag_955:\n        /* \"#utility.yul\":29814:29888   */\n      swap2\n      pop\n        /* \"#utility.yul\":29897:29990   */\n      tag_956\n        /* \"#utility.yul\":29986:29989   */\n      dup3\n        /* \"#utility.yul\":29897:29990   */\n      tag_612\n      jump\t// in\n    tag_956:\n        /* \"#utility.yul\":30015:30017   */\n      0x20\n        /* \"#utility.yul\":30010:30013   */\n      dup3\n        /* \"#utility.yul\":30006:30018   */\n      add\n        /* \"#utility.yul\":29999:30018   */\n      swap1\n      pop\n        /* \"#utility.yul\":29658:30024   */\n      swap2\n      swap1\n      pop\n      jump\t// out\n        /* \"#utility.yul\":30030:30449   */\n    tag_158:\n        /* \"#utility.yul\":30196:30200   */\n      0x00\n        /* \"#utility.yul\":30234:30236   */\n      0x20\n        /* \"#utility.yul\":30223:30232   */\n      dup3\n        /* \"#utility.yul\":30219:30237   */\n      add\n        /* \"#utility.yul\":30211:30237   */\n      swap1\n      pop\n        /* \"#utility.yul\":30283:30292   */\n      dup2\n        /* \"#utility.yul\":30277:30281   */\n      dup2\n        /* \"#utility.yul\":30273:30293   */\n      sub\n        /* \"#utility.yul\":30269:30270   */\n      0x00\n        /* \"#utility.yul\":30258:30267   */\n      dup4\n        /* \"#utility.yul\":30254:30271   */\n      add\n        /* \"#utility.yul\":30247:30294   */\n      mstore\n        /* \"#utility.yul\":30311:30442   */\n      tag_958\n        /* \"#utility.yul\":30437:30441   */\n      dup2\n        /* \"#utility.yul\":30311:30442   */\n      tag_613\n      jump\t// in\n    tag_958:\n        /* \"#utility.yul\":30303:30442   */\n      swap1\n      pop\n        /* \"#utility.yul\":30030:30449   */\n      swap2\n      swap1\n      pop\n      jump\t// out\n        /* \"#utility.yul\":30455:30618   */\n    tag_614:\n        /* \"#utility.yul\":30595:30610   */\n      0x496e76616c696420696e64657800000000000000000000000000000000000000\n        /* \"#utility.yul\":30591:30592   */\n      0x00\n        /* \"#utility.yul\":30583:30589   */\n      dup3\n        /* \"#utility.yul\":30579:30593   */\n      add\n        /* \"#utility.yul\":30572:30611   */\n      mstore\n        /* \"#utility.yul\":30455:30618   */\n      pop\n      jump\t// out\n        /* \"#utility.yul\":30624:30990   */\n    tag_615:\n        /* \"#utility.yul\":30766:30769   */\n      0x00\n        /* \"#utility.yul\":30787:30854   */\n      tag_961\n        /* \"#utility.yul\":30851:30853   */\n      0x0d\n        /* \"#utility.yul\":30846:30849   */\n      dup4\n        /* \"#utility.yul\":30787:30854   */\n      tag_573\n      jump\t// in\n    tag_961:\n        /* \"#utility.yul\":30780:30854   */\n      swap2\n      pop\n        /* \"#utility.yul\":30863:30956   */\n      tag_962\n        /* \"#utility.yul\":30952:30955   */\n      dup3\n        /* \"#utility.yul\":30863:30956   */\n      tag_614\n      jump\t// in\n    tag_962:\n        /* \"#utility.yul\":30981:30983   */\n      0x20\n        /* \"#utility.yul\":30976:30979   */\n      dup3\n        /* \"#utility.yul\":30972:30984   */\n      add\n        /* \"#utility.yul\":30965:30984   */\n      swap1\n      pop\n        /* \"#utility.yul\":30624:30990   */\n      swap2\n      swap1\n      pop\n      jump\t// out\n        /* \"#utility.yul\":30996:31415   */\n    tag_163:\n        /* \"#utility.yul\":31162:31166   */\n      0x00\n        /* \"#utility.yul\":31200:31202   */\n      0x20\n        /* \"#utility.yul\":31189:31198   */\n      dup3\n        /* \"#utility.yul\":31185:31203   */\n      add\n        /* \"#utility.yul\":31177:31203   */\n      swap1\n      pop\n        /* \"#utility.yul\":31249:31258   */\n      dup2\n        /* \"#utility.yul\":31243:31247   */\n      dup2\n        /* \"#utility.yul\":31239:31259   */\n      sub\n        /* \"#utility.yul\":31235:31236   */\n      0x00\n        /* \"#utility.yul\":31224:31233   */\n      dup4\n        /* \"#utility.yul\":31220:31237   */\n      add\n        /* \"#utility.yul\":31213:31260   */\n      mstore\n        /* \"#utility.yul\":31277:31408   */\n      tag_964\n        /* \"#utility.yul\":31403:31407   */\n      dup2\n        /* \"#utility.yul\":31277:31408   */\n      tag_615\n      jump\t// in\n    tag_964:\n        /* \"#utility.yul\":31269:31408   */\n      swap1\n      pop\n        /* \"#utility.yul\":30996:31415   */\n      swap2\n      swap1\n      pop\n      jump\t// out\n        /* \"#utility.yul\":31421:31601   */\n    tag_616:\n        /* \"#utility.yul\":31469:31546   */\n      0x4e487b7100000000000000000000000000000000000000000000000000000000\n        /* \"#utility.yul\":31466:31467   */\n      0x00\n        /* \"#utility.yul\":31459:31547   */\n      mstore\n        /* \"#utility.yul\":31566:31570   */\n      0x22\n        /* \"#utility.yul\":31563:31564   */\n      0x04\n        /* \"#utility.yul\":31556:31571   */\n      mstore\n        /* \"#utility.yul\":31590:31594   */\n      0x24\n        /* \"#utility.yul\":31587:31588   */\n      0x00\n        /* \"#utility.yul\":31580:31595   */\n      revert\n        /* \"#utility.yul\":31607:31927   */\n    tag_168:\n        /* \"#utility.yul\":31651:31657   */\n      0x00\n        /* \"#utility.yul\":31688:31689   */\n      0x02\n        /* \"#utility.yul\":31682:31686   */\n      dup3\n        /* \"#utility.yul\":31678:31690   */\n      div\n        /* \"#utility.yul\":31668:31690   */\n      swap1\n      pop\n        /* \"#utility.yul\":31735:31736   */\n      0x01\n        /* \"#utility.yul\":31729:31733   */\n      dup3\n        /* \"#utility.yul\":31725:31737   */\n      and\n        /* \"#utility.yul\":31756:31774   */\n      dup1\n        /* \"#utility.yul\":31746:31827   */\n      tag_967\n      jumpi\n        /* \"#utility.yul\":31812:31816   */\n      0x7f\n        /* \"#utility.yul\":31804:31810   */\n      dup3\n        /* \"#utility.yul\":31800:31817   */\n      and\n        /* \"#utility.yul\":31790:31817   */\n      swap2\n      pop\n        /* \"#utility.yul\":31746:31827   */\n    tag_967:\n        /* \"#utility.yul\":31874:31876   */\n      0x20\n        /* \"#utility.yul\":31866:31872   */\n      dup3\n        /* \"#utility.yul\":31863:31877   */\n      lt\n        /* \"#utility.yul\":31843:31861   */\n      dup2\n        /* \"#utility.yul\":31840:31878   */\n      sub\n        /* \"#utility.yul\":31837:31921   */\n      tag_968\n      jumpi\n        /* \"#utility.yul\":31893:31911   */\n      tag_969\n      tag_616\n      jump\t// in\n    tag_969:\n        /* \"#utility.yul\":31837:31921   */\n    tag_968:\n        /* \"#utility.yul\":31658:31927   */\n      pop\n        /* \"#utility.yul\":31607:31927   */\n      swap2\n      swap1\n      pop\n      jump\t// out\n        /* \"#utility.yul\":31933:32093   */\n    tag_617:\n        /* \"#utility.yul\":32073:32085   */\n      0x4f6e6c7920436f75727400000000000000000000000000000000000000000000\n        /* \"#utility.yul\":32069:32070   */\n      0x00\n        /* \"#utility.yul\":32061:32067   */\n      dup3\n        /* \"#utility.yul\":32057:32071   */\n      add\n        /* \"#utility.yul\":32050:32086   */\n      mstore\n        /* \"#utility.yul\":31933:32093   */\n      pop\n      jump\t// out\n        /* \"#utility.yul\":32099:32465   */\n    tag_618:\n        /* \"#utility.yul\":32241:32244   */\n      0x00\n        /* \"#utility.yul\":32262:32329   */\n      tag_972\n        /* \"#utility.yul\":32326:32328   */\n      0x0a\n        /* \"#utility.yul\":32321:32324   */\n      dup4\n        /* \"#utility.yul\":32262:32329   */\n      tag_573\n      jump\t// in\n    tag_972:\n        /* \"#utility.yul\":32255:32329   */\n      swap2\n      pop\n        /* \"#utility.yul\":32338:32431   */\n      tag_973\n        /* \"#utility.yul\":32427:32430   */\n      dup3\n        /* \"#utility.yul\":32338:32431   */\n      tag_617\n      jump\t// in\n    tag_973:\n        /* \"#utility.yul\":32456:32458   */\n      0x20\n        /* \"#utility.yul\":32451:32454   */\n      dup3\n        /* \"#utility.yul\":32447:32459   */\n      add\n        /* \"#utility.yul\":32440:32459   */\n      swap1\n      pop\n        /* \"#utility.yul\":32099:32465   */\n      swap2\n      swap1\n      pop\n      jump\t// out\n        /* \"#utility.yul\":32471:32890   */\n    tag_190:\n        /* \"#utility.yul\":32637:32641   */\n      0x00\n        /* \"#utility.yul\":32675:32677   */\n      0x20\n        /* \"#utility.yul\":32664:32673   */\n      dup3\n        /* \"#utility.yul\":32660:32678   */\n      add\n        /* \"#utility.yul\":32652:32678   */\n      swap1\n      pop\n        /* \"#utility.yul\":32724:32733   */\n      dup2\n        /* \"#utility.yul\":32718:32722   */\n      dup2\n        /* \"#utility.yul\":32714:32734   */\n      sub\n        /* \"#utility.yul\":32710:32711   */\n      0x00\n        /* \"#utility.yul\":32699:32708   */\n      dup4\n        /* \"#utility.yul\":32695:32712   */\n      add\n        /* \"#utility.yul\":32688:32735   */\n      mstore\n        /* \"#utility.yul\":32752:32883   */\n      tag_975\n        /* \"#utility.yul\":32878:32882   */\n      dup2\n        /* \"#utility.yul\":32752:32883   */\n      tag_618\n      jump\t// in\n    tag_975:\n        /* \"#utility.yul\":32744:32883   */\n      swap1\n      pop\n        /* \"#utility.yul\":32471:32890   */\n      swap2\n      swap1\n      pop\n      jump\t// out\n        /* \"#utility.yul\":32896:33054   */\n    tag_619:\n        /* \"#utility.yul\":33036:33046   */\n      0x4e6f74207365616c000000000000000000000000000000000000000000000000\n        /* \"#utility.yul\":33032:33033   */\n      0x00\n        /* \"#utility.yul\":33024:33030   */\n      dup3\n        /* \"#utility.yul\":33020:33034   */\n      add\n        /* \"#utility.yul\":33013:33047   */\n      mstore\n        /* \"#utility.yul\":32896:33054   */\n      pop\n      jump\t// out\n        /* \"#utility.yul\":33060:33425   */\n    tag_620:\n        /* \"#utility.yul\":33202:33205   */\n      0x00\n        /* \"#utility.yul\":33223:33289   */\n      tag_978\n        /* \"#utility.yul\":33287:33288   */\n      0x08\n        /* \"#utility.yul\":33282:33285   */\n      dup4\n        /* \"#utility.yul\":33223:33289   */\n      tag_573\n      jump\t// in\n    tag_978:\n        /* \"#utility.yul\":33216:33289   */\n      swap2\n      pop\n        /* \"#utility.yul\":33298:33391   */\n      tag_979\n        /* \"#utility.yul\":33387:33390   */\n      dup3\n        /* \"#utility.yul\":33298:33391   */\n      tag_619\n      jump\t// in\n    tag_979:\n        /* \"#utility.yul\":33416:33418   */\n      0x20\n        /* \"#utility.yul\":33411:33414   */\n      dup3\n        /* \"#utility.yul\":33407:33419   */\n      add\n        /* \"#utility.yul\":33400:33419   */\n      swap1\n      pop\n        /* \"#utility.yul\":33060:33425   */\n      swap2\n      swap1\n      pop\n      jump\t// out\n        /* \"#utility.yul\":33431:33850   */\n    tag_195:\n        /* \"#utility.yul\":33597:33601   */\n      0x00\n        /* \"#utility.yul\":33635:33637   */\n      0x20\n        /* \"#utility.yul\":33624:33633   */\n      dup3\n        /* \"#utility.yul\":33620:33638   */\n      add\n        /* \"#utility.yul\":33612:33638   */\n      swap1\n      pop\n        /* \"#utility.yul\":33684:33693   */\n      dup2\n        /* \"#utility.yul\":33678:33682   */\n      dup2\n        /* \"#utility.yul\":33674:33694   */\n      sub\n        /* \"#utility.yul\":33670:33671   */\n      0x00\n        /* \"#utility.yul\":33659:33668   */\n      dup4\n        /* \"#utility.yul\":33655:33672   */\n      add\n        /* \"#utility.yul\":33648:33695   */\n      mstore\n        /* \"#utility.yul\":33712:33843   */\n      tag_981\n        /* \"#utility.yul\":33838:33842   */\n      dup2\n        /* \"#utility.yul\":33712:33843   */\n      tag_620\n      jump\t// in\n    tag_981:\n        /* \"#utility.yul\":33704:33843   */\n      swap1\n      pop\n        /* \"#utility.yul\":33431:33850   */\n      swap2\n      swap1\n      pop\n      jump\t// out\n        /* \"#utility.yul\":33856:34030   */\n    tag_621:\n        /* \"#utility.yul\":33996:34022   */\n      0x53797374656d20696e20656d657267656e6379206c6f636b0000000000000000\n        /* \"#utility.yul\":33992:33993   */\n      0x00\n        /* \"#utility.yul\":33984:33990   */\n      dup3\n        /* \"#utility.yul\":33980:33994   */\n      add\n        /* \"#utility.yul\":33973:34023   */\n      mstore\n        /* \"#utility.yul\":33856:34030   */\n      pop\n      jump\t// out\n        /* \"#utility.yul\":34036:34402   */\n    tag_622:\n        /* \"#utility.yul\":34178:34181   */\n      0x00\n        /* \"#utility.yul\":34199:34266   */\n      tag_984\n        /* \"#utility.yul\":34263:34265   */\n      0x18\n        /* \"#utility.yul\":34258:34261   */\n      dup4\n        /* \"#utility.yul\":34199:34266   */\n      tag_573\n      jump\t// in\n    tag_984:\n        /* \"#utility.yul\":34192:34266   */\n      swap2\n      pop\n        /* \"#utility.yul\":34275:34368   */\n      tag_985\n        /* \"#utility.yul\":34364:34367   */\n      dup3\n        /* \"#utility.yul\":34275:34368   */\n      tag_621\n      jump\t// in\n    tag_985:\n        /* \"#utility.yul\":34393:34395   */\n      0x20\n        /* \"#utility.yul\":34388:34391   */\n      dup3\n        /* \"#utility.yul\":34384:34396   */\n      add\n        /* \"#utility.yul\":34377:34396   */\n      swap1\n      pop\n        /* \"#utility.yul\":34036:34402   */\n      swap2\n      swap1\n      pop\n      jump\t// out\n        /* \"#utility.yul\":34408:34827   */\n    tag_224:\n        /* \"#utility.yul\":34574:34578   */\n      0x00\n        /* \"#utility.yul\":34612:34614   */\n      0x20\n        /* \"#utility.yul\":34601:34610   */\n      dup3\n        /* \"#utility.yul\":34597:34615   */\n      add\n        /* \"#utility.yul\":34589:34615   */\n      swap1\n      pop\n        /* \"#utility.yul\":34661:34670   */\n      dup2\n        /* \"#utility.yul\":34655:34659   */\n      dup2\n        /* \"#utility.yul\":34651:34671   */\n      sub\n        /* \"#utility.yul\":34647:34648   */\n      0x00\n        /* \"#utility.yul\":34636:34645   */\n      dup4\n        /* \"#utility.yul\":34632:34649   */\n      add\n        /* \"#utility.yul\":34625:34672   */\n      mstore\n        /* \"#utility.yul\":34689:34820   */\n      tag_987\n        /* \"#utility.yul\":34815:34819   */\n      dup2\n        /* \"#utility.yul\":34689:34820   */\n      tag_622\n      jump\t// in\n    tag_987:\n        /* \"#utility.yul\":34681:34820   */\n      swap1\n      pop\n        /* \"#utility.yul\":34408:34827   */\n      swap2\n      swap1\n      pop\n      jump\t// out\n        /* \"#utility.yul\":34833:35000   */\n    tag_623:\n        /* \"#utility.yul\":34973:34992   */\n      0x556e617574686f72697a656420726f6c65000000000000000000000000000000\n        /* \"#utility.yul\":34969:34970   */\n      0x00\n        /* \"#utility.yul\":34961:34967   */\n      dup3\n        /* \"#utility.yul\":34957:34971   */\n      add\n        /* \"#utility.yul\":34950:34993   */\n      mstore\n        /* \"#utility.yul\":34833:35000   */\n      pop\n      jump\t// out\n        /* \"#utility.yul\":35006:35372   */\n    tag_624:\n        /* \"#utility.yul\":35148:35151   */\n      0x00\n        /* \"#utility.yul\":35169:35236   */\n      tag_990\n        /* \"#utility.yul\":35233:35235   */\n      0x11\n        /* \"#utility.yul\":35228:35231   */\n      dup4\n        /* \"#utility.yul\":35169:35236   */\n      tag_573\n      jump\t// in\n    tag_990:\n        /* \"#utility.yul\":35162:35236   */\n      swap2\n      pop\n        /* \"#utility.yul\":35245:35338   */\n      tag_991\n        /* \"#utility.yul\":35334:35337   */\n      dup3\n        /* \"#utility.yul\":35245:35338   */\n      tag_623\n      jump\t// in\n    tag_991:\n        /* \"#utility.yul\":35363:35365   */\n      0x20\n        /* \"#utility.yul\":35358:35361   */\n      dup3\n        /* \"#utility.yul\":35354:35366   */\n      add\n        /* \"#utility.yul\":35347:35366   */\n      swap1\n      pop\n        /* \"#utility.yul\":35006:35372   */\n      swap2\n      swap1\n      pop\n      jump\t// out\n        /* \"#utility.yul\":35378:35797   */\n    tag_232:\n        /* \"#utility.yul\":35544:35548   */\n      0x00\n        /* \"#utility.yul\":35582:35584   */\n      0x20\n        /* \"#utility.yul\":35571:35580   */\n      dup3\n        /* \"#utility.yul\":35567:35585   */\n      add\n        /* \"#utility.yul\":35559:35585   */\n      swap1\n      pop\n        /* \"#utility.yul\":35631:35640   */\n      dup2\n        /* \"#utility.yul\":35625:35629   */\n      dup2\n        /* \"#utility.yul\":35621:35641   */\n      sub\n        /* \"#utility.yul\":35617:35618   */\n      0x00\n        /* \"#utility.yul\":35606:35615   */\n      dup4\n        /* \"#utility.yul\":35602:35619   */\n      add\n        /* \"#utility.yul\":35595:35642   */\n      mstore\n        /* \"#utility.yul\":35659:35790   */\n      tag_993\n        /* \"#utility.yul\":35785:35789   */\n      dup2\n        /* \"#utility.yul\":35659:35790   */\n      tag_624\n      jump\t// in\n    tag_993:\n        /* \"#utility.yul\":35651:35790   */\n      swap1\n      pop\n        /* \"#utility.yul\":35378:35797   */\n      swap2\n      swap1\n      pop\n      jump\t// out\n        /* \"#utility.yul\":35803:35963   */\n    tag_625:\n        /* \"#utility.yul\":35943:35955   */\n      0x4649522065786973747300000000000000000000000000000000000000000000\n        /* \"#utility.yul\":35939:35940   */\n      0x00\n        /* \"#utility.yul\":35931:35937   */\n      dup3\n        /* \"#utility.yul\":35927:35941   */\n      add\n        /* \"#utility.yul\":35920:35956   */\n      mstore\n        /* \"#utility.yul\":35803:35963   */\n      pop\n      jump\t// out\n        /* \"#utility.yul\":35969:36335   */\n    tag_626:\n        /* \"#utility.yul\":36111:36114   */\n      0x00\n        /* \"#utility.yul\":36132:36199   */\n      tag_996\n        /* \"#utility.yul\":36196:36198   */\n      0x0a\n        /* \"#utility.yul\":36191:36194   */\n      dup4\n        /* \"#utility.yul\":36132:36199   */\n      tag_573\n      jump\t// in\n    tag_996:\n        /* \"#utility.yul\":36125:36199   */\n      swap2\n      pop\n        /* \"#utility.yul\":36208:36301   */\n      tag_997\n        /* \"#utility.yul\":36297:36300   */\n      dup3\n        /* \"#utility.yul\":36208:36301   */\n      tag_625\n      jump\t// in\n    tag_997:\n        /* \"#utility.yul\":36326:36328   */\n      0x20\n        /* \"#utility.yul\":36321:36324   */\n      dup3\n        /* \"#utility.yul\":36317:36329   */\n      add\n        /* \"#utility.yul\":36310:36329   */\n      swap1\n      pop\n        /* \"#utility.yul\":35969:36335   */\n      swap2\n      swap1\n      pop\n      jump\t// out\n        /* \"#utility.yul\":36341:36760   */\n    tag_237:\n        /* \"#utility.yul\":36507:36511   */\n      0x00\n        /* \"#utility.yul\":36545:36547   */\n      0x20\n        /* \"#utility.yul\":36534:36543   */\n      dup3\n        /* \"#utility.yul\":36530:36548   */\n      add\n        /* \"#utility.yul\":36522:36548   */\n      swap1\n      pop\n        /* \"#utility.yul\":36594:36603   */\n      dup2\n        /* \"#utility.yul\":36588:36592   */\n      dup2\n        /* \"#utility.yul\":36584:36604   */\n      sub\n        /* \"#utility.yul\":36580:36581   */\n      0x00\n        /* \"#utility.yul\":36569:36578   */\n      dup4\n        /* \"#utility.yul\":36565:36582   */\n      add\n        /* \"#utility.yul\":36558:36605   */\n      mstore\n        /* \"#utility.yul\":36622:36753   */\n      tag_999\n        /* \"#utility.yul\":36748:36752   */\n      dup2\n        /* \"#utility.yul\":36622:36753   */\n      tag_626\n      jump\t// in\n    tag_999:\n        /* \"#utility.yul\":36614:36753   */\n      swap1\n      pop\n        /* \"#utility.yul\":36341:36760   */\n      swap2\n      swap1\n      pop\n      jump\t// out\n        /* \"#utility.yul\":36766:36907   */\n    tag_627:\n        /* \"#utility.yul\":36815:36819   */\n      0x00\n        /* \"#utility.yul\":36838:36841   */\n      dup2\n        /* \"#utility.yul\":36830:36841   */\n      swap1\n      pop\n        /* \"#utility.yul\":36861:36864   */\n      dup2\n        /* \"#utility.yul\":36858:36859   */\n      0x00\n        /* \"#utility.yul\":36851:36865   */\n      mstore\n        /* \"#utility.yul\":36895:36899   */\n      0x20\n        /* \"#utility.yul\":36892:36893   */\n      0x00\n        /* \"#utility.yul\":36882:36900   */\n      keccak256\n        /* \"#utility.yul\":36874:36900   */\n      swap1\n      pop\n        /* \"#utility.yul\":36766:36907   */\n      swap2\n      swap1\n      pop\n      jump\t// out\n        /* \"#utility.yul\":36913:37006   */\n    tag_628:\n        /* \"#utility.yul\":36950:36956   */\n      0x00\n        /* \"#utility.yul\":36997:36999   */\n      0x20\n        /* \"#utility.yul\":36992:36994   */\n      0x1f\n        /* \"#utility.yul\":36985:36990   */\n      dup4\n        /* \"#utility.yul\":36981:36995   */\n      add\n        /* \"#utility.yul\":36977:37000   */\n      div\n        /* \"#utility.yul\":36967:37000   */\n      swap1\n      pop\n        /* \"#utility.yul\":36913:37006   */\n      swap2\n      swap1\n      pop\n      jump\t// out\n        /* \"#utility.yul\":37012:37119   */\n    tag_629:\n        /* \"#utility.yul\":37056:37064   */\n      0x00\n        /* \"#utility.yul\":37106:37111   */\n      dup3\n        /* \"#utility.yul\":37100:37104   */\n      dup3\n        /* \"#utility.yul\":37096:37112   */\n      shl\n        /* \"#utility.yul\":37075:37112   */\n      swap1\n      pop\n        /* \"#utility.yul\":37012:37119   */\n      swap3\n      swap2\n      pop\n      pop\n      jump\t// out\n        /* \"#utility.yul\":37125:37518   */\n    tag_630:\n        /* \"#utility.yul\":37194:37200   */\n      0x00\n        /* \"#utility.yul\":37244:37245   */\n      0x08\n        /* \"#utility.yul\":37232:37242   */\n      dup4\n        /* \"#utility.yul\":37228:37246   */\n      mul\n        /* \"#utility.yul\":37267:37364   */\n      tag_1004\n        /* \"#utility.yul\":37297:37363   */\n      0xffffffffffffffffffffffffffffffffffffffffffffffffffffffffffffffff\n        /* \"#utility.yul\":37286:37295   */\n      dup3\n        /* \"#utility.yul\":37267:37364   */\n      tag_629\n      jump\t// in\n    tag_1004:\n        /* \"#utility.yul\":37385:37424   */\n      tag_1005\n        /* \"#utility.yul\":37415:37423   */\n      dup7\n        /* \"#utility.yul\":37404:37413   */\n      dup4\n        /* \"#utility.yul\":37385:37424   */\n      tag_629\n      jump\t// in\n    tag_1005:\n        /* \"#utility.yul\":37373:37424   */\n      swap6\n      pop\n        /* \"#utility.yul\":37457:37461   */\n      dup1\n        /* \"#utility.yul\":37453:37462   */\n      not\n        /* \"#utility.yul\":37446:37451   */\n      dup5\n        /* \"#utility.yul\":37442:37463   */\n      and\n        /* \"#utility.yul\":37433:37463   */\n      swap4\n      pop\n        /* \"#utility.yul\":37506:37510   */\n      dup1\n        /* \"#utility.yul\":37496:37504   */\n      dup7\n        /* \"#utility.yul\":37492:37511   */\n      and\n        /* \"#utility.yul\":37485:37490   */\n      dup5\n        /* \"#utility.yul\":37482:37512   */\n      or\n        /* \"#utility.yul\":37472:37512   */\n      swap3\n      pop\n        /* \"#utility.yul\":37201:37518   */\n      pop\n      pop\n        /* \"#utility.yul\":37125:37518   */\n      swap4\n      swap3\n      pop\n      pop\n      pop\n      jump\t// out\n        /* \"#utility.yul\":37524:37584   */\n    tag_631:\n        /* \"#utility.yul\":37552:37555   */\n      0x00\n        /* \"#utility.yul\":37573:37578   */\n      dup2\n        /* \"#utility.yul\":37566:37578   */\n      swap1\n      pop\n        /* \"#utility.yul\":37524:37584   */\n      swap2\n      swap1\n      pop\n      jump\t// out\n        /* \"#utility.yul\":37590:37732   */\n    tag_632:\n        /* \"#utility.yul\":37640:37649   */\n      0x00\n        /* \"#utility.yul\":37673:37726   */\n      tag_1008\n        /* \"#utility.yul\":37691:37725   */\n      tag_1009\n        /* \"#utility.yul\":37700:37724   */\n      tag_1010\n        /* \"#utility.yul\":37718:37723   */\n      dup5\n        /* \"#utility.yul\":37700:37724   */\n      tag_569\n      jump\t// in\n    tag_1010:\n        /* \"#utility.yul\":37691:37725   */\n      tag_631\n      jump\t// in\n    tag_1009:\n        /* \"#utility.yul\":37673:37726   */\n      tag_569\n      jump\t// in\n    tag_1008:\n        /* \"#utility.yul\":37660:37726   */\n      swap1\n      pop\n        /* \"#utility.yul\":37590:37732   */\n      swap2\n      swap1\n      pop\n      jump\t// out\n        /* \"#utility.yul\":37738:37813   */\n    tag_633:\n        /* \"#utility.yul\":37781:37784   */\n      0x00\n        /* \"#utility.yul\":37802:37807   */\n      dup2\n        /* \"#utility.yul\":37795:37807   */\n      swap1\n      pop\n        /* \"#utility.yul\":37738:37813   */\n      swap2\n      swap1\n      pop\n      jump\t// out\n        /* \"#utility.yul\":37819:38088   */\n    tag_634:\n        /* \"#utility.yul\":37929:37968   */\n      tag_1013\n        /* \"#utility.yul\":37960:37967   */\n      dup4\n        /* \"#utility.yul\":37929:37968   */\n      tag_632\n      jump\t// in\n    tag_1013:\n        /* \"#utility.yul\":37990:38081   */\n      tag_1014\n        /* \"#utility.yul\":38039:38080   */\n      tag_1015\n        /* \"#utility.yul\":38063:38079   */\n      dup3\n        /* \"#utility.yul\":38039:38080   */\n      tag_633\n      jump\t// in\n    tag_1015:\n        /* \"#utility.yul\":38031:38037   */\n      dup5\n        /* \"#utility.yul\":38024:38028   */\n      dup5\n        /* \"#utility.yul\":38018:38029   */\n      sload\n        /* \"#utility.yul\":37990:38081   */\n      tag_630\n      jump\t// in\n    tag_1014:\n        /* \"#utility.yul\":37984:37988   */\n      dup3\n        /* \"#utility.yul\":37977:38082   */\n      sstore\n        /* \"#utility.yul\":37895:38088   */\n      pop\n        /* \"#utility.yul\":37819:38088   */\n      pop\n      pop\n      pop\n      jump\t// out\n        /* \"#utility.yul\":38094:38167   */\n    tag_635:\n        /* \"#utility.yul\":38139:38142   */\n      0x00\n        /* \"#utility.yul\":38160:38161   */\n      0x00\n        /* \"#utility.yul\":38153:38161   */\n      swap1\n      pop\n        /* \"#utility.yul\":38094:38167   */\n      swap1\n      jump\t// out\n        /* \"#utility.yul\":38173:38362   */\n    tag_636:\n        /* \"#utility.yul\":38250:38282   */\n      tag_1018\n      tag_635\n      jump\t// in\n    tag_1018:\n        /* \"#utility.yul\":38291:38356   */\n      tag_1019\n        /* \"#utility.yul\":38349:38355   */\n      dup2\n        /* \"#utility.yul\":38341:38347   */\n      dup5\n        /* \"#utility.yul\":38335:38339   */\n      dup5\n        /* \"#utility.yul\":38291:38356   */\n      tag_634\n      jump\t// in\n    tag_1019:\n        /* \"#utility.yul\":38226:38362   */\n      pop\n        /* \"#utility.yul\":38173:38362   */\n      pop\n      pop\n      jump\t// out\n        /* \"#utility.yul\":38368:38554   */\n    tag_637:\n        /* \"#utility.yul\":38428:38548   */\n    tag_1021:\n        /* \"#utility.yul\":38445:38448   */\n      dup2\n        /* \"#utility.yul\":38438:38443   */\n      dup2\n        /* \"#utility.yul\":38435:38449   */\n      lt\n        /* \"#utility.yul\":38428:38548   */\n      iszero\n      tag_1023\n      jumpi\n        /* \"#utility.yul\":38499:38538   */\n      tag_1024\n        /* \"#utility.yul\":38536:38537   */\n      0x00\n        /* \"#utility.yul\":38529:38534   */\n      dup3\n        /* \"#utility.yul\":38499:38538   */\n      tag_636\n      jump\t// in\n    tag_1024:\n        /* \"#utility.yul\":38472:38473   */\n      0x01\n        /* \"#utility.yul\":38465:38470   */\n      dup2\n        /* \"#utility.yul\":38461:38474   */\n      add\n        /* \"#utility.yul\":38452:38474   */\n      swap1\n      pop\n        /* \"#utility.yul\":38428:38548   */\n      jump(tag_1021)\n    tag_1023:\n        /* \"#utility.yul\":38368:38554   */\n      pop\n      pop\n      jump\t// out\n        /* \"#utility.yul\":38560:39103   */\n    tag_638:\n        /* \"#utility.yul\":38661:38663   */\n      0x1f\n        /* \"#utility.yul\":38656:38659   */\n      dup3\n        /* \"#utility.yul\":38653:38664   */\n      gt\n        /* \"#utility.yul\":38650:39096   */\n      iszero\n      tag_1026\n      jumpi\n        /* \"#utility.yul\":38695:38733   */\n      tag_1027\n        /* \"#utility.yul\":38727:38732   */\n      dup2\n        /* \"#utility.yul\":38695:38733   */\n      tag_627\n      jump\t// in\n    tag_1027:\n        /* \"#utility.yul\":38779:38808   */\n      tag_1028\n        /* \"#utility.yul\":38797:38807   */\n      dup5\n        /* \"#utility.yul\":38779:38808   */\n      tag_628\n      jump\t// in\n    tag_1028:\n        /* \"#utility.yul\":38769:38777   */\n      dup2\n        /* \"#utility.yul\":38765:38809   */\n      add\n        /* \"#utility.yul\":38962:38964   */\n      0x20\n        /* \"#utility.yul\":38950:38960   */\n      dup6\n        /* \"#utility.yul\":38947:38965   */\n      lt\n        /* \"#utility.yul\":38944:38993   */\n      iszero\n      tag_1029\n      jumpi\n        /* \"#utility.yul\":38983:38991   */\n      dup2\n        /* \"#utility.yul\":38968:38991   */\n      swap1\n      pop\n        /* \"#utility.yul\":38944:38993   */\n    tag_1029:\n        /* \"#utility.yul\":39006:39086   */\n      tag_1030\n        /* \"#utility.yul\":39062:39084   */\n      tag_1031\n        /* \"#utility.yul\":39080:39083   */\n      dup6\n        /* \"#utility.yul\":39062:39084   */\n      tag_628\n      jump\t// in\n    tag_1031:\n        /* \"#utility.yul\":39052:39060   */\n      dup4\n        /* \"#utility.yul\":39048:39085   */\n      add\n        /* \"#utility.yul\":39035:39046   */\n      dup3\n        /* \"#utility.yul\":39006:39086   */\n      tag_637\n      jump\t// in\n    tag_1030:\n        /* \"#utility.yul\":38665:39096   */\n      pop\n      pop\n        /* \"#utility.yul\":38650:39096   */\n    tag_1026:\n        /* \"#utility.yul\":38560:39103   */\n      pop\n      pop\n      pop\n      jump\t// out\n        /* \"#utility.yul\":39109:39226   */\n    tag_639:\n        /* \"#utility.yul\":39163:39171   */\n      0x00\n        /* \"#utility.yul\":39213:39218   */\n      dup3\n        /* \"#utility.yul\":39207:39211   */\n      dup3\n        /* \"#utility.yul\":39203:39219   */\n      shr\n        /* \"#utility.yul\":39182:39219   */\n      swap1\n      pop\n        /* \"#utility.yul\":39109:39226   */\n      swap3\n      swap2\n      pop\n      pop\n      jump\t// out\n        /* \"#utility.yul\":39232:39401   */\n    tag_640:\n        /* \"#utility.yul\":39276:39282   */\n      0x00\n        /* \"#utility.yul\":39309:39360   */\n      tag_1034\n        /* \"#utility.yul\":39357:39358   */\n      0x00\n        /* \"#utility.yul\":39353:39359   */\n      not\n        /* \"#utility.yul\":39345:39350   */\n      dup5\n        /* \"#utility.yul\":39342:39343   */\n      0x08\n        /* \"#utility.yul\":39338:39351   */\n      mul\n        /* \"#utility.yul\":39309:39360   */\n      tag_639\n      jump\t// in\n    tag_1034:\n        /* \"#utility.yul\":39305:39361   */\n      not\n        /* \"#utility.yul\":39390:39394   */\n      dup1\n        /* \"#utility.yul\":39384:39388   */\n      dup4\n        /* \"#utility.yul\":39380:39395   */\n      and\n        /* \"#utility.yul\":39370:39395   */\n      swap2\n      pop\n        /* \"#utility.yul\":39283:39401   */\n      pop\n        /* \"#utility.yul\":39232:39401   */\n      swap3\n      swap2\n      pop\n      pop\n      jump\t// out\n        /* \"#utility.yul\":39406:39701   */\n    tag_641:\n        /* \"#utility.yul\":39482:39486   */\n      0x00\n        /* \"#utility.yul\":39628:39657   */\n      tag_1036\n        /* \"#utility.yul\":39653:39656   */\n      dup4\n        /* \"#utility.yul\":39647:39651   */\n      dup4\n        /* \"#utility.yul\":39628:39657   */\n      tag_640\n      jump\t// in\n    tag_1036:\n        /* \"#utility.yul\":39620:39657   */\n      swap2\n      pop\n        /* \"#utility.yul\":39690:39693   */\n      dup3\n        /* \"#utility.yul\":39687:39688   */\n      0x02\n        /* \"#utility.yul\":39683:39694   */\n      mul\n        /* \"#utility.yul\":39677:39681   */\n      dup3\n        /* \"#utility.yul\":39674:39695   */\n      or\n        /* \"#utility.yul\":39666:39695   */\n      swap1\n      pop\n        /* \"#utility.yul\":39406:39701   */\n      swap3\n      swap2\n      pop\n      pop\n      jump\t// out\n        /* \"#utility.yul\":39706:41101   */\n    tag_240:\n        /* \"#utility.yul\":39823:39860   */\n      tag_1038\n        /* \"#utility.yul\":39856:39859   */\n      dup3\n        /* \"#utility.yul\":39823:39860   */\n      tag_572\n      jump\t// in\n    tag_1038:\n        /* \"#utility.yul\":39925:39943   */\n      0xffffffffffffffff\n        /* \"#utility.yul\":39917:39923   */\n      dup2\n        /* \"#utility.yul\":39914:39944   */\n      gt\n        /* \"#utility.yul\":39911:39967   */\n      iszero\n      tag_1039\n      jumpi\n        /* \"#utility.yul\":39947:39965   */\n      tag_1040\n      tag_428\n      jump\t// in\n    tag_1040:\n        /* \"#utility.yul\":39911:39967   */\n    tag_1039:\n        /* \"#utility.yul\":39991:40029   */\n      tag_1041\n        /* \"#utility.yul\":40023:40027   */\n      dup3\n        /* \"#utility.yul\":40017:40028   */\n      sload\n        /* \"#utility.yul\":39991:40029   */\n      tag_168\n      jump\t// in\n    tag_1041:\n        /* \"#utility.yul\":40076:40143   */\n      tag_1042\n        /* \"#utility.yul\":40136:40142   */\n      dup3\n        /* \"#utility.yul\":40128:40134   */\n      dup3\n        /* \"#utility.yul\":40122:40126   */\n      dup6\n        /* \"#utility.yul\":40076:40143   */\n      tag_638\n      jump\t// in\n    tag_1042:\n        /* \"#utility.yul\":40170:40171   */\n      0x00\n        /* \"#utility.yul\":40194:40198   */\n      0x20\n        /* \"#utility.yul\":40181:40198   */\n      swap1\n      pop\n        /* \"#utility.yul\":40226:40228   */\n      0x1f\n        /* \"#utility.yul\":40218:40224   */\n      dup4\n        /* \"#utility.yul\":40215:40229   */\n      gt\n        /* \"#utility.yul\":40243:40244   */\n      0x01\n        /* \"#utility.yul\":40238:40856   */\n      dup2\n      eq\n      tag_1044\n      jumpi\n        /* \"#utility.yul\":40900:40901   */\n      0x00\n        /* \"#utility.yul\":40917:40923   */\n      dup5\n        /* \"#utility.yul\":40914:40991   */\n      iszero\n      tag_1045\n      jumpi\n        /* \"#utility.yul\":40966:40975   */\n      dup3\n        /* \"#utility.yul\":40961:40964   */\n      dup8\n        /* \"#utility.yul\":40957:40976   */\n      add\n        /* \"#utility.yul\":40951:40977   */\n      mload\n        /* \"#utility.yul\":40942:40977   */\n      swap1\n      pop\n        /* \"#utility.yul\":40914:40991   */\n    tag_1045:\n        /* \"#utility.yul\":41017:41084   */\n      tag_1046\n        /* \"#utility.yul\":41077:41083   */\n      dup6\n        /* \"#utility.yul\":41070:41075   */\n      dup3\n        /* \"#utility.yul\":41017:41084   */\n      tag_641\n      jump\t// in\n    tag_1046:\n        /* \"#utility.yul\":41011:41015   */\n      dup7\n        /* \"#utility.yul\":41004:41085   */\n      sstore\n        /* \"#utility.yul\":40873:41095   */\n      pop\n        /* \"#utility.yul\":40208:41095   */\n      jump(tag_1043)\n        /* \"#utility.yul\":40238:40856   */\n    tag_1044:\n        /* \"#utility.yul\":40290:40294   */\n      0x1f\n        /* \"#utility.yul\":40286:40295   */\n      not\n        /* \"#utility.yul\":40278:40284   */\n      dup5\n        /* \"#utility.yul\":40274:40296   */\n      and\n        /* \"#utility.yul\":40324:40361   */\n      tag_1047\n        /* \"#utility.yul\":40356:40360   */\n      dup7\n        /* \"#utility.yul\":40324:40361   */\n      tag_627\n      jump\t// in\n    tag_1047:\n        /* \"#utility.yul\":40383:40384   */\n      0x00\n        /* \"#utility.yul\":40397:40605   */\n    tag_1048:\n        /* \"#utility.yul\":40411:40418   */\n      dup3\n        /* \"#utility.yul\":40408:40409   */\n      dup2\n        /* \"#utility.yul\":40405:40419   */\n      lt\n        /* \"#utility.yul\":40397:40605   */\n      iszero\n      tag_1050\n      jumpi\n        /* \"#utility.yul\":40490:40499   */\n      dup5\n        /* \"#utility.yul\":40485:40488   */\n      dup10\n        /* \"#utility.yul\":40481:40500   */\n      add\n        /* \"#utility.yul\":40475:40501   */\n      mload\n        /* \"#utility.yul\":40467:40473   */\n      dup3\n        /* \"#utility.yul\":40460:40502   */\n      sstore\n        /* \"#utility.yul\":40541:40542   */\n      0x01\n        /* \"#utility.yul\":40533:40539   */\n      dup3\n        /* \"#utility.yul\":40529:40543   */\n      add\n        /* \"#utility.yul\":40519:40543   */\n      swap2\n      pop\n        /* \"#utility.yul\":40588:40590   */\n      0x20\n        /* \"#utility.yul\":40577:40586   */\n      dup6\n        /* \"#utility.yul\":40573:40591   */\n      add\n        /* \"#utility.yul\":40560:40591   */\n      swap5\n      pop\n        /* \"#utility.yul\":40434:40438   */\n      0x20\n        /* \"#utility.yul\":40431:40432   */\n      dup2\n        /* \"#utility.yul\":40427:40439   */\n      add\n        /* \"#utility.yul\":40422:40439   */\n      swap1\n      pop\n        /* \"#utility.yul\":40397:40605   */\n      jump(tag_1048)\n    tag_1050:\n        /* \"#utility.yul\":40633:40639   */\n      dup7\n        /* \"#utility.yul\":40624:40631   */\n      dup4\n        /* \"#utility.yul\":40621:40640   */\n      lt\n        /* \"#utility.yul\":40618:40797   */\n      iszero\n      tag_1051\n      jumpi\n        /* \"#utility.yul\":40691:40700   */\n      dup5\n        /* \"#utility.yul\":40686:40689   */\n      dup10\n        /* \"#utility.yul\":40682:40701   */\n      add\n        /* \"#utility.yul\":40676:40702   */\n      mload\n        /* \"#utility.yul\":40734:40782   */\n      tag_1052\n        /* \"#utility.yul\":40776:40780   */\n      0x1f\n        /* \"#utility.yul\":40768:40774   */\n      dup10\n        /* \"#utility.yul\":40764:40781   */\n      and\n        /* \"#utility.yul\":40753:40762   */\n      dup3\n        /* \"#utility.yul\":40734:40782   */\n      tag_640\n      jump\t// in\n    tag_1052:\n        /* \"#utility.yul\":40726:40732   */\n      dup4\n        /* \"#utility.yul\":40719:40783   */\n      sstore\n        /* \"#utility.yul\":40641:40797   */\n      pop\n        /* \"#utility.yul\":40618:40797   */\n    tag_1051:\n        /* \"#utility.yul\":40843:40844   */\n      0x01\n        /* \"#utility.yul\":40839:40840   */\n      0x02\n        /* \"#utility.yul\":40831:40837   */\n      dup9\n        /* \"#utility.yul\":40827:40841   */\n      mul\n        /* \"#utility.yul\":40823:40845   */\n      add\n        /* \"#utility.yul\":40817:40821   */\n      dup9\n        /* \"#utility.yul\":40810:40846   */\n      sstore\n        /* \"#utility.yul\":40245:40856   */\n      pop\n      pop\n      pop\n        /* \"#utility.yul\":40208:41095   */\n    tag_1043:\n      pop\n        /* \"#utility.yul\":39798:41101   */\n      pop\n      pop\n      pop\n        /* \"#utility.yul\":39706:41101   */\n      pop\n      pop\n      jump\t// out\n        /* \"#utility.yul\":41107:41269   */\n    tag_642:\n        /* \"#utility.yul\":41247:41261   */\n      0x496e76616c696420726f6c650000000000000000000000000000000000000000\n        /* \"#utility.yul\":41243:41244   */\n      0x00\n        /* \"#utility.yul\":41235:41241   */\n      dup3\n        /* \"#utility.yul\":41231:41245   */\n      add\n        /* \"#utility.yul\":41224:41262   */\n      mstore\n        /* \"#utility.yul\":41107:41269   */\n      pop\n      jump\t// out\n        /* \"#utility.yul\":41275:41641   */\n    tag_643:\n        /* \"#utility.yul\":41417:41420   */\n      0x00\n        /* \"#utility.yul\":41438:41505   */\n      tag_1055\n        /* \"#utility.yul\":41502:41504   */\n      0x0c\n        /* \"#utility.yul\":41497:41500   */\n      dup4\n        /* \"#utility.yul\":41438:41505   */\n      tag_573\n      jump\t// in\n    tag_1055:\n        /* \"#utility.yul\":41431:41505   */\n      swap2\n      pop\n        /* \"#utility.yul\":41514:41607   */\n      tag_1056\n        /* \"#utility.yul\":41603:41606   */\n      dup3\n        /* \"#utility.yul\":41514:41607   */\n      tag_642\n      jump\t// in\n    tag_1056:\n        /* \"#utility.yul\":41632:41634   */\n      0x20\n        /* \"#utility.yul\":41627:41630   */\n      dup3\n        /* \"#utility.yul\":41623:41635   */\n      add\n        /* \"#utility.yul\":41616:41635   */\n      swap1\n      pop\n        /* \"#utility.yul\":41275:41641   */\n      swap2\n      swap1\n      pop\n      jump\t// out\n        /* \"#utility.yul\":41647:42066   */\n    tag_257:\n        /* \"#utility.yul\":41813:41817   */\n      0x00\n        /* \"#utility.yul\":41851:41853   */\n      0x20\n        /* \"#utility.yul\":41840:41849   */\n      dup3\n        /* \"#utility.yul\":41836:41854   */\n      add\n        /* \"#utility.yul\":41828:41854   */\n      swap1\n      pop\n        /* \"#utility.yul\":41900:41909   */\n      dup2\n        /* \"#utility.yul\":41894:41898   */\n      dup2\n        /* \"#utility.yul\":41890:41910   */\n      sub\n        /* \"#utility.yul\":41886:41887   */\n      0x00\n        /* \"#utility.yul\":41875:41884   */\n      dup4\n        /* \"#utility.yul\":41871:41888   */\n      add\n        /* \"#utility.yul\":41864:41911   */\n      mstore\n        /* \"#utility.yul\":41928:42059   */\n      tag_1058\n        /* \"#utility.yul\":42054:42058   */\n      dup2\n        /* \"#utility.yul\":41928:42059   */\n      tag_643\n      jump\t// in\n    tag_1058:\n        /* \"#utility.yul\":41920:42059   */\n      swap1\n      pop\n        /* \"#utility.yul\":41647:42066   */\n      swap2\n      swap1\n      pop\n      jump\t// out\n        /* \"#utility.yul\":42072:42252   */\n    tag_277:\n        /* \"#utility.yul\":42120:42197   */\n      0x4e487b7100000000000000000000000000000000000000000000000000000000\n        /* \"#utility.yul\":42117:42118   */\n      0x00\n        /* \"#utility.yul\":42110:42198   */\n      mstore\n        /* \"#utility.yul\":42217:42221   */\n      0x32\n        /* \"#utility.yul\":42214:42215   */\n      0x04\n        /* \"#utility.yul\":42207:42222   */\n      mstore\n        /* \"#utility.yul\":42241:42245   */\n      0x24\n        /* \"#utility.yul\":42238:42239   */\n      0x00\n        /* \"#utility.yul\":42231:42246   */\n      revert\n        /* \"#utility.yul\":42258:42425   */\n    tag_644:\n        /* \"#utility.yul\":42398:42417   */\n      0x416c726561647920636f6e6669726d6564000000000000000000000000000000\n        /* \"#utility.yul\":42394:42395   */\n      0x00\n        /* \"#utility.yul\":42386:42392   */\n      dup3\n        /* \"#utility.yul\":42382:42396   */\n      add\n        /* \"#utility.yul\":42375:42418   */\n      mstore\n        /* \"#utility.yul\":42258:42425   */\n      pop\n      jump\t// out\n        /* \"#utility.yul\":42431:42797   */\n    tag_645:\n        /* \"#utility.yul\":42573:42576   */\n      0x00\n        /* \"#utility.yul\":42594:42661   */\n      tag_1062\n        /* \"#utility.yul\":42658:42660   */\n      0x11\n        /* \"#utility.yul\":42653:42656   */\n      dup4\n        /* \"#utility.yul\":42594:42661   */\n      tag_573\n      jump\t// in\n    tag_1062:\n        /* \"#utility.yul\":42587:42661   */\n      swap2\n      pop\n        /* \"#utility.yul\":42670:42763   */\n      tag_1063\n        /* \"#utility.yul\":42759:42762   */\n      dup3\n        /* \"#utility.yul\":42670:42763   */\n      tag_644\n      jump\t// in\n    tag_1063:\n        /* \"#utility.yul\":42788:42790   */\n      0x20\n        /* \"#utility.yul\":42783:42786   */\n      dup3\n        /* \"#utility.yul\":42779:42791   */\n      add\n        /* \"#utility.yul\":42772:42791   */\n      swap1\n      pop\n        /* \"#utility.yul\":42431:42797   */\n      swap2\n      swap1\n      pop\n      jump\t// out\n        /* \"#utility.yul\":42803:43222   */\n    tag_346:\n        /* \"#utility.yul\":42969:42973   */\n      0x00\n        /* \"#utility.yul\":43007:43009   */\n      0x20\n        /* \"#utility.yul\":42996:43005   */\n      dup3\n        /* \"#utility.yul\":42992:43010   */\n      add\n        /* \"#utility.yul\":42984:43010   */\n      swap1\n      pop\n        /* \"#utility.yul\":43056:43065   */\n      dup2\n        /* \"#utility.yul\":43050:43054   */\n      dup2\n        /* \"#utility.yul\":43046:43066   */\n      sub\n        /* \"#utility.yul\":43042:43043   */\n      0x00\n        /* \"#utility.yul\":43031:43040   */\n      dup4\n        /* \"#utility.yul\":43027:43044   */\n      add\n        /* \"#utility.yul\":43020:43067   */\n      mstore\n        /* \"#utility.yul\":43084:43215   */\n      tag_1065\n        /* \"#utility.yul\":43210:43214   */\n      dup2\n        /* \"#utility.yul\":43084:43215   */\n      tag_645\n      jump\t// in\n    tag_1065:\n        /* \"#utility.yul\":43076:43215   */\n      swap1\n      pop\n        /* \"#utility.yul\":42803:43222   */\n      swap2\n      swap1\n      pop\n      jump\t// out\n        /* \"#utility.yul\":43228:43402   */\n    tag_646:\n        /* \"#utility.yul\":43368:43394   */\n      0x53656c662d636f6e6669726d6174696f6e2064656e6965640000000000000000\n        /* \"#utility.yul\":43364:43365   */\n      0x00\n        /* \"#utility.yul\":43356:43362   */\n      dup3\n        /* \"#utility.yul\":43352:43366   */\n      add\n        /* \"#utility.yul\":43345:43395   */\n      mstore\n        /* \"#utility.yul\":43228:43402   */\n      pop\n      jump\t// out\n        /* \"#utility.yul\":43408:43774   */\n    tag_647:\n        /* \"#utility.yul\":43550:43553   */\n      0x00\n        /* \"#utility.yul\":43571:43638   */\n      tag_1068\n        /* \"#utility.yul\":43635:43637   */\n      0x18\n        /* \"#utility.yul\":43630:43633   */\n      dup4\n        /* \"#utility.yul\":43571:43638   */\n      tag_573\n      jump\t// in\n    tag_1068:\n        /* \"#utility.yul\":43564:43638   */\n      swap2\n      pop\n        /* \"#utility.yul\":43647:43740   */\n      tag_1069\n        /* \"#utility.yul\":43736:43739   */\n      dup3\n        /* \"#utility.yul\":43647:43740   */\n      tag_646\n      jump\t// in\n    tag_1069:\n        /* \"#utility.yul\":43765:43767   */\n      0x20\n        /* \"#utility.yul\":43760:43763   */\n      dup3\n        /* \"#utility.yul\":43756:43768   */\n      add\n        /* \"#utility.yul\":43749:43768   */\n      swap1\n      pop\n        /* \"#utility.yul\":43408:43774   */\n      swap2\n      swap1\n      pop\n      jump\t// out\n        /* \"#utility.yul\":43780:44199   */\n    tag_349:\n        /* \"#utility.yul\":43946:43950   */\n      0x00\n        /* \"#utility.yul\":43984:43986   */\n      0x20\n        /* \"#utility.yul\":43973:43982   */\n      dup3\n        /* \"#utility.yul\":43969:43987   */\n      add\n        /* \"#utility.yul\":43961:43987   */\n      swap1\n      pop\n        /* \"#utility.yul\":44033:44042   */\n      dup2\n        /* \"#utility.yul\":44027:44031   */\n      dup2\n        /* \"#utility.yul\":44023:44043   */\n      sub\n        /* \"#utility.yul\":44019:44020   */\n      0x00\n        /* \"#utility.yul\":44008:44017   */\n      dup4\n        /* \"#utility.yul\":44004:44021   */\n      add\n        /* \"#utility.yul\":43997:44044   */\n      mstore\n        /* \"#utility.yul\":44061:44192   */\n      tag_1071\n        /* \"#utility.yul\":44187:44191   */\n      dup2\n        /* \"#utility.yul\":44061:44192   */\n      tag_647\n      jump\t// in\n    tag_1071:\n        /* \"#utility.yul\":44053:44192   */\n      swap1\n      pop\n        /* \"#utility.yul\":43780:44199   */\n      swap2\n      swap1\n      pop\n      jump\t// out\n        /* \"#utility.yul\":44205:44366   */\n    tag_648:\n        /* \"#utility.yul\":44345:44358   */\n      0x4361736520657869737473000000000000000000000000000000000000000000\n        /* \"#utility.yul\":44341:44342   */\n      0x00\n        /* \"#utility.yul\":44333:44339   */\n      dup3\n        /* \"#utility.yul\":44329:44343   */\n      add\n        /* \"#utility.yul\":44322:44359   */\n      mstore\n        /* \"#utility.yul\":44205:44366   */\n      pop\n      jump\t// out\n        /* \"#utility.yul\":44372:44738   */\n    tag_649:\n        /* \"#utility.yul\":44514:44517   */\n      0x00\n        /* \"#utility.yul\":44535:44602   */\n      tag_1074\n        /* \"#utility.yul\":44599:44601   */\n      0x0b\n        /* \"#utility.yul\":44594:44597   */\n      dup4\n        /* \"#utility.yul\":44535:44602   */\n      tag_573\n      jump\t// in\n    tag_1074:\n        /* \"#utility.yul\":44528:44602   */\n      swap2\n      pop\n        /* \"#utility.yul\":44611:44704   */\n      tag_1075\n        /* \"#utility.yul\":44700:44703   */\n      dup3\n        /* \"#utility.yul\":44611:44704   */\n      tag_648\n      jump\t// in\n    tag_1075:\n        /* \"#utility.yul\":44729:44731   */\n      0x20\n        /* \"#utility.yul\":44724:44727   */\n      dup3\n        /* \"#utility.yul\":44720:44732   */\n      add\n        /* \"#utility.yul\":44713:44732   */\n      swap1\n      pop\n        /* \"#utility.yul\":44372:44738   */\n      swap2\n      swap1\n      pop\n      jump\t// out\n        /* \"#utility.yul\":44744:45163   */\n    tag_367:\n        /* \"#utility.yul\":44910:44914   */\n      0x00\n        /* \"#utility.yul\":44948:44950   */\n      0x20\n        /* \"#utility.yul\":44937:44946   */\n      dup3\n        /* \"#utility.yul\":44933:44951   */\n      add\n        /* \"#utility.yul\":44925:44951   */\n      swap1\n      pop\n        /* \"#utility.yul\":44997:45006   */\n      dup2\n        /* \"#utility.yul\":44991:44995   */\n      dup2\n        /* \"#utility.yul\":44987:45007   */\n      sub\n        /* \"#utility.yul\":44983:44984   */\n      0x00\n        /* \"#utility.yul\":44972:44981   */\n      dup4\n        /* \"#utility.yul\":44968:44985   */\n      add\n        /* \"#utility.yul\":44961:45008   */\n      mstore\n        /* \"#utility.yul\":45025:45156   */\n      tag_1077\n        /* \"#utility.yul\":45151:45155   */\n      dup2\n        /* \"#utility.yul\":45025:45156   */\n      tag_649\n      jump\t// in\n    tag_1077:\n        /* \"#utility.yul\":45017:45156   */\n      swap1\n      pop\n        /* \"#utility.yul\":44744:45163   */\n      swap2\n      swap1\n      pop\n      jump\t// out\n        /* \"#utility.yul\":45169:45332   */\n    tag_650:\n        /* \"#utility.yul\":45309:45324   */\n      0x464952206e6f7420666f756e6400000000000000000000000000000000000000\n        /* \"#utility.yul\":45305:45306   */\n      0x00\n        /* \"#utility.yul\":45297:45303   */\n      dup3\n        /* \"#utility.yul\":45293:45307   */\n      add\n        /* \"#utility.yul\":45286:45325   */\n      mstore\n        /* \"#utility.yul\":45169:45332   */\n      pop\n      jump\t// out\n        /* \"#utility.yul\":45338:45704   */\n    tag_651:\n        /* \"#utility.yul\":45480:45483   */\n      0x00\n        /* \"#utility.yul\":45501:45568   */\n      tag_1080\n        /* \"#utility.yul\":45565:45567   */\n      0x0d\n        /* \"#utility.yul\":45560:45563   */\n      dup4\n        /* \"#utility.yul\":45501:45568   */\n      tag_573\n      jump\t// in\n    tag_1080:\n        /* \"#utility.yul\":45494:45568   */\n      swap2\n      pop\n        /* \"#utility.yul\":45577:45670   */\n      tag_1081\n        /* \"#utility.yul\":45666:45669   */\n      dup3\n        /* \"#utility.yul\":45577:45670   */\n      tag_650\n      jump\t// in\n    tag_1081:\n        /* \"#utility.yul\":45695:45697   */\n      0x20\n        /* \"#utility.yul\":45690:45693   */\n      dup3\n        /* \"#utility.yul\":45686:45698   */\n      add\n        /* \"#utility.yul\":45679:45698   */\n      swap1\n      pop\n        /* \"#utility.yul\":45338:45704   */\n      swap2\n      swap1\n      pop\n      jump\t// out\n        /* \"#utility.yul\":45710:46129   */\n    tag_371:\n        /* \"#utility.yul\":45876:45880   */\n      0x00\n        /* \"#utility.yul\":45914:45916   */\n      0x20\n        /* \"#utility.yul\":45903:45912   */\n      dup3\n        /* \"#utility.yul\":45899:45917   */\n      add\n        /* \"#utility.yul\":45891:45917   */\n      swap1\n      pop\n        /* \"#utility.yul\":45963:45972   */\n      dup2\n        /* \"#utility.yul\":45957:45961   */\n      dup2\n        /* \"#utility.yul\":45953:45973   */\n      sub\n        /* \"#utility.yul\":45949:45950   */\n      0x00\n        /* \"#utility.yul\":45938:45947   */\n      dup4\n        /* \"#utility.yul\":45934:45951   */\n      add\n        /* \"#utility.yul\":45927:45974   */\n      mstore\n        /* \"#utility.yul\":45991:46122   */\n      tag_1083\n        /* \"#utility.yul\":46117:46121   */\n      dup2\n        /* \"#utility.yul\":45991:46122   */\n      tag_651\n      jump\t// in\n    tag_1083:\n        /* \"#utility.yul\":45983:46122   */\n      swap1\n      pop\n        /* \"#utility.yul\":45710:46129   */\n      swap2\n      swap1\n      pop\n      jump\t// out\n        /* \"#utility.yul\":46135:46301   */\n    tag_652:\n        /* \"#utility.yul\":46275:46293   */\n      0x416c72656164792070726f6d6f74656400000000000000000000000000000000\n        /* \"#utility.yul\":46271:46272   */\n      0x00\n        /* \"#utility.yul\":46263:46269   */\n      dup3\n        /* \"#utility.yul\":46259:46273   */\n      add\n        /* \"#utility.yul\":46252:46294   */\n      mstore\n        /* \"#utility.yul\":46135:46301   */\n      pop\n      jump\t// out\n        /* \"#utility.yul\":46307:46673   */\n    tag_653:\n        /* \"#utility.yul\":46449:46452   */\n      0x00\n        /* \"#utility.yul\":46470:46537   */\n      tag_1086\n        /* \"#utility.yul\":46534:46536   */\n      0x10\n        /* \"#utility.yul\":46529:46532   */\n      dup4\n        /* \"#utility.yul\":46470:46537   */\n      tag_573\n      jump\t// in\n    tag_1086:\n        /* \"#utility.yul\":46463:46537   */\n      swap2\n      pop\n        /* \"#utility.yul\":46546:46639   */\n      tag_1087\n        /* \"#utility.yul\":46635:46638   */\n      dup3\n        /* \"#utility.yul\":46546:46639   */\n      tag_652\n      jump\t// in\n    tag_1087:\n        /* \"#utility.yul\":46664:46666   */\n      0x20\n        /* \"#utility.yul\":46659:46662   */\n      dup3\n        /* \"#utility.yul\":46655:46667   */\n      add\n        /* \"#utility.yul\":46648:46667   */\n      swap1\n      pop\n        /* \"#utility.yul\":46307:46673   */\n      swap2\n      swap1\n      pop\n      jump\t// out\n        /* \"#utility.yul\":46679:47098   */\n    tag_375:\n        /* \"#utility.yul\":46845:46849   */\n      0x00\n        /* \"#utility.yul\":46883:46885   */\n      0x20\n        /* \"#utility.yul\":46872:46881   */\n      dup3\n        /* \"#utility.yul\":46868:46886   */\n      add\n        /* \"#utility.yul\":46860:46886   */\n      swap1\n      pop\n        /* \"#utility.yul\":46932:46941   */\n      dup2\n        /* \"#utility.yul\":46926:46930   */\n      dup2\n        /* \"#utility.yul\":46922:46942   */\n      sub\n        /* \"#utility.yul\":46918:46919   */\n      0x00\n        /* \"#utility.yul\":46907:46916   */\n      dup4\n        /* \"#utility.yul\":46903:46920   */\n      add\n        /* \"#utility.yul\":46896:46943   */\n      mstore\n        /* \"#utility.yul\":46960:47091   */\n      tag_1089\n        /* \"#utility.yul\":47086:47090   */\n      dup2\n        /* \"#utility.yul\":46960:47091   */\n      tag_653\n      jump\t// in\n    tag_1089:\n        /* \"#utility.yul\":46952:47091   */\n      swap1\n      pop\n        /* \"#utility.yul\":46679:47098   */\n      swap2\n      swap1\n      pop\n      jump\t// out\n        /* \"#utility.yul\":47104:47267   */\n    tag_654:\n        /* \"#utility.yul\":47244:47259   */\n      0x43617365206e6f74206f70656e00000000000000000000000000000000000000\n        /* \"#utility.yul\":47240:47241   */\n      0x00\n        /* \"#utility.yul\":47232:47238   */\n      dup3\n        /* \"#utility.yul\":47228:47242   */\n      add\n        /* \"#utility.yul\":47221:47260   */\n      mstore\n        /* \"#utility.yul\":47104:47267   */\n      pop\n      jump\t// out\n        /* \"#utility.yul\":47273:47639   */\n    tag_655:\n        /* \"#utility.yul\":47415:47418   */\n      0x00\n        /* \"#utility.yul\":47436:47503   */\n      tag_1092\n        /* \"#utility.yul\":47500:47502   */\n      0x0d\n        /* \"#utility.yul\":47495:47498   */\n      dup4\n        /* \"#utility.yul\":47436:47503   */\n      tag_573\n      jump\t// in\n    tag_1092:\n        /* \"#utility.yul\":47429:47503   */\n      swap2\n      pop\n        /* \"#utility.yul\":47512:47605   */\n      tag_1093\n        /* \"#utility.yul\":47601:47604   */\n      dup3\n        /* \"#utility.yul\":47512:47605   */\n      tag_654\n      jump\t// in\n    tag_1093:\n        /* \"#utility.yul\":47630:47632   */\n      0x20\n        /* \"#utility.yul\":47625:47628   */\n      dup3\n        /* \"#utility.yul\":47621:47633   */\n      add\n        /* \"#utility.yul\":47614:47633   */\n      swap1\n      pop\n        /* \"#utility.yul\":47273:47639   */\n      swap2\n      swap1\n      pop\n      jump\t// out\n        /* \"#utility.yul\":47645:48064   */\n    tag_405:\n        /* \"#utility.yul\":47811:47815   */\n      0x00\n        /* \"#utility.yul\":47849:47851   */\n      0x20\n        /* \"#utility.yul\":47838:47847   */\n      dup3\n        /* \"#utility.yul\":47834:47852   */\n      add\n        /* \"#utility.yul\":47826:47852   */\n      swap1\n      pop\n        /* \"#utility.yul\":47898:47907   */\n      dup2\n        /* \"#utility.yul\":47892:47896   */\n      dup2\n        /* \"#utility.yul\":47888:47908   */\n      sub\n        /* \"#utility.yul\":47884:47885   */\n      0x00\n        /* \"#utility.yul\":47873:47882   */\n      dup4\n        /* \"#utility.yul\":47869:47886   */\n      add\n        /* \"#utility.yul\":47862:47909   */\n      mstore\n        /* \"#utility.yul\":47926:48057   */\n      tag_1095\n        /* \"#utility.yul\":48052:48056   */\n      dup2\n        /* \"#utility.yul\":47926:48057   */\n      tag_655\n      jump\t// in\n    tag_1095:\n        /* \"#utility.yul\":47918:48057   */\n      swap1\n      pop\n        /* \"#utility.yul\":47645:48064   */\n      swap2\n      swap1\n      pop\n      jump\t// out\n        /* \"#utility.yul\":48070:48293   */\n    tag_656:\n        /* \"#utility.yul\":48210:48244   */\n      0x556e617574686f72697a656420726f6c6520746f207375626d69742065766964\n        /* \"#utility.yul\":48206:48207   */\n      0x00\n        /* \"#utility.yul\":48198:48204   */\n      dup3\n        /* \"#utility.yul\":48194:48208   */\n      add\n        /* \"#utility.yul\":48187:48245   */\n      mstore\n        /* \"#utility.yul\":48279:48285   */\n      0x656e636500000000000000000000000000000000000000000000000000000000\n        /* \"#utility.yul\":48274:48276   */\n      0x20\n        /* \"#utility.yul\":48266:48272   */\n      dup3\n        /* \"#utility.yul\":48262:48277   */\n      add\n        /* \"#utility.yul\":48255:48286   */\n      mstore\n        /* \"#utility.yul\":48070:48293   */\n      pop\n      jump\t// out\n        /* \"#utility.yul\":48299:48665   */\n    tag_657:\n        /* \"#utility.yul\":48441:48444   */\n      0x00\n        /* \"#utility.yul\":48462:48529   */\n      tag_1098\n        /* \"#utility.yul\":48526:48528   */\n      0x24\n        /* \"#utility.yul\":48521:48524   */\n      dup4\n        /* \"#utility.yul\":48462:48529   */\n      tag_573\n      jump\t// in\n    tag_1098:\n        /* \"#utility.yul\":48455:48529   */\n      swap2\n      pop\n        /* \"#utility.yul\":48538:48631   */\n      tag_1099\n        /* \"#utility.yul\":48627:48630   */\n      dup3\n        /* \"#utility.yul\":48538:48631   */\n      tag_656\n      jump\t// in\n    tag_1099:\n        /* \"#utility.yul\":48656:48658   */\n      0x40\n        /* \"#utility.yul\":48651:48654   */\n      dup3\n        /* \"#utility.yul\":48647:48659   */\n      add\n        /* \"#utility.yul\":48640:48659   */\n      swap1\n      pop\n        /* \"#utility.yul\":48299:48665   */\n      swap2\n      swap1\n      pop\n      jump\t// out\n        /* \"#utility.yul\":48671:49090   */\n    tag_418:\n        /* \"#utility.yul\":48837:48841   */\n      0x00\n        /* \"#utility.yul\":48875:48877   */\n      0x20\n        /* \"#utility.yul\":48864:48873   */\n      dup3\n        /* \"#utility.yul\":48860:48878   */\n      add\n        /* \"#utility.yul\":48852:48878   */\n      swap1\n      pop\n        /* \"#utility.yul\":48924:48933   */\n      dup2\n        /* \"#utility.yul\":48918:48922   */\n      dup2\n        /* \"#utility.yul\":48914:48934   */\n      sub\n        /* \"#utility.yul\":48910:48911   */\n      0x00\n        /* \"#utility.yul\":48899:48908   */\n      dup4\n        /* \"#utility.yul\":48895:48912   */\n      add\n        /* \"#utility.yul\":48888:48935   */\n      mstore\n        /* \"#utility.yul\":48952:49083   */\n      tag_1101\n        /* \"#utility.yul\":49078:49082   */\n      dup2\n        /* \"#utility.yul\":48952:49083   */\n      tag_657\n      jump\t// in\n    tag_1101:\n        /* \"#utility.yul\":48944:49083   */\n      swap1\n      pop\n        /* \"#utility.yul\":48671:49090   */\n      swap2\n      swap1\n      pop\n      jump\t// out\n        /* \"#utility.yul\":49096:49531   */\n    tag_420:\n        /* \"#utility.yul\":49276:49279   */\n      0x00\n        /* \"#utility.yul\":49298:49393   */\n      tag_1103\n        /* \"#utility.yul\":49389:49392   */\n      dup3\n        /* \"#utility.yul\":49380:49386   */\n      dup6\n        /* \"#utility.yul\":49298:49393   */\n      tag_611\n      jump\t// in\n    tag_1103:\n        /* \"#utility.yul\":49291:49393   */\n      swap2\n      pop\n        /* \"#utility.yul\":49410:49505   */\n      tag_1104\n        /* \"#utility.yul\":49501:49504   */\n      dup3\n        /* \"#utility.yul\":49492:49498   */\n      dup5\n        /* \"#utility.yul\":49410:49505   */\n      tag_611\n      jump\t// in\n    tag_1104:\n        /* \"#utility.yul\":49403:49505   */\n      swap2\n      pop\n        /* \"#utility.yul\":49522:49525   */\n      dup2\n        /* \"#utility.yul\":49515:49525   */\n      swap1\n      pop\n        /* \"#utility.yul\":49096:49531   */\n      swap4\n      swap3\n      pop\n      pop\n      pop\n      jump\t// out\n        /* \"#utility.yul\":49537:49705   */\n    tag_658:\n        /* \"#utility.yul\":49677:49697   */\n      0x4475706c69636174652065766964656e63650000000000000000000000000000\n        /* \"#utility.yul\":49673:49674   */\n      0x00\n        /* \"#utility.yul\":49665:49671   */\n      dup3\n        /* \"#utility.yul\":49661:49675   */\n      add\n        /* \"#utility.yul\":49654:49698   */\n      mstore\n        /* \"#utility.yul\":49537:49705   */\n      pop\n      jump\t// out\n        /* \"#utility.yul\":49711:50077   */\n    tag_659:\n        /* \"#utility.yul\":49853:49856   */\n      0x00\n        /* \"#utility.yul\":49874:49941   */\n      tag_1107\n        /* \"#utility.yul\":49938:49940   */\n      0x12\n        /* \"#utility.yul\":49933:49936   */\n      dup4\n        /* \"#utility.yul\":49874:49941   */\n      tag_573\n      jump\t// in\n    tag_1107:\n        /* \"#utility.yul\":49867:49941   */\n      swap2\n      pop\n        /* \"#utility.yul\":49950:50043   */\n      tag_1108\n        /* \"#utility.yul\":50039:50042   */\n      dup3\n        /* \"#utility.yul\":49950:50043   */\n      tag_658\n      jump\t// in\n    tag_1108:\n        /* \"#utility.yul\":50068:50070   */\n      0x20\n        /* \"#utility.yul\":50063:50066   */\n      dup3\n        /* \"#utility.yul\":50059:50071   */\n      add\n        /* \"#utility.yul\":50052:50071   */\n      swap1\n      pop\n        /* \"#utility.yul\":49711:50077   */\n      swap2\n      swap1\n      pop\n      jump\t// out\n        /* \"#utility.yul\":50083:50502   */\n    tag_423:\n        /* \"#utility.yul\":50249:50253   */\n      0x00\n        /* \"#utility.yul\":50287:50289   */\n      0x20\n        /* \"#utility.yul\":50276:50285   */\n      dup3\n        /* \"#utility.yul\":50272:50290   */\n      add\n        /* \"#utility.yul\":50264:50290   */\n      swap1\n      pop\n        /* \"#utility.yul\":50336:50345   */\n      dup2\n        /* \"#utility.yul\":50330:50334   */\n      dup2\n        /* \"#utility.yul\":50326:50346   */\n      sub\n        /* \"#utility.yul\":50322:50323   */\n      0x00\n        /* \"#utility.yul\":50311:50320   */\n      dup4\n        /* \"#utility.yul\":50307:50324   */\n      add\n        /* \"#utility.yul\":50300:50347   */\n      mstore\n        /* \"#utility.yul\":50364:50495   */\n      tag_1110\n        /* \"#utility.yul\":50490:50494   */\n      dup2\n        /* \"#utility.yul\":50364:50495   */\n      tag_659\n      jump\t// in\n    tag_1110:\n        /* \"#utility.yul\":50356:50495   */\n      swap1\n      pop\n        /* \"#utility.yul\":50083:50502   */\n      swap2\n      swap1\n      pop\n      jump\t// out\n        /* \"#utility.yul\":50508:50670   */\n    tag_660:\n        /* \"#utility.yul\":50648:50662   */\n      0x556e617574686f72697a65640000000000000000000000000000000000000000\n        /* \"#utility.yul\":50644:50645   */\n      0x00\n        /* \"#utility.yul\":50636:50642   */\n      dup3\n        /* \"#utility.yul\":50632:50646   */\n      add\n        /* \"#utility.yul\":50625:50663   */\n      mstore\n        /* \"#utility.yul\":50508:50670   */\n      pop\n      jump\t// out\n        /* \"#utility.yul\":50676:51042   */\n    tag_661:\n        /* \"#utility.yul\":50818:50821   */\n      0x00\n        /* \"#utility.yul\":50839:50906   */\n      tag_1113\n        /* \"#utility.yul\":50903:50905   */\n      0x0c\n        /* \"#utility.yul\":50898:50901   */\n      dup4\n        /* \"#utility.yul\":50839:50906   */\n      tag_573\n      jump\t// in\n    tag_1113:\n        /* \"#utility.yul\":50832:50906   */\n      swap2\n      pop\n        /* \"#utility.yul\":50915:51008   */\n      tag_1114\n        /* \"#utility.yul\":51004:51007   */\n      dup3\n        /* \"#utility.yul\":50915:51008   */\n      tag_660\n      jump\t// in\n    tag_1114:\n        /* \"#utility.yul\":51033:51035   */\n      0x20\n        /* \"#utility.yul\":51028:51031   */\n      dup3\n        /* \"#utility.yul\":51024:51036   */\n      add\n        /* \"#utility.yul\":51017:51036   */\n      swap1\n      pop\n        /* \"#utility.yul\":50676:51042   */\n      swap2\n      swap1\n      pop\n      jump\t// out\n        /* \"#utility.yul\":51048:51467   */\n    tag_448:\n        /* \"#utility.yul\":51214:51218   */\n      0x00\n        /* \"#utility.yul\":51252:51254   */\n      0x20\n        /* \"#utility.yul\":51241:51250   */\n      dup3\n        /* \"#utility.yul\":51237:51255   */\n      add\n        /* \"#utility.yul\":51229:51255   */\n      swap1\n      pop\n        /* \"#utility.yul\":51301:51310   */\n      dup2\n        /* \"#utility.yul\":51295:51299   */\n      dup2\n        /* \"#utility.yul\":51291:51311   */\n      sub\n        /* \"#utility.yul\":51287:51288   */\n      0x00\n        /* \"#utility.yul\":51276:51285   */\n      dup4\n        /* \"#utility.yul\":51272:51289   */\n      add\n        /* \"#utility.yul\":51265:51312   */\n      mstore\n        /* \"#utility.yul\":51329:51460   */\n      tag_1116\n        /* \"#utility.yul\":51455:51459   */\n      dup2\n        /* \"#utility.yul\":51329:51460   */\n      tag_661\n      jump\t// in\n    tag_1116:\n        /* \"#utility.yul\":51321:51460   */\n      swap1\n      pop\n        /* \"#utility.yul\":51048:51467   */\n      swap2\n      swap1\n      pop\n      jump\t// out\n        /* \"#utility.yul\":51473:51635   */\n    tag_662:\n        /* \"#utility.yul\":51613:51627   */\n      0x4649522070726f6d6f7465640000000000000000000000000000000000000000\n        /* \"#utility.yul\":51609:51610   */\n      0x00\n        /* \"#utility.yul\":51601:51607   */\n      dup3\n        /* \"#utility.yul\":51597:51611   */\n      add\n        /* \"#utility.yul\":51590:51628   */\n      mstore\n        /* \"#utility.yul\":51473:51635   */\n      pop\n      jump\t// out\n        /* \"#utility.yul\":51641:52007   */\n    tag_663:\n        /* \"#utility.yul\":51783:51786   */\n      0x00\n        /* \"#utility.yul\":51804:51871   */\n      tag_1119\n        /* \"#utility.yul\":51868:51870   */\n      0x0c\n        /* \"#utility.yul\":51863:51866   */\n      dup4\n        /* \"#utility.yul\":51804:51871   */\n      tag_573\n      jump\t// in\n    tag_1119:\n        /* \"#utility.yul\":51797:51871   */\n      swap2\n      pop\n        /* \"#utility.yul\":51880:51973   */\n      tag_1120\n        /* \"#utility.yul\":51969:51972   */\n      dup3\n        /* \"#utility.yul\":51880:51973   */\n      tag_662\n      jump\t// in\n    tag_1120:\n        /* \"#utility.yul\":51998:52000   */\n      0x20\n        /* \"#utility.yul\":51993:51996   */\n      dup3\n        /* \"#utility.yul\":51989:52001   */\n      add\n        /* \"#utility.yul\":51982:52001   */\n      swap1\n      pop\n        /* \"#utility.yul\":51641:52007   */\n      swap2\n      swap1\n      pop\n      jump\t// out\n        /* \"#utility.yul\":52013:52432   */\n    tag_455:\n        /* \"#utility.yul\":52179:52183   */\n      0x00\n        /* \"#utility.yul\":52217:52219   */\n      0x20\n        /* \"#utility.yul\":52206:52215   */\n      dup3\n        /* \"#utility.yul\":52202:52220   */\n      add\n        /* \"#utility.yul\":52194:52220   */\n      swap1\n      pop\n        /* \"#utility.yul\":52266:52275   */\n      dup2\n        /* \"#utility.yul\":52260:52264   */\n      dup2\n        /* \"#utility.yul\":52256:52276   */\n      sub\n        /* \"#utility.yul\":52252:52253   */\n      0x00\n        /* \"#utility.yul\":52241:52250   */\n      dup4\n        /* \"#utility.yul\":52237:52254   */\n      add\n        /* \"#utility.yul\":52230:52277   */\n      mstore\n        /* \"#utility.yul\":52294:52425   */\n      tag_1122\n        /* \"#utility.yul\":52420:52424   */\n      dup2\n        /* \"#utility.yul\":52294:52425   */\n      tag_663\n      jump\t// in\n    tag_1122:\n        /* \"#utility.yul\":52286:52425   */\n      swap1\n      pop\n        /* \"#utility.yul\":52013:52432   */\n      swap2\n      swap1\n      pop\n      jump\t// out\n        /* \"#utility.yul\":52438:52607   */\n    tag_664:\n        /* \"#utility.yul\":52578:52599   */\n      0x43617365206e6f74206173736f63696174656400000000000000000000000000\n        /* \"#utility.yul\":52574:52575   */\n      0x00\n        /* \"#utility.yul\":52566:52572   */\n      dup3\n        /* \"#utility.yul\":52562:52576   */\n      add\n        /* \"#utility.yul\":52555:52600   */\n      mstore\n        /* \"#utility.yul\":52438:52607   */\n      pop\n      jump\t// out\n        /* \"#utility.yul\":52613:52979   */\n    tag_665:\n        /* \"#utility.yul\":52755:52758   */\n      0x00\n        /* \"#utility.yul\":52776:52843   */\n      tag_1125\n        /* \"#utility.yul\":52840:52842   */\n      0x13\n        /* \"#utility.yul\":52835:52838   */\n      dup4\n        /* \"#utility.yul\":52776:52843   */\n      tag_573\n      jump\t// in\n    tag_1125:\n        /* \"#utility.yul\":52769:52843   */\n      swap2\n      pop\n        /* \"#utility.yul\":52852:52945   */\n      tag_1126\n        /* \"#utility.yul\":52941:52944   */\n      dup3\n        /* \"#utility.yul\":52852:52945   */\n      tag_664\n      jump\t// in\n    tag_1126:\n        /* \"#utility.yul\":52970:52972   */\n      0x20\n        /* \"#utility.yul\":52965:52968   */\n      dup3\n        /* \"#utility.yul\":52961:52973   */\n      add\n        /* \"#utility.yul\":52954:52973   */\n      swap1\n      pop\n        /* \"#utility.yul\":52613:52979   */\n      swap2\n      swap1\n      pop\n      jump\t// out\n        /* \"#utility.yul\":52985:53404   */\n    tag_467:\n        /* \"#utility.yul\":53151:53155   */\n      0x00\n        /* \"#utility.yul\":53189:53191   */\n      0x20\n        /* \"#utility.yul\":53178:53187   */\n      dup3\n        /* \"#utility.yul\":53174:53192   */\n      add\n        /* \"#utility.yul\":53166:53192   */\n      swap1\n      pop\n        /* \"#utility.yul\":53238:53247   */\n      dup2\n        /* \"#utility.yul\":53232:53236   */\n      dup2\n        /* \"#utility.yul\":53228:53248   */\n      sub\n        /* \"#utility.yul\":53224:53225   */\n      0x00\n        /* \"#utility.yul\":53213:53222   */\n      dup4\n        /* \"#utility.yul\":53209:53226   */\n      add\n        /* \"#utility.yul\":53202:53249   */\n      mstore\n        /* \"#utility.yul\":53266:53397   */\n      tag_1128\n        /* \"#utility.yul\":53392:53396   */\n      dup2\n        /* \"#utility.yul\":53266:53397   */\n      tag_665\n      jump\t// in\n    tag_1128:\n        /* \"#utility.yul\":53258:53397   */\n      swap1\n      pop\n        /* \"#utility.yul\":52985:53404   */\n      swap2\n      swap1\n      pop\n      jump\t// out\n        /* \"#utility.yul\":53410:53590   */\n    tag_666:\n        /* \"#utility.yul\":53458:53535   */\n      0x4e487b7100000000000000000000000000000000000000000000000000000000\n        /* \"#utility.yul\":53455:53456   */\n      0x00\n        /* \"#utility.yul\":53448:53536   */\n      mstore\n        /* \"#utility.yul\":53555:53559   */\n      0x11\n        /* \"#utility.yul\":53552:53553   */\n      0x04\n        /* \"#utility.yul\":53545:53560   */\n      mstore\n        /* \"#utility.yul\":53579:53583   */\n      0x24\n        /* \"#utility.yul\":53576:53577   */\n      0x00\n        /* \"#utility.yul\":53569:53584   */\n      revert\n        /* \"#utility.yul\":53596:53829   */\n    tag_529:\n        /* \"#utility.yul\":53635:53638   */\n      0x00\n        /* \"#utility.yul\":53658:53682   */\n      tag_1131\n        /* \"#utility.yul\":53676:53681   */\n      dup3\n        /* \"#utility.yul\":53658:53682   */\n      tag_569\n      jump\t// in\n    tag_1131:\n        /* \"#utility.yul\":53649:53682   */\n      swap2\n      pop\n        /* \"#utility.yul\":53704:53770   */\n      0xffffffffffffffffffffffffffffffffffffffffffffffffffffffffffffffff\n        /* \"#utility.yul\":53697:53702   */\n      dup3\n        /* \"#utility.yul\":53694:53771   */\n      sub\n        /* \"#utility.yul\":53691:53794   */\n      tag_1132\n      jumpi\n        /* \"#utility.yul\":53774:53792   */\n      tag_1133\n      tag_666\n      jump\t// in\n    tag_1133:\n        /* \"#utility.yul\":53691:53794   */\n    tag_1132:\n        /* \"#utility.yul\":53821:53822   */\n      0x01\n        /* \"#utility.yul\":53814:53819   */\n      dup3\n        /* \"#utility.yul\":53810:53823   */\n      add\n        /* \"#utility.yul\":53803:53823   */\n      swap1\n      pop\n        /* \"#utility.yul\":53596:53829   */\n      swap2\n      swap1\n      pop\n      jump\t// out\n\n    auxdata: 0xa26469706673582212202f4fa243675ecf5bb8c844aadf29e611fee33b612d40f1679de49780c90bd50364736f6c634300081d0033\n}\n",
				"bytecode": {
					"linkReferences": {},
					"object": "6080604052348015600e575f5ffd5b50335f5f6101000a81548173ffffffffffffffffffffffffffffffffffffffff021916908373ffffffffffffffffffffffffffffffffffffffff1602179055506001805f3373ffffffffffffffffffffffffffffffffffffffff1673ffffffffffffffffffffffffffffffffffffffff1681526020019081526020015f205f6101000a81548160ff0219169083600481111560aa5760a960b3565b5b021790555060e0565b7f4e487b71000000000000000000000000000000000000000000000000000000005f52602160045260245ffd5b61505a806100ed5f395ff3fe608060405234801561000f575f5ffd5b50600436106101a6575f3560e01c806396853b85116100f7578063cbbfe1fc11610095578063d77bdf971161006f578063d77bdf97146104f1578063df9658291461050f578063f47dbf0d14610545578063f6e715db14610575576101a6565b8063cbbfe1fc14610475578063d235af82146104a5578063d4e06826146104c1576101a6565b8063a23140d2116100d1578063a23140d2146103dd578063a5fd36181461040d578063b934669f1461043d578063c0c0bd2814610459576101a6565b806396853b85146103615780639d8d2a49146103915780639dc17586146103ad576101a6565b80636fa81f8911610164578063832e943f1161013e578063832e943f146102ef5780638da5cb5b1461030b57806390712d6a1461032957806395d95a6014610345576101a6565b80636fa81f89146102ad57806378ac0caf146102b757806379c7fdd3146102d3576101a6565b8062a81646146101aa5780630871fd94146101da5780632a8d05d8146101f65780633e6a1a4f1461022b5780634966a761146102475780635df512eb14610277575b5f5ffd5b6101c460048036038101906101bf9190613837565b6105a5565b6040516101d191906138ab565b60405180910390f35b6101f460048036038101906101ef91906138f7565b6105e7565b005b610210600480360381019061020b9190613951565b610829565b60405161022296959493929190613a16565b60405180910390f35b61024560048036038101906102409190613951565b610a36565b005b610261600480360381019061025c9190613a8a565b610bca565b60405161026e9190613b28565b60405180910390f35b610291600480360381019061028c91906138f7565b610be7565b6040516102a49796959493929190613b87565b60405180910390f35b6102b5610e13565b005b6102d160048036038101906102cc9190613c09565b610eed565b005b6102ed60048036038101906102e89190613ca2565b6111c3565b005b61030960048036038101906103049190613951565b611341565b005b610313611540565b6040516103209190613ce0565b60405180910390f35b610343600480360381019061033e9190613951565b611564565b005b61035f600480360381019061035a9190613cf9565b611651565b005b61037b60048036038101906103769190613951565b6118b7565b6040516103889190613e6e565b60405180910390f35b6103ab60048036038101906103a691906138f7565b611b17565b005b6103c760048036038101906103c29190613ec1565b611dcb565b6040516103d491906138ab565b60405180910390f35b6103f760048036038101906103f29190613837565b611de8565b6040516104049190613b28565b60405180910390f35b610427600480360381019061042291906138f7565b611e2a565b6040516104349190613ce0565b60405180910390f35b61045760048036038101906104529190613fce565b611e8a565b005b610473600480360381019061046e91906140f4565b612337565b005b61048f600480360381019061048a9190613a8a565b612798565b60405161049c9190613b28565b60405180910390f35b6104bf60048036038101906104ba91906140f4565b6127ea565b005b6104db60048036038101906104d69190613951565b612ce1565b6040516104e89190614358565b60405180910390f35b6104f9613032565b60405161050691906138ab565b60405180910390f35b61052960048036038101906105249190613951565b613044565b60405161053c9796959493929190614378565b60405180910390f35b61055f600480360381019061055a91906143fa565b613265565b60405161056c91906138ab565b60405180910390f35b61058f600480360381019061058a9190613951565b6132b2565b60405161059c9190613b28565b60405180910390f35b600582805160208101820180518482526020830160208501208183528095505050505050602052805f5260405f205f915091509054906101000a900460ff1681565b815f60048111156105fb576105fa613ab5565b5b60048260405161060b91906144a0565b90815260200160405180910390205f3373ffffffffffffffffffffffffffffffffffffffff1673ffffffffffffffffffffffffffffffffffffffff1681526020019081526020015f205f9054906101000a900460ff16600481111561067357610672613ab5565b5b036106b3576040517f08c379a00000000000000000000000000000000000000000000000000000000081526004016106aa90614500565b60405180910390fd5b6003836040516106c391906144a0565b9081526020016040518091039020600501548210610716576040517f08c379a000000000000000000000000000000000000000000000000000000000815260040161070d90614568565b60405180910390fd5b600160088460405161072891906144a0565b90815260200160405180910390205f8481526020019081526020015f205f3373ffffffffffffffffffffffffffffffffffffffff1673ffffffffffffffffffffffffffffffffffffffff1681526020019081526020015f205f6101000a81548160ff0219169083151502179055506009836040516107a691906144a0565b90815260200160405180910390205f8381526020019081526020015f2060050133908060018154018082558091505060019003905f5260205f20015f9091909190916101000a81548173ffffffffffffffffffffffffffffffffffffffff021916908373ffffffffffffffffffffffffffffffffffffffff160217905550505050565b6002818051602081018201805184825260208301602085012081835280955050505050505f91509050805f018054610860906145b3565b80601f016020809104026020016040519081016040528092919081815260200182805461088c906145b3565b80156108d75780601f106108ae576101008083540402835291602001916108d7565b820191905f5260205f20905b8154815290600101906020018083116108ba57829003601f168201915b505050505090806001015f9054906101000a900473ffffffffffffffffffffffffffffffffffffffff1690806002018054610911906145b3565b80601f016020809104026020016040519081016040528092919081815260200182805461093d906145b3565b80156109885780601f1061095f57610100808354040283529160200191610988565b820191905f5260205f20905b81548152906001019060200180831161096b57829003601f168201915b505050505090806003015490806004015f9054906101000a900460ff16908060050180546109b5906145b3565b80601f01602080910402602001604051908101604052809291908181526020018280546109e1906145b3565b8015610a2c5780601f10610a0357610100808354040283529160200191610a2c565b820191905f5260205f20905b815481529060010190602001808311610a0f57829003601f168201915b5050505050905086565b60016004811115610a4a57610a49613ab5565b5b60015f3373ffffffffffffffffffffffffffffffffffffffff1673ffffffffffffffffffffffffffffffffffffffff1681526020019081526020015f205f9054906101000a900460ff166004811115610aa657610aa5613ab5565b5b14610ae6576040517f08c379a0000000000000000000000000000000000000000000000000000000008152600401610add9061462d565b60405180910390fd5b600381604051610af691906144a0565b908152602001604051809103902060030160149054906101000a900460ff16610b54576040517f08c379a0000000000000000000000000000000000000000000000000000000008152600401610b4b90614695565b60405180910390fd5b5f600382604051610b6591906144a0565b908152602001604051809103902060030160146101000a81548160ff0219169083151502179055506001600382604051610b9f91906144a0565b908152602001604051809103902060030160156101000a81548160ff02191690831515021790555050565b6001602052805f5260405f205f915054906101000a900460ff1681565b600982805160208101820180518482526020830160208501208183528095505050505050602052805f5260405f205f9150915050805f018054610c29906145b3565b80601f0160208091040260200160405190810160405280929190818152602001828054610c55906145b3565b8015610ca05780601f10610c7757610100808354040283529160200191610ca0565b820191905f5260205f20905b815481529060010190602001808311610c8357829003601f168201915b505050505090806001018054610cb5906145b3565b80601f0160208091040260200160405190810160405280929190818152602001828054610ce1906145b3565b8015610d2c5780601f10610d0357610100808354040283529160200191610d2c565b820191905f5260205f20905b815481529060010190602001808311610d0f57829003601f168201915b505050505090806002018054610d41906145b3565b80601f0160208091040260200160405190810160405280929190818152602001828054610d6d906145b3565b8015610db85780601f10610d8f57610100808354040283529160200191610db8565b820191905f5260205f20905b815481529060010190602001808311610d9b57829003601f168201915b505050505090806003015f9054906101000a900460ff16908060030160019054906101000a900473ffffffffffffffffffffffffffffffffffffffff16908060030160159054906101000a900460ff16908060040154905087565b60016004811115610e2757610e26613ab5565b5b60015f3373ffffffffffffffffffffffffffffffffffffffff1673ffffffffffffffffffffffffffffffffffffffff1681526020019081526020015f205f9054906101000a900460ff166004811115610e8357610e82613ab5565b5b14610ec3576040517f08c379a0000000000000000000000000000000000000000000000000000000008152600401610eba9061462d565b60405180910390fd5b5f60149054906101000a900460ff16155f60146101000a81548160ff021916908315150217905550565b5f60149054906101000a900460ff1615610f3c576040517f08c379a0000000000000000000000000000000000000000000000000000000008152600401610f33906146fd565b60405180910390fd5b6002806004811115610f5157610f50613ab5565b5b60015f3373ffffffffffffffffffffffffffffffffffffffff1673ffffffffffffffffffffffffffffffffffffffff1681526020019081526020015f205f9054906101000a900460ff166004811115610fad57610fac613ab5565b5b14610fed576040517f08c379a0000000000000000000000000000000000000000000000000000000008152600401610fe490614765565b60405180910390fd5b5f73ffffffffffffffffffffffffffffffffffffffff1660028460405161101491906144a0565b90815260200160405180910390206001015f9054906101000a900473ffffffffffffffffffffffffffffffffffffffff1673ffffffffffffffffffffffffffffffffffffffff161461109b576040517f08c379a0000000000000000000000000000000000000000000000000000000008152600401611092906147cd565b60405180910390fd5b6040518060c001604052808481526020013373ffffffffffffffffffffffffffffffffffffffff1681526020018381526020014281526020015f1515815260200160405180602001604052805f8152508152506002846040516110fe91906144a0565b90815260200160405180910390205f820151815f01908161111f919061498b565b506020820151816001015f6101000a81548173ffffffffffffffffffffffffffffffffffffffff021916908373ffffffffffffffffffffffffffffffffffffffff160217905550604082015181600201908161117b919061498b565b50606082015181600301556080820151816004015f6101000a81548160ff02191690831515021790555060a08201518160050190816111ba919061498b565b50905050505050565b600160048111156111d7576111d6613ab5565b5b60015f3373ffffffffffffffffffffffffffffffffffffffff1673ffffffffffffffffffffffffffffffffffffffff1681526020019081526020015f205f9054906101000a900460ff16600481111561123357611232613ab5565b5b14611273576040517f08c379a000000000000000000000000000000000000000000000000000000000815260040161126a9061462d565b60405180910390fd5b5f600481111561128657611285613ab5565b5b81600481111561129957611298613ab5565b5b036112d9576040517f08c379a00000000000000000000000000000000000000000000000000000000081526004016112d090614aa4565b60405180910390fd5b8060015f8473ffffffffffffffffffffffffffffffffffffffff1673ffffffffffffffffffffffffffffffffffffffff1681526020019081526020015f205f6101000a81548160ff0219169083600481111561133857611337613ab5565b5b02179055505050565b6001600481111561135557611354613ab5565b5b60015f3373ffffffffffffffffffffffffffffffffffffffff1673ffffffffffffffffffffffffffffffffffffffff1681526020019081526020015f205f9054906101000a900460ff1660048111156113b1576113b0613ab5565b5b146113f1576040517f08c379a00000000000000000000000000000000000000000000000000000000081526004016113e89061462d565b60405180910390fd5b5f60038260405161140291906144a0565b908152602001604051809103902060030160156101000a81548160ff0219169083151502179055505f5f90505b60078260405161143f91906144a0565b90815260200160405180910390208054905081101561153c575f60048360405161146991906144a0565b90815260200160405180910390205f60078560405161148891906144a0565b908152602001604051809103902084815481106114a8576114a7614ac2565b5b905f5260205f20015f9054906101000a900473ffffffffffffffffffffffffffffffffffffffff1673ffffffffffffffffffffffffffffffffffffffff1673ffffffffffffffffffffffffffffffffffffffff1681526020019081526020015f205f6101000a81548160ff0219169083600481111561152a57611529613ab5565b5b0217905550808060010191505061142f565b5050565b5f5f9054906101000a900473ffffffffffffffffffffffffffffffffffffffff1681565b6001600481111561157857611577613ab5565b5b60015f3373ffffffffffffffffffffffffffffffffffffffff1673ffffffffffffffffffffffffffffffffffffffff1681526020019081526020015f205f9054906101000a900460ff1660048111156115d4576115d3613ab5565b5b14611614576040517f08c379a000000000000000000000000000000000000000000000000000000000815260040161160b9061462d565b60405180910390fd5b600160038260405161162691906144a0565b908152602001604051809103902060030160146101000a81548160ff02191690831515021790555050565b5f60149054906101000a900460ff16156116a0576040517f08c379a0000000000000000000000000000000000000000000000000000000008152600401611697906146fd565b60405180910390fd5b600160048111156116b4576116b3613ab5565b5b60015f3373ffffffffffffffffffffffffffffffffffffffff1673ffffffffffffffffffffffffffffffffffffffff1681526020019081526020015f205f9054906101000a900460ff1660048111156117105761170f613ab5565b5b14611750576040517f08c379a00000000000000000000000000000000000000000000000000000000081526004016117479061462d565b60405180910390fd5b5f600481111561176357611762613ab5565b5b81600481111561177657611775613ab5565b5b036117b6576040517f08c379a00000000000000000000000000000000000000000000000000000000081526004016117ad90614aa4565b60405180910390fd5b806004846040516117c791906144a0565b90815260200160405180910390205f8473ffffffffffffffffffffffffffffffffffffffff1673ffffffffffffffffffffffffffffffffffffffff1681526020019081526020015f205f6101000a81548160ff0219169083600481111561183157611830613ab5565b5b021790555060078360405161184691906144a0565b908152602001604051809103902082908060018154018082558091505060019003905f5260205f20015f9091909190916101000a81548173ffffffffffffffffffffffffffffffffffffffff021916908373ffffffffffffffffffffffffffffffffffffffff160217905550505050565b6118bf613491565b6002826040516118cf91906144a0565b90815260200160405180910390206040518060c00160405290815f820180546118f7906145b3565b80601f0160208091040260200160405190810160405280929190818152602001828054611923906145b3565b801561196e5780601f106119455761010080835404028352916020019161196e565b820191905f5260205f20905b81548152906001019060200180831161195157829003601f168201915b50505050508152602001600182015f9054906101000a900473ffffffffffffffffffffffffffffffffffffffff1673ffffffffffffffffffffffffffffffffffffffff1673ffffffffffffffffffffffffffffffffffffffff1681526020016002820180546119dc906145b3565b80601f0160208091040260200160405190810160405280929190818152602001828054611a08906145b3565b8015611a535780601f10611a2a57610100808354040283529160200191611a53565b820191905f5260205f20905b815481529060010190602001808311611a3657829003601f168201915b5050505050815260200160038201548152602001600482015f9054906101000a900460ff16151515158152602001600582018054611a90906145b3565b80601f0160208091040260200160405190810160405280929190818152602001828054611abc906145b3565b8015611b075780601f10611ade57610100808354040283529160200191611b07565b820191905f5260205f20905b815481529060010190602001808311611aea57829003601f168201915b5050505050815250509050919050565b5f60149054906101000a900460ff1615611b66576040517f08c379a0000000000000000000000000000000000000000000000000000000008152600401611b5d906146fd565b60405180910390fd5b815f6004811115611b7a57611b79613ab5565b5b600482604051611b8a91906144a0565b90815260200160405180910390205f3373ffffffffffffffffffffffffffffffffffffffff1673ffffffffffffffffffffffffffffffffffffffff1681526020019081526020015f205f9054906101000a900460ff166004811115611bf257611bf1613ab5565b5b03611c32576040517f08c379a0000000000000000000000000000000000000000000000000000000008152600401611c2990614500565b60405180910390fd5b5f600984604051611c4391906144a0565b90815260200160405180910390205f8481526020019081526020015f2090508060030160159054906101000a900460ff1615611cb4576040517f08c379a0000000000000000000000000000000000000000000000000000000008152600401611cab90614b39565b60405180910390fd5b3373ffffffffffffffffffffffffffffffffffffffff168160030160019054906101000a900473ffffffffffffffffffffffffffffffffffffffff1673ffffffffffffffffffffffffffffffffffffffff1603611d46576040517f08c379a0000000000000000000000000000000000000000000000000000000008152600401611d3d90614ba1565b60405180910390fd5b60018160030160156101000a81548160ff0219169083151502179055508060050133908060018154018082558091505060019003905f5260205f20015f9091909190916101000a81548173ffffffffffffffffffffffffffffffffffffffff021916908373ffffffffffffffffffffffffffffffffffffffff16021790555050505050565b6006602052805f5260405f205f915054906101000a900460ff1681565b600482805160208101820180518482526020830160208501208183528095505050505050602052805f5260405f205f915091509054906101000a900460ff1681565b6007828051602081018201805184825260208301602085012081835280955050505050508181548110611e5b575f80fd5b905f5260205f20015f915091509054906101000a900473ffffffffffffffffffffffffffffffffffffffff1681565b5f60149054906101000a900460ff1615611ed9576040517f08c379a0000000000000000000000000000000000000000000000000000000008152600401611ed0906146fd565b60405180910390fd5b60016004811115611eed57611eec613ab5565b5b60015f3373ffffffffffffffffffffffffffffffffffffffff1673ffffffffffffffffffffffffffffffffffffffff1681526020019081526020015f205f9054906101000a900460ff166004811115611f4957611f48613ab5565b5b14611f89576040517f08c379a0000000000000000000000000000000000000000000000000000000008152600401611f809061462d565b60405180910390fd5b5f73ffffffffffffffffffffffffffffffffffffffff16600386604051611fb091906144a0565b90815260200160405180910390206003015f9054906101000a900473ffffffffffffffffffffffffffffffffffffffff1673ffffffffffffffffffffffffffffffffffffffff1614612037576040517f08c379a000000000000000000000000000000000000000000000000000000000815260040161202e90614c09565b60405180910390fd5b5f73ffffffffffffffffffffffffffffffffffffffff1660028560405161205e91906144a0565b90815260200160405180910390206001015f9054906101000a900473ffffffffffffffffffffffffffffffffffffffff1673ffffffffffffffffffffffffffffffffffffffff16036120e5576040517f08c379a00000000000000000000000000000000000000000000000000000000081526004016120dc90614c71565b60405180910390fd5b6002846040516120f591906144a0565b90815260200160405180910390206004015f9054906101000a900460ff1615612153576040517f08c379a000000000000000000000000000000000000000000000000000000000815260040161214a90614cd9565b60405180910390fd5b5f60038660405161216491906144a0565b9081526020016040518091039020905085815f019081612184919061498b565b5083816001019081612196919061498b565b50828160020190816121a8919061498b565b5033816003015f6101000a81548173ffffffffffffffffffffffffffffffffffffffff021916908373ffffffffffffffffffffffffffffffffffffffff1602179055505f8160030160146101000a81548160ff02191690831515021790555060018160030160156101000a81548160ff0219169083151502179055508181600401908051906020019061223c9291906134dc565b505f8160050181905550600160028660405161225891906144a0565b90815260200160405180910390206004015f6101000a81548160ff0219169083151502179055508560028660405161229091906144a0565b908152602001604051809103902060050190816122ad919061498b565b5060016004876040516122c091906144a0565b90815260200160405180910390205f3373ffffffffffffffffffffffffffffffffffffffff1673ffffffffffffffffffffffffffffffffffffffff1681526020019081526020015f205f6101000a81548160ff0219169083600481111561232a57612329613ab5565b5b0217905550505050505050565b5f60149054906101000a900460ff1615612386576040517f08c379a000000000000000000000000000000000000000000000000000000000815260040161237d906146fd565b60405180910390fd5b845f600481111561239a57612399613ab5565b5b6004826040516123aa91906144a0565b90815260200160405180910390205f3373ffffffffffffffffffffffffffffffffffffffff1673ffffffffffffffffffffffffffffffffffffffff1681526020019081526020015f205f9054906101000a900460ff16600481111561241257612411613ab5565b5b03612452576040517f08c379a000000000000000000000000000000000000000000000000000000000815260040161244990614500565b60405180910390fd5b8560038160405161246391906144a0565b908152602001604051809103902060030160159054906101000a900460ff1680156124ba575060038160405161249991906144a0565b908152602001604051809103902060030160149054906101000a900460ff16155b6124f9576040517f08c379a00000000000000000000000000000000000000000000000000000000081526004016124f090614d41565b60405180910390fd5b6002600481111561250d5761250c613ab5565b5b60015f3373ffffffffffffffffffffffffffffffffffffffff1673ffffffffffffffffffffffffffffffffffffffff1681526020019081526020015f205f9054906101000a900460ff16600481111561256957612568613ab5565b5b14806125e257506003600481111561258457612583613ab5565b5b60015f3373ffffffffffffffffffffffffffffffffffffffff1673ffffffffffffffffffffffffffffffffffffffff1681526020019081526020015f205f9054906101000a900460ff1660048111156125e0576125df613ab5565b5b145b612621576040517f08c379a000000000000000000000000000000000000000000000000000000000815260040161261890614dcf565b60405180910390fd5b5f8585604051602001612635929190614ded565b60405160208183030381529060405280519060200120905060065f8281526020019081526020015f205f9054906101000a900460ff16156126ab576040517f08c379a00000000000000000000000000000000000000000000000000000000081526004016126a290614e5a565b60405180910390fd5b5f6040518061010001604052808981526020018881526020018781526020018660038111156126dd576126dc613ab5565b5b81526020013373ffffffffffffffffffffffffffffffffffffffff1681526020015f151581526020014281526020015f67ffffffffffffffff811115612726576127256136b9565b5b6040519080825280602002602001820160405280156127545781602001602082028036833780820191505090505b5081525090506127648982613320565b600160065f8481526020019081526020015f205f6101000a81548160ff021916908315150217905550505050505050505050565b5f60015f8373ffffffffffffffffffffffffffffffffffffffff1673ffffffffffffffffffffffffffffffffffffffff1681526020019081526020015f205f9054906101000a900460ff169050919050565b5f60149054906101000a900460ff1615612839576040517f08c379a0000000000000000000000000000000000000000000000000000000008152600401612830906146fd565b60405180910390fd5b6002600481111561284d5761284c613ab5565b5b60015f3373ffffffffffffffffffffffffffffffffffffffff1673ffffffffffffffffffffffffffffffffffffffff1681526020019081526020015f205f9054906101000a900460ff1660048111156128a9576128a8613ab5565b5b14806129225750600360048111156128c4576128c3613ab5565b5b60015f3373ffffffffffffffffffffffffffffffffffffffff1673ffffffffffffffffffffffffffffffffffffffff1681526020019081526020015f205f9054906101000a900460ff1660048111156129205761291f613ab5565b5b145b612961576040517f08c379a000000000000000000000000000000000000000000000000000000000815260040161295890614ec2565b60405180910390fd5b5f73ffffffffffffffffffffffffffffffffffffffff1660028660405161298891906144a0565b90815260200160405180910390206001015f9054906101000a900473ffffffffffffffffffffffffffffffffffffffff1673ffffffffffffffffffffffffffffffffffffffff1603612a0f576040517f08c379a0000000000000000000000000000000000000000000000000000000008152600401612a0690614c71565b60405180910390fd5b600285604051612a1f91906144a0565b90815260200160405180910390206004015f9054906101000a900460ff1615612a7d576040517f08c379a0000000000000000000000000000000000000000000000000000000008152600401612a7490614f2a565b60405180910390fd5b5f8383604051602001612a91929190614ded565b60405160208183030381529060405280519060200120905060065f8281526020019081526020015f205f9054906101000a900460ff1615612b07576040517f08c379a0000000000000000000000000000000000000000000000000000000008152600401612afe90614e5a565b60405180910390fd5b5f600287604051612b1891906144a0565b90815260200160405180910390206005018054612b34906145b3565b80601f0160208091040260200160405190810160405280929190818152602001828054612b60906145b3565b8015612bab5780601f10612b8257610100808354040283529160200191612bab565b820191905f5260205f20905b815481529060010190602001808311612b8e57829003601f168201915b505050505090505f815103612bf5576040517f08c379a0000000000000000000000000000000000000000000000000000000008152600401612bec90614f92565b60405180910390fd5b5f604051806101000160405280888152602001878152602001868152602001856003811115612c2757612c26613ab5565b5b81526020013373ffffffffffffffffffffffffffffffffffffffff1681526020015f151581526020014281526020015f67ffffffffffffffff811115612c7057612c6f6136b9565b5b604051908082528060200260200182016040528015612c9e5781602001602082028036833780820191505090505b508152509050612cae8282613320565b600160065f8581526020019081526020015f205f6101000a81548160ff0219169083151502179055505050505050505050565b612ce9613533565b600382604051612cf991906144a0565b9081526020016040518091039020604051806101000160405290815f82018054612d22906145b3565b80601f0160208091040260200160405190810160405280929190818152602001828054612d4e906145b3565b8015612d995780601f10612d7057610100808354040283529160200191612d99565b820191905f5260205f20905b815481529060010190602001808311612d7c57829003601f168201915b50505050508152602001600182018054612db2906145b3565b80601f0160208091040260200160405190810160405280929190818152602001828054612dde906145b3565b8015612e295780601f10612e0057610100808354040283529160200191612e29565b820191905f5260205f20905b815481529060010190602001808311612e0c57829003601f168201915b50505050508152602001600282018054612e42906145b3565b80601f0160208091040260200160405190810160405280929190818152602001828054612e6e906145b3565b8015612eb95780601f10612e9057610100808354040283529160200191612eb9565b820191905f5260205f20905b815481529060010190602001808311612e9c57829003601f168201915b50505050508152602001600382015f9054906101000a900473ffffffffffffffffffffffffffffffffffffffff1673ffffffffffffffffffffffffffffffffffffffff1673ffffffffffffffffffffffffffffffffffffffff1681526020016003820160149054906101000a900460ff161515151581526020016003820160159054906101000a900460ff1615151515815260200160048201805480602002602001604051908101604052809291908181526020015f905b82821015613019578382905f5260205f20018054612f8e906145b3565b80601f0160208091040260200160405190810160405280929190818152602001828054612fba906145b3565b80156130055780601f10612fdc57610100808354040283529160200191613005565b820191905f5260205f20905b815481529060010190602001808311612fe857829003601f168201915b505050505081526020019060010190612f71565b5050505081526020016005820154815250509050919050565b5f60149054906101000a900460ff1681565b6003818051602081018201805184825260208301602085012081835280955050505050505f91509050805f01805461307b906145b3565b80601f01602080910402602001604051908101604052809291908181526020018280546130a7906145b3565b80156130f25780601f106130c9576101008083540402835291602001916130f2565b820191905f5260205f20905b8154815290600101906020018083116130d557829003601f168201915b505050505090806001018054613107906145b3565b80601f0160208091040260200160405190810160405280929190818152602001828054613133906145b3565b801561317e5780601f106131555761010080835404028352916020019161317e565b820191905f5260205f20905b81548152906001019060200180831161316157829003601f168201915b505050505090806002018054613193906145b3565b80601f01602080910402602001604051908101604052809291908181526020018280546131bf906145b3565b801561320a5780601f106131e15761010080835404028352916020019161320a565b820191905f5260205f20905b8154815290600101906020018083116131ed57829003601f168201915b505050505090806003015f9054906101000a900473ffffffffffffffffffffffffffffffffffffffff16908060030160149054906101000a900460ff16908060030160159054906101000a900460ff16908060050154905087565b600883805160208101820180518482526020830160208501208183528095505050505050602052815f5260405f20602052805f5260405f205f92509250509054906101000a900460ff1681565b5f6004826040516132c391906144a0565b90815260200160405180910390205f3373ffffffffffffffffffffffffffffffffffffffff1673ffffffffffffffffffffffffffffffffffffffff1681526020019081526020015f205f9054906101000a900460ff169050919050565b5f60038360405161333191906144a0565b908152602001604051809103902090508160098460405161335291906144a0565b90815260200160405180910390205f836005015481526020019081526020015f205f820151815f019081613386919061498b565b50602082015181600101908161339c919061498b565b5060408201518160020190816133b2919061498b565b506060820151816003015f6101000a81548160ff021916908360038111156133dd576133dc613ab5565b5b021790555060808201518160030160016101000a81548173ffffffffffffffffffffffffffffffffffffffff021916908373ffffffffffffffffffffffffffffffffffffffff16021790555060a08201518160030160156101000a81548160ff02191690831515021790555060c0820151816004015560e082015181600501908051906020019061346f92919061358e565b50905050806005015f81548092919061348790614fdd565b9190505550505050565b6040518060c00160405280606081526020015f73ffffffffffffffffffffffffffffffffffffffff168152602001606081526020015f81526020015f15158152602001606081525090565b828054828255905f5260205f20908101928215613522579160200282015b82811115613521578251829081613511919061498b565b50916020019190600101906134fa565b5b50905061352f9190613615565b5090565b6040518061010001604052806060815260200160608152602001606081526020015f73ffffffffffffffffffffffffffffffffffffffff1681526020015f151581526020015f15158152602001606081526020015f81525090565b828054828255905f5260205f20908101928215613604579160200282015b82811115613603578251825f6101000a81548173ffffffffffffffffffffffffffffffffffffffff021916908373ffffffffffffffffffffffffffffffffffffffff160217905550916020019190600101906135ac565b5b5090506136119190613638565b5090565b5b80821115613634575f818161362b9190613653565b50600101613616565b5090565b5b8082111561364f575f815f905550600101613639565b5090565b50805461365f906145b3565b5f825580601f10613670575061368d565b601f0160209004905f5260205f209081019061368c9190613638565b5b50565b5f604051905090565b5f5ffd5b5f5ffd5b5f5ffd5b5f5ffd5b5f601f19601f8301169050919050565b7f4e487b71000000000000000000000000000000000000000000000000000000005f52604160045260245ffd5b6136ef826136a9565b810181811067ffffffffffffffff8211171561370e5761370d6136b9565b5b80604052505050565b5f613720613690565b905061372c82826136e6565b919050565b5f67ffffffffffffffff82111561374b5761374a6136b9565b5b613754826136a9565b9050602081019050919050565b828183375f83830152505050565b5f61378161377c84613731565b613717565b90508281526020810184848401111561379d5761379c6136a5565b5b6137a8848285613761565b509392505050565b5f82601f8301126137c4576137c36136a1565b5b81356137d484826020860161376f565b91505092915050565b5f73ffffffffffffffffffffffffffffffffffffffff82169050919050565b5f613806826137dd565b9050919050565b613816816137fc565b8114613820575f5ffd5b50565b5f813590506138318161380d565b92915050565b5f5f6040838503121561384d5761384c613699565b5b5f83013567ffffffffffffffff81111561386a5761386961369d565b5b613876858286016137b0565b925050602061388785828601613823565b9150509250929050565b5f8115159050919050565b6138a581613891565b82525050565b5f6020820190506138be5f83018461389c565b92915050565b5f819050919050565b6138d6816138c4565b81146138e0575f5ffd5b50565b5f813590506138f1816138cd565b92915050565b5f5f6040838503121561390d5761390c613699565b5b5f83013567ffffffffffffffff81111561392a5761392961369d565b5b613936858286016137b0565b9250506020613947858286016138e3565b9150509250929050565b5f6020828403121561396657613965613699565b5b5f82013567ffffffffffffffff8111156139835761398261369d565b5b61398f848285016137b0565b91505092915050565b5f81519050919050565b5f82825260208201905092915050565b8281835e5f83830152505050565b5f6139ca82613998565b6139d481856139a2565b93506139e48185602086016139b2565b6139ed816136a9565b840191505092915050565b613a01816137fc565b82525050565b613a10816138c4565b82525050565b5f60c0820190508181035f830152613a2e81896139c0565b9050613a3d60208301886139f8565b8181036040830152613a4f81876139c0565b9050613a5e6060830186613a07565b613a6b608083018561389c565b81810360a0830152613a7d81846139c0565b9050979650505050505050565b5f60208284031215613a9f57613a9e613699565b5b5f613aac84828501613823565b91505092915050565b7f4e487b71000000000000000000000000000000000000000000000000000000005f52602160045260245ffd5b60058110613af357613af2613ab5565b5b50565b5f819050613b0382613ae2565b919050565b5f613b1282613af6565b9050919050565b613b2281613b08565b82525050565b5f602082019050613b3b5f830184613b19565b92915050565b60048110613b5257613b51613ab5565b5b50565b5f819050613b6282613b41565b919050565b5f613b7182613b55565b9050919050565b613b8181613b67565b82525050565b5f60e0820190508181035f830152613b9f818a6139c0565b90508181036020830152613bb381896139c0565b90508181036040830152613bc781886139c0565b9050613bd66060830187613b78565b613be360808301866139f8565b613bf060a083018561389c565b613bfd60c0830184613a07565b98975050505050505050565b5f5f60408385031215613c1f57613c1e613699565b5b5f83013567ffffffffffffffff811115613c3c57613c3b61369d565b5b613c48858286016137b0565b925050602083013567ffffffffffffffff811115613c6957613c6861369d565b5b613c75858286016137b0565b9150509250929050565b60058110613c8b575f5ffd5b50565b5f81359050613c9c81613c7f565b92915050565b5f5f60408385031215613cb857613cb7613699565b5b5f613cc585828601613823565b9250506020613cd685828601613c8e565b9150509250929050565b5f602082019050613cf35f8301846139f8565b92915050565b5f5f5f60608486031215613d1057613d0f613699565b5b5f84013567ffffffffffffffff811115613d2d57613d2c61369d565b5b613d39868287016137b0565b9350506020613d4a86828701613823565b9250506040613d5b86828701613c8e565b9150509250925092565b5f82825260208201905092915050565b5f613d7f82613998565b613d898185613d65565b9350613d998185602086016139b2565b613da2816136a9565b840191505092915050565b613db6816137fc565b82525050565b613dc5816138c4565b82525050565b613dd481613891565b82525050565b5f60c083015f8301518482035f860152613df48282613d75565b9150506020830151613e096020860182613dad565b5060408301518482036040860152613e218282613d75565b9150506060830151613e366060860182613dbc565b506080830151613e496080860182613dcb565b5060a083015184820360a0860152613e618282613d75565b9150508091505092915050565b5f6020820190508181035f830152613e868184613dda565b905092915050565b5f819050919050565b613ea081613e8e565b8114613eaa575f5ffd5b50565b5f81359050613ebb81613e97565b92915050565b5f60208284031215613ed657613ed5613699565b5b5f613ee384828501613ead565b91505092915050565b5f67ffffffffffffffff821115613f0657613f056136b9565b5b602082029050602081019050919050565b5f5ffd5b5f613f2d613f2884613eec565b613717565b90508083825260208201905060208402830185811115613f5057613f4f613f17565b5b835b81811015613f9757803567ffffffffffffffff811115613f7557613f746136a1565b5b808601613f8289826137b0565b85526020850194505050602081019050613f52565b5050509392505050565b5f82601f830112613fb557613fb46136a1565b5b8135613fc5848260208601613f1b565b91505092915050565b5f5f5f5f5f60a08688031215613fe757613fe6613699565b5b5f86013567ffffffffffffffff8111156140045761400361369d565b5b614010888289016137b0565b955050602086013567ffffffffffffffff8111156140315761403061369d565b5b61403d888289016137b0565b945050604086013567ffffffffffffffff81111561405e5761405d61369d565b5b61406a888289016137b0565b935050606086013567ffffffffffffffff81111561408b5761408a61369d565b5b614097888289016137b0565b925050608086013567ffffffffffffffff8111156140b8576140b761369d565b5b6140c488828901613fa1565b9150509295509295909350565b600481106140dd575f5ffd5b50565b5f813590506140ee816140d1565b92915050565b5f5f5f5f5f60a0868803121561410d5761410c613699565b5b5f86013567ffffffffffffffff81111561412a5761412961369d565b5b614136888289016137b0565b955050602086013567ffffffffffffffff8111156141575761415661369d565b5b614163888289016137b0565b945050604086013567ffffffffffffffff8111156141845761418361369d565b5b614190888289016137b0565b935050606086013567ffffffffffffffff8111156141b1576141b061369d565b5b6141bd888289016137b0565b92505060806141ce888289016140e0565b9150509295509295909350565b5f81519050919050565b5f82825260208201905092915050565b5f819050602082019050919050565b5f61420f8383613d75565b905092915050565b5f602082019050919050565b5f61422d826141db565b61423781856141e5565b935083602082028501614249856141f5565b805f5b8581101561428457848403895281516142658582614204565b945061427083614217565b925060208a0199505060018101905061424c565b50829750879550505050505092915050565b5f61010083015f8301518482035f8601526142b18282613d75565b915050602083015184820360208601526142cb8282613d75565b915050604083015184820360408601526142e58282613d75565b91505060608301516142fa6060860182613dad565b50608083015161430d6080860182613dcb565b5060a083015161432060a0860182613dcb565b5060c083015184820360c08601526143388282614223565b91505060e083015161434d60e0860182613dbc565b508091505092915050565b5f6020820190508181035f8301526143708184614296565b905092915050565b5f60e0820190508181035f830152614390818a6139c0565b905081810360208301526143a481896139c0565b905081810360408301526143b881886139c0565b90506143c760608301876139f8565b6143d4608083018661389c565b6143e160a083018561389c565b6143ee60c0830184613a07565b98975050505050505050565b5f5f5f6060848603121561441157614410613699565b5b5f84013567ffffffffffffffff81111561442e5761442d61369d565b5b61443a868287016137b0565b935050602061444b868287016138e3565b925050604061445c86828701613823565b9150509250925092565b5f81905092915050565b5f61447a82613998565b6144848185614466565b93506144948185602086016139b2565b80840191505092915050565b5f6144ab8284614470565b915081905092915050565b7f4e6f742061737369676e656420746f20636173650000000000000000000000005f82015250565b5f6144ea6014836139a2565b91506144f5826144b6565b602082019050919050565b5f6020820190508181035f830152614517816144de565b9050919050565b7f496e76616c696420696e646578000000000000000000000000000000000000005f82015250565b5f614552600d836139a2565b915061455d8261451e565b602082019050919050565b5f6020820190508181035f83015261457f81614546565b9050919050565b7f4e487b71000000000000000000000000000000000000000000000000000000005f52602260045260245ffd5b5f60028204905060018216806145ca57607f821691505b6020821081036145dd576145dc614586565b5b50919050565b7f4f6e6c7920436f757274000000000000000000000000000000000000000000005f82015250565b5f614617600a836139a2565b9150614622826145e3565b602082019050919050565b5f6020820190508181035f8301526146448161460b565b9050919050565b7f4e6f74207365616c0000000000000000000000000000000000000000000000005f82015250565b5f61467f6008836139a2565b915061468a8261464b565b602082019050919050565b5f6020820190508181035f8301526146ac81614673565b9050919050565b7f53797374656d20696e20656d657267656e6379206c6f636b00000000000000005f82015250565b5f6146e76018836139a2565b91506146f2826146b3565b602082019050919050565b5f6020820190508181035f830152614714816146db565b9050919050565b7f556e617574686f72697a656420726f6c650000000000000000000000000000005f82015250565b5f61474f6011836139a2565b915061475a8261471b565b602082019050919050565b5f6020820190508181035f83015261477c81614743565b9050919050565b7f46495220657869737473000000000000000000000000000000000000000000005f82015250565b5f6147b7600a836139a2565b91506147c282614783565b602082019050919050565b5f6020820190508181035f8301526147e4816147ab565b9050919050565b5f819050815f5260205f209050919050565b5f6020601f8301049050919050565b5f82821b905092915050565b5f600883026148477fffffffffffffffffffffffffffffffffffffffffffffffffffffffffffffffff8261480c565b614851868361480c565b95508019841693508086168417925050509392505050565b5f819050919050565b5f61488c614887614882846138c4565b614869565b6138c4565b9050919050565b5f819050919050565b6148a583614872565b6148b96148b182614893565b848454614818565b825550505050565b5f5f905090565b6148d06148c1565b6148db81848461489c565b505050565b5b818110156148fe576148f35f826148c8565b6001810190506148e1565b5050565b601f82111561494357614914816147eb565b61491d846147fd565b8101602085101561492c578190505b614940614938856147fd565b8301826148e0565b50505b505050565b5f82821c905092915050565b5f6149635f1984600802614948565b1980831691505092915050565b5f61497b8383614954565b9150826002028217905092915050565b61499482613998565b67ffffffffffffffff8111156149ad576149ac6136b9565b5b6149b782546145b3565b6149c2828285614902565b5f60209050601f8311600181146149f3575f84156149e1578287015190505b6149eb8582614970565b865550614a52565b601f198416614a01866147eb565b5f5b82811015614a2857848901518255600182019150602085019450602081019050614a03565b86831015614a455784890151614a41601f891682614954565b8355505b6001600288020188555050505b505050505050565b7f496e76616c696420726f6c6500000000000000000000000000000000000000005f82015250565b5f614a8e600c836139a2565b9150614a9982614a5a565b602082019050919050565b5f6020820190508181035f830152614abb81614a82565b9050919050565b7f4e487b71000000000000000000000000000000000000000000000000000000005f52603260045260245ffd5b7f416c726561647920636f6e6669726d65640000000000000000000000000000005f82015250565b5f614b236011836139a2565b9150614b2e82614aef565b602082019050919050565b5f6020820190508181035f830152614b5081614b17565b9050919050565b7f53656c662d636f6e6669726d6174696f6e2064656e69656400000000000000005f82015250565b5f614b8b6018836139a2565b9150614b9682614b57565b602082019050919050565b5f6020820190508181035f830152614bb881614b7f565b9050919050565b7f43617365206578697374730000000000000000000000000000000000000000005f82015250565b5f614bf3600b836139a2565b9150614bfe82614bbf565b602082019050919050565b5f6020820190508181035f830152614c2081614be7565b9050919050565b7f464952206e6f7420666f756e64000000000000000000000000000000000000005f82015250565b5f614c5b600d836139a2565b9150614c6682614c27565b602082019050919050565b5f6020820190508181035f830152614c8881614c4f565b9050919050565b7f416c72656164792070726f6d6f746564000000000000000000000000000000005f82015250565b5f614cc36010836139a2565b9150614cce82614c8f565b602082019050919050565b5f6020820190508181035f830152614cf081614cb7565b9050919050565b7f43617365206e6f74206f70656e000000000000000000000000000000000000005f82015250565b5f614d2b600d836139a2565b9150614d3682614cf7565b602082019050919050565b5f6020820190508181035f830152614d5881614d1f565b9050919050565b7f556e617574686f72697a656420726f6c6520746f207375626d697420657669645f8201527f656e636500000000000000000000000000000000000000000000000000000000602082015250565b5f614db96024836139a2565b9150614dc482614d5f565b604082019050919050565b5f6020820190508181035f830152614de681614dad565b9050919050565b5f614df88285614470565b9150614e048284614470565b91508190509392505050565b7f4475706c69636174652065766964656e636500000000000000000000000000005f82015250565b5f614e446012836139a2565b9150614e4f82614e10565b602082019050919050565b5f6020820190508181035f830152614e7181614e38565b9050919050565b7f556e617574686f72697a656400000000000000000000000000000000000000005f82015250565b5f614eac600c836139a2565b9150614eb782614e78565b602082019050919050565b5f6020820190508181035f830152614ed981614ea0565b9050919050565b7f4649522070726f6d6f74656400000000000000000000000000000000000000005f82015250565b5f614f14600c836139a2565b9150614f1f82614ee0565b602082019050919050565b5f6020820190508181035f830152614f4181614f08565b9050919050565b7f43617365206e6f74206173736f636961746564000000000000000000000000005f82015250565b5f614f7c6013836139a2565b9150614f8782614f48565b602082019050919050565b5f6020820190508181035f830152614fa981614f70565b9050919050565b7f4e487b71000000000000000000000000000000000000000000000000000000005f52601160045260245ffd5b5f614fe7826138c4565b91507fffffffffffffffffffffffffffffffffffffffffffffffffffffffffffffffff820361501957615018614fb0565b5b60018201905091905056fea26469706673582212202f4fa243675ecf5bb8c844aadf29e611fee33b612d40f1679de49780c90bd50364736f6c634300081d0033",
					"opcodes": "PUSH1 0x80 PUSH1 0x40 MSTORE CALLVALUE DUP1 ISZERO PUSH1 0xE JUMPI PUSH0 PUSH0 REVERT JUMPDEST POP CALLER PUSH0 PUSH0 PUSH2 0x100 EXP DUP2 SLOAD DUP2 PUSH20 0xFFFFFFFFFFFFFFFFFFFFFFFFFFFFFFFFFFFFFFFF MUL NOT AND SWAP1 DUP4 PUSH20 0xFFFFFFFFFFFFFFFFFFFFFFFFFFFFFFFFFFFFFFFF AND MUL OR SWAP1 SSTORE POP PUSH1 0x1 DUP1 PUSH0 CALLER PUSH20 0xFFFFFFFFFFFFFFFFFFFFFFFFFFFFFFFFFFFFFFFF AND PUSH20 0xFFFFFFFFFFFFFFFFFFFFFFFFFFFFFFFFFFFFFFFF AND DUP2 MSTORE PUSH1 0x20 ADD SWAP1 DUP2 MSTORE PUSH1 0x20 ADD PUSH0 KECCAK256 PUSH0 PUSH2 0x100 EXP DUP2 SLOAD DUP2 PUSH1 0xFF MUL NOT AND SWAP1 DUP4 PUSH1 0x4 DUP2 GT ISZERO PUSH1 0xAA JUMPI PUSH1 0xA9 PUSH1 0xB3 JUMP JUMPDEST JUMPDEST MUL OR SWAP1 SSTORE POP PUSH1 0xE0 JUMP JUMPDEST PUSH32 0x4E487B7100000000000000000000000000000000000000000000000000000000 PUSH0 MSTORE PUSH1 0x21 PUSH1 0x4 MSTORE PUSH1 0x24 PUSH0 REVERT JUMPDEST PUSH2 0x505A DUP1 PUSH2 0xED PUSH0 CODECOPY PUSH0 RETURN INVALID PUSH1 0x80 PUSH1 0x40 MSTORE CALLVALUE DUP1 ISZERO PUSH2 0xF JUMPI PUSH0 PUSH0 REVERT JUMPDEST POP PUSH1 0x4 CALLDATASIZE LT PUSH2 0x1A6 JUMPI PUSH0 CALLDATALOAD PUSH1 0xE0 SHR DUP1 PUSH4 0x96853B85 GT PUSH2 0xF7 JUMPI DUP1 PUSH4 0xCBBFE1FC GT PUSH2 0x95 JUMPI DUP1 PUSH4 0xD77BDF97 GT PUSH2 0x6F JUMPI DUP1 PUSH4 0xD77BDF97 EQ PUSH2 0x4F1 JUMPI DUP1 PUSH4 0xDF965829 EQ PUSH2 0x50F JUMPI DUP1 PUSH4 0xF47DBF0D EQ PUSH2 0x545 JUMPI DUP1 PUSH4 0xF6E715DB EQ PUSH2 0x575 JUMPI PUSH2 0x1A6 JUMP JUMPDEST DUP1 PUSH4 0xCBBFE1FC EQ PUSH2 0x475 JUMPI DUP1 PUSH4 0xD235AF82 EQ PUSH2 0x4A5 JUMPI DUP1 PUSH4 0xD4E06826 EQ PUSH2 0x4C1 JUMPI PUSH2 0x1A6 JUMP JUMPDEST DUP1 PUSH4 0xA23140D2 GT PUSH2 0xD1 JUMPI DUP1 PUSH4 0xA23140D2 EQ PUSH2 0x3DD JUMPI DUP1 PUSH4 0xA5FD3618 EQ PUSH2 0x40D JUMPI DUP1 PUSH4 0xB934669F EQ PUSH2 0x43D JUMPI DUP1 PUSH4 0xC0C0BD28 EQ PUSH2 0x459 JUMPI PUSH2 0x1A6 JUMP JUMPDEST DUP1 PUSH4 0x96853B85 EQ PUSH2 0x361 JUMPI DUP1 PUSH4 0x9D8D2A49 EQ PUSH2 0x391 JUMPI DUP1 PUSH4 0x9DC17586 EQ PUSH2 0x3AD JUMPI PUSH2 0x1A6 JUMP JUMPDEST DUP1 PUSH4 0x6FA81F89 GT PUSH2 0x164 JUMPI DUP1 PUSH4 0x832E943F GT PUSH2 0x13E JUMPI DUP1 PUSH4 0x832E943F EQ PUSH2 0x2EF JUMPI DUP1 PUSH4 0x8DA5CB5B EQ PUSH2 0x30B JUMPI DUP1 PUSH4 0x90712D6A EQ PUSH2 0x329 JUMPI DUP1 PUSH4 0x95D95A60 EQ PUSH2 0x345 JUMPI PUSH2 0x1A6 JUMP JUMPDEST DUP1 PUSH4 0x6FA81F89 EQ PUSH2 0x2AD JUMPI DUP1 PUSH4 0x78AC0CAF EQ PUSH2 0x2B7 JUMPI DUP1 PUSH4 0x79C7FDD3 EQ PUSH2 0x2D3 JUMPI PUSH2 0x1A6 JUMP JUMPDEST DUP1 PUSH3 0xA81646 EQ PUSH2 0x1AA JUMPI DUP1 PUSH4 0x871FD94 EQ PUSH2 0x1DA JUMPI DUP1 PUSH4 0x2A8D05D8 EQ PUSH2 0x1F6 JUMPI DUP1 PUSH4 0x3E6A1A4F EQ PUSH2 0x22B JUMPI DUP1 PUSH4 0x4966A761 EQ PUSH2 0x247 JUMPI DUP1 PUSH4 0x5DF512EB EQ PUSH2 0x277 JUMPI JUMPDEST PUSH0 PUSH0 REVERT JUMPDEST PUSH2 0x1C4 PUSH1 0x4 DUP1 CALLDATASIZE SUB DUP2 ADD SWAP1 PUSH2 0x1BF SWAP2 SWAP1 PUSH2 0x3837 JUMP JUMPDEST PUSH2 0x5A5 JUMP JUMPDEST PUSH1 0x40 MLOAD PUSH2 0x1D1 SWAP2 SWAP1 PUSH2 0x38AB JUMP JUMPDEST PUSH1 0x40 MLOAD DUP1 SWAP2 SUB SWAP1 RETURN JUMPDEST PUSH2 0x1F4 PUSH1 0x4 DUP1 CALLDATASIZE SUB DUP2 ADD SWAP1 PUSH2 0x1EF SWAP2 SWAP1 PUSH2 0x38F7 JUMP JUMPDEST PUSH2 0x5E7 JUMP JUMPDEST STOP JUMPDEST PUSH2 0x210 PUSH1 0x4 DUP1 CALLDATASIZE SUB DUP2 ADD SWAP1 PUSH2 0x20B SWAP2 SWAP1 PUSH2 0x3951 JUMP JUMPDEST PUSH2 0x829 JUMP JUMPDEST PUSH1 0x40 MLOAD PUSH2 0x222 SWAP7 SWAP6 SWAP5 SWAP4 SWAP3 SWAP2 SWAP1 PUSH2 0x3A16 JUMP JUMPDEST PUSH1 0x40 MLOAD DUP1 SWAP2 SUB SWAP1 RETURN JUMPDEST PUSH2 0x245 PUSH1 0x4 DUP1 CALLDATASIZE SUB DUP2 ADD SWAP1 PUSH2 0x240 SWAP2 SWAP1 PUSH2 0x3951 JUMP JUMPDEST PUSH2 0xA36 JUMP JUMPDEST STOP JUMPDEST PUSH2 0x261 PUSH1 0x4 DUP1 CALLDATASIZE SUB DUP2 ADD SWAP1 PUSH2 0x25C SWAP2 SWAP1 PUSH2 0x3A8A JUMP JUMPDEST PUSH2 0xBCA JUMP JUMPDEST PUSH1 0x40 MLOAD PUSH2 0x26E SWAP2 SWAP1 PUSH2 0x3B28 JUMP JUMPDEST PUSH1 0x40 MLOAD DUP1 SWAP2 SUB SWAP1 RETURN JUMPDEST PUSH2 0x291 PUSH1 0x4 DUP1 CALLDATASIZE SUB DUP2 ADD SWAP1 PUSH2 0x28C SWAP2 SWAP1 PUSH2 0x38F7 JUMP JUMPDEST PUSH2 0xBE7 JUMP JUMPDEST PUSH1 0x40 MLOAD PUSH2 0x2A4 SWAP8 SWAP7 SWAP6 SWAP5 SWAP4 SWAP3 SWAP2 SWAP1 PUSH2 0x3B87 JUMP JUMPDEST PUSH1 0x40 MLOAD DUP1 SWAP2 SUB SWAP1 RETURN JUMPDEST PUSH2 0x2B5 PUSH2 0xE13 JUMP JUMPDEST STOP JUMPDEST PUSH2 0x2D1 PUSH1 0x4 DUP1 CALLDATASIZE SUB DUP2 ADD SWAP1 PUSH2 0x2CC SWAP2 SWAP1 PUSH2 0x3C09 JUMP JUMPDEST PUSH2 0xEED JUMP JUMPDEST STOP JUMPDEST PUSH2 0x2ED PUSH1 0x4 DUP1 CALLDATASIZE SUB DUP2 ADD SWAP1 PUSH2 0x2E8 SWAP2 SWAP1 PUSH2 0x3CA2 JUMP JUMPDEST PUSH2 0x11C3 JUMP JUMPDEST STOP JUMPDEST PUSH2 0x309 PUSH1 0x4 DUP1 CALLDATASIZE SUB DUP2 ADD SWAP1 PUSH2 0x304 SWAP2 SWAP1 PUSH2 0x3951 JUMP JUMPDEST PUSH2 0x1341 JUMP JUMPDEST STOP JUMPDEST PUSH2 0x313 PUSH2 0x1540 JUMP JUMPDEST PUSH1 0x40 MLOAD PUSH2 0x320 SWAP2 SWAP1 PUSH2 0x3CE0 JUMP JUMPDEST PUSH1 0x40 MLOAD DUP1 SWAP2 SUB SWAP1 RETURN JUMPDEST PUSH2 0x343 PUSH1 0x4 DUP1 CALLDATASIZE SUB DUP2 ADD SWAP1 PUSH2 0x33E SWAP2 SWAP1 PUSH2 0x3951 JUMP JUMPDEST PUSH2 0x1564 JUMP JUMPDEST STOP JUMPDEST PUSH2 0x35F PUSH1 0x4 DUP1 CALLDATASIZE SUB DUP2 ADD SWAP1 PUSH2 0x35A SWAP2 SWAP1 PUSH2 0x3CF9 JUMP JUMPDEST PUSH2 0x1651 JUMP JUMPDEST STOP JUMPDEST PUSH2 0x37B PUSH1 0x4 DUP1 CALLDATASIZE SUB DUP2 ADD SWAP1 PUSH2 0x376 SWAP2 SWAP1 PUSH2 0x3951 JUMP JUMPDEST PUSH2 0x18B7 JUMP JUMPDEST PUSH1 0x40 MLOAD PUSH2 0x388 SWAP2 SWAP1 PUSH2 0x3E6E JUMP JUMPDEST PUSH1 0x40 MLOAD DUP1 SWAP2 SUB SWAP1 RETURN JUMPDEST PUSH2 0x3AB PUSH1 0x4 DUP1 CALLDATASIZE SUB DUP2 ADD SWAP1 PUSH2 0x3A6 SWAP2 SWAP1 PUSH2 0x38F7 JUMP JUMPDEST PUSH2 0x1B17 JUMP JUMPDEST STOP JUMPDEST PUSH2 0x3C7 PUSH1 0x4 DUP1 CALLDATASIZE SUB DUP2 ADD SWAP1 PUSH2 0x3C2 SWAP2 SWAP1 PUSH2 0x3EC1 JUMP JUMPDEST PUSH2 0x1DCB JUMP JUMPDEST PUSH1 0x40 MLOAD PUSH2 0x3D4 SWAP2 SWAP1 PUSH2 0x38AB JUMP JUMPDEST PUSH1 0x40 MLOAD DUP1 SWAP2 SUB SWAP1 RETURN JUMPDEST PUSH2 0x3F7 PUSH1 0x4 DUP1 CALLDATASIZE SUB DUP2 ADD SWAP1 PUSH2 0x3F2 SWAP2 SWAP1 PUSH2 0x3837 JUMP JUMPDEST PUSH2 0x1DE8 JUMP JUMPDEST PUSH1 0x40 MLOAD PUSH2 0x404 SWAP2 SWAP1 PUSH2 0x3B28 JUMP JUMPDEST PUSH1 0x40 MLOAD DUP1 SWAP2 SUB SWAP1 RETURN JUMPDEST PUSH2 0x427 PUSH1 0x4 DUP1 CALLDATASIZE SUB DUP2 ADD SWAP1 PUSH2 0x422 SWAP2 SWAP1 PUSH2 0x38F7 JUMP JUMPDEST PUSH2 0x1E2A JUMP JUMPDEST PUSH1 0x40 MLOAD PUSH2 0x434 SWAP2 SWAP1 PUSH2 0x3CE0 JUMP JUMPDEST PUSH1 0x40 MLOAD DUP1 SWAP2 SUB SWAP1 RETURN JUMPDEST PUSH2 0x457 PUSH1 0x4 DUP1 CALLDATASIZE SUB DUP2 ADD SWAP1 PUSH2 0x452 SWAP2 SWAP1 PUSH2 0x3FCE JUMP JUMPDEST PUSH2 0x1E8A JUMP JUMPDEST STOP JUMPDEST PUSH2 0x473 PUSH1 0x4 DUP1 CALLDATASIZE SUB DUP2 ADD SWAP1 PUSH2 0x46E SWAP2 SWAP1 PUSH2 0x40F4 JUMP JUMPDEST PUSH2 0x2337 JUMP JUMPDEST STOP JUMPDEST PUSH2 0x48F PUSH1 0x4 DUP1 CALLDATASIZE SUB DUP2 ADD SWAP1 PUSH2 0x48A SWAP2 SWAP1 PUSH2 0x3A8A JUMP JUMPDEST PUSH2 0x2798 JUMP JUMPDEST PUSH1 0x40 MLOAD PUSH2 0x49C SWAP2 SWAP1 PUSH2 0x3B28 JUMP JUMPDEST PUSH1 0x40 MLOAD DUP1 SWAP2 SUB SWAP1 RETURN JUMPDEST PUSH2 0x4BF PUSH1 0x4 DUP1 CALLDATASIZE SUB DUP2 ADD SWAP1 PUSH2 0x4BA SWAP2 SWAP1 PUSH2 0x40F4 JUMP JUMPDEST PUSH2 0x27EA JUMP JUMPDEST STOP JUMPDEST PUSH2 0x4DB PUSH1 0x4 DUP1 CALLDATASIZE SUB DUP2 ADD SWAP1 PUSH2 0x4D6 SWAP2 SWAP1 PUSH2 0x3951 JUMP JUMPDEST PUSH2 0x2CE1 JUMP JUMPDEST PUSH1 0x40 MLOAD PUSH2 0x4E8 SWAP2 SWAP1 PUSH2 0x4358 JUMP JUMPDEST PUSH1 0x40 MLOAD DUP1 SWAP2 SUB SWAP1 RETURN JUMPDEST PUSH2 0x4F9 PUSH2 0x3032 JUMP JUMPDEST PUSH1 0x40 MLOAD PUSH2 0x506 SWAP2 SWAP1 PUSH2 0x38AB JUMP JUMPDEST PUSH1 0x40 MLOAD DUP1 SWAP2 SUB SWAP1 RETURN JUMPDEST PUSH2 0x529 PUSH1 0x4 DUP1 CALLDATASIZE SUB DUP2 ADD SWAP1 PUSH2 0x524 SWAP2 SWAP1 PUSH2 0x3951 JUMP JUMPDEST PUSH2 0x3044 JUMP JUMPDEST PUSH1 0x40 MLOAD PUSH2 0x53C SWAP8 SWAP7 SWAP6 SWAP5 SWAP4 SWAP3 SWAP2 SWAP1 PUSH2 0x4378 JUMP JUMPDEST PUSH1 0x40 MLOAD DUP1 SWAP2 SUB SWAP1 RETURN JUMPDEST PUSH2 0x55F PUSH1 0x4 DUP1 CALLDATASIZE SUB DUP2 ADD SWAP1 PUSH2 0x55A SWAP2 SWAP1 PUSH2 0x43FA JUMP JUMPDEST PUSH2 0x3265 JUMP JUMPDEST PUSH1 0x40 MLOAD PUSH2 0x56C SWAP2 SWAP1 PUSH2 0x38AB JUMP JUMPDEST PUSH1 0x40 MLOAD DUP1 SWAP2 SUB SWAP1 RETURN JUMPDEST PUSH2 0x58F PUSH1 0x4 DUP1 CALLDATASIZE SUB DUP2 ADD SWAP1 PUSH2 0x58A SWAP2 SWAP1 PUSH2 0x3951 JUMP JUMPDEST PUSH2 0x32B2 JUMP JUMPDEST PUSH1 0x40 MLOAD PUSH2 0x59C SWAP2 SWAP1 PUSH2 0x3B28 JUMP JUMPDEST PUSH1 0x40 MLOAD DUP1 SWAP2 SUB SWAP1 RETURN JUMPDEST PUSH1 0x5 DUP3 DUP1 MLOAD PUSH1 0x20 DUP2 ADD DUP3 ADD DUP1 MLOAD DUP5 DUP3 MSTORE PUSH1 0x20 DUP4 ADD PUSH1 0x20 DUP6 ADD KECCAK256 DUP2 DUP4 MSTORE DUP1 SWAP6 POP POP POP POP POP POP PUSH1 0x20 MSTORE DUP1 PUSH0 MSTORE PUSH1 0x40 PUSH0 KECCAK256 PUSH0 SWAP2 POP SWAP2 POP SWAP1 SLOAD SWAP1 PUSH2 0x100 EXP SWAP1 DIV PUSH1 0xFF AND DUP2 JUMP JUMPDEST DUP2 PUSH0 PUSH1 0x4 DUP2 GT ISZERO PUSH2 0x5FB JUMPI PUSH2 0x5FA PUSH2 0x3AB5 JUMP JUMPDEST JUMPDEST PUSH1 0x4 DUP3 PUSH1 0x40 MLOAD PUSH2 0x60B SWAP2 SWAP1 PUSH2 0x44A0 JUMP JUMPDEST SWAP1 DUP2 MSTORE PUSH1 0x20 ADD PUSH1 0x40 MLOAD DUP1 SWAP2 SUB SWAP1 KECCAK256 PUSH0 CALLER PUSH20 0xFFFFFFFFFFFFFFFFFFFFFFFFFFFFFFFFFFFFFFFF AND PUSH20 0xFFFFFFFFFFFFFFFFFFFFFFFFFFFFFFFFFFFFFFFF AND DUP2 MSTORE PUSH1 0x20 ADD SWAP1 DUP2 MSTORE PUSH1 0x20 ADD PUSH0 KECCAK256 PUSH0 SWAP1 SLOAD SWAP1 PUSH2 0x100 EXP SWAP1 DIV PUSH1 0xFF AND PUSH1 0x4 DUP2 GT ISZERO PUSH2 0x673 JUMPI PUSH2 0x672 PUSH2 0x3AB5 JUMP JUMPDEST JUMPDEST SUB PUSH2 0x6B3 JUMPI PUSH1 0x40 MLOAD PUSH32 0x8C379A000000000000000000000000000000000000000000000000000000000 DUP2 MSTORE PUSH1 0x4 ADD PUSH2 0x6AA SWAP1 PUSH2 0x4500 JUMP JUMPDEST PUSH1 0x40 MLOAD DUP1 SWAP2 SUB SWAP1 REVERT JUMPDEST PUSH1 0x3 DUP4 PUSH1 0x40 MLOAD PUSH2 0x6C3 SWAP2 SWAP1 PUSH2 0x44A0 JUMP JUMPDEST SWAP1 DUP2 MSTORE PUSH1 0x20 ADD PUSH1 0x40 MLOAD DUP1 SWAP2 SUB SWAP1 KECCAK256 PUSH1 0x5 ADD SLOAD DUP3 LT PUSH2 0x716 JUMPI PUSH1 0x40 MLOAD PUSH32 0x8C379A000000000000000000000000000000000000000000000000000000000 DUP2 MSTORE PUSH1 0x4 ADD PUSH2 0x70D SWAP1 PUSH2 0x4568 JUMP JUMPDEST PUSH1 0x40 MLOAD DUP1 SWAP2 SUB SWAP1 REVERT JUMPDEST PUSH1 0x1 PUSH1 0x8 DUP5 PUSH1 0x40 MLOAD PUSH2 0x728 SWAP2 SWAP1 PUSH2 0x44A0 JUMP JUMPDEST SWAP1 DUP2 MSTORE PUSH1 0x20 ADD PUSH1 0x40 MLOAD DUP1 SWAP2 SUB SWAP1 KECCAK256 PUSH0 DUP5 DUP2 MSTORE PUSH1 0x20 ADD SWAP1 DUP2 MSTORE PUSH1 0x20 ADD PUSH0 KECCAK256 PUSH0 CALLER PUSH20 0xFFFFFFFFFFFFFFFFFFFFFFFFFFFFFFFFFFFFFFFF AND PUSH20 0xFFFFFFFFFFFFFFFFFFFFFFFFFFFFFFFFFFFFFFFF AND DUP2 MSTORE PUSH1 0x20 ADD SWAP1 DUP2 MSTORE PUSH1 0x20 ADD PUSH0 KECCAK256 PUSH0 PUSH2 0x100 EXP DUP2 SLOAD DUP2 PUSH1 0xFF MUL NOT AND SWAP1 DUP4 ISZERO ISZERO MUL OR SWAP1 SSTORE POP PUSH1 0x9 DUP4 PUSH1 0x40 MLOAD PUSH2 0x7A6 SWAP2 SWAP1 PUSH2 0x44A0 JUMP JUMPDEST SWAP1 DUP2 MSTORE PUSH1 0x20 ADD PUSH1 0x40 MLOAD DUP1 SWAP2 SUB SWAP1 KECCAK256 PUSH0 DUP4 DUP2 MSTORE PUSH1 0x20 ADD SWAP1 DUP2 MSTORE PUSH1 0x20 ADD PUSH0 KECCAK256 PUSH1 0x5 ADD CALLER SWAP1 DUP1 PUSH1 0x1 DUP2 SLOAD ADD DUP1 DUP3 SSTORE DUP1 SWAP2 POP POP PUSH1 0x1 SWAP1 SUB SWAP1 PUSH0 MSTORE PUSH1 0x20 PUSH0 KECCAK256 ADD PUSH0 SWAP1 SWAP2 SWAP1 SWAP2 SWAP1 SWAP2 PUSH2 0x100 EXP DUP2 SLOAD DUP2 PUSH20 0xFFFFFFFFFFFFFFFFFFFFFFFFFFFFFFFFFFFFFFFF MUL NOT AND SWAP1 DUP4 PUSH20 0xFFFFFFFFFFFFFFFFFFFFFFFFFFFFFFFFFFFFFFFF AND MUL OR SWAP1 SSTORE POP POP POP POP JUMP JUMPDEST PUSH1 0x2 DUP2 DUP1 MLOAD PUSH1 0x20 DUP2 ADD DUP3 ADD DUP1 MLOAD DUP5 DUP3 MSTORE PUSH1 0x20 DUP4 ADD PUSH1 0x20 DUP6 ADD KECCAK256 DUP2 DUP4 MSTORE DUP1 SWAP6 POP POP POP POP POP POP PUSH0 SWAP2 POP SWAP1 POP DUP1 PUSH0 ADD DUP1 SLOAD PUSH2 0x860 SWAP1 PUSH2 0x45B3 JUMP JUMPDEST DUP1 PUSH1 0x1F ADD PUSH1 0x20 DUP1 SWAP2 DIV MUL PUSH1 0x20 ADD PUSH1 0x40 MLOAD SWAP1 DUP2 ADD PUSH1 0x40 MSTORE DUP1 SWAP3 SWAP2 SWAP1 DUP2 DUP2 MSTORE PUSH1 0x20 ADD DUP3 DUP1 SLOAD PUSH2 0x88C SWAP1 PUSH2 0x45B3 JUMP JUMPDEST DUP1 ISZERO PUSH2 0x8D7 JUMPI DUP1 PUSH1 0x1F LT PUSH2 0x8AE JUMPI PUSH2 0x100 DUP1 DUP4 SLOAD DIV MUL DUP4 MSTORE SWAP2 PUSH1 0x20 ADD SWAP2 PUSH2 0x8D7 JUMP JUMPDEST DUP3 ADD SWAP2 SWAP1 PUSH0 MSTORE PUSH1 0x20 PUSH0 KECCAK256 SWAP1 JUMPDEST DUP2 SLOAD DUP2 MSTORE SWAP1 PUSH1 0x1 ADD SWAP1 PUSH1 0x20 ADD DUP1 DUP4 GT PUSH2 0x8BA JUMPI DUP3 SWAP1 SUB PUSH1 0x1F AND DUP3 ADD SWAP2 JUMPDEST POP POP POP POP POP SWAP1 DUP1 PUSH1 0x1 ADD PUSH0 SWAP1 SLOAD SWAP1 PUSH2 0x100 EXP SWAP1 DIV PUSH20 0xFFFFFFFFFFFFFFFFFFFFFFFFFFFFFFFFFFFFFFFF AND SWAP1 DUP1 PUSH1 0x2 ADD DUP1 SLOAD PUSH2 0x911 SWAP1 PUSH2 0x45B3 JUMP JUMPDEST DUP1 PUSH1 0x1F ADD PUSH1 0x20 DUP1 SWAP2 DIV MUL PUSH1 0x20 ADD PUSH1 0x40 MLOAD SWAP1 DUP2 ADD PUSH1 0x40 MSTORE DUP1 SWAP3 SWAP2 SWAP1 DUP2 DUP2 MSTORE PUSH1 0x20 ADD DUP3 DUP1 SLOAD PUSH2 0x93D SWAP1 PUSH2 0x45B3 JUMP JUMPDEST DUP1 ISZERO PUSH2 0x988 JUMPI DUP1 PUSH1 0x1F LT PUSH2 0x95F JUMPI PUSH2 0x100 DUP1 DUP4 SLOAD DIV MUL DUP4 MSTORE SWAP2 PUSH1 0x20 ADD SWAP2 PUSH2 0x988 JUMP JUMPDEST DUP3 ADD SWAP2 SWAP1 PUSH0 MSTORE PUSH1 0x20 PUSH0 KECCAK256 SWAP1 JUMPDEST DUP2 SLOAD DUP2 MSTORE SWAP1 PUSH1 0x1 ADD SWAP1 PUSH1 0x20 ADD DUP1 DUP4 GT PUSH2 0x96B JUMPI DUP3 SWAP1 SUB PUSH1 0x1F AND DUP3 ADD SWAP2 JUMPDEST POP POP POP POP POP SWAP1 DUP1 PUSH1 0x3 ADD SLOAD SWAP1 DUP1 PUSH1 0x4 ADD PUSH0 SWAP1 SLOAD SWAP1 PUSH2 0x100 EXP SWAP1 DIV PUSH1 0xFF AND SWAP1 DUP1 PUSH1 0x5 ADD DUP1 SLOAD PUSH2 0x9B5 SWAP1 PUSH2 0x45B3 JUMP JUMPDEST DUP1 PUSH1 0x1F ADD PUSH1 0x20 DUP1 SWAP2 DIV MUL PUSH1 0x20 ADD PUSH1 0x40 MLOAD SWAP1 DUP2 ADD PUSH1 0x40 MSTORE DUP1 SWAP3 SWAP2 SWAP1 DUP2 DUP2 MSTORE PUSH1 0x20 ADD DUP3 DUP1 SLOAD PUSH2 0x9E1 SWAP1 PUSH2 0x45B3 JUMP JUMPDEST DUP1 ISZERO PUSH2 0xA2C JUMPI DUP1 PUSH1 0x1F LT PUSH2 0xA03 JUMPI PUSH2 0x100 DUP1 DUP4 SLOAD DIV MUL DUP4 MSTORE SWAP2 PUSH1 0x20 ADD SWAP2 PUSH2 0xA2C JUMP JUMPDEST DUP3 ADD SWAP2 SWAP1 PUSH0 MSTORE PUSH1 0x20 PUSH0 KECCAK256 SWAP1 JUMPDEST DUP2 SLOAD DUP2 MSTORE SWAP1 PUSH1 0x1 ADD SWAP1 PUSH1 0x20 ADD DUP1 DUP4 GT PUSH2 0xA0F JUMPI DUP3 SWAP1 SUB PUSH1 0x1F AND DUP3 ADD SWAP2 JUMPDEST POP POP POP POP POP SWAP1 POP DUP7 JUMP JUMPDEST PUSH1 0x1 PUSH1 0x4 DUP2 GT ISZERO PUSH2 0xA4A JUMPI PUSH2 0xA49 PUSH2 0x3AB5 JUMP JUMPDEST JUMPDEST PUSH1 0x1 PUSH0 CALLER PUSH20 0xFFFFFFFFFFFFFFFFFFFFFFFFFFFFFFFFFFFFFFFF AND PUSH20 0xFFFFFFFFFFFFFFFFFFFFFFFFFFFFFFFFFFFFFFFF AND DUP2 MSTORE PUSH1 0x20 ADD SWAP1 DUP2 MSTORE PUSH1 0x20 ADD PUSH0 KECCAK256 PUSH0 SWAP1 SLOAD SWAP1 PUSH2 0x100 EXP SWAP1 DIV PUSH1 0xFF AND PUSH1 0x4 DUP2 GT ISZERO PUSH2 0xAA6 JUMPI PUSH2 0xAA5 PUSH2 0x3AB5 JUMP JUMPDEST JUMPDEST EQ PUSH2 0xAE6 JUMPI PUSH1 0x40 MLOAD PUSH32 0x8C379A000000000000000000000000000000000000000000000000000000000 DUP2 MSTORE PUSH1 0x4 ADD PUSH2 0xADD SWAP1 PUSH2 0x462D JUMP JUMPDEST PUSH1 0x40 MLOAD DUP1 SWAP2 SUB SWAP1 REVERT JUMPDEST PUSH1 0x3 DUP2 PUSH1 0x40 MLOAD PUSH2 0xAF6 SWAP2 SWAP1 PUSH2 0x44A0 JUMP JUMPDEST SWAP1 DUP2 MSTORE PUSH1 0x20 ADD PUSH1 0x40 MLOAD DUP1 SWAP2 SUB SWAP1 KECCAK256 PUSH1 0x3 ADD PUSH1 0x14 SWAP1 SLOAD SWAP1 PUSH2 0x100 EXP SWAP1 DIV PUSH1 0xFF AND PUSH2 0xB54 JUMPI PUSH1 0x40 MLOAD PUSH32 0x8C379A000000000000000000000000000000000000000000000000000000000 DUP2 MSTORE PUSH1 0x4 ADD PUSH2 0xB4B SWAP1 PUSH2 0x4695 JUMP JUMPDEST PUSH1 0x40 MLOAD DUP1 SWAP2 SUB SWAP1 REVERT JUMPDEST PUSH0 PUSH1 0x3 DUP3 PUSH1 0x40 MLOAD PUSH2 0xB65 SWAP2 SWAP1 PUSH2 0x44A0 JUMP JUMPDEST SWAP1 DUP2 MSTORE PUSH1 0x20 ADD PUSH1 0x40 MLOAD DUP1 SWAP2 SUB SWAP1 KECCAK256 PUSH1 0x3 ADD PUSH1 0x14 PUSH2 0x100 EXP DUP2 SLOAD DUP2 PUSH1 0xFF MUL NOT AND SWAP1 DUP4 ISZERO ISZERO MUL OR SWAP1 SSTORE POP PUSH1 0x1 PUSH1 0x3 DUP3 PUSH1 0x40 MLOAD PUSH2 0xB9F SWAP2 SWAP1 PUSH2 0x44A0 JUMP JUMPDEST SWAP1 DUP2 MSTORE PUSH1 0x20 ADD PUSH1 0x40 MLOAD DUP1 SWAP2 SUB SWAP1 KECCAK256 PUSH1 0x3 ADD PUSH1 0x15 PUSH2 0x100 EXP DUP2 SLOAD DUP2 PUSH1 0xFF MUL NOT AND SWAP1 DUP4 ISZERO ISZERO MUL OR SWAP1 SSTORE POP POP JUMP JUMPDEST PUSH1 0x1 PUSH1 0x20 MSTORE DUP1 PUSH0 MSTORE PUSH1 0x40 PUSH0 KECCAK256 PUSH0 SWAP2 POP SLOAD SWAP1 PUSH2 0x100 EXP SWAP1 DIV PUSH1 0xFF AND DUP2 JUMP JUMPDEST PUSH1 0x9 DUP3 DUP1 MLOAD PUSH1 0x20 DUP2 ADD DUP3 ADD DUP1 MLOAD DUP5 DUP3 MSTORE PUSH1 0x20 DUP4 ADD PUSH1 0x20 DUP6 ADD KECCAK256 DUP2 DUP4 MSTORE DUP1 SWAP6 POP POP POP POP POP POP PUSH1 0x20 MSTORE DUP1 PUSH0 MSTORE PUSH1 0x40 PUSH0 KECCAK256 PUSH0 SWAP2 POP SWAP2 POP POP DUP1 PUSH0 ADD DUP1 SLOAD PUSH2 0xC29 SWAP1 PUSH2 0x45B3 JUMP JUMPDEST DUP1 PUSH1 0x1F ADD PUSH1 0x20 DUP1 SWAP2 DIV MUL PUSH1 0x20 ADD PUSH1 0x40 MLOAD SWAP1 DUP2 ADD PUSH1 0x40 MSTORE DUP1 SWAP3 SWAP2 SWAP1 DUP2 DUP2 MSTORE PUSH1 0x20 ADD DUP3 DUP1 SLOAD PUSH2 0xC55 SWAP1 PUSH2 0x45B3 JUMP JUMPDEST DUP1 ISZERO PUSH2 0xCA0 JUMPI DUP1 PUSH1 0x1F LT PUSH2 0xC77 JUMPI PUSH2 0x100 DUP1 DUP4 SLOAD DIV MUL DUP4 MSTORE SWAP2 PUSH1 0x20 ADD SWAP2 PUSH2 0xCA0 JUMP JUMPDEST DUP3 ADD SWAP2 SWAP1 PUSH0 MSTORE PUSH1 0x20 PUSH0 KECCAK256 SWAP1 JUMPDEST DUP2 SLOAD DUP2 MSTORE SWAP1 PUSH1 0x1 ADD SWAP1 PUSH1 0x20 ADD DUP1 DUP4 GT PUSH2 0xC83 JUMPI DUP3 SWAP1 SUB PUSH1 0x1F AND DUP3 ADD SWAP2 JUMPDEST POP POP POP POP POP SWAP1 DUP1 PUSH1 0x1 ADD DUP1 SLOAD PUSH2 0xCB5 SWAP1 PUSH2 0x45B3 JUMP JUMPDEST DUP1 PUSH1 0x1F ADD PUSH1 0x20 DUP1 SWAP2 DIV MUL PUSH1 0x20 ADD PUSH1 0x40 MLOAD SWAP1 DUP2 ADD PUSH1 0x40 MSTORE DUP1 SWAP3 SWAP2 SWAP1 DUP2 DUP2 MSTORE PUSH1 0x20 ADD DUP3 DUP1 SLOAD PUSH2 0xCE1 SWAP1 PUSH2 0x45B3 JUMP JUMPDEST DUP1 ISZERO PUSH2 0xD2C JUMPI DUP1 PUSH1 0x1F LT PUSH2 0xD03 JUMPI PUSH2 0x100 DUP1 DUP4 SLOAD DIV MUL DUP4 MSTORE SWAP2 PUSH1 0x20 ADD SWAP2 PUSH2 0xD2C JUMP JUMPDEST DUP3 ADD SWAP2 SWAP1 PUSH0 MSTORE PUSH1 0x20 PUSH0 KECCAK256 SWAP1 JUMPDEST DUP2 SLOAD DUP2 MSTORE SWAP1 PUSH1 0x1 ADD SWAP1 PUSH1 0x20 ADD DUP1 DUP4 GT PUSH2 0xD0F JUMPI DUP3 SWAP1 SUB PUSH1 0x1F AND DUP3 ADD SWAP2 JUMPDEST POP POP POP POP POP SWAP1 DUP1 PUSH1 0x2 ADD DUP1 SLOAD PUSH2 0xD41 SWAP1 PUSH2 0x45B3 JUMP JUMPDEST DUP1 PUSH1 0x1F ADD PUSH1 0x20 DUP1 SWAP2 DIV MUL PUSH1 0x20 ADD PUSH1 0x40 MLOAD SWAP1 DUP2 ADD PUSH1 0x40 MSTORE DUP1 SWAP3 SWAP2 SWAP1 DUP2 DUP2 MSTORE PUSH1 0x20 ADD DUP3 DUP1 SLOAD PUSH2 0xD6D SWAP1 PUSH2 0x45B3 JUMP JUMPDEST DUP1 ISZERO PUSH2 0xDB8 JUMPI DUP1 PUSH1 0x1F LT PUSH2 0xD8F JUMPI PUSH2 0x100 DUP1 DUP4 SLOAD DIV MUL DUP4 MSTORE SWAP2 PUSH1 0x20 ADD SWAP2 PUSH2 0xDB8 JUMP JUMPDEST DUP3 ADD SWAP2 SWAP1 PUSH0 MSTORE PUSH1 0x20 PUSH0 KECCAK256 SWAP1 JUMPDEST DUP2 SLOAD DUP2 MSTORE SWAP1 PUSH1 0x1 ADD SWAP1 PUSH1 0x20 ADD DUP1 DUP4 GT PUSH2 0xD9B JUMPI DUP3 SWAP1 SUB PUSH1 0x1F AND DUP3 ADD SWAP2 JUMPDEST POP POP POP POP POP SWAP1 DUP1 PUSH1 0x3 ADD PUSH0 SWAP1 SLOAD SWAP1 PUSH2 0x100 EXP SWAP1 DIV PUSH1 0xFF AND SWAP1 DUP1 PUSH1 0x3 ADD PUSH1 0x1 SWAP1 SLOAD SWAP1 PUSH2 0x100 EXP SWAP1 DIV PUSH20 0xFFFFFFFFFFFFFFFFFFFFFFFFFFFFFFFFFFFFFFFF AND SWAP1 DUP1 PUSH1 0x3 ADD PUSH1 0x15 SWAP1 SLOAD SWAP1 PUSH2 0x100 EXP SWAP1 DIV PUSH1 0xFF AND SWAP1 DUP1 PUSH1 0x4 ADD SLOAD SWAP1 POP DUP8 JUMP JUMPDEST PUSH1 0x1 PUSH1 0x4 DUP2 GT ISZERO PUSH2 0xE27 JUMPI PUSH2 0xE26 PUSH2 0x3AB5 JUMP JUMPDEST JUMPDEST PUSH1 0x1 PUSH0 CALLER PUSH20 0xFFFFFFFFFFFFFFFFFFFFFFFFFFFFFFFFFFFFFFFF AND PUSH20 0xFFFFFFFFFFFFFFFFFFFFFFFFFFFFFFFFFFFFFFFF AND DUP2 MSTORE PUSH1 0x20 ADD SWAP1 DUP2 MSTORE PUSH1 0x20 ADD PUSH0 KECCAK256 PUSH0 SWAP1 SLOAD SWAP1 PUSH2 0x100 EXP SWAP1 DIV PUSH1 0xFF AND PUSH1 0x4 DUP2 GT ISZERO PUSH2 0xE83 JUMPI PUSH2 0xE82 PUSH2 0x3AB5 JUMP JUMPDEST JUMPDEST EQ PUSH2 0xEC3 JUMPI PUSH1 0x40 MLOAD PUSH32 0x8C379A000000000000000000000000000000000000000000000000000000000 DUP2 MSTORE PUSH1 0x4 ADD PUSH2 0xEBA SWAP1 PUSH2 0x462D JUMP JUMPDEST PUSH1 0x40 MLOAD DUP1 SWAP2 SUB SWAP1 REVERT JUMPDEST PUSH0 PUSH1 0x14 SWAP1 SLOAD SWAP1 PUSH2 0x100 EXP SWAP1 DIV PUSH1 0xFF AND ISZERO PUSH0 PUSH1 0x14 PUSH2 0x100 EXP DUP2 SLOAD DUP2 PUSH1 0xFF MUL NOT AND SWAP1 DUP4 ISZERO ISZERO MUL OR SWAP1 SSTORE POP JUMP JUMPDEST PUSH0 PUSH1 0x14 SWAP1 SLOAD SWAP1 PUSH2 0x100 EXP SWAP1 DIV PUSH1 0xFF AND ISZERO PUSH2 0xF3C JUMPI PUSH1 0x40 MLOAD PUSH32 0x8C379A000000000000000000000000000000000000000000000000000000000 DUP2 MSTORE PUSH1 0x4 ADD PUSH2 0xF33 SWAP1 PUSH2 0x46FD JUMP JUMPDEST PUSH1 0x40 MLOAD DUP1 SWAP2 SUB SWAP1 REVERT JUMPDEST PUSH1 0x2 DUP1 PUSH1 0x4 DUP2 GT ISZERO PUSH2 0xF51 JUMPI PUSH2 0xF50 PUSH2 0x3AB5 JUMP JUMPDEST JUMPDEST PUSH1 0x1 PUSH0 CALLER PUSH20 0xFFFFFFFFFFFFFFFFFFFFFFFFFFFFFFFFFFFFFFFF AND PUSH20 0xFFFFFFFFFFFFFFFFFFFFFFFFFFFFFFFFFFFFFFFF AND DUP2 MSTORE PUSH1 0x20 ADD SWAP1 DUP2 MSTORE PUSH1 0x20 ADD PUSH0 KECCAK256 PUSH0 SWAP1 SLOAD SWAP1 PUSH2 0x100 EXP SWAP1 DIV PUSH1 0xFF AND PUSH1 0x4 DUP2 GT ISZERO PUSH2 0xFAD JUMPI PUSH2 0xFAC PUSH2 0x3AB5 JUMP JUMPDEST JUMPDEST EQ PUSH2 0xFED JUMPI PUSH1 0x40 MLOAD PUSH32 0x8C379A000000000000000000000000000000000000000000000000000000000 DUP2 MSTORE PUSH1 0x4 ADD PUSH2 0xFE4 SWAP1 PUSH2 0x4765 JUMP JUMPDEST PUSH1 0x40 MLOAD DUP1 SWAP2 SUB SWAP1 REVERT JUMPDEST PUSH0 PUSH20 0xFFFFFFFFFFFFFFFFFFFFFFFFFFFFFFFFFFFFFFFF AND PUSH1 0x2 DUP5 PUSH1 0x40 MLOAD PUSH2 0x1014 SWAP2 SWAP1 PUSH2 0x44A0 JUMP JUMPDEST SWAP1 DUP2 MSTORE PUSH1 0x20 ADD PUSH1 0x40 MLOAD DUP1 SWAP2 SUB SWAP1 KECCAK256 PUSH1 0x1 ADD PUSH0 SWAP1 SLOAD SWAP1 PUSH2 0x100 EXP SWAP1 DIV PUSH20 0xFFFFFFFFFFFFFFFFFFFFFFFFFFFFFFFFFFFFFFFF AND PUSH20 0xFFFFFFFFFFFFFFFFFFFFFFFFFFFFFFFFFFFFFFFF AND EQ PUSH2 0x109B JUMPI PUSH1 0x40 MLOAD PUSH32 0x8C379A000000000000000000000000000000000000000000000000000000000 DUP2 MSTORE PUSH1 0x4 ADD PUSH2 0x1092 SWAP1 PUSH2 0x47CD JUMP JUMPDEST PUSH1 0x40 MLOAD DUP1 SWAP2 SUB SWAP1 REVERT JUMPDEST PUSH1 0x40 MLOAD DUP1 PUSH1 0xC0 ADD PUSH1 0x40 MSTORE DUP1 DUP5 DUP2 MSTORE PUSH1 0x20 ADD CALLER PUSH20 0xFFFFFFFFFFFFFFFFFFFFFFFFFFFFFFFFFFFFFFFF AND DUP2 MSTORE PUSH1 0x20 ADD DUP4 DUP2 MSTORE PUSH1 0x20 ADD TIMESTAMP DUP2 MSTORE PUSH1 0x20 ADD PUSH0 ISZERO ISZERO DUP2 MSTORE PUSH1 0x20 ADD PUSH1 0x40 MLOAD DUP1 PUSH1 0x20 ADD PUSH1 0x40 MSTORE DUP1 PUSH0 DUP2 MSTORE POP DUP2 MSTORE POP PUSH1 0x2 DUP5 PUSH1 0x40 MLOAD PUSH2 0x10FE SWAP2 SWAP1 PUSH2 0x44A0 JUMP JUMPDEST SWAP1 DUP2 MSTORE PUSH1 0x20 ADD PUSH1 0x40 MLOAD DUP1 SWAP2 SUB SWAP1 KECCAK256 PUSH0 DUP3 ADD MLOAD DUP2 PUSH0 ADD SWAP1 DUP2 PUSH2 0x111F SWAP2 SWAP1 PUSH2 0x498B JUMP JUMPDEST POP PUSH1 0x20 DUP3 ADD MLOAD DUP2 PUSH1 0x1 ADD PUSH0 PUSH2 0x100 EXP DUP2 SLOAD DUP2 PUSH20 0xFFFFFFFFFFFFFFFFFFFFFFFFFFFFFFFFFFFFFFFF MUL NOT AND SWAP1 DUP4 PUSH20 0xFFFFFFFFFFFFFFFFFFFFFFFFFFFFFFFFFFFFFFFF AND MUL OR SWAP1 SSTORE POP PUSH1 0x40 DUP3 ADD MLOAD DUP2 PUSH1 0x2 ADD SWAP1 DUP2 PUSH2 0x117B SWAP2 SWAP1 PUSH2 0x498B JUMP JUMPDEST POP PUSH1 0x60 DUP3 ADD MLOAD DUP2 PUSH1 0x3 ADD SSTORE PUSH1 0x80 DUP3 ADD MLOAD DUP2 PUSH1 0x4 ADD PUSH0 PUSH2 0x100 EXP DUP2 SLOAD DUP2 PUSH1 0xFF MUL NOT AND SWAP1 DUP4 ISZERO ISZERO MUL OR SWAP1 SSTORE POP PUSH1 0xA0 DUP3 ADD MLOAD DUP2 PUSH1 0x5 ADD SWAP1 DUP2 PUSH2 0x11BA SWAP2 SWAP1 PUSH2 0x498B JUMP JUMPDEST POP SWAP1 POP POP POP POP POP JUMP JUMPDEST PUSH1 0x1 PUSH1 0x4 DUP2 GT ISZERO PUSH2 0x11D7 JUMPI PUSH2 0x11D6 PUSH2 0x3AB5 JUMP JUMPDEST JUMPDEST PUSH1 0x1 PUSH0 CALLER PUSH20 0xFFFFFFFFFFFFFFFFFFFFFFFFFFFFFFFFFFFFFFFF AND PUSH20 0xFFFFFFFFFFFFFFFFFFFFFFFFFFFFFFFFFFFFFFFF AND DUP2 MSTORE PUSH1 0x20 ADD SWAP1 DUP2 MSTORE PUSH1 0x20 ADD PUSH0 KECCAK256 PUSH0 SWAP1 SLOAD SWAP1 PUSH2 0x100 EXP SWAP1 DIV PUSH1 0xFF AND PUSH1 0x4 DUP2 GT ISZERO PUSH2 0x1233 JUMPI PUSH2 0x1232 PUSH2 0x3AB5 JUMP JUMPDEST JUMPDEST EQ PUSH2 0x1273 JUMPI PUSH1 0x40 MLOAD PUSH32 0x8C379A000000000000000000000000000000000000000000000000000000000 DUP2 MSTORE PUSH1 0x4 ADD PUSH2 0x126A SWAP1 PUSH2 0x462D JUMP JUMPDEST PUSH1 0x40 MLOAD DUP1 SWAP2 SUB SWAP1 REVERT JUMPDEST PUSH0 PUSH1 0x4 DUP2 GT ISZERO PUSH2 0x1286 JUMPI PUSH2 0x1285 PUSH2 0x3AB5 JUMP JUMPDEST JUMPDEST DUP2 PUSH1 0x4 DUP2 GT ISZERO PUSH2 0x1299 JUMPI PUSH2 0x1298 PUSH2 0x3AB5 JUMP JUMPDEST JUMPDEST SUB PUSH2 0x12D9 JUMPI PUSH1 0x40 MLOAD PUSH32 0x8C379A000000000000000000000000000000000000000000000000000000000 DUP2 MSTORE PUSH1 0x4 ADD PUSH2 0x12D0 SWAP1 PUSH2 0x4AA4 JUMP JUMPDEST PUSH1 0x40 MLOAD DUP1 SWAP2 SUB SWAP1 REVERT JUMPDEST DUP1 PUSH1 0x1 PUSH0 DUP5 PUSH20 0xFFFFFFFFFFFFFFFFFFFFFFFFFFFFFFFFFFFFFFFF AND PUSH20 0xFFFFFFFFFFFFFFFFFFFFFFFFFFFFFFFFFFFFFFFF AND DUP2 MSTORE PUSH1 0x20 ADD SWAP1 DUP2 MSTORE PUSH1 0x20 ADD PUSH0 KECCAK256 PUSH0 PUSH2 0x100 EXP DUP2 SLOAD DUP2 PUSH1 0xFF MUL NOT AND SWAP1 DUP4 PUSH1 0x4 DUP2 GT ISZERO PUSH2 0x1338 JUMPI PUSH2 0x1337 PUSH2 0x3AB5 JUMP JUMPDEST JUMPDEST MUL OR SWAP1 SSTORE POP POP POP JUMP JUMPDEST PUSH1 0x1 PUSH1 0x4 DUP2 GT ISZERO PUSH2 0x1355 JUMPI PUSH2 0x1354 PUSH2 0x3AB5 JUMP JUMPDEST JUMPDEST PUSH1 0x1 PUSH0 CALLER PUSH20 0xFFFFFFFFFFFFFFFFFFFFFFFFFFFFFFFFFFFFFFFF AND PUSH20 0xFFFFFFFFFFFFFFFFFFFFFFFFFFFFFFFFFFFFFFFF AND DUP2 MSTORE PUSH1 0x20 ADD SWAP1 DUP2 MSTORE PUSH1 0x20 ADD PUSH0 KECCAK256 PUSH0 SWAP1 SLOAD SWAP1 PUSH2 0x100 EXP SWAP1 DIV PUSH1 0xFF AND PUSH1 0x4 DUP2 GT ISZERO PUSH2 0x13B1 JUMPI PUSH2 0x13B0 PUSH2 0x3AB5 JUMP JUMPDEST JUMPDEST EQ PUSH2 0x13F1 JUMPI PUSH1 0x40 MLOAD PUSH32 0x8C379A000000000000000000000000000000000000000000000000000000000 DUP2 MSTORE PUSH1 0x4 ADD PUSH2 0x13E8 SWAP1 PUSH2 0x462D JUMP JUMPDEST PUSH1 0x40 MLOAD DUP1 SWAP2 SUB SWAP1 REVERT JUMPDEST PUSH0 PUSH1 0x3 DUP3 PUSH1 0x40 MLOAD PUSH2 0x1402 SWAP2 SWAP1 PUSH2 0x44A0 JUMP JUMPDEST SWAP1 DUP2 MSTORE PUSH1 0x20 ADD PUSH1 0x40 MLOAD DUP1 SWAP2 SUB SWAP1 KECCAK256 PUSH1 0x3 ADD PUSH1 0x15 PUSH2 0x100 EXP DUP2 SLOAD DUP2 PUSH1 0xFF MUL NOT AND SWAP1 DUP4 ISZERO ISZERO MUL OR SWAP1 SSTORE POP PUSH0 PUSH0 SWAP1 POP JUMPDEST PUSH1 0x7 DUP3 PUSH1 0x40 MLOAD PUSH2 0x143F SWAP2 SWAP1 PUSH2 0x44A0 JUMP JUMPDEST SWAP1 DUP2 MSTORE PUSH1 0x20 ADD PUSH1 0x40 MLOAD DUP1 SWAP2 SUB SWAP1 KECCAK256 DUP1 SLOAD SWAP1 POP DUP2 LT ISZERO PUSH2 0x153C JUMPI PUSH0 PUSH1 0x4 DUP4 PUSH1 0x40 MLOAD PUSH2 0x1469 SWAP2 SWAP1 PUSH2 0x44A0 JUMP JUMPDEST SWAP1 DUP2 MSTORE PUSH1 0x20 ADD PUSH1 0x40 MLOAD DUP1 SWAP2 SUB SWAP1 KECCAK256 PUSH0 PUSH1 0x7 DUP6 PUSH1 0x40 MLOAD PUSH2 0x1488 SWAP2 SWAP1 PUSH2 0x44A0 JUMP JUMPDEST SWAP1 DUP2 MSTORE PUSH1 0x20 ADD PUSH1 0x40 MLOAD DUP1 SWAP2 SUB SWAP1 KECCAK256 DUP5 DUP2 SLOAD DUP2 LT PUSH2 0x14A8 JUMPI PUSH2 0x14A7 PUSH2 0x4AC2 JUMP JUMPDEST JUMPDEST SWAP1 PUSH0 MSTORE PUSH1 0x20 PUSH0 KECCAK256 ADD PUSH0 SWAP1 SLOAD SWAP1 PUSH2 0x100 EXP SWAP1 DIV PUSH20 0xFFFFFFFFFFFFFFFFFFFFFFFFFFFFFFFFFFFFFFFF AND PUSH20 0xFFFFFFFFFFFFFFFFFFFFFFFFFFFFFFFFFFFFFFFF AND PUSH20 0xFFFFFFFFFFFFFFFFFFFFFFFFFFFFFFFFFFFFFFFF AND DUP2 MSTORE PUSH1 0x20 ADD SWAP1 DUP2 MSTORE PUSH1 0x20 ADD PUSH0 KECCAK256 PUSH0 PUSH2 0x100 EXP DUP2 SLOAD DUP2 PUSH1 0xFF MUL NOT AND SWAP1 DUP4 PUSH1 0x4 DUP2 GT ISZERO PUSH2 0x152A JUMPI PUSH2 0x1529 PUSH2 0x3AB5 JUMP JUMPDEST JUMPDEST MUL OR SWAP1 SSTORE POP DUP1 DUP1 PUSH1 0x1 ADD SWAP2 POP POP PUSH2 0x142F JUMP JUMPDEST POP POP JUMP JUMPDEST PUSH0 PUSH0 SWAP1 SLOAD SWAP1 PUSH2 0x100 EXP SWAP1 DIV PUSH20 0xFFFFFFFFFFFFFFFFFFFFFFFFFFFFFFFFFFFFFFFF AND DUP2 JUMP JUMPDEST PUSH1 0x1 PUSH1 0x4 DUP2 GT ISZERO PUSH2 0x1578 JUMPI PUSH2 0x1577 PUSH2 0x3AB5 JUMP JUMPDEST JUMPDEST PUSH1 0x1 PUSH0 CALLER PUSH20 0xFFFFFFFFFFFFFFFFFFFFFFFFFFFFFFFFFFFFFFFF AND PUSH20 0xFFFFFFFFFFFFFFFFFFFFFFFFFFFFFFFFFFFFFFFF AND DUP2 MSTORE PUSH1 0x20 ADD SWAP1 DUP2 MSTORE PUSH1 0x20 ADD PUSH0 KECCAK256 PUSH0 SWAP1 SLOAD SWAP1 PUSH2 0x100 EXP SWAP1 DIV PUSH1 0xFF AND PUSH1 0x4 DUP2 GT ISZERO PUSH2 0x15D4 JUMPI PUSH2 0x15D3 PUSH2 0x3AB5 JUMP JUMPDEST JUMPDEST EQ PUSH2 0x1614 JUMPI PUSH1 0x40 MLOAD PUSH32 0x8C379A000000000000000000000000000000000000000000000000000000000 DUP2 MSTORE PUSH1 0x4 ADD PUSH2 0x160B SWAP1 PUSH2 0x462D JUMP JUMPDEST PUSH1 0x40 MLOAD DUP1 SWAP2 SUB SWAP1 REVERT JUMPDEST PUSH1 0x1 PUSH1 0x3 DUP3 PUSH1 0x40 MLOAD PUSH2 0x1626 SWAP2 SWAP1 PUSH2 0x44A0 JUMP JUMPDEST SWAP1 DUP2 MSTORE PUSH1 0x20 ADD PUSH1 0x40 MLOAD DUP1 SWAP2 SUB SWAP1 KECCAK256 PUSH1 0x3 ADD PUSH1 0x14 PUSH2 0x100 EXP DUP2 SLOAD DUP2 PUSH1 0xFF MUL NOT AND SWAP1 DUP4 ISZERO ISZERO MUL OR SWAP1 SSTORE POP POP JUMP JUMPDEST PUSH0 PUSH1 0x14 SWAP1 SLOAD SWAP1 PUSH2 0x100 EXP SWAP1 DIV PUSH1 0xFF AND ISZERO PUSH2 0x16A0 JUMPI PUSH1 0x40 MLOAD PUSH32 0x8C379A000000000000000000000000000000000000000000000000000000000 DUP2 MSTORE PUSH1 0x4 ADD PUSH2 0x1697 SWAP1 PUSH2 0x46FD JUMP JUMPDEST PUSH1 0x40 MLOAD DUP1 SWAP2 SUB SWAP1 REVERT JUMPDEST PUSH1 0x1 PUSH1 0x4 DUP2 GT ISZERO PUSH2 0x16B4 JUMPI PUSH2 0x16B3 PUSH2 0x3AB5 JUMP JUMPDEST JUMPDEST PUSH1 0x1 PUSH0 CALLER PUSH20 0xFFFFFFFFFFFFFFFFFFFFFFFFFFFFFFFFFFFFFFFF AND PUSH20 0xFFFFFFFFFFFFFFFFFFFFFFFFFFFFFFFFFFFFFFFF AND DUP2 MSTORE PUSH1 0x20 ADD SWAP1 DUP2 MSTORE PUSH1 0x20 ADD PUSH0 KECCAK256 PUSH0 SWAP1 SLOAD SWAP1 PUSH2 0x100 EXP SWAP1 DIV PUSH1 0xFF AND PUSH1 0x4 DUP2 GT ISZERO PUSH2 0x1710 JUMPI PUSH2 0x170F PUSH2 0x3AB5 JUMP JUMPDEST JUMPDEST EQ PUSH2 0x1750 JUMPI PUSH1 0x40 MLOAD PUSH32 0x8C379A000000000000000000000000000000000000000000000000000000000 DUP2 MSTORE PUSH1 0x4 ADD PUSH2 0x1747 SWAP1 PUSH2 0x462D JUMP JUMPDEST PUSH1 0x40 MLOAD DUP1 SWAP2 SUB SWAP1 REVERT JUMPDEST PUSH0 PUSH1 0x4 DUP2 GT ISZERO PUSH2 0x1763 JUMPI PUSH2 0x1762 PUSH2 0x3AB5 JUMP JUMPDEST JUMPDEST DUP2 PUSH1 0x4 DUP2 GT ISZERO PUSH2 0x1776 JUMPI PUSH2 0x1775 PUSH2 0x3AB5 JUMP JUMPDEST JUMPDEST SUB PUSH2 0x17B6 JUMPI PUSH1 0x40 MLOAD PUSH32 0x8C379A000000000000000000000000000000000000000000000000000000000 DUP2 MSTORE PUSH1 0x4 ADD PUSH2 0x17AD SWAP1 PUSH2 0x4AA4 JUMP JUMPDEST PUSH1 0x40 MLOAD DUP1 SWAP2 SUB SWAP1 REVERT JUMPDEST DUP1 PUSH1 0x4 DUP5 PUSH1 0x40 MLOAD PUSH2 0x17C7 SWAP2 SWAP1 PUSH2 0x44A0 JUMP JUMPDEST SWAP1 DUP2 MSTORE PUSH1 0x20 ADD PUSH1 0x40 MLOAD DUP1 SWAP2 SUB SWAP1 KECCAK256 PUSH0 DUP5 PUSH20 0xFFFFFFFFFFFFFFFFFFFFFFFFFFFFFFFFFFFFFFFF AND PUSH20 0xFFFFFFFFFFFFFFFFFFFFFFFFFFFFFFFFFFFFFFFF AND DUP2 MSTORE PUSH1 0x20 ADD SWAP1 DUP2 MSTORE PUSH1 0x20 ADD PUSH0 KECCAK256 PUSH0 PUSH2 0x100 EXP DUP2 SLOAD DUP2 PUSH1 0xFF MUL NOT AND SWAP1 DUP4 PUSH1 0x4 DUP2 GT ISZERO PUSH2 0x1831 JUMPI PUSH2 0x1830 PUSH2 0x3AB5 JUMP JUMPDEST JUMPDEST MUL OR SWAP1 SSTORE POP PUSH1 0x7 DUP4 PUSH1 0x40 MLOAD PUSH2 0x1846 SWAP2 SWAP1 PUSH2 0x44A0 JUMP JUMPDEST SWAP1 DUP2 MSTORE PUSH1 0x20 ADD PUSH1 0x40 MLOAD DUP1 SWAP2 SUB SWAP1 KECCAK256 DUP3 SWAP1 DUP1 PUSH1 0x1 DUP2 SLOAD ADD DUP1 DUP3 SSTORE DUP1 SWAP2 POP POP PUSH1 0x1 SWAP1 SUB SWAP1 PUSH0 MSTORE PUSH1 0x20 PUSH0 KECCAK256 ADD PUSH0 SWAP1 SWAP2 SWAP1 SWAP2 SWAP1 SWAP2 PUSH2 0x100 EXP DUP2 SLOAD DUP2 PUSH20 0xFFFFFFFFFFFFFFFFFFFFFFFFFFFFFFFFFFFFFFFF MUL NOT AND SWAP1 DUP4 PUSH20 0xFFFFFFFFFFFFFFFFFFFFFFFFFFFFFFFFFFFFFFFF AND MUL OR SWAP1 SSTORE POP POP POP POP JUMP JUMPDEST PUSH2 0x18BF PUSH2 0x3491 JUMP JUMPDEST PUSH1 0x2 DUP3 PUSH1 0x40 MLOAD PUSH2 0x18CF SWAP2 SWAP1 PUSH2 0x44A0 JUMP JUMPDEST SWAP1 DUP2 MSTORE PUSH1 0x20 ADD PUSH1 0x40 MLOAD DUP1 SWAP2 SUB SWAP1 KECCAK256 PUSH1 0x40 MLOAD DUP1 PUSH1 0xC0 ADD PUSH1 0x40 MSTORE SWAP1 DUP2 PUSH0 DUP3 ADD DUP1 SLOAD PUSH2 0x18F7 SWAP1 PUSH2 0x45B3 JUMP JUMPDEST DUP1 PUSH1 0x1F ADD PUSH1 0x20 DUP1 SWAP2 DIV MUL PUSH1 0x20 ADD PUSH1 0x40 MLOAD SWAP1 DUP2 ADD PUSH1 0x40 MSTORE DUP1 SWAP3 SWAP2 SWAP1 DUP2 DUP2 MSTORE PUSH1 0x20 ADD DUP3 DUP1 SLOAD PUSH2 0x1923 SWAP1 PUSH2 0x45B3 JUMP JUMPDEST DUP1 ISZERO PUSH2 0x196E JUMPI DUP1 PUSH1 0x1F LT PUSH2 0x1945 JUMPI PUSH2 0x100 DUP1 DUP4 SLOAD DIV MUL DUP4 MSTORE SWAP2 PUSH1 0x20 ADD SWAP2 PUSH2 0x196E JUMP JUMPDEST DUP3 ADD SWAP2 SWAP1 PUSH0 MSTORE PUSH1 0x20 PUSH0 KECCAK256 SWAP1 JUMPDEST DUP2 SLOAD DUP2 MSTORE SWAP1 PUSH1 0x1 ADD SWAP1 PUSH1 0x20 ADD DUP1 DUP4 GT PUSH2 0x1951 JUMPI DUP3 SWAP1 SUB PUSH1 0x1F AND DUP3 ADD SWAP2 JUMPDEST POP POP POP POP POP DUP2 MSTORE PUSH1 0x20 ADD PUSH1 0x1 DUP3 ADD PUSH0 SWAP1 SLOAD SWAP1 PUSH2 0x100 EXP SWAP1 DIV PUSH20 0xFFFFFFFFFFFFFFFFFFFFFFFFFFFFFFFFFFFFFFFF AND PUSH20 0xFFFFFFFFFFFFFFFFFFFFFFFFFFFFFFFFFFFFFFFF AND PUSH20 0xFFFFFFFFFFFFFFFFFFFFFFFFFFFFFFFFFFFFFFFF AND DUP2 MSTORE PUSH1 0x20 ADD PUSH1 0x2 DUP3 ADD DUP1 SLOAD PUSH2 0x19DC SWAP1 PUSH2 0x45B3 JUMP JUMPDEST DUP1 PUSH1 0x1F ADD PUSH1 0x20 DUP1 SWAP2 DIV MUL PUSH1 0x20 ADD PUSH1 0x40 MLOAD SWAP1 DUP2 ADD PUSH1 0x40 MSTORE DUP1 SWAP3 SWAP2 SWAP1 DUP2 DUP2 MSTORE PUSH1 0x20 ADD DUP3 DUP1 SLOAD PUSH2 0x1A08 SWAP1 PUSH2 0x45B3 JUMP JUMPDEST DUP1 ISZERO PUSH2 0x1A53 JUMPI DUP1 PUSH1 0x1F LT PUSH2 0x1A2A JUMPI PUSH2 0x100 DUP1 DUP4 SLOAD DIV MUL DUP4 MSTORE SWAP2 PUSH1 0x20 ADD SWAP2 PUSH2 0x1A53 JUMP JUMPDEST DUP3 ADD SWAP2 SWAP1 PUSH0 MSTORE PUSH1 0x20 PUSH0 KECCAK256 SWAP1 JUMPDEST DUP2 SLOAD DUP2 MSTORE SWAP1 PUSH1 0x1 ADD SWAP1 PUSH1 0x20 ADD DUP1 DUP4 GT PUSH2 0x1A36 JUMPI DUP3 SWAP1 SUB PUSH1 0x1F AND DUP3 ADD SWAP2 JUMPDEST POP POP POP POP POP DUP2 MSTORE PUSH1 0x20 ADD PUSH1 0x3 DUP3 ADD SLOAD DUP2 MSTORE PUSH1 0x20 ADD PUSH1 0x4 DUP3 ADD PUSH0 SWAP1 SLOAD SWAP1 PUSH2 0x100 EXP SWAP1 DIV PUSH1 0xFF AND ISZERO ISZERO ISZERO ISZERO DUP2 MSTORE PUSH1 0x20 ADD PUSH1 0x5 DUP3 ADD DUP1 SLOAD PUSH2 0x1A90 SWAP1 PUSH2 0x45B3 JUMP JUMPDEST DUP1 PUSH1 0x1F ADD PUSH1 0x20 DUP1 SWAP2 DIV MUL PUSH1 0x20 ADD PUSH1 0x40 MLOAD SWAP1 DUP2 ADD PUSH1 0x40 MSTORE DUP1 SWAP3 SWAP2 SWAP1 DUP2 DUP2 MSTORE PUSH1 0x20 ADD DUP3 DUP1 SLOAD PUSH2 0x1ABC SWAP1 PUSH2 0x45B3 JUMP JUMPDEST DUP1 ISZERO PUSH2 0x1B07 JUMPI DUP1 PUSH1 0x1F LT PUSH2 0x1ADE JUMPI PUSH2 0x100 DUP1 DUP4 SLOAD DIV MUL DUP4 MSTORE SWAP2 PUSH1 0x20 ADD SWAP2 PUSH2 0x1B07 JUMP JUMPDEST DUP3 ADD SWAP2 SWAP1 PUSH0 MSTORE PUSH1 0x20 PUSH0 KECCAK256 SWAP1 JUMPDEST DUP2 SLOAD DUP2 MSTORE SWAP1 PUSH1 0x1 ADD SWAP1 PUSH1 0x20 ADD DUP1 DUP4 GT PUSH2 0x1AEA JUMPI DUP3 SWAP1 SUB PUSH1 0x1F AND DUP3 ADD SWAP2 JUMPDEST POP POP POP POP POP DUP2 MSTORE POP POP SWAP1 POP SWAP2 SWAP1 POP JUMP JUMPDEST PUSH0 PUSH1 0x14 SWAP1 SLOAD SWAP1 PUSH2 0x100 EXP SWAP1 DIV PUSH1 0xFF AND ISZERO PUSH2 0x1B66 JUMPI PUSH1 0x40 MLOAD PUSH32 0x8C379A000000000000000000000000000000000000000000000000000000000 DUP2 MSTORE PUSH1 0x4 ADD PUSH2 0x1B5D SWAP1 PUSH2 0x46FD JUMP JUMPDEST PUSH1 0x40 MLOAD DUP1 SWAP2 SUB SWAP1 REVERT JUMPDEST DUP2 PUSH0 PUSH1 0x4 DUP2 GT ISZERO PUSH2 0x1B7A JUMPI PUSH2 0x1B79 PUSH2 0x3AB5 JUMP JUMPDEST JUMPDEST PUSH1 0x4 DUP3 PUSH1 0x40 MLOAD PUSH2 0x1B8A SWAP2 SWAP1 PUSH2 0x44A0 JUMP JUMPDEST SWAP1 DUP2 MSTORE PUSH1 0x20 ADD PUSH1 0x40 MLOAD DUP1 SWAP2 SUB SWAP1 KECCAK256 PUSH0 CALLER PUSH20 0xFFFFFFFFFFFFFFFFFFFFFFFFFFFFFFFFFFFFFFFF AND PUSH20 0xFFFFFFFFFFFFFFFFFFFFFFFFFFFFFFFFFFFFFFFF AND DUP2 MSTORE PUSH1 0x20 ADD SWAP1 DUP2 MSTORE PUSH1 0x20 ADD PUSH0 KECCAK256 PUSH0 SWAP1 SLOAD SWAP1 PUSH2 0x100 EXP SWAP1 DIV PUSH1 0xFF AND PUSH1 0x4 DUP2 GT ISZERO PUSH2 0x1BF2 JUMPI PUSH2 0x1BF1 PUSH2 0x3AB5 JUMP JUMPDEST JUMPDEST SUB PUSH2 0x1C32 JUMPI PUSH1 0x40 MLOAD PUSH32 0x8C379A000000000000000000000000000000000000000000000000000000000 DUP2 MSTORE PUSH1 0x4 ADD PUSH2 0x1C29 SWAP1 PUSH2 0x4500 JUMP JUMPDEST PUSH1 0x40 MLOAD DUP1 SWAP2 SUB SWAP1 REVERT JUMPDEST PUSH0 PUSH1 0x9 DUP5 PUSH1 0x40 MLOAD PUSH2 0x1C43 SWAP2 SWAP1 PUSH2 0x44A0 JUMP JUMPDEST SWAP1 DUP2 MSTORE PUSH1 0x20 ADD PUSH1 0x40 MLOAD DUP1 SWAP2 SUB SWAP1 KECCAK256 PUSH0 DUP5 DUP2 MSTORE PUSH1 0x20 ADD SWAP1 DUP2 MSTORE PUSH1 0x20 ADD PUSH0 KECCAK256 SWAP1 POP DUP1 PUSH1 0x3 ADD PUSH1 0x15 SWAP1 SLOAD SWAP1 PUSH2 0x100 EXP SWAP1 DIV PUSH1 0xFF AND ISZERO PUSH2 0x1CB4 JUMPI PUSH1 0x40 MLOAD PUSH32 0x8C379A000000000000000000000000000000000000000000000000000000000 DUP2 MSTORE PUSH1 0x4 ADD PUSH2 0x1CAB SWAP1 PUSH2 0x4B39 JUMP JUMPDEST PUSH1 0x40 MLOAD DUP1 SWAP2 SUB SWAP1 REVERT JUMPDEST CALLER PUSH20 0xFFFFFFFFFFFFFFFFFFFFFFFFFFFFFFFFFFFFFFFF AND DUP2 PUSH1 0x3 ADD PUSH1 0x1 SWAP1 SLOAD SWAP1 PUSH2 0x100 EXP SWAP1 DIV PUSH20 0xFFFFFFFFFFFFFFFFFFFFFFFFFFFFFFFFFFFFFFFF AND PUSH20 0xFFFFFFFFFFFFFFFFFFFFFFFFFFFFFFFFFFFFFFFF AND SUB PUSH2 0x1D46 JUMPI PUSH1 0x40 MLOAD PUSH32 0x8C379A000000000000000000000000000000000000000000000000000000000 DUP2 MSTORE PUSH1 0x4 ADD PUSH2 0x1D3D SWAP1 PUSH2 0x4BA1 JUMP JUMPDEST PUSH1 0x40 MLOAD DUP1 SWAP2 SUB SWAP1 REVERT JUMPDEST PUSH1 0x1 DUP2 PUSH1 0x3 ADD PUSH1 0x15 PUSH2 0x100 EXP DUP2 SLOAD DUP2 PUSH1 0xFF MUL NOT AND SWAP1 DUP4 ISZERO ISZERO MUL OR SWAP1 SSTORE POP DUP1 PUSH1 0x5 ADD CALLER SWAP1 DUP1 PUSH1 0x1 DUP2 SLOAD ADD DUP1 DUP3 SSTORE DUP1 SWAP2 POP POP PUSH1 0x1 SWAP1 SUB SWAP1 PUSH0 MSTORE PUSH1 0x20 PUSH0 KECCAK256 ADD PUSH0 SWAP1 SWAP2 SWAP1 SWAP2 SWAP1 SWAP2 PUSH2 0x100 EXP DUP2 SLOAD DUP2 PUSH20 0xFFFFFFFFFFFFFFFFFFFFFFFFFFFFFFFFFFFFFFFF MUL NOT AND SWAP1 DUP4 PUSH20 0xFFFFFFFFFFFFFFFFFFFFFFFFFFFFFFFFFFFFFFFF AND MUL OR SWAP1 SSTORE POP POP POP POP POP JUMP JUMPDEST PUSH1 0x6 PUSH1 0x20 MSTORE DUP1 PUSH0 MSTORE PUSH1 0x40 PUSH0 KECCAK256 PUSH0 SWAP2 POP SLOAD SWAP1 PUSH2 0x100 EXP SWAP1 DIV PUSH1 0xFF AND DUP2 JUMP JUMPDEST PUSH1 0x4 DUP3 DUP1 MLOAD PUSH1 0x20 DUP2 ADD DUP3 ADD DUP1 MLOAD DUP5 DUP3 MSTORE PUSH1 0x20 DUP4 ADD PUSH1 0x20 DUP6 ADD KECCAK256 DUP2 DUP4 MSTORE DUP1 SWAP6 POP POP POP POP POP POP PUSH1 0x20 MSTORE DUP1 PUSH0 MSTORE PUSH1 0x40 PUSH0 KECCAK256 PUSH0 SWAP2 POP SWAP2 POP SWAP1 SLOAD SWAP1 PUSH2 0x100 EXP SWAP1 DIV PUSH1 0xFF AND DUP2 JUMP JUMPDEST PUSH1 0x7 DUP3 DUP1 MLOAD PUSH1 0x20 DUP2 ADD DUP3 ADD DUP1 MLOAD DUP5 DUP3 MSTORE PUSH1 0x20 DUP4 ADD PUSH1 0x20 DUP6 ADD KECCAK256 DUP2 DUP4 MSTORE DUP1 SWAP6 POP POP POP POP POP POP DUP2 DUP2 SLOAD DUP2 LT PUSH2 0x1E5B JUMPI PUSH0 DUP1 REVERT JUMPDEST SWAP1 PUSH0 MSTORE PUSH1 0x20 PUSH0 KECCAK256 ADD PUSH0 SWAP2 POP SWAP2 POP SWAP1 SLOAD SWAP1 PUSH2 0x100 EXP SWAP1 DIV PUSH20 0xFFFFFFFFFFFFFFFFFFFFFFFFFFFFFFFFFFFFFFFF AND DUP2 JUMP JUMPDEST PUSH0 PUSH1 0x14 SWAP1 SLOAD SWAP1 PUSH2 0x100 EXP SWAP1 DIV PUSH1 0xFF AND ISZERO PUSH2 0x1ED9 JUMPI PUSH1 0x40 MLOAD PUSH32 0x8C379A000000000000000000000000000000000000000000000000000000000 DUP2 MSTORE PUSH1 0x4 ADD PUSH2 0x1ED0 SWAP1 PUSH2 0x46FD JUMP JUMPDEST PUSH1 0x40 MLOAD DUP1 SWAP2 SUB SWAP1 REVERT JUMPDEST PUSH1 0x1 PUSH1 0x4 DUP2 GT ISZERO PUSH2 0x1EED JUMPI PUSH2 0x1EEC PUSH2 0x3AB5 JUMP JUMPDEST JUMPDEST PUSH1 0x1 PUSH0 CALLER PUSH20 0xFFFFFFFFFFFFFFFFFFFFFFFFFFFFFFFFFFFFFFFF AND PUSH20 0xFFFFFFFFFFFFFFFFFFFFFFFFFFFFFFFFFFFFFFFF AND DUP2 MSTORE PUSH1 0x20 ADD SWAP1 DUP2 MSTORE PUSH1 0x20 ADD PUSH0 KECCAK256 PUSH0 SWAP1 SLOAD SWAP1 PUSH2 0x100 EXP SWAP1 DIV PUSH1 0xFF AND PUSH1 0x4 DUP2 GT ISZERO PUSH2 0x1F49 JUMPI PUSH2 0x1F48 PUSH2 0x3AB5 JUMP JUMPDEST JUMPDEST EQ PUSH2 0x1F89 JUMPI PUSH1 0x40 MLOAD PUSH32 0x8C379A000000000000000000000000000000000000000000000000000000000 DUP2 MSTORE PUSH1 0x4 ADD PUSH2 0x1F80 SWAP1 PUSH2 0x462D JUMP JUMPDEST PUSH1 0x40 MLOAD DUP1 SWAP2 SUB SWAP1 REVERT JUMPDEST PUSH0 PUSH20 0xFFFFFFFFFFFFFFFFFFFFFFFFFFFFFFFFFFFFFFFF AND PUSH1 0x3 DUP7 PUSH1 0x40 MLOAD PUSH2 0x1FB0 SWAP2 SWAP1 PUSH2 0x44A0 JUMP JUMPDEST SWAP1 DUP2 MSTORE PUSH1 0x20 ADD PUSH1 0x40 MLOAD DUP1 SWAP2 SUB SWAP1 KECCAK256 PUSH1 0x3 ADD PUSH0 SWAP1 SLOAD SWAP1 PUSH2 0x100 EXP SWAP1 DIV PUSH20 0xFFFFFFFFFFFFFFFFFFFFFFFFFFFFFFFFFFFFFFFF AND PUSH20 0xFFFFFFFFFFFFFFFFFFFFFFFFFFFFFFFFFFFFFFFF AND EQ PUSH2 0x2037 JUMPI PUSH1 0x40 MLOAD PUSH32 0x8C379A000000000000000000000000000000000000000000000000000000000 DUP2 MSTORE PUSH1 0x4 ADD PUSH2 0x202E SWAP1 PUSH2 0x4C09 JUMP JUMPDEST PUSH1 0x40 MLOAD DUP1 SWAP2 SUB SWAP1 REVERT JUMPDEST PUSH0 PUSH20 0xFFFFFFFFFFFFFFFFFFFFFFFFFFFFFFFFFFFFFFFF AND PUSH1 0x2 DUP6 PUSH1 0x40 MLOAD PUSH2 0x205E SWAP2 SWAP1 PUSH2 0x44A0 JUMP JUMPDEST SWAP1 DUP2 MSTORE PUSH1 0x20 ADD PUSH1 0x40 MLOAD DUP1 SWAP2 SUB SWAP1 KECCAK256 PUSH1 0x1 ADD PUSH0 SWAP1 SLOAD SWAP1 PUSH2 0x100 EXP SWAP1 DIV PUSH20 0xFFFFFFFFFFFFFFFFFFFFFFFFFFFFFFFFFFFFFFFF AND PUSH20 0xFFFFFFFFFFFFFFFFFFFFFFFFFFFFFFFFFFFFFFFF AND SUB PUSH2 0x20E5 JUMPI PUSH1 0x40 MLOAD PUSH32 0x8C379A000000000000000000000000000000000000000000000000000000000 DUP2 MSTORE PUSH1 0x4 ADD PUSH2 0x20DC SWAP1 PUSH2 0x4C71 JUMP JUMPDEST PUSH1 0x40 MLOAD DUP1 SWAP2 SUB SWAP1 REVERT JUMPDEST PUSH1 0x2 DUP5 PUSH1 0x40 MLOAD PUSH2 0x20F5 SWAP2 SWAP1 PUSH2 0x44A0 JUMP JUMPDEST SWAP1 DUP2 MSTORE PUSH1 0x20 ADD PUSH1 0x40 MLOAD DUP1 SWAP2 SUB SWAP1 KECCAK256 PUSH1 0x4 ADD PUSH0 SWAP1 SLOAD SWAP1 PUSH2 0x100 EXP SWAP1 DIV PUSH1 0xFF AND ISZERO PUSH2 0x2153 JUMPI PUSH1 0x40 MLOAD PUSH32 0x8C379A000000000000000000000000000000000000000000000000000000000 DUP2 MSTORE PUSH1 0x4 ADD PUSH2 0x214A SWAP1 PUSH2 0x4CD9 JUMP JUMPDEST PUSH1 0x40 MLOAD DUP1 SWAP2 SUB SWAP1 REVERT JUMPDEST PUSH0 PUSH1 0x3 DUP7 PUSH1 0x40 MLOAD PUSH2 0x2164 SWAP2 SWAP1 PUSH2 0x44A0 JUMP JUMPDEST SWAP1 DUP2 MSTORE PUSH1 0x20 ADD PUSH1 0x40 MLOAD DUP1 SWAP2 SUB SWAP1 KECCAK256 SWAP1 POP DUP6 DUP2 PUSH0 ADD SWAP1 DUP2 PUSH2 0x2184 SWAP2 SWAP1 PUSH2 0x498B JUMP JUMPDEST POP DUP4 DUP2 PUSH1 0x1 ADD SWAP1 DUP2 PUSH2 0x2196 SWAP2 SWAP1 PUSH2 0x498B JUMP JUMPDEST POP DUP3 DUP2 PUSH1 0x2 ADD SWAP1 DUP2 PUSH2 0x21A8 SWAP2 SWAP1 PUSH2 0x498B JUMP JUMPDEST POP CALLER DUP2 PUSH1 0x3 ADD PUSH0 PUSH2 0x100 EXP DUP2 SLOAD DUP2 PUSH20 0xFFFFFFFFFFFFFFFFFFFFFFFFFFFFFFFFFFFFFFFF MUL NOT AND SWAP1 DUP4 PUSH20 0xFFFFFFFFFFFFFFFFFFFFFFFFFFFFFFFFFFFFFFFF AND MUL OR SWAP1 SSTORE POP PUSH0 DUP2 PUSH1 0x3 ADD PUSH1 0x14 PUSH2 0x100 EXP DUP2 SLOAD DUP2 PUSH1 0xFF MUL NOT AND SWAP1 DUP4 ISZERO ISZERO MUL OR SWAP1 SSTORE POP PUSH1 0x1 DUP2 PUSH1 0x3 ADD PUSH1 0x15 PUSH2 0x100 EXP DUP2 SLOAD DUP2 PUSH1 0xFF MUL NOT AND SWAP1 DUP4 ISZERO ISZERO MUL OR SWAP1 SSTORE POP DUP2 DUP2 PUSH1 0x4 ADD SWAP1 DUP1 MLOAD SWAP1 PUSH1 0x20 ADD SWAP1 PUSH2 0x223C SWAP3 SWAP2 SWAP1 PUSH2 0x34DC JUMP JUMPDEST POP PUSH0 DUP2 PUSH1 0x5 ADD DUP2 SWAP1 SSTORE POP PUSH1 0x1 PUSH1 0x2 DUP7 PUSH1 0x40 MLOAD PUSH2 0x2258 SWAP2 SWAP1 PUSH2 0x44A0 JUMP JUMPDEST SWAP1 DUP2 MSTORE PUSH1 0x20 ADD PUSH1 0x40 MLOAD DUP1 SWAP2 SUB SWAP1 KECCAK256 PUSH1 0x4 ADD PUSH0 PUSH2 0x100 EXP DUP2 SLOAD DUP2 PUSH1 0xFF MUL NOT AND SWAP1 DUP4 ISZERO ISZERO MUL OR SWAP1 SSTORE POP DUP6 PUSH1 0x2 DUP7 PUSH1 0x40 MLOAD PUSH2 0x2290 SWAP2 SWAP1 PUSH2 0x44A0 JUMP JUMPDEST SWAP1 DUP2 MSTORE PUSH1 0x20 ADD PUSH1 0x40 MLOAD DUP1 SWAP2 SUB SWAP1 KECCAK256 PUSH1 0x5 ADD SWAP1 DUP2 PUSH2 0x22AD SWAP2 SWAP1 PUSH2 0x498B JUMP JUMPDEST POP PUSH1 0x1 PUSH1 0x4 DUP8 PUSH1 0x40 MLOAD PUSH2 0x22C0 SWAP2 SWAP1 PUSH2 0x44A0 JUMP JUMPDEST SWAP1 DUP2 MSTORE PUSH1 0x20 ADD PUSH1 0x40 MLOAD DUP1 SWAP2 SUB SWAP1 KECCAK256 PUSH0 CALLER PUSH20 0xFFFFFFFFFFFFFFFFFFFFFFFFFFFFFFFFFFFFFFFF AND PUSH20 0xFFFFFFFFFFFFFFFFFFFFFFFFFFFFFFFFFFFFFFFF AND DUP2 MSTORE PUSH1 0x20 ADD SWAP1 DUP2 MSTORE PUSH1 0x20 ADD PUSH0 KECCAK256 PUSH0 PUSH2 0x100 EXP DUP2 SLOAD DUP2 PUSH1 0xFF MUL NOT AND SWAP1 DUP4 PUSH1 0x4 DUP2 GT ISZERO PUSH2 0x232A JUMPI PUSH2 0x2329 PUSH2 0x3AB5 JUMP JUMPDEST JUMPDEST MUL OR SWAP1 SSTORE POP POP POP POP POP POP POP JUMP JUMPDEST PUSH0 PUSH1 0x14 SWAP1 SLOAD SWAP1 PUSH2 0x100 EXP SWAP1 DIV PUSH1 0xFF AND ISZERO PUSH2 0x2386 JUMPI PUSH1 0x40 MLOAD PUSH32 0x8C379A000000000000000000000000000000000000000000000000000000000 DUP2 MSTORE PUSH1 0x4 ADD PUSH2 0x237D SWAP1 PUSH2 0x46FD JUMP JUMPDEST PUSH1 0x40 MLOAD DUP1 SWAP2 SUB SWAP1 REVERT JUMPDEST DUP5 PUSH0 PUSH1 0x4 DUP2 GT ISZERO PUSH2 0x239A JUMPI PUSH2 0x2399 PUSH2 0x3AB5 JUMP JUMPDEST JUMPDEST PUSH1 0x4 DUP3 PUSH1 0x40 MLOAD PUSH2 0x23AA SWAP2 SWAP1 PUSH2 0x44A0 JUMP JUMPDEST SWAP1 DUP2 MSTORE PUSH1 0x20 ADD PUSH1 0x40 MLOAD DUP1 SWAP2 SUB SWAP1 KECCAK256 PUSH0 CALLER PUSH20 0xFFFFFFFFFFFFFFFFFFFFFFFFFFFFFFFFFFFFFFFF AND PUSH20 0xFFFFFFFFFFFFFFFFFFFFFFFFFFFFFFFFFFFFFFFF AND DUP2 MSTORE PUSH1 0x20 ADD SWAP1 DUP2 MSTORE PUSH1 0x20 ADD PUSH0 KECCAK256 PUSH0 SWAP1 SLOAD SWAP1 PUSH2 0x100 EXP SWAP1 DIV PUSH1 0xFF AND PUSH1 0x4 DUP2 GT ISZERO PUSH2 0x2412 JUMPI PUSH2 0x2411 PUSH2 0x3AB5 JUMP JUMPDEST JUMPDEST SUB PUSH2 0x2452 JUMPI PUSH1 0x40 MLOAD PUSH32 0x8C379A000000000000000000000000000000000000000000000000000000000 DUP2 MSTORE PUSH1 0x4 ADD PUSH2 0x2449 SWAP1 PUSH2 0x4500 JUMP JUMPDEST PUSH1 0x40 MLOAD DUP1 SWAP2 SUB SWAP1 REVERT JUMPDEST DUP6 PUSH1 0x3 DUP2 PUSH1 0x40 MLOAD PUSH2 0x2463 SWAP2 SWAP1 PUSH2 0x44A0 JUMP JUMPDEST SWAP1 DUP2 MSTORE PUSH1 0x20 ADD PUSH1 0x40 MLOAD DUP1 SWAP2 SUB SWAP1 KECCAK256 PUSH1 0x3 ADD PUSH1 0x15 SWAP1 SLOAD SWAP1 PUSH2 0x100 EXP SWAP1 DIV PUSH1 0xFF AND DUP1 ISZERO PUSH2 0x24BA JUMPI POP PUSH1 0x3 DUP2 PUSH1 0x40 MLOAD PUSH2 0x2499 SWAP2 SWAP1 PUSH2 0x44A0 JUMP JUMPDEST SWAP1 DUP2 MSTORE PUSH1 0x20 ADD PUSH1 0x40 MLOAD DUP1 SWAP2 SUB SWAP1 KECCAK256 PUSH1 0x3 ADD PUSH1 0x14 SWAP1 SLOAD SWAP1 PUSH2 0x100 EXP SWAP1 DIV PUSH1 0xFF AND ISZERO JUMPDEST PUSH2 0x24F9 JUMPI PUSH1 0x40 MLOAD PUSH32 0x8C379A000000000000000000000000000000000000000000000000000000000 DUP2 MSTORE PUSH1 0x4 ADD PUSH2 0x24F0 SWAP1 PUSH2 0x4D41 JUMP JUMPDEST PUSH1 0x40 MLOAD DUP1 SWAP2 SUB SWAP1 REVERT JUMPDEST PUSH1 0x2 PUSH1 0x4 DUP2 GT ISZERO PUSH2 0x250D JUMPI PUSH2 0x250C PUSH2 0x3AB5 JUMP JUMPDEST JUMPDEST PUSH1 0x1 PUSH0 CALLER PUSH20 0xFFFFFFFFFFFFFFFFFFFFFFFFFFFFFFFFFFFFFFFF AND PUSH20 0xFFFFFFFFFFFFFFFFFFFFFFFFFFFFFFFFFFFFFFFF AND DUP2 MSTORE PUSH1 0x20 ADD SWAP1 DUP2 MSTORE PUSH1 0x20 ADD PUSH0 KECCAK256 PUSH0 SWAP1 SLOAD SWAP1 PUSH2 0x100 EXP SWAP1 DIV PUSH1 0xFF AND PUSH1 0x4 DUP2 GT ISZERO PUSH2 0x2569 JUMPI PUSH2 0x2568 PUSH2 0x3AB5 JUMP JUMPDEST JUMPDEST EQ DUP1 PUSH2 0x25E2 JUMPI POP PUSH1 0x3 PUSH1 0x4 DUP2 GT ISZERO PUSH2 0x2584 JUMPI PUSH2 0x2583 PUSH2 0x3AB5 JUMP JUMPDEST JUMPDEST PUSH1 0x1 PUSH0 CALLER PUSH20 0xFFFFFFFFFFFFFFFFFFFFFFFFFFFFFFFFFFFFFFFF AND PUSH20 0xFFFFFFFFFFFFFFFFFFFFFFFFFFFFFFFFFFFFFFFF AND DUP2 MSTORE PUSH1 0x20 ADD SWAP1 DUP2 MSTORE PUSH1 0x20 ADD PUSH0 KECCAK256 PUSH0 SWAP1 SLOAD SWAP1 PUSH2 0x100 EXP SWAP1 DIV PUSH1 0xFF AND PUSH1 0x4 DUP2 GT ISZERO PUSH2 0x25E0 JUMPI PUSH2 0x25DF PUSH2 0x3AB5 JUMP JUMPDEST JUMPDEST EQ JUMPDEST PUSH2 0x2621 JUMPI PUSH1 0x40 MLOAD PUSH32 0x8C379A000000000000000000000000000000000000000000000000000000000 DUP2 MSTORE PUSH1 0x4 ADD PUSH2 0x2618 SWAP1 PUSH2 0x4DCF JUMP JUMPDEST PUSH1 0x40 MLOAD DUP1 SWAP2 SUB SWAP1 REVERT JUMPDEST PUSH0 DUP6 DUP6 PUSH1 0x40 MLOAD PUSH1 0x20 ADD PUSH2 0x2635 SWAP3 SWAP2 SWAP1 PUSH2 0x4DED JUMP JUMPDEST PUSH1 0x40 MLOAD PUSH1 0x20 DUP2 DUP4 SUB SUB DUP2 MSTORE SWAP1 PUSH1 0x40 MSTORE DUP1 MLOAD SWAP1 PUSH1 0x20 ADD KECCAK256 SWAP1 POP PUSH1 0x6 PUSH0 DUP3 DUP2 MSTORE PUSH1 0x20 ADD SWAP1 DUP2 MSTORE PUSH1 0x20 ADD PUSH0 KECCAK256 PUSH0 SWAP1 SLOAD SWAP1 PUSH2 0x100 EXP SWAP1 DIV PUSH1 0xFF AND ISZERO PUSH2 0x26AB JUMPI PUSH1 0x40 MLOAD PUSH32 0x8C379A000000000000000000000000000000000000000000000000000000000 DUP2 MSTORE PUSH1 0x4 ADD PUSH2 0x26A2 SWAP1 PUSH2 0x4E5A JUMP JUMPDEST PUSH1 0x40 MLOAD DUP1 SWAP2 SUB SWAP1 REVERT JUMPDEST PUSH0 PUSH1 0x40 MLOAD DUP1 PUSH2 0x100 ADD PUSH1 0x40 MSTORE DUP1 DUP10 DUP2 MSTORE PUSH1 0x20 ADD DUP9 DUP2 MSTORE PUSH1 0x20 ADD DUP8 DUP2 MSTORE PUSH1 0x20 ADD DUP7 PUSH1 0x3 DUP2 GT ISZERO PUSH2 0x26DD JUMPI PUSH2 0x26DC PUSH2 0x3AB5 JUMP JUMPDEST JUMPDEST DUP2 MSTORE PUSH1 0x20 ADD CALLER PUSH20 0xFFFFFFFFFFFFFFFFFFFFFFFFFFFFFFFFFFFFFFFF AND DUP2 MSTORE PUSH1 0x20 ADD PUSH0 ISZERO ISZERO DUP2 MSTORE PUSH1 0x20 ADD TIMESTAMP DUP2 MSTORE PUSH1 0x20 ADD PUSH0 PUSH8 0xFFFFFFFFFFFFFFFF DUP2 GT ISZERO PUSH2 0x2726 JUMPI PUSH2 0x2725 PUSH2 0x36B9 JUMP JUMPDEST JUMPDEST PUSH1 0x40 MLOAD SWAP1 DUP1 DUP3 MSTORE DUP1 PUSH1 0x20 MUL PUSH1 0x20 ADD DUP3 ADD PUSH1 0x40 MSTORE DUP1 ISZERO PUSH2 0x2754 JUMPI DUP2 PUSH1 0x20 ADD PUSH1 0x20 DUP3 MUL DUP1 CALLDATASIZE DUP4 CALLDATACOPY DUP1 DUP3 ADD SWAP2 POP POP SWAP1 POP JUMPDEST POP DUP2 MSTORE POP SWAP1 POP PUSH2 0x2764 DUP10 DUP3 PUSH2 0x3320 JUMP JUMPDEST PUSH1 0x1 PUSH1 0x6 PUSH0 DUP5 DUP2 MSTORE PUSH1 0x20 ADD SWAP1 DUP2 MSTORE PUSH1 0x20 ADD PUSH0 KECCAK256 PUSH0 PUSH2 0x100 EXP DUP2 SLOAD DUP2 PUSH1 0xFF MUL NOT AND SWAP1 DUP4 ISZERO ISZERO MUL OR SWAP1 SSTORE POP POP POP POP POP POP POP POP POP POP JUMP JUMPDEST PUSH0 PUSH1 0x1 PUSH0 DUP4 PUSH20 0xFFFFFFFFFFFFFFFFFFFFFFFFFFFFFFFFFFFFFFFF AND PUSH20 0xFFFFFFFFFFFFFFFFFFFFFFFFFFFFFFFFFFFFFFFF AND DUP2 MSTORE PUSH1 0x20 ADD SWAP1 DUP2 MSTORE PUSH1 0x20 ADD PUSH0 KECCAK256 PUSH0 SWAP1 SLOAD SWAP1 PUSH2 0x100 EXP SWAP1 DIV PUSH1 0xFF AND SWAP1 POP SWAP2 SWAP1 POP JUMP JUMPDEST PUSH0 PUSH1 0x14 SWAP1 SLOAD SWAP1 PUSH2 0x100 EXP SWAP1 DIV PUSH1 0xFF AND ISZERO PUSH2 0x2839 JUMPI PUSH1 0x40 MLOAD PUSH32 0x8C379A000000000000000000000000000000000000000000000000000000000 DUP2 MSTORE PUSH1 0x4 ADD PUSH2 0x2830 SWAP1 PUSH2 0x46FD JUMP JUMPDEST PUSH1 0x40 MLOAD DUP1 SWAP2 SUB SWAP1 REVERT JUMPDEST PUSH1 0x2 PUSH1 0x4 DUP2 GT ISZERO PUSH2 0x284D JUMPI PUSH2 0x284C PUSH2 0x3AB5 JUMP JUMPDEST JUMPDEST PUSH1 0x1 PUSH0 CALLER PUSH20 0xFFFFFFFFFFFFFFFFFFFFFFFFFFFFFFFFFFFFFFFF AND PUSH20 0xFFFFFFFFFFFFFFFFFFFFFFFFFFFFFFFFFFFFFFFF AND DUP2 MSTORE PUSH1 0x20 ADD SWAP1 DUP2 MSTORE PUSH1 0x20 ADD PUSH0 KECCAK256 PUSH0 SWAP1 SLOAD SWAP1 PUSH2 0x100 EXP SWAP1 DIV PUSH1 0xFF AND PUSH1 0x4 DUP2 GT ISZERO PUSH2 0x28A9 JUMPI PUSH2 0x28A8 PUSH2 0x3AB5 JUMP JUMPDEST JUMPDEST EQ DUP1 PUSH2 0x2922 JUMPI POP PUSH1 0x3 PUSH1 0x4 DUP2 GT ISZERO PUSH2 0x28C4 JUMPI PUSH2 0x28C3 PUSH2 0x3AB5 JUMP JUMPDEST JUMPDEST PUSH1 0x1 PUSH0 CALLER PUSH20 0xFFFFFFFFFFFFFFFFFFFFFFFFFFFFFFFFFFFFFFFF AND PUSH20 0xFFFFFFFFFFFFFFFFFFFFFFFFFFFFFFFFFFFFFFFF AND DUP2 MSTORE PUSH1 0x20 ADD SWAP1 DUP2 MSTORE PUSH1 0x20 ADD PUSH0 KECCAK256 PUSH0 SWAP1 SLOAD SWAP1 PUSH2 0x100 EXP SWAP1 DIV PUSH1 0xFF AND PUSH1 0x4 DUP2 GT ISZERO PUSH2 0x2920 JUMPI PUSH2 0x291F PUSH2 0x3AB5 JUMP JUMPDEST JUMPDEST EQ JUMPDEST PUSH2 0x2961 JUMPI PUSH1 0x40 MLOAD PUSH32 0x8C379A000000000000000000000000000000000000000000000000000000000 DUP2 MSTORE PUSH1 0x4 ADD PUSH2 0x2958 SWAP1 PUSH2 0x4EC2 JUMP JUMPDEST PUSH1 0x40 MLOAD DUP1 SWAP2 SUB SWAP1 REVERT JUMPDEST PUSH0 PUSH20 0xFFFFFFFFFFFFFFFFFFFFFFFFFFFFFFFFFFFFFFFF AND PUSH1 0x2 DUP7 PUSH1 0x40 MLOAD PUSH2 0x2988 SWAP2 SWAP1 PUSH2 0x44A0 JUMP JUMPDEST SWAP1 DUP2 MSTORE PUSH1 0x20 ADD PUSH1 0x40 MLOAD DUP1 SWAP2 SUB SWAP1 KECCAK256 PUSH1 0x1 ADD PUSH0 SWAP1 SLOAD SWAP1 PUSH2 0x100 EXP SWAP1 DIV PUSH20 0xFFFFFFFFFFFFFFFFFFFFFFFFFFFFFFFFFFFFFFFF AND PUSH20 0xFFFFFFFFFFFFFFFFFFFFFFFFFFFFFFFFFFFFFFFF AND SUB PUSH2 0x2A0F JUMPI PUSH1 0x40 MLOAD PUSH32 0x8C379A000000000000000000000000000000000000000000000000000000000 DUP2 MSTORE PUSH1 0x4 ADD PUSH2 0x2A06 SWAP1 PUSH2 0x4C71 JUMP JUMPDEST PUSH1 0x40 MLOAD DUP1 SWAP2 SUB SWAP1 REVERT JUMPDEST PUSH1 0x2 DUP6 PUSH1 0x40 MLOAD PUSH2 0x2A1F SWAP2 SWAP1 PUSH2 0x44A0 JUMP JUMPDEST SWAP1 DUP2 MSTORE PUSH1 0x20 ADD PUSH1 0x40 MLOAD DUP1 SWAP2 SUB SWAP1 KECCAK256 PUSH1 0x4 ADD PUSH0 SWAP1 SLOAD SWAP1 PUSH2 0x100 EXP SWAP1 DIV PUSH1 0xFF AND ISZERO PUSH2 0x2A7D JUMPI PUSH1 0x40 MLOAD PUSH32 0x8C379A000000000000000000000000000000000000000000000000000000000 DUP2 MSTORE PUSH1 0x4 ADD PUSH2 0x2A74 SWAP1 PUSH2 0x4F2A JUMP JUMPDEST PUSH1 0x40 MLOAD DUP1 SWAP2 SUB SWAP1 REVERT JUMPDEST PUSH0 DUP4 DUP4 PUSH1 0x40 MLOAD PUSH1 0x20 ADD PUSH2 0x2A91 SWAP3 SWAP2 SWAP1 PUSH2 0x4DED JUMP JUMPDEST PUSH1 0x40 MLOAD PUSH1 0x20 DUP2 DUP4 SUB SUB DUP2 MSTORE SWAP1 PUSH1 0x40 MSTORE DUP1 MLOAD SWAP1 PUSH1 0x20 ADD KECCAK256 SWAP1 POP PUSH1 0x6 PUSH0 DUP3 DUP2 MSTORE PUSH1 0x20 ADD SWAP1 DUP2 MSTORE PUSH1 0x20 ADD PUSH0 KECCAK256 PUSH0 SWAP1 SLOAD SWAP1 PUSH2 0x100 EXP SWAP1 DIV PUSH1 0xFF AND ISZERO PUSH2 0x2B07 JUMPI PUSH1 0x40 MLOAD PUSH32 0x8C379A000000000000000000000000000000000000000000000000000000000 DUP2 MSTORE PUSH1 0x4 ADD PUSH2 0x2AFE SWAP1 PUSH2 0x4E5A JUMP JUMPDEST PUSH1 0x40 MLOAD DUP1 SWAP2 SUB SWAP1 REVERT JUMPDEST PUSH0 PUSH1 0x2 DUP8 PUSH1 0x40 MLOAD PUSH2 0x2B18 SWAP2 SWAP1 PUSH2 0x44A0 JUMP JUMPDEST SWAP1 DUP2 MSTORE PUSH1 0x20 ADD PUSH1 0x40 MLOAD DUP1 SWAP2 SUB SWAP1 KECCAK256 PUSH1 0x5 ADD DUP1 SLOAD PUSH2 0x2B34 SWAP1 PUSH2 0x45B3 JUMP JUMPDEST DUP1 PUSH1 0x1F ADD PUSH1 0x20 DUP1 SWAP2 DIV MUL PUSH1 0x20 ADD PUSH1 0x40 MLOAD SWAP1 DUP2 ADD PUSH1 0x40 MSTORE DUP1 SWAP3 SWAP2 SWAP1 DUP2 DUP2 MSTORE PUSH1 0x20 ADD DUP3 DUP1 SLOAD PUSH2 0x2B60 SWAP1 PUSH2 0x45B3 JUMP JUMPDEST DUP1 ISZERO PUSH2 0x2BAB JUMPI DUP1 PUSH1 0x1F LT PUSH2 0x2B82 JUMPI PUSH2 0x100 DUP1 DUP4 SLOAD DIV MUL DUP4 MSTORE SWAP2 PUSH1 0x20 ADD SWAP2 PUSH2 0x2BAB JUMP JUMPDEST DUP3 ADD SWAP2 SWAP1 PUSH0 MSTORE PUSH1 0x20 PUSH0 KECCAK256 SWAP1 JUMPDEST DUP2 SLOAD DUP2 MSTORE SWAP1 PUSH1 0x1 ADD SWAP1 PUSH1 0x20 ADD DUP1 DUP4 GT PUSH2 0x2B8E JUMPI DUP3 SWAP1 SUB PUSH1 0x1F AND DUP3 ADD SWAP2 JUMPDEST POP POP POP POP POP SWAP1 POP PUSH0 DUP2 MLOAD SUB PUSH2 0x2BF5 JUMPI PUSH1 0x40 MLOAD PUSH32 0x8C379A000000000000000000000000000000000000000000000000000000000 DUP2 MSTORE PUSH1 0x4 ADD PUSH2 0x2BEC SWAP1 PUSH2 0x4F92 JUMP JUMPDEST PUSH1 0x40 MLOAD DUP1 SWAP2 SUB SWAP1 REVERT JUMPDEST PUSH0 PUSH1 0x40 MLOAD DUP1 PUSH2 0x100 ADD PUSH1 0x40 MSTORE DUP1 DUP9 DUP2 MSTORE PUSH1 0x20 ADD DUP8 DUP2 MSTORE PUSH1 0x20 ADD DUP7 DUP2 MSTORE PUSH1 0x20 ADD DUP6 PUSH1 0x3 DUP2 GT ISZERO PUSH2 0x2C27 JUMPI PUSH2 0x2C26 PUSH2 0x3AB5 JUMP JUMPDEST JUMPDEST DUP2 MSTORE PUSH1 0x20 ADD CALLER PUSH20 0xFFFFFFFFFFFFFFFFFFFFFFFFFFFFFFFFFFFFFFFF AND DUP2 MSTORE PUSH1 0x20 ADD PUSH0 ISZERO ISZERO DUP2 MSTORE PUSH1 0x20 ADD TIMESTAMP DUP2 MSTORE PUSH1 0x20 ADD PUSH0 PUSH8 0xFFFFFFFFFFFFFFFF DUP2 GT ISZERO PUSH2 0x2C70 JUMPI PUSH2 0x2C6F PUSH2 0x36B9 JUMP JUMPDEST JUMPDEST PUSH1 0x40 MLOAD SWAP1 DUP1 DUP3 MSTORE DUP1 PUSH1 0x20 MUL PUSH1 0x20 ADD DUP3 ADD PUSH1 0x40 MSTORE DUP1 ISZERO PUSH2 0x2C9E JUMPI DUP2 PUSH1 0x20 ADD PUSH1 0x20 DUP3 MUL DUP1 CALLDATASIZE DUP4 CALLDATACOPY DUP1 DUP3 ADD SWAP2 POP POP SWAP1 POP JUMPDEST POP DUP2 MSTORE POP SWAP1 POP PUSH2 0x2CAE DUP3 DUP3 PUSH2 0x3320 JUMP JUMPDEST PUSH1 0x1 PUSH1 0x6 PUSH0 DUP6 DUP2 MSTORE PUSH1 0x20 ADD SWAP1 DUP2 MSTORE PUSH1 0x20 ADD PUSH0 KECCAK256 PUSH0 PUSH2 0x100 EXP DUP2 SLOAD DUP2 PUSH1 0xFF MUL NOT AND SWAP1 DUP4 ISZERO ISZERO MUL OR SWAP1 SSTORE POP POP POP POP POP POP POP POP POP JUMP JUMPDEST PUSH2 0x2CE9 PUSH2 0x3533 JUMP JUMPDEST PUSH1 0x3 DUP3 PUSH1 0x40 MLOAD PUSH2 0x2CF9 SWAP2 SWAP1 PUSH2 0x44A0 JUMP JUMPDEST SWAP1 DUP2 MSTORE PUSH1 0x20 ADD PUSH1 0x40 MLOAD DUP1 SWAP2 SUB SWAP1 KECCAK256 PUSH1 0x40 MLOAD DUP1 PUSH2 0x100 ADD PUSH1 0x40 MSTORE SWAP1 DUP2 PUSH0 DUP3 ADD DUP1 SLOAD PUSH2 0x2D22 SWAP1 PUSH2 0x45B3 JUMP JUMPDEST DUP1 PUSH1 0x1F ADD PUSH1 0x20 DUP1 SWAP2 DIV MUL PUSH1 0x20 ADD PUSH1 0x40 MLOAD SWAP1 DUP2 ADD PUSH1 0x40 MSTORE DUP1 SWAP3 SWAP2 SWAP1 DUP2 DUP2 MSTORE PUSH1 0x20 ADD DUP3 DUP1 SLOAD PUSH2 0x2D4E SWAP1 PUSH2 0x45B3 JUMP JUMPDEST DUP1 ISZERO PUSH2 0x2D99 JUMPI DUP1 PUSH1 0x1F LT PUSH2 0x2D70 JUMPI PUSH2 0x100 DUP1 DUP4 SLOAD DIV MUL DUP4 MSTORE SWAP2 PUSH1 0x20 ADD SWAP2 PUSH2 0x2D99 JUMP JUMPDEST DUP3 ADD SWAP2 SWAP1 PUSH0 MSTORE PUSH1 0x20 PUSH0 KECCAK256 SWAP1 JUMPDEST DUP2 SLOAD DUP2 MSTORE SWAP1 PUSH1 0x1 ADD SWAP1 PUSH1 0x20 ADD DUP1 DUP4 GT PUSH2 0x2D7C JUMPI DUP3 SWAP1 SUB PUSH1 0x1F AND DUP3 ADD SWAP2 JUMPDEST POP POP POP POP POP DUP2 MSTORE PUSH1 0x20 ADD PUSH1 0x1 DUP3 ADD DUP1 SLOAD PUSH2 0x2DB2 SWAP1 PUSH2 0x45B3 JUMP JUMPDEST DUP1 PUSH1 0x1F ADD PUSH1 0x20 DUP1 SWAP2 DIV MUL PUSH1 0x20 ADD PUSH1 0x40 MLOAD SWAP1 DUP2 ADD PUSH1 0x40 MSTORE DUP1 SWAP3 SWAP2 SWAP1 DUP2 DUP2 MSTORE PUSH1 0x20 ADD DUP3 DUP1 SLOAD PUSH2 0x2DDE SWAP1 PUSH2 0x45B3 JUMP JUMPDEST DUP1 ISZERO PUSH2 0x2E29 JUMPI DUP1 PUSH1 0x1F LT PUSH2 0x2E00 JUMPI PUSH2 0x100 DUP1 DUP4 SLOAD DIV MUL DUP4 MSTORE SWAP2 PUSH1 0x20 ADD SWAP2 PUSH2 0x2E29 JUMP JUMPDEST DUP3 ADD SWAP2 SWAP1 PUSH0 MSTORE PUSH1 0x20 PUSH0 KECCAK256 SWAP1 JUMPDEST DUP2 SLOAD DUP2 MSTORE SWAP1 PUSH1 0x1 ADD SWAP1 PUSH1 0x20 ADD DUP1 DUP4 GT PUSH2 0x2E0C JUMPI DUP3 SWAP1 SUB PUSH1 0x1F AND DUP3 ADD SWAP2 JUMPDEST POP POP POP POP POP DUP2 MSTORE PUSH1 0x20 ADD PUSH1 0x2 DUP3 ADD DUP1 SLOAD PUSH2 0x2E42 SWAP1 PUSH2 0x45B3 JUMP JUMPDEST DUP1 PUSH1 0x1F ADD PUSH1 0x20 DUP1 SWAP2 DIV MUL PUSH1 0x20 ADD PUSH1 0x40 MLOAD SWAP1 DUP2 ADD PUSH1 0x40 MSTORE DUP1 SWAP3 SWAP2 SWAP1 DUP2 DUP2 MSTORE PUSH1 0x20 ADD DUP3 DUP1 SLOAD PUSH2 0x2E6E SWAP1 PUSH2 0x45B3 JUMP JUMPDEST DUP1 ISZERO PUSH2 0x2EB9 JUMPI DUP1 PUSH1 0x1F LT PUSH2 0x2E90 JUMPI PUSH2 0x100 DUP1 DUP4 SLOAD DIV MUL DUP4 MSTORE SWAP2 PUSH1 0x20 ADD SWAP2 PUSH2 0x2EB9 JUMP JUMPDEST DUP3 ADD SWAP2 SWAP1 PUSH0 MSTORE PUSH1 0x20 PUSH0 KECCAK256 SWAP1 JUMPDEST DUP2 SLOAD DUP2 MSTORE SWAP1 PUSH1 0x1 ADD SWAP1 PUSH1 0x20 ADD DUP1 DUP4 GT PUSH2 0x2E9C JUMPI DUP3 SWAP1 SUB PUSH1 0x1F AND DUP3 ADD SWAP2 JUMPDEST POP POP POP POP POP DUP2 MSTORE PUSH1 0x20 ADD PUSH1 0x3 DUP3 ADD PUSH0 SWAP1 SLOAD SWAP1 PUSH2 0x100 EXP SWAP1 DIV PUSH20 0xFFFFFFFFFFFFFFFFFFFFFFFFFFFFFFFFFFFFFFFF AND PUSH20 0xFFFFFFFFFFFFFFFFFFFFFFFFFFFFFFFFFFFFFFFF AND PUSH20 0xFFFFFFFFFFFFFFFFFFFFFFFFFFFFFFFFFFFFFFFF AND DUP2 MSTORE PUSH1 0x20 ADD PUSH1 0x3 DUP3 ADD PUSH1 0x14 SWAP1 SLOAD SWAP1 PUSH2 0x100 EXP SWAP1 DIV PUSH1 0xFF AND ISZERO ISZERO ISZERO ISZERO DUP2 MSTORE PUSH1 0x20 ADD PUSH1 0x3 DUP3 ADD PUSH1 0x15 SWAP1 SLOAD SWAP1 PUSH2 0x100 EXP SWAP1 DIV PUSH1 0xFF AND ISZERO ISZERO ISZERO ISZERO DUP2 MSTORE PUSH1 0x20 ADD PUSH1 0x4 DUP3 ADD DUP1 SLOAD DUP1 PUSH1 0x20 MUL PUSH1 0x20 ADD PUSH1 0x40 MLOAD SWAP1 DUP2 ADD PUSH1 0x40 MSTORE DUP1 SWAP3 SWAP2 SWAP1 DUP2 DUP2 MSTORE PUSH1 0x20 ADD PUSH0 SWAP1 JUMPDEST DUP3 DUP3 LT ISZERO PUSH2 0x3019 JUMPI DUP4 DUP3 SWAP1 PUSH0 MSTORE PUSH1 0x20 PUSH0 KECCAK256 ADD DUP1 SLOAD PUSH2 0x2F8E SWAP1 PUSH2 0x45B3 JUMP JUMPDEST DUP1 PUSH1 0x1F ADD PUSH1 0x20 DUP1 SWAP2 DIV MUL PUSH1 0x20 ADD PUSH1 0x40 MLOAD SWAP1 DUP2 ADD PUSH1 0x40 MSTORE DUP1 SWAP3 SWAP2 SWAP1 DUP2 DUP2 MSTORE PUSH1 0x20 ADD DUP3 DUP1 SLOAD PUSH2 0x2FBA SWAP1 PUSH2 0x45B3 JUMP JUMPDEST DUP1 ISZERO PUSH2 0x3005 JUMPI DUP1 PUSH1 0x1F LT PUSH2 0x2FDC JUMPI PUSH2 0x100 DUP1 DUP4 SLOAD DIV MUL DUP4 MSTORE SWAP2 PUSH1 0x20 ADD SWAP2 PUSH2 0x3005 JUMP JUMPDEST DUP3 ADD SWAP2 SWAP1 PUSH0 MSTORE PUSH1 0x20 PUSH0 KECCAK256 SWAP1 JUMPDEST DUP2 SLOAD DUP2 MSTORE SWAP1 PUSH1 0x1 ADD SWAP1 PUSH1 0x20 ADD DUP1 DUP4 GT PUSH2 0x2FE8 JUMPI DUP3 SWAP1 SUB PUSH1 0x1F AND DUP3 ADD SWAP2 JUMPDEST POP POP POP POP POP DUP2 MSTORE PUSH1 0x20 ADD SWAP1 PUSH1 0x1 ADD SWAP1 PUSH2 0x2F71 JUMP JUMPDEST POP POP POP POP DUP2 MSTORE PUSH1 0x20 ADD PUSH1 0x5 DUP3 ADD SLOAD DUP2 MSTORE POP POP SWAP1 POP SWAP2 SWAP1 POP JUMP JUMPDEST PUSH0 PUSH1 0x14 SWAP1 SLOAD SWAP1 PUSH2 0x100 EXP SWAP1 DIV PUSH1 0xFF AND DUP2 JUMP JUMPDEST PUSH1 0x3 DUP2 DUP1 MLOAD PUSH1 0x20 DUP2 ADD DUP3 ADD DUP1 MLOAD DUP5 DUP3 MSTORE PUSH1 0x20 DUP4 ADD PUSH1 0x20 DUP6 ADD KECCAK256 DUP2 DUP4 MSTORE DUP1 SWAP6 POP POP POP POP POP POP PUSH0 SWAP2 POP SWAP1 POP DUP1 PUSH0 ADD DUP1 SLOAD PUSH2 0x307B SWAP1 PUSH2 0x45B3 JUMP JUMPDEST DUP1 PUSH1 0x1F ADD PUSH1 0x20 DUP1 SWAP2 DIV MUL PUSH1 0x20 ADD PUSH1 0x40 MLOAD SWAP1 DUP2 ADD PUSH1 0x40 MSTORE DUP1 SWAP3 SWAP2 SWAP1 DUP2 DUP2 MSTORE PUSH1 0x20 ADD DUP3 DUP1 SLOAD PUSH2 0x30A7 SWAP1 PUSH2 0x45B3 JUMP JUMPDEST DUP1 ISZERO PUSH2 0x30F2 JUMPI DUP1 PUSH1 0x1F LT PUSH2 0x30C9 JUMPI PUSH2 0x100 DUP1 DUP4 SLOAD DIV MUL DUP4 MSTORE SWAP2 PUSH1 0x20 ADD SWAP2 PUSH2 0x30F2 JUMP JUMPDEST DUP3 ADD SWAP2 SWAP1 PUSH0 MSTORE PUSH1 0x20 PUSH0 KECCAK256 SWAP1 JUMPDEST DUP2 SLOAD DUP2 MSTORE SWAP1 PUSH1 0x1 ADD SWAP1 PUSH1 0x20 ADD DUP1 DUP4 GT PUSH2 0x30D5 JUMPI DUP3 SWAP1 SUB PUSH1 0x1F AND DUP3 ADD SWAP2 JUMPDEST POP POP POP POP POP SWAP1 DUP1 PUSH1 0x1 ADD DUP1 SLOAD PUSH2 0x3107 SWAP1 PUSH2 0x45B3 JUMP JUMPDEST DUP1 PUSH1 0x1F ADD PUSH1 0x20 DUP1 SWAP2 DIV MUL PUSH1 0x20 ADD PUSH1 0x40 MLOAD SWAP1 DUP2 ADD PUSH1 0x40 MSTORE DUP1 SWAP3 SWAP2 SWAP1 DUP2 DUP2 MSTORE PUSH1 0x20 ADD DUP3 DUP1 SLOAD PUSH2 0x3133 SWAP1 PUSH2 0x45B3 JUMP JUMPDEST DUP1 ISZERO PUSH2 0x317E JUMPI DUP1 PUSH1 0x1F LT PUSH2 0x3155 JUMPI PUSH2 0x100 DUP1 DUP4 SLOAD DIV MUL DUP4 MSTORE SWAP2 PUSH1 0x20 ADD SWAP2 PUSH2 0x317E JUMP JUMPDEST DUP3 ADD SWAP2 SWAP1 PUSH0 MSTORE PUSH1 0x20 PUSH0 KECCAK256 SWAP1 JUMPDEST DUP2 SLOAD DUP2 MSTORE SWAP1 PUSH1 0x1 ADD SWAP1 PUSH1 0x20 ADD DUP1 DUP4 GT PUSH2 0x3161 JUMPI DUP3 SWAP1 SUB PUSH1 0x1F AND DUP3 ADD SWAP2 JUMPDEST POP POP POP POP POP SWAP1 DUP1 PUSH1 0x2 ADD DUP1 SLOAD PUSH2 0x3193 SWAP1 PUSH2 0x45B3 JUMP JUMPDEST DUP1 PUSH1 0x1F ADD PUSH1 0x20 DUP1 SWAP2 DIV MUL PUSH1 0x20 ADD PUSH1 0x40 MLOAD SWAP1 DUP2 ADD PUSH1 0x40 MSTORE DUP1 SWAP3 SWAP2 SWAP1 DUP2 DUP2 MSTORE PUSH1 0x20 ADD DUP3 DUP1 SLOAD PUSH2 0x31BF SWAP1 PUSH2 0x45B3 JUMP JUMPDEST DUP1 ISZERO PUSH2 0x320A JUMPI DUP1 PUSH1 0x1F LT PUSH2 0x31E1 JUMPI PUSH2 0x100 DUP1 DUP4 SLOAD DIV MUL DUP4 MSTORE SWAP2 PUSH1 0x20 ADD SWAP2 PUSH2 0x320A JUMP JUMPDEST DUP3 ADD SWAP2 SWAP1 PUSH0 MSTORE PUSH1 0x20 PUSH0 KECCAK256 SWAP1 JUMPDEST DUP2 SLOAD DUP2 MSTORE SWAP1 PUSH1 0x1 ADD SWAP1 PUSH1 0x20 ADD DUP1 DUP4 GT PUSH2 0x31ED JUMPI DUP3 SWAP1 SUB PUSH1 0x1F AND DUP3 ADD SWAP2 JUMPDEST POP POP POP POP POP SWAP1 DUP1 PUSH1 0x3 ADD PUSH0 SWAP1 SLOAD SWAP1 PUSH2 0x100 EXP SWAP1 DIV PUSH20 0xFFFFFFFFFFFFFFFFFFFFFFFFFFFFFFFFFFFFFFFF AND SWAP1 DUP1 PUSH1 0x3 ADD PUSH1 0x14 SWAP1 SLOAD SWAP1 PUSH2 0x100 EXP SWAP1 DIV PUSH1 0xFF AND SWAP1 DUP1 PUSH1 0x3 ADD PUSH1 0x15 SWAP1 SLOAD SWAP1 PUSH2 0x100 EXP SWAP1 DIV PUSH1 0xFF AND SWAP1 DUP1 PUSH1 0x5 ADD SLOAD SWAP1 POP DUP8 JUMP JUMPDEST PUSH1 0x8 DUP4 DUP1 MLOAD PUSH1 0x20 DUP2 ADD DUP3 ADD DUP1 MLOAD DUP5 DUP3 MSTORE PUSH1 0x20 DUP4 ADD PUSH1 0x20 DUP6 ADD KECCAK256 DUP2 DUP4 MSTORE DUP1 SWAP6 POP POP POP POP POP POP PUSH1 0x20 MSTORE DUP2 PUSH0 MSTORE PUSH1 0x40 PUSH0 KECCAK256 PUSH1 0x20 MSTORE DUP1 PUSH0 MSTORE PUSH1 0x40 PUSH0 KECCAK256 PUSH0 SWAP3 POP SWAP3 POP POP SWAP1 SLOAD SWAP1 PUSH2 0x100 EXP SWAP1 DIV PUSH1 0xFF AND DUP2 JUMP JUMPDEST PUSH0 PUSH1 0x4 DUP3 PUSH1 0x40 MLOAD PUSH2 0x32C3 SWAP2 SWAP1 PUSH2 0x44A0 JUMP JUMPDEST SWAP1 DUP2 MSTORE PUSH1 0x20 ADD PUSH1 0x40 MLOAD DUP1 SWAP2 SUB SWAP1 KECCAK256 PUSH0 CALLER PUSH20 0xFFFFFFFFFFFFFFFFFFFFFFFFFFFFFFFFFFFFFFFF AND PUSH20 0xFFFFFFFFFFFFFFFFFFFFFFFFFFFFFFFFFFFFFFFF AND DUP2 MSTORE PUSH1 0x20 ADD SWAP1 DUP2 MSTORE PUSH1 0x20 ADD PUSH0 KECCAK256 PUSH0 SWAP1 SLOAD SWAP1 PUSH2 0x100 EXP SWAP1 DIV PUSH1 0xFF AND SWAP1 POP SWAP2 SWAP1 POP JUMP JUMPDEST PUSH0 PUSH1 0x3 DUP4 PUSH1 0x40 MLOAD PUSH2 0x3331 SWAP2 SWAP1 PUSH2 0x44A0 JUMP JUMPDEST SWAP1 DUP2 MSTORE PUSH1 0x20 ADD PUSH1 0x40 MLOAD DUP1 SWAP2 SUB SWAP1 KECCAK256 SWAP1 POP DUP2 PUSH1 0x9 DUP5 PUSH1 0x40 MLOAD PUSH2 0x3352 SWAP2 SWAP1 PUSH2 0x44A0 JUMP JUMPDEST SWAP1 DUP2 MSTORE PUSH1 0x20 ADD PUSH1 0x40 MLOAD DUP1 SWAP2 SUB SWAP1 KECCAK256 PUSH0 DUP4 PUSH1 0x5 ADD SLOAD DUP2 MSTORE PUSH1 0x20 ADD SWAP1 DUP2 MSTORE PUSH1 0x20 ADD PUSH0 KECCAK256 PUSH0 DUP3 ADD MLOAD DUP2 PUSH0 ADD SWAP1 DUP2 PUSH2 0x3386 SWAP2 SWAP1 PUSH2 0x498B JUMP JUMPDEST POP PUSH1 0x20 DUP3 ADD MLOAD DUP2 PUSH1 0x1 ADD SWAP1 DUP2 PUSH2 0x339C SWAP2 SWAP1 PUSH2 0x498B JUMP JUMPDEST POP PUSH1 0x40 DUP3 ADD MLOAD DUP2 PUSH1 0x2 ADD SWAP1 DUP2 PUSH2 0x33B2 SWAP2 SWAP1 PUSH2 0x498B JUMP JUMPDEST POP PUSH1 0x60 DUP3 ADD MLOAD DUP2 PUSH1 0x3 ADD PUSH0 PUSH2 0x100 EXP DUP2 SLOAD DUP2 PUSH1 0xFF MUL NOT AND SWAP1 DUP4 PUSH1 0x3 DUP2 GT ISZERO PUSH2 0x33DD JUMPI PUSH2 0x33DC PUSH2 0x3AB5 JUMP JUMPDEST JUMPDEST MUL OR SWAP1 SSTORE POP PUSH1 0x80 DUP3 ADD MLOAD DUP2 PUSH1 0x3 ADD PUSH1 0x1 PUSH2 0x100 EXP DUP2 SLOAD DUP2 PUSH20 0xFFFFFFFFFFFFFFFFFFFFFFFFFFFFFFFFFFFFFFFF MUL NOT AND SWAP1 DUP4 PUSH20 0xFFFFFFFFFFFFFFFFFFFFFFFFFFFFFFFFFFFFFFFF AND MUL OR SWAP1 SSTORE POP PUSH1 0xA0 DUP3 ADD MLOAD DUP2 PUSH1 0x3 ADD PUSH1 0x15 PUSH2 0x100 EXP DUP2 SLOAD DUP2 PUSH1 0xFF MUL NOT AND SWAP1 DUP4 ISZERO ISZERO MUL OR SWAP1 SSTORE POP PUSH1 0xC0 DUP3 ADD MLOAD DUP2 PUSH1 0x4 ADD SSTORE PUSH1 0xE0 DUP3 ADD MLOAD DUP2 PUSH1 0x5 ADD SWAP1 DUP1 MLOAD SWAP1 PUSH1 0x20 ADD SWAP1 PUSH2 0x346F SWAP3 SWAP2 SWAP1 PUSH2 0x358E JUMP JUMPDEST POP SWAP1 POP POP DUP1 PUSH1 0x5 ADD PUSH0 DUP2 SLOAD DUP1 SWAP3 SWAP2 SWAP1 PUSH2 0x3487 SWAP1 PUSH2 0x4FDD JUMP JUMPDEST SWAP2 SWAP1 POP SSTORE POP POP POP POP JUMP JUMPDEST PUSH1 0x40 MLOAD DUP1 PUSH1 0xC0 ADD PUSH1 0x40 MSTORE DUP1 PUSH1 0x60 DUP2 MSTORE PUSH1 0x20 ADD PUSH0 PUSH20 0xFFFFFFFFFFFFFFFFFFFFFFFFFFFFFFFFFFFFFFFF AND DUP2 MSTORE PUSH1 0x20 ADD PUSH1 0x60 DUP2 MSTORE PUSH1 0x20 ADD PUSH0 DUP2 MSTORE PUSH1 0x20 ADD PUSH0 ISZERO ISZERO DUP2 MSTORE PUSH1 0x20 ADD PUSH1 0x60 DUP2 MSTORE POP SWAP1 JUMP JUMPDEST DUP3 DUP1 SLOAD DUP3 DUP3 SSTORE SWAP1 PUSH0 MSTORE PUSH1 0x20 PUSH0 KECCAK256 SWAP1 DUP2 ADD SWAP3 DUP3 ISZERO PUSH2 0x3522 JUMPI SWAP2 PUSH1 0x20 MUL DUP3 ADD JUMPDEST DUP3 DUP2 GT ISZERO PUSH2 0x3521 JUMPI DUP3 MLOAD DUP3 SWAP1 DUP2 PUSH2 0x3511 SWAP2 SWAP1 PUSH2 0x498B JUMP JUMPDEST POP SWAP2 PUSH1 0x20 ADD SWAP2 SWAP1 PUSH1 0x1 ADD SWAP1 PUSH2 0x34FA JUMP JUMPDEST JUMPDEST POP SWAP1 POP PUSH2 0x352F SWAP2 SWAP1 PUSH2 0x3615 JUMP JUMPDEST POP SWAP1 JUMP JUMPDEST PUSH1 0x40 MLOAD DUP1 PUSH2 0x100 ADD PUSH1 0x40 MSTORE DUP1 PUSH1 0x60 DUP2 MSTORE PUSH1 0x20 ADD PUSH1 0x60 DUP2 MSTORE PUSH1 0x20 ADD PUSH1 0x60 DUP2 MSTORE PUSH1 0x20 ADD PUSH0 PUSH20 0xFFFFFFFFFFFFFFFFFFFFFFFFFFFFFFFFFFFFFFFF AND DUP2 MSTORE PUSH1 0x20 ADD PUSH0 ISZERO ISZERO DUP2 MSTORE PUSH1 0x20 ADD PUSH0 ISZERO ISZERO DUP2 MSTORE PUSH1 0x20 ADD PUSH1 0x60 DUP2 MSTORE PUSH1 0x20 ADD PUSH0 DUP2 MSTORE POP SWAP1 JUMP JUMPDEST DUP3 DUP1 SLOAD DUP3 DUP3 SSTORE SWAP1 PUSH0 MSTORE PUSH1 0x20 PUSH0 KECCAK256 SWAP1 DUP2 ADD SWAP3 DUP3 ISZERO PUSH2 0x3604 JUMPI SWAP2 PUSH1 0x20 MUL DUP3 ADD JUMPDEST DUP3 DUP2 GT ISZERO PUSH2 0x3603 JUMPI DUP3 MLOAD DUP3 PUSH0 PUSH2 0x100 EXP DUP2 SLOAD DUP2 PUSH20 0xFFFFFFFFFFFFFFFFFFFFFFFFFFFFFFFFFFFFFFFF MUL NOT AND SWAP1 DUP4 PUSH20 0xFFFFFFFFFFFFFFFFFFFFFFFFFFFFFFFFFFFFFFFF AND MUL OR SWAP1 SSTORE POP SWAP2 PUSH1 0x20 ADD SWAP2 SWAP1 PUSH1 0x1 ADD SWAP1 PUSH2 0x35AC JUMP JUMPDEST JUMPDEST POP SWAP1 POP PUSH2 0x3611 SWAP2 SWAP1 PUSH2 0x3638 JUMP JUMPDEST POP SWAP1 JUMP JUMPDEST JUMPDEST DUP1 DUP3 GT ISZERO PUSH2 0x3634 JUMPI PUSH0 DUP2 DUP2 PUSH2 0x362B SWAP2 SWAP1 PUSH2 0x3653 JUMP JUMPDEST POP PUSH1 0x1 ADD PUSH2 0x3616 JUMP JUMPDEST POP SWAP1 JUMP JUMPDEST JUMPDEST DUP1 DUP3 GT ISZERO PUSH2 0x364F JUMPI PUSH0 DUP2 PUSH0 SWAP1 SSTORE POP PUSH1 0x1 ADD PUSH2 0x3639 JUMP JUMPDEST POP SWAP1 JUMP JUMPDEST POP DUP1 SLOAD PUSH2 0x365F SWAP1 PUSH2 0x45B3 JUMP JUMPDEST PUSH0 DUP3 SSTORE DUP1 PUSH1 0x1F LT PUSH2 0x3670 JUMPI POP PUSH2 0x368D JUMP JUMPDEST PUSH1 0x1F ADD PUSH1 0x20 SWAP1 DIV SWAP1 PUSH0 MSTORE PUSH1 0x20 PUSH0 KECCAK256 SWAP1 DUP2 ADD SWAP1 PUSH2 0x368C SWAP2 SWAP1 PUSH2 0x3638 JUMP JUMPDEST JUMPDEST POP JUMP JUMPDEST PUSH0 PUSH1 0x40 MLOAD SWAP1 POP SWAP1 JUMP JUMPDEST PUSH0 PUSH0 REVERT JUMPDEST PUSH0 PUSH0 REVERT JUMPDEST PUSH0 PUSH0 REVERT JUMPDEST PUSH0 PUSH0 REVERT JUMPDEST PUSH0 PUSH1 0x1F NOT PUSH1 0x1F DUP4 ADD AND SWAP1 POP SWAP2 SWAP1 POP JUMP JUMPDEST PUSH32 0x4E487B7100000000000000000000000000000000000000000000000000000000 PUSH0 MSTORE PUSH1 0x41 PUSH1 0x4 MSTORE PUSH1 0x24 PUSH0 REVERT JUMPDEST PUSH2 0x36EF DUP3 PUSH2 0x36A9 JUMP JUMPDEST DUP2 ADD DUP2 DUP2 LT PUSH8 0xFFFFFFFFFFFFFFFF DUP3 GT OR ISZERO PUSH2 0x370E JUMPI PUSH2 0x370D PUSH2 0x36B9 JUMP JUMPDEST JUMPDEST DUP1 PUSH1 0x40 MSTORE POP POP POP JUMP JUMPDEST PUSH0 PUSH2 0x3720 PUSH2 0x3690 JUMP JUMPDEST SWAP1 POP PUSH2 0x372C DUP3 DUP3 PUSH2 0x36E6 JUMP JUMPDEST SWAP2 SWAP1 POP JUMP JUMPDEST PUSH0 PUSH8 0xFFFFFFFFFFFFFFFF DUP3 GT ISZERO PUSH2 0x374B JUMPI PUSH2 0x374A PUSH2 0x36B9 JUMP JUMPDEST JUMPDEST PUSH2 0x3754 DUP3 PUSH2 0x36A9 JUMP JUMPDEST SWAP1 POP PUSH1 0x20 DUP2 ADD SWAP1 POP SWAP2 SWAP1 POP JUMP JUMPDEST DUP3 DUP2 DUP4 CALLDATACOPY PUSH0 DUP4 DUP4 ADD MSTORE POP POP POP JUMP JUMPDEST PUSH0 PUSH2 0x3781 PUSH2 0x377C DUP5 PUSH2 0x3731 JUMP JUMPDEST PUSH2 0x3717 JUMP JUMPDEST SWAP1 POP DUP3 DUP2 MSTORE PUSH1 0x20 DUP2 ADD DUP5 DUP5 DUP5 ADD GT ISZERO PUSH2 0x379D JUMPI PUSH2 0x379C PUSH2 0x36A5 JUMP JUMPDEST JUMPDEST PUSH2 0x37A8 DUP5 DUP3 DUP6 PUSH2 0x3761 JUMP JUMPDEST POP SWAP4 SWAP3 POP POP POP JUMP JUMPDEST PUSH0 DUP3 PUSH1 0x1F DUP4 ADD SLT PUSH2 0x37C4 JUMPI PUSH2 0x37C3 PUSH2 0x36A1 JUMP JUMPDEST JUMPDEST DUP2 CALLDATALOAD PUSH2 0x37D4 DUP5 DUP3 PUSH1 0x20 DUP7 ADD PUSH2 0x376F JUMP JUMPDEST SWAP2 POP POP SWAP3 SWAP2 POP POP JUMP JUMPDEST PUSH0 PUSH20 0xFFFFFFFFFFFFFFFFFFFFFFFFFFFFFFFFFFFFFFFF DUP3 AND SWAP1 POP SWAP2 SWAP1 POP JUMP JUMPDEST PUSH0 PUSH2 0x3806 DUP3 PUSH2 0x37DD JUMP JUMPDEST SWAP1 POP SWAP2 SWAP1 POP JUMP JUMPDEST PUSH2 0x3816 DUP2 PUSH2 0x37FC JUMP JUMPDEST DUP2 EQ PUSH2 0x3820 JUMPI PUSH0 PUSH0 REVERT JUMPDEST POP JUMP JUMPDEST PUSH0 DUP2 CALLDATALOAD SWAP1 POP PUSH2 0x3831 DUP2 PUSH2 0x380D JUMP JUMPDEST SWAP3 SWAP2 POP POP JUMP JUMPDEST PUSH0 PUSH0 PUSH1 0x40 DUP4 DUP6 SUB SLT ISZERO PUSH2 0x384D JUMPI PUSH2 0x384C PUSH2 0x3699 JUMP JUMPDEST JUMPDEST PUSH0 DUP4 ADD CALLDATALOAD PUSH8 0xFFFFFFFFFFFFFFFF DUP2 GT ISZERO PUSH2 0x386A JUMPI PUSH2 0x3869 PUSH2 0x369D JUMP JUMPDEST JUMPDEST PUSH2 0x3876 DUP6 DUP3 DUP7 ADD PUSH2 0x37B0 JUMP JUMPDEST SWAP3 POP POP PUSH1 0x20 PUSH2 0x3887 DUP6 DUP3 DUP7 ADD PUSH2 0x3823 JUMP JUMPDEST SWAP2 POP POP SWAP3 POP SWAP3 SWAP1 POP JUMP JUMPDEST PUSH0 DUP2 ISZERO ISZERO SWAP1 POP SWAP2 SWAP1 POP JUMP JUMPDEST PUSH2 0x38A5 DUP2 PUSH2 0x3891 JUMP JUMPDEST DUP3 MSTORE POP POP JUMP JUMPDEST PUSH0 PUSH1 0x20 DUP3 ADD SWAP1 POP PUSH2 0x38BE PUSH0 DUP4 ADD DUP5 PUSH2 0x389C JUMP JUMPDEST SWAP3 SWAP2 POP POP JUMP JUMPDEST PUSH0 DUP2 SWAP1 POP SWAP2 SWAP1 POP JUMP JUMPDEST PUSH2 0x38D6 DUP2 PUSH2 0x38C4 JUMP JUMPDEST DUP2 EQ PUSH2 0x38E0 JUMPI PUSH0 PUSH0 REVERT JUMPDEST POP JUMP JUMPDEST PUSH0 DUP2 CALLDATALOAD SWAP1 POP PUSH2 0x38F1 DUP2 PUSH2 0x38CD JUMP JUMPDEST SWAP3 SWAP2 POP POP JUMP JUMPDEST PUSH0 PUSH0 PUSH1 0x40 DUP4 DUP6 SUB SLT ISZERO PUSH2 0x390D JUMPI PUSH2 0x390C PUSH2 0x3699 JUMP JUMPDEST JUMPDEST PUSH0 DUP4 ADD CALLDATALOAD PUSH8 0xFFFFFFFFFFFFFFFF DUP2 GT ISZERO PUSH2 0x392A JUMPI PUSH2 0x3929 PUSH2 0x369D JUMP JUMPDEST JUMPDEST PUSH2 0x3936 DUP6 DUP3 DUP7 ADD PUSH2 0x37B0 JUMP JUMPDEST SWAP3 POP POP PUSH1 0x20 PUSH2 0x3947 DUP6 DUP3 DUP7 ADD PUSH2 0x38E3 JUMP JUMPDEST SWAP2 POP POP SWAP3 POP SWAP3 SWAP1 POP JUMP JUMPDEST PUSH0 PUSH1 0x20 DUP3 DUP5 SUB SLT ISZERO PUSH2 0x3966 JUMPI PUSH2 0x3965 PUSH2 0x3699 JUMP JUMPDEST JUMPDEST PUSH0 DUP3 ADD CALLDATALOAD PUSH8 0xFFFFFFFFFFFFFFFF DUP2 GT ISZERO PUSH2 0x3983 JUMPI PUSH2 0x3982 PUSH2 0x369D JUMP JUMPDEST JUMPDEST PUSH2 0x398F DUP5 DUP3 DUP6 ADD PUSH2 0x37B0 JUMP JUMPDEST SWAP2 POP POP SWAP3 SWAP2 POP POP JUMP JUMPDEST PUSH0 DUP2 MLOAD SWAP1 POP SWAP2 SWAP1 POP JUMP JUMPDEST PUSH0 DUP3 DUP3 MSTORE PUSH1 0x20 DUP3 ADD SWAP1 POP SWAP3 SWAP2 POP POP JUMP JUMPDEST DUP3 DUP2 DUP4 MCOPY PUSH0 DUP4 DUP4 ADD MSTORE POP POP POP JUMP JUMPDEST PUSH0 PUSH2 0x39CA DUP3 PUSH2 0x3998 JUMP JUMPDEST PUSH2 0x39D4 DUP2 DUP6 PUSH2 0x39A2 JUMP JUMPDEST SWAP4 POP PUSH2 0x39E4 DUP2 DUP6 PUSH1 0x20 DUP7 ADD PUSH2 0x39B2 JUMP JUMPDEST PUSH2 0x39ED DUP2 PUSH2 0x36A9 JUMP JUMPDEST DUP5 ADD SWAP2 POP POP SWAP3 SWAP2 POP POP JUMP JUMPDEST PUSH2 0x3A01 DUP2 PUSH2 0x37FC JUMP JUMPDEST DUP3 MSTORE POP POP JUMP JUMPDEST PUSH2 0x3A10 DUP2 PUSH2 0x38C4 JUMP JUMPDEST DUP3 MSTORE POP POP JUMP JUMPDEST PUSH0 PUSH1 0xC0 DUP3 ADD SWAP1 POP DUP2 DUP2 SUB PUSH0 DUP4 ADD MSTORE PUSH2 0x3A2E DUP2 DUP10 PUSH2 0x39C0 JUMP JUMPDEST SWAP1 POP PUSH2 0x3A3D PUSH1 0x20 DUP4 ADD DUP9 PUSH2 0x39F8 JUMP JUMPDEST DUP2 DUP2 SUB PUSH1 0x40 DUP4 ADD MSTORE PUSH2 0x3A4F DUP2 DUP8 PUSH2 0x39C0 JUMP JUMPDEST SWAP1 POP PUSH2 0x3A5E PUSH1 0x60 DUP4 ADD DUP7 PUSH2 0x3A07 JUMP JUMPDEST PUSH2 0x3A6B PUSH1 0x80 DUP4 ADD DUP6 PUSH2 0x389C JUMP JUMPDEST DUP2 DUP2 SUB PUSH1 0xA0 DUP4 ADD MSTORE PUSH2 0x3A7D DUP2 DUP5 PUSH2 0x39C0 JUMP JUMPDEST SWAP1 POP SWAP8 SWAP7 POP POP POP POP POP POP POP JUMP JUMPDEST PUSH0 PUSH1 0x20 DUP3 DUP5 SUB SLT ISZERO PUSH2 0x3A9F JUMPI PUSH2 0x3A9E PUSH2 0x3699 JUMP JUMPDEST JUMPDEST PUSH0 PUSH2 0x3AAC DUP5 DUP3 DUP6 ADD PUSH2 0x3823 JUMP JUMPDEST SWAP2 POP POP SWAP3 SWAP2 POP POP JUMP JUMPDEST PUSH32 0x4E487B7100000000000000000000000000000000000000000000000000000000 PUSH0 MSTORE PUSH1 0x21 PUSH1 0x4 MSTORE PUSH1 0x24 PUSH0 REVERT JUMPDEST PUSH1 0x5 DUP2 LT PUSH2 0x3AF3 JUMPI PUSH2 0x3AF2 PUSH2 0x3AB5 JUMP JUMPDEST JUMPDEST POP JUMP JUMPDEST PUSH0 DUP2 SWAP1 POP PUSH2 0x3B03 DUP3 PUSH2 0x3AE2 JUMP JUMPDEST SWAP2 SWAP1 POP JUMP JUMPDEST PUSH0 PUSH2 0x3B12 DUP3 PUSH2 0x3AF6 JUMP JUMPDEST SWAP1 POP SWAP2 SWAP1 POP JUMP JUMPDEST PUSH2 0x3B22 DUP2 PUSH2 0x3B08 JUMP JUMPDEST DUP3 MSTORE POP POP JUMP JUMPDEST PUSH0 PUSH1 0x20 DUP3 ADD SWAP1 POP PUSH2 0x3B3B PUSH0 DUP4 ADD DUP5 PUSH2 0x3B19 JUMP JUMPDEST SWAP3 SWAP2 POP POP JUMP JUMPDEST PUSH1 0x4 DUP2 LT PUSH2 0x3B52 JUMPI PUSH2 0x3B51 PUSH2 0x3AB5 JUMP JUMPDEST JUMPDEST POP JUMP JUMPDEST PUSH0 DUP2 SWAP1 POP PUSH2 0x3B62 DUP3 PUSH2 0x3B41 JUMP JUMPDEST SWAP2 SWAP1 POP JUMP JUMPDEST PUSH0 PUSH2 0x3B71 DUP3 PUSH2 0x3B55 JUMP JUMPDEST SWAP1 POP SWAP2 SWAP1 POP JUMP JUMPDEST PUSH2 0x3B81 DUP2 PUSH2 0x3B67 JUMP JUMPDEST DUP3 MSTORE POP POP JUMP JUMPDEST PUSH0 PUSH1 0xE0 DUP3 ADD SWAP1 POP DUP2 DUP2 SUB PUSH0 DUP4 ADD MSTORE PUSH2 0x3B9F DUP2 DUP11 PUSH2 0x39C0 JUMP JUMPDEST SWAP1 POP DUP2 DUP2 SUB PUSH1 0x20 DUP4 ADD MSTORE PUSH2 0x3BB3 DUP2 DUP10 PUSH2 0x39C0 JUMP JUMPDEST SWAP1 POP DUP2 DUP2 SUB PUSH1 0x40 DUP4 ADD MSTORE PUSH2 0x3BC7 DUP2 DUP9 PUSH2 0x39C0 JUMP JUMPDEST SWAP1 POP PUSH2 0x3BD6 PUSH1 0x60 DUP4 ADD DUP8 PUSH2 0x3B78 JUMP JUMPDEST PUSH2 0x3BE3 PUSH1 0x80 DUP4 ADD DUP7 PUSH2 0x39F8 JUMP JUMPDEST PUSH2 0x3BF0 PUSH1 0xA0 DUP4 ADD DUP6 PUSH2 0x389C JUMP JUMPDEST PUSH2 0x3BFD PUSH1 0xC0 DUP4 ADD DUP5 PUSH2 0x3A07 JUMP JUMPDEST SWAP9 SWAP8 POP POP POP POP POP POP POP POP JUMP JUMPDEST PUSH0 PUSH0 PUSH1 0x40 DUP4 DUP6 SUB SLT ISZERO PUSH2 0x3C1F JUMPI PUSH2 0x3C1E PUSH2 0x3699 JUMP JUMPDEST JUMPDEST PUSH0 DUP4 ADD CALLDATALOAD PUSH8 0xFFFFFFFFFFFFFFFF DUP2 GT ISZERO PUSH2 0x3C3C JUMPI PUSH2 0x3C3B PUSH2 0x369D JUMP JUMPDEST JUMPDEST PUSH2 0x3C48 DUP6 DUP3 DUP7 ADD PUSH2 0x37B0 JUMP JUMPDEST SWAP3 POP POP PUSH1 0x20 DUP4 ADD CALLDATALOAD PUSH8 0xFFFFFFFFFFFFFFFF DUP2 GT ISZERO PUSH2 0x3C69 JUMPI PUSH2 0x3C68 PUSH2 0x369D JUMP JUMPDEST JUMPDEST PUSH2 0x3C75 DUP6 DUP3 DUP7 ADD PUSH2 0x37B0 JUMP JUMPDEST SWAP2 POP POP SWAP3 POP SWAP3 SWAP1 POP JUMP JUMPDEST PUSH1 0x5 DUP2 LT PUSH2 0x3C8B JUMPI PUSH0 PUSH0 REVERT JUMPDEST POP JUMP JUMPDEST PUSH0 DUP2 CALLDATALOAD SWAP1 POP PUSH2 0x3C9C DUP2 PUSH2 0x3C7F JUMP JUMPDEST SWAP3 SWAP2 POP POP JUMP JUMPDEST PUSH0 PUSH0 PUSH1 0x40 DUP4 DUP6 SUB SLT ISZERO PUSH2 0x3CB8 JUMPI PUSH2 0x3CB7 PUSH2 0x3699 JUMP JUMPDEST JUMPDEST PUSH0 PUSH2 0x3CC5 DUP6 DUP3 DUP7 ADD PUSH2 0x3823 JUMP JUMPDEST SWAP3 POP POP PUSH1 0x20 PUSH2 0x3CD6 DUP6 DUP3 DUP7 ADD PUSH2 0x3C8E JUMP JUMPDEST SWAP2 POP POP SWAP3 POP SWAP3 SWAP1 POP JUMP JUMPDEST PUSH0 PUSH1 0x20 DUP3 ADD SWAP1 POP PUSH2 0x3CF3 PUSH0 DUP4 ADD DUP5 PUSH2 0x39F8 JUMP JUMPDEST SWAP3 SWAP2 POP POP JUMP JUMPDEST PUSH0 PUSH0 PUSH0 PUSH1 0x60 DUP5 DUP7 SUB SLT ISZERO PUSH2 0x3D10 JUMPI PUSH2 0x3D0F PUSH2 0x3699 JUMP JUMPDEST JUMPDEST PUSH0 DUP5 ADD CALLDATALOAD PUSH8 0xFFFFFFFFFFFFFFFF DUP2 GT ISZERO PUSH2 0x3D2D JUMPI PUSH2 0x3D2C PUSH2 0x369D JUMP JUMPDEST JUMPDEST PUSH2 0x3D39 DUP7 DUP3 DUP8 ADD PUSH2 0x37B0 JUMP JUMPDEST SWAP4 POP POP PUSH1 0x20 PUSH2 0x3D4A DUP7 DUP3 DUP8 ADD PUSH2 0x3823 JUMP JUMPDEST SWAP3 POP POP PUSH1 0x40 PUSH2 0x3D5B DUP7 DUP3 DUP8 ADD PUSH2 0x3C8E JUMP JUMPDEST SWAP2 POP POP SWAP3 POP SWAP3 POP SWAP3 JUMP JUMPDEST PUSH0 DUP3 DUP3 MSTORE PUSH1 0x20 DUP3 ADD SWAP1 POP SWAP3 SWAP2 POP POP JUMP JUMPDEST PUSH0 PUSH2 0x3D7F DUP3 PUSH2 0x3998 JUMP JUMPDEST PUSH2 0x3D89 DUP2 DUP6 PUSH2 0x3D65 JUMP JUMPDEST SWAP4 POP PUSH2 0x3D99 DUP2 DUP6 PUSH1 0x20 DUP7 ADD PUSH2 0x39B2 JUMP JUMPDEST PUSH2 0x3DA2 DUP2 PUSH2 0x36A9 JUMP JUMPDEST DUP5 ADD SWAP2 POP POP SWAP3 SWAP2 POP POP JUMP JUMPDEST PUSH2 0x3DB6 DUP2 PUSH2 0x37FC JUMP JUMPDEST DUP3 MSTORE POP POP JUMP JUMPDEST PUSH2 0x3DC5 DUP2 PUSH2 0x38C4 JUMP JUMPDEST DUP3 MSTORE POP POP JUMP JUMPDEST PUSH2 0x3DD4 DUP2 PUSH2 0x3891 JUMP JUMPDEST DUP3 MSTORE POP POP JUMP JUMPDEST PUSH0 PUSH1 0xC0 DUP4 ADD PUSH0 DUP4 ADD MLOAD DUP5 DUP3 SUB PUSH0 DUP7 ADD MSTORE PUSH2 0x3DF4 DUP3 DUP3 PUSH2 0x3D75 JUMP JUMPDEST SWAP2 POP POP PUSH1 0x20 DUP4 ADD MLOAD PUSH2 0x3E09 PUSH1 0x20 DUP7 ADD DUP3 PUSH2 0x3DAD JUMP JUMPDEST POP PUSH1 0x40 DUP4 ADD MLOAD DUP5 DUP3 SUB PUSH1 0x40 DUP7 ADD MSTORE PUSH2 0x3E21 DUP3 DUP3 PUSH2 0x3D75 JUMP JUMPDEST SWAP2 POP POP PUSH1 0x60 DUP4 ADD MLOAD PUSH2 0x3E36 PUSH1 0x60 DUP7 ADD DUP3 PUSH2 0x3DBC JUMP JUMPDEST POP PUSH1 0x80 DUP4 ADD MLOAD PUSH2 0x3E49 PUSH1 0x80 DUP7 ADD DUP3 PUSH2 0x3DCB JUMP JUMPDEST POP PUSH1 0xA0 DUP4 ADD MLOAD DUP5 DUP3 SUB PUSH1 0xA0 DUP7 ADD MSTORE PUSH2 0x3E61 DUP3 DUP3 PUSH2 0x3D75 JUMP JUMPDEST SWAP2 POP POP DUP1 SWAP2 POP POP SWAP3 SWAP2 POP POP JUMP JUMPDEST PUSH0 PUSH1 0x20 DUP3 ADD SWAP1 POP DUP2 DUP2 SUB PUSH0 DUP4 ADD MSTORE PUSH2 0x3E86 DUP2 DUP5 PUSH2 0x3DDA JUMP JUMPDEST SWAP1 POP SWAP3 SWAP2 POP POP JUMP JUMPDEST PUSH0 DUP2 SWAP1 POP SWAP2 SWAP1 POP JUMP JUMPDEST PUSH2 0x3EA0 DUP2 PUSH2 0x3E8E JUMP JUMPDEST DUP2 EQ PUSH2 0x3EAA JUMPI PUSH0 PUSH0 REVERT JUMPDEST POP JUMP JUMPDEST PUSH0 DUP2 CALLDATALOAD SWAP1 POP PUSH2 0x3EBB DUP2 PUSH2 0x3E97 JUMP JUMPDEST SWAP3 SWAP2 POP POP JUMP JUMPDEST PUSH0 PUSH1 0x20 DUP3 DUP5 SUB SLT ISZERO PUSH2 0x3ED6 JUMPI PUSH2 0x3ED5 PUSH2 0x3699 JUMP JUMPDEST JUMPDEST PUSH0 PUSH2 0x3EE3 DUP5 DUP3 DUP6 ADD PUSH2 0x3EAD JUMP JUMPDEST SWAP2 POP POP SWAP3 SWAP2 POP POP JUMP JUMPDEST PUSH0 PUSH8 0xFFFFFFFFFFFFFFFF DUP3 GT ISZERO PUSH2 0x3F06 JUMPI PUSH2 0x3F05 PUSH2 0x36B9 JUMP JUMPDEST JUMPDEST PUSH1 0x20 DUP3 MUL SWAP1 POP PUSH1 0x20 DUP2 ADD SWAP1 POP SWAP2 SWAP1 POP JUMP JUMPDEST PUSH0 PUSH0 REVERT JUMPDEST PUSH0 PUSH2 0x3F2D PUSH2 0x3F28 DUP5 PUSH2 0x3EEC JUMP JUMPDEST PUSH2 0x3717 JUMP JUMPDEST SWAP1 POP DUP1 DUP4 DUP3 MSTORE PUSH1 0x20 DUP3 ADD SWAP1 POP PUSH1 0x20 DUP5 MUL DUP4 ADD DUP6 DUP2 GT ISZERO PUSH2 0x3F50 JUMPI PUSH2 0x3F4F PUSH2 0x3F17 JUMP JUMPDEST JUMPDEST DUP4 JUMPDEST DUP2 DUP2 LT ISZERO PUSH2 0x3F97 JUMPI DUP1 CALLDATALOAD PUSH8 0xFFFFFFFFFFFFFFFF DUP2 GT ISZERO PUSH2 0x3F75 JUMPI PUSH2 0x3F74 PUSH2 0x36A1 JUMP JUMPDEST JUMPDEST DUP1 DUP7 ADD PUSH2 0x3F82 DUP10 DUP3 PUSH2 0x37B0 JUMP JUMPDEST DUP6 MSTORE PUSH1 0x20 DUP6 ADD SWAP5 POP POP POP PUSH1 0x20 DUP2 ADD SWAP1 POP PUSH2 0x3F52 JUMP JUMPDEST POP POP POP SWAP4 SWAP3 POP POP POP JUMP JUMPDEST PUSH0 DUP3 PUSH1 0x1F DUP4 ADD SLT PUSH2 0x3FB5 JUMPI PUSH2 0x3FB4 PUSH2 0x36A1 JUMP JUMPDEST JUMPDEST DUP2 CALLDATALOAD PUSH2 0x3FC5 DUP5 DUP3 PUSH1 0x20 DUP7 ADD PUSH2 0x3F1B JUMP JUMPDEST SWAP2 POP POP SWAP3 SWAP2 POP POP JUMP JUMPDEST PUSH0 PUSH0 PUSH0 PUSH0 PUSH0 PUSH1 0xA0 DUP7 DUP9 SUB SLT ISZERO PUSH2 0x3FE7 JUMPI PUSH2 0x3FE6 PUSH2 0x3699 JUMP JUMPDEST JUMPDEST PUSH0 DUP7 ADD CALLDATALOAD PUSH8 0xFFFFFFFFFFFFFFFF DUP2 GT ISZERO PUSH2 0x4004 JUMPI PUSH2 0x4003 PUSH2 0x369D JUMP JUMPDEST JUMPDEST PUSH2 0x4010 DUP9 DUP3 DUP10 ADD PUSH2 0x37B0 JUMP JUMPDEST SWAP6 POP POP PUSH1 0x20 DUP7 ADD CALLDATALOAD PUSH8 0xFFFFFFFFFFFFFFFF DUP2 GT ISZERO PUSH2 0x4031 JUMPI PUSH2 0x4030 PUSH2 0x369D JUMP JUMPDEST JUMPDEST PUSH2 0x403D DUP9 DUP3 DUP10 ADD PUSH2 0x37B0 JUMP JUMPDEST SWAP5 POP POP PUSH1 0x40 DUP7 ADD CALLDATALOAD PUSH8 0xFFFFFFFFFFFFFFFF DUP2 GT ISZERO PUSH2 0x405E JUMPI PUSH2 0x405D PUSH2 0x369D JUMP JUMPDEST JUMPDEST PUSH2 0x406A DUP9 DUP3 DUP10 ADD PUSH2 0x37B0 JUMP JUMPDEST SWAP4 POP POP PUSH1 0x60 DUP7 ADD CALLDATALOAD PUSH8 0xFFFFFFFFFFFFFFFF DUP2 GT ISZERO PUSH2 0x408B JUMPI PUSH2 0x408A PUSH2 0x369D JUMP JUMPDEST JUMPDEST PUSH2 0x4097 DUP9 DUP3 DUP10 ADD PUSH2 0x37B0 JUMP JUMPDEST SWAP3 POP POP PUSH1 0x80 DUP7 ADD CALLDATALOAD PUSH8 0xFFFFFFFFFFFFFFFF DUP2 GT ISZERO PUSH2 0x40B8 JUMPI PUSH2 0x40B7 PUSH2 0x369D JUMP JUMPDEST JUMPDEST PUSH2 0x40C4 DUP9 DUP3 DUP10 ADD PUSH2 0x3FA1 JUMP JUMPDEST SWAP2 POP POP SWAP3 SWAP6 POP SWAP3 SWAP6 SWAP1 SWAP4 POP JUMP JUMPDEST PUSH1 0x4 DUP2 LT PUSH2 0x40DD JUMPI PUSH0 PUSH0 REVERT JUMPDEST POP JUMP JUMPDEST PUSH0 DUP2 CALLDATALOAD SWAP1 POP PUSH2 0x40EE DUP2 PUSH2 0x40D1 JUMP JUMPDEST SWAP3 SWAP2 POP POP JUMP JUMPDEST PUSH0 PUSH0 PUSH0 PUSH0 PUSH0 PUSH1 0xA0 DUP7 DUP9 SUB SLT ISZERO PUSH2 0x410D JUMPI PUSH2 0x410C PUSH2 0x3699 JUMP JUMPDEST JUMPDEST PUSH0 DUP7 ADD CALLDATALOAD PUSH8 0xFFFFFFFFFFFFFFFF DUP2 GT ISZERO PUSH2 0x412A JUMPI PUSH2 0x4129 PUSH2 0x369D JUMP JUMPDEST JUMPDEST PUSH2 0x4136 DUP9 DUP3 DUP10 ADD PUSH2 0x37B0 JUMP JUMPDEST SWAP6 POP POP PUSH1 0x20 DUP7 ADD CALLDATALOAD PUSH8 0xFFFFFFFFFFFFFFFF DUP2 GT ISZERO PUSH2 0x4157 JUMPI PUSH2 0x4156 PUSH2 0x369D JUMP JUMPDEST JUMPDEST PUSH2 0x4163 DUP9 DUP3 DUP10 ADD PUSH2 0x37B0 JUMP JUMPDEST SWAP5 POP POP PUSH1 0x40 DUP7 ADD CALLDATALOAD PUSH8 0xFFFFFFFFFFFFFFFF DUP2 GT ISZERO PUSH2 0x4184 JUMPI PUSH2 0x4183 PUSH2 0x369D JUMP JUMPDEST JUMPDEST PUSH2 0x4190 DUP9 DUP3 DUP10 ADD PUSH2 0x37B0 JUMP JUMPDEST SWAP4 POP POP PUSH1 0x60 DUP7 ADD CALLDATALOAD PUSH8 0xFFFFFFFFFFFFFFFF DUP2 GT ISZERO PUSH2 0x41B1 JUMPI PUSH2 0x41B0 PUSH2 0x369D JUMP JUMPDEST JUMPDEST PUSH2 0x41BD DUP9 DUP3 DUP10 ADD PUSH2 0x37B0 JUMP JUMPDEST SWAP3 POP POP PUSH1 0x80 PUSH2 0x41CE DUP9 DUP3 DUP10 ADD PUSH2 0x40E0 JUMP JUMPDEST SWAP2 POP POP SWAP3 SWAP6 POP SWAP3 SWAP6 SWAP1 SWAP4 POP JUMP JUMPDEST PUSH0 DUP2 MLOAD SWAP1 POP SWAP2 SWAP1 POP JUMP JUMPDEST PUSH0 DUP3 DUP3 MSTORE PUSH1 0x20 DUP3 ADD SWAP1 POP SWAP3 SWAP2 POP POP JUMP JUMPDEST PUSH0 DUP2 SWAP1 POP PUSH1 0x20 DUP3 ADD SWAP1 POP SWAP2 SWAP1 POP JUMP JUMPDEST PUSH0 PUSH2 0x420F DUP4 DUP4 PUSH2 0x3D75 JUMP JUMPDEST SWAP1 POP SWAP3 SWAP2 POP POP JUMP JUMPDEST PUSH0 PUSH1 0x20 DUP3 ADD SWAP1 POP SWAP2 SWAP1 POP JUMP JUMPDEST PUSH0 PUSH2 0x422D DUP3 PUSH2 0x41DB JUMP JUMPDEST PUSH2 0x4237 DUP2 DUP6 PUSH2 0x41E5 JUMP JUMPDEST SWAP4 POP DUP4 PUSH1 0x20 DUP3 MUL DUP6 ADD PUSH2 0x4249 DUP6 PUSH2 0x41F5 JUMP JUMPDEST DUP1 PUSH0 JUMPDEST DUP6 DUP2 LT ISZERO PUSH2 0x4284 JUMPI DUP5 DUP5 SUB DUP10 MSTORE DUP2 MLOAD PUSH2 0x4265 DUP6 DUP3 PUSH2 0x4204 JUMP JUMPDEST SWAP5 POP PUSH2 0x4270 DUP4 PUSH2 0x4217 JUMP JUMPDEST SWAP3 POP PUSH1 0x20 DUP11 ADD SWAP10 POP POP PUSH1 0x1 DUP2 ADD SWAP1 POP PUSH2 0x424C JUMP JUMPDEST POP DUP3 SWAP8 POP DUP8 SWAP6 POP POP POP POP POP POP SWAP3 SWAP2 POP POP JUMP JUMPDEST PUSH0 PUSH2 0x100 DUP4 ADD PUSH0 DUP4 ADD MLOAD DUP5 DUP3 SUB PUSH0 DUP7 ADD MSTORE PUSH2 0x42B1 DUP3 DUP3 PUSH2 0x3D75 JUMP JUMPDEST SWAP2 POP POP PUSH1 0x20 DUP4 ADD MLOAD DUP5 DUP3 SUB PUSH1 0x20 DUP7 ADD MSTORE PUSH2 0x42CB DUP3 DUP3 PUSH2 0x3D75 JUMP JUMPDEST SWAP2 POP POP PUSH1 0x40 DUP4 ADD MLOAD DUP5 DUP3 SUB PUSH1 0x40 DUP7 ADD MSTORE PUSH2 0x42E5 DUP3 DUP3 PUSH2 0x3D75 JUMP JUMPDEST SWAP2 POP POP PUSH1 0x60 DUP4 ADD MLOAD PUSH2 0x42FA PUSH1 0x60 DUP7 ADD DUP3 PUSH2 0x3DAD JUMP JUMPDEST POP PUSH1 0x80 DUP4 ADD MLOAD PUSH2 0x430D PUSH1 0x80 DUP7 ADD DUP3 PUSH2 0x3DCB JUMP JUMPDEST POP PUSH1 0xA0 DUP4 ADD MLOAD PUSH2 0x4320 PUSH1 0xA0 DUP7 ADD DUP3 PUSH2 0x3DCB JUMP JUMPDEST POP PUSH1 0xC0 DUP4 ADD MLOAD DUP5 DUP3 SUB PUSH1 0xC0 DUP7 ADD MSTORE PUSH2 0x4338 DUP3 DUP3 PUSH2 0x4223 JUMP JUMPDEST SWAP2 POP POP PUSH1 0xE0 DUP4 ADD MLOAD PUSH2 0x434D PUSH1 0xE0 DUP7 ADD DUP3 PUSH2 0x3DBC JUMP JUMPDEST POP DUP1 SWAP2 POP POP SWAP3 SWAP2 POP POP JUMP JUMPDEST PUSH0 PUSH1 0x20 DUP3 ADD SWAP1 POP DUP2 DUP2 SUB PUSH0 DUP4 ADD MSTORE PUSH2 0x4370 DUP2 DUP5 PUSH2 0x4296 JUMP JUMPDEST SWAP1 POP SWAP3 SWAP2 POP POP JUMP JUMPDEST PUSH0 PUSH1 0xE0 DUP3 ADD SWAP1 POP DUP2 DUP2 SUB PUSH0 DUP4 ADD MSTORE PUSH2 0x4390 DUP2 DUP11 PUSH2 0x39C0 JUMP JUMPDEST SWAP1 POP DUP2 DUP2 SUB PUSH1 0x20 DUP4 ADD MSTORE PUSH2 0x43A4 DUP2 DUP10 PUSH2 0x39C0 JUMP JUMPDEST SWAP1 POP DUP2 DUP2 SUB PUSH1 0x40 DUP4 ADD MSTORE PUSH2 0x43B8 DUP2 DUP9 PUSH2 0x39C0 JUMP JUMPDEST SWAP1 POP PUSH2 0x43C7 PUSH1 0x60 DUP4 ADD DUP8 PUSH2 0x39F8 JUMP JUMPDEST PUSH2 0x43D4 PUSH1 0x80 DUP4 ADD DUP7 PUSH2 0x389C JUMP JUMPDEST PUSH2 0x43E1 PUSH1 0xA0 DUP4 ADD DUP6 PUSH2 0x389C JUMP JUMPDEST PUSH2 0x43EE PUSH1 0xC0 DUP4 ADD DUP5 PUSH2 0x3A07 JUMP JUMPDEST SWAP9 SWAP8 POP POP POP POP POP POP POP POP JUMP JUMPDEST PUSH0 PUSH0 PUSH0 PUSH1 0x60 DUP5 DUP7 SUB SLT ISZERO PUSH2 0x4411 JUMPI PUSH2 0x4410 PUSH2 0x3699 JUMP JUMPDEST JUMPDEST PUSH0 DUP5 ADD CALLDATALOAD PUSH8 0xFFFFFFFFFFFFFFFF DUP2 GT ISZERO PUSH2 0x442E JUMPI PUSH2 0x442D PUSH2 0x369D JUMP JUMPDEST JUMPDEST PUSH2 0x443A DUP7 DUP3 DUP8 ADD PUSH2 0x37B0 JUMP JUMPDEST SWAP4 POP POP PUSH1 0x20 PUSH2 0x444B DUP7 DUP3 DUP8 ADD PUSH2 0x38E3 JUMP JUMPDEST SWAP3 POP POP PUSH1 0x40 PUSH2 0x445C DUP7 DUP3 DUP8 ADD PUSH2 0x3823 JUMP JUMPDEST SWAP2 POP POP SWAP3 POP SWAP3 POP SWAP3 JUMP JUMPDEST PUSH0 DUP2 SWAP1 POP SWAP3 SWAP2 POP POP JUMP JUMPDEST PUSH0 PUSH2 0x447A DUP3 PUSH2 0x3998 JUMP JUMPDEST PUSH2 0x4484 DUP2 DUP6 PUSH2 0x4466 JUMP JUMPDEST SWAP4 POP PUSH2 0x4494 DUP2 DUP6 PUSH1 0x20 DUP7 ADD PUSH2 0x39B2 JUMP JUMPDEST DUP1 DUP5 ADD SWAP2 POP POP SWAP3 SWAP2 POP POP JUMP JUMPDEST PUSH0 PUSH2 0x44AB DUP3 DUP5 PUSH2 0x4470 JUMP JUMPDEST SWAP2 POP DUP2 SWAP1 POP SWAP3 SWAP2 POP POP JUMP JUMPDEST PUSH32 0x4E6F742061737369676E656420746F2063617365000000000000000000000000 PUSH0 DUP3 ADD MSTORE POP JUMP JUMPDEST PUSH0 PUSH2 0x44EA PUSH1 0x14 DUP4 PUSH2 0x39A2 JUMP JUMPDEST SWAP2 POP PUSH2 0x44F5 DUP3 PUSH2 0x44B6 JUMP JUMPDEST PUSH1 0x20 DUP3 ADD SWAP1 POP SWAP2 SWAP1 POP JUMP JUMPDEST PUSH0 PUSH1 0x20 DUP3 ADD SWAP1 POP DUP2 DUP2 SUB PUSH0 DUP4 ADD MSTORE PUSH2 0x4517 DUP2 PUSH2 0x44DE JUMP JUMPDEST SWAP1 POP SWAP2 SWAP1 POP JUMP JUMPDEST PUSH32 0x496E76616C696420696E64657800000000000000000000000000000000000000 PUSH0 DUP3 ADD MSTORE POP JUMP JUMPDEST PUSH0 PUSH2 0x4552 PUSH1 0xD DUP4 PUSH2 0x39A2 JUMP JUMPDEST SWAP2 POP PUSH2 0x455D DUP3 PUSH2 0x451E JUMP JUMPDEST PUSH1 0x20 DUP3 ADD SWAP1 POP SWAP2 SWAP1 POP JUMP JUMPDEST PUSH0 PUSH1 0x20 DUP3 ADD SWAP1 POP DUP2 DUP2 SUB PUSH0 DUP4 ADD MSTORE PUSH2 0x457F DUP2 PUSH2 0x4546 JUMP JUMPDEST SWAP1 POP SWAP2 SWAP1 POP JUMP JUMPDEST PUSH32 0x4E487B7100000000000000000000000000000000000000000000000000000000 PUSH0 MSTORE PUSH1 0x22 PUSH1 0x4 MSTORE PUSH1 0x24 PUSH0 REVERT JUMPDEST PUSH0 PUSH1 0x2 DUP3 DIV SWAP1 POP PUSH1 0x1 DUP3 AND DUP1 PUSH2 0x45CA JUMPI PUSH1 0x7F DUP3 AND SWAP2 POP JUMPDEST PUSH1 0x20 DUP3 LT DUP2 SUB PUSH2 0x45DD JUMPI PUSH2 0x45DC PUSH2 0x4586 JUMP JUMPDEST JUMPDEST POP SWAP2 SWAP1 POP JUMP JUMPDEST PUSH32 0x4F6E6C7920436F75727400000000000000000000000000000000000000000000 PUSH0 DUP3 ADD MSTORE POP JUMP JUMPDEST PUSH0 PUSH2 0x4617 PUSH1 0xA DUP4 PUSH2 0x39A2 JUMP JUMPDEST SWAP2 POP PUSH2 0x4622 DUP3 PUSH2 0x45E3 JUMP JUMPDEST PUSH1 0x20 DUP3 ADD SWAP1 POP SWAP2 SWAP1 POP JUMP JUMPDEST PUSH0 PUSH1 0x20 DUP3 ADD SWAP1 POP DUP2 DUP2 SUB PUSH0 DUP4 ADD MSTORE PUSH2 0x4644 DUP2 PUSH2 0x460B JUMP JUMPDEST SWAP1 POP SWAP2 SWAP1 POP JUMP JUMPDEST PUSH32 0x4E6F74207365616C000000000000000000000000000000000000000000000000 PUSH0 DUP3 ADD MSTORE POP JUMP JUMPDEST PUSH0 PUSH2 0x467F PUSH1 0x8 DUP4 PUSH2 0x39A2 JUMP JUMPDEST SWAP2 POP PUSH2 0x468A DUP3 PUSH2 0x464B JUMP JUMPDEST PUSH1 0x20 DUP3 ADD SWAP1 POP SWAP2 SWAP1 POP JUMP JUMPDEST PUSH0 PUSH1 0x20 DUP3 ADD SWAP1 POP DUP2 DUP2 SUB PUSH0 DUP4 ADD MSTORE PUSH2 0x46AC DUP2 PUSH2 0x4673 JUMP JUMPDEST SWAP1 POP SWAP2 SWAP1 POP JUMP JUMPDEST PUSH32 0x53797374656D20696E20656D657267656E6379206C6F636B0000000000000000 PUSH0 DUP3 ADD MSTORE POP JUMP JUMPDEST PUSH0 PUSH2 0x46E7 PUSH1 0x18 DUP4 PUSH2 0x39A2 JUMP JUMPDEST SWAP2 POP PUSH2 0x46F2 DUP3 PUSH2 0x46B3 JUMP JUMPDEST PUSH1 0x20 DUP3 ADD SWAP1 POP SWAP2 SWAP1 POP JUMP JUMPDEST PUSH0 PUSH1 0x20 DUP3 ADD SWAP1 POP DUP2 DUP2 SUB PUSH0 DUP4 ADD MSTORE PUSH2 0x4714 DUP2 PUSH2 0x46DB JUMP JUMPDEST SWAP1 POP SWAP2 SWAP1 POP JUMP JUMPDEST PUSH32 0x556E617574686F72697A656420726F6C65000000000000000000000000000000 PUSH0 DUP3 ADD MSTORE POP JUMP JUMPDEST PUSH0 PUSH2 0x474F PUSH1 0x11 DUP4 PUSH2 0x39A2 JUMP JUMPDEST SWAP2 POP PUSH2 0x475A DUP3 PUSH2 0x471B JUMP JUMPDEST PUSH1 0x20 DUP3 ADD SWAP1 POP SWAP2 SWAP1 POP JUMP JUMPDEST PUSH0 PUSH1 0x20 DUP3 ADD SWAP1 POP DUP2 DUP2 SUB PUSH0 DUP4 ADD MSTORE PUSH2 0x477C DUP2 PUSH2 0x4743 JUMP JUMPDEST SWAP1 POP SWAP2 SWAP1 POP JUMP JUMPDEST PUSH32 0x4649522065786973747300000000000000000000000000000000000000000000 PUSH0 DUP3 ADD MSTORE POP JUMP JUMPDEST PUSH0 PUSH2 0x47B7 PUSH1 0xA DUP4 PUSH2 0x39A2 JUMP JUMPDEST SWAP2 POP PUSH2 0x47C2 DUP3 PUSH2 0x4783 JUMP JUMPDEST PUSH1 0x20 DUP3 ADD SWAP1 POP SWAP2 SWAP1 POP JUMP JUMPDEST PUSH0 PUSH1 0x20 DUP3 ADD SWAP1 POP DUP2 DUP2 SUB PUSH0 DUP4 ADD MSTORE PUSH2 0x47E4 DUP2 PUSH2 0x47AB JUMP JUMPDEST SWAP1 POP SWAP2 SWAP1 POP JUMP JUMPDEST PUSH0 DUP2 SWAP1 POP DUP2 PUSH0 MSTORE PUSH1 0x20 PUSH0 KECCAK256 SWAP1 POP SWAP2 SWAP1 POP JUMP JUMPDEST PUSH0 PUSH1 0x20 PUSH1 0x1F DUP4 ADD DIV SWAP1 POP SWAP2 SWAP1 POP JUMP JUMPDEST PUSH0 DUP3 DUP3 SHL SWAP1 POP SWAP3 SWAP2 POP POP JUMP JUMPDEST PUSH0 PUSH1 0x8 DUP4 MUL PUSH2 0x4847 PUSH32 0xFFFFFFFFFFFFFFFFFFFFFFFFFFFFFFFFFFFFFFFFFFFFFFFFFFFFFFFFFFFFFFFF DUP3 PUSH2 0x480C JUMP JUMPDEST PUSH2 0x4851 DUP7 DUP4 PUSH2 0x480C JUMP JUMPDEST SWAP6 POP DUP1 NOT DUP5 AND SWAP4 POP DUP1 DUP7 AND DUP5 OR SWAP3 POP POP POP SWAP4 SWAP3 POP POP POP JUMP JUMPDEST PUSH0 DUP2 SWAP1 POP SWAP2 SWAP1 POP JUMP JUMPDEST PUSH0 PUSH2 0x488C PUSH2 0x4887 PUSH2 0x4882 DUP5 PUSH2 0x38C4 JUMP JUMPDEST PUSH2 0x4869 JUMP JUMPDEST PUSH2 0x38C4 JUMP JUMPDEST SWAP1 POP SWAP2 SWAP1 POP JUMP JUMPDEST PUSH0 DUP2 SWAP1 POP SWAP2 SWAP1 POP JUMP JUMPDEST PUSH2 0x48A5 DUP4 PUSH2 0x4872 JUMP JUMPDEST PUSH2 0x48B9 PUSH2 0x48B1 DUP3 PUSH2 0x4893 JUMP JUMPDEST DUP5 DUP5 SLOAD PUSH2 0x4818 JUMP JUMPDEST DUP3 SSTORE POP POP POP POP JUMP JUMPDEST PUSH0 PUSH0 SWAP1 POP SWAP1 JUMP JUMPDEST PUSH2 0x48D0 PUSH2 0x48C1 JUMP JUMPDEST PUSH2 0x48DB DUP2 DUP5 DUP5 PUSH2 0x489C JUMP JUMPDEST POP POP POP JUMP JUMPDEST JUMPDEST DUP2 DUP2 LT ISZERO PUSH2 0x48FE JUMPI PUSH2 0x48F3 PUSH0 DUP3 PUSH2 0x48C8 JUMP JUMPDEST PUSH1 0x1 DUP2 ADD SWAP1 POP PUSH2 0x48E1 JUMP JUMPDEST POP POP JUMP JUMPDEST PUSH1 0x1F DUP3 GT ISZERO PUSH2 0x4943 JUMPI PUSH2 0x4914 DUP2 PUSH2 0x47EB JUMP JUMPDEST PUSH2 0x491D DUP5 PUSH2 0x47FD JUMP JUMPDEST DUP2 ADD PUSH1 0x20 DUP6 LT ISZERO PUSH2 0x492C JUMPI DUP2 SWAP1 POP JUMPDEST PUSH2 0x4940 PUSH2 0x4938 DUP6 PUSH2 0x47FD JUMP JUMPDEST DUP4 ADD DUP3 PUSH2 0x48E0 JUMP JUMPDEST POP POP JUMPDEST POP POP POP JUMP JUMPDEST PUSH0 DUP3 DUP3 SHR SWAP1 POP SWAP3 SWAP2 POP POP JUMP JUMPDEST PUSH0 PUSH2 0x4963 PUSH0 NOT DUP5 PUSH1 0x8 MUL PUSH2 0x4948 JUMP JUMPDEST NOT DUP1 DUP4 AND SWAP2 POP POP SWAP3 SWAP2 POP POP JUMP JUMPDEST PUSH0 PUSH2 0x497B DUP4 DUP4 PUSH2 0x4954 JUMP JUMPDEST SWAP2 POP DUP3 PUSH1 0x2 MUL DUP3 OR SWAP1 POP SWAP3 SWAP2 POP POP JUMP JUMPDEST PUSH2 0x4994 DUP3 PUSH2 0x3998 JUMP JUMPDEST PUSH8 0xFFFFFFFFFFFFFFFF DUP2 GT ISZERO PUSH2 0x49AD JUMPI PUSH2 0x49AC PUSH2 0x36B9 JUMP JUMPDEST JUMPDEST PUSH2 0x49B7 DUP3 SLOAD PUSH2 0x45B3 JUMP JUMPDEST PUSH2 0x49C2 DUP3 DUP3 DUP6 PUSH2 0x4902 JUMP JUMPDEST PUSH0 PUSH1 0x20 SWAP1 POP PUSH1 0x1F DUP4 GT PUSH1 0x1 DUP2 EQ PUSH2 0x49F3 JUMPI PUSH0 DUP5 ISZERO PUSH2 0x49E1 JUMPI DUP3 DUP8 ADD MLOAD SWAP1 POP JUMPDEST PUSH2 0x49EB DUP6 DUP3 PUSH2 0x4970 JUMP JUMPDEST DUP7 SSTORE POP PUSH2 0x4A52 JUMP JUMPDEST PUSH1 0x1F NOT DUP5 AND PUSH2 0x4A01 DUP7 PUSH2 0x47EB JUMP JUMPDEST PUSH0 JUMPDEST DUP3 DUP2 LT ISZERO PUSH2 0x4A28 JUMPI DUP5 DUP10 ADD MLOAD DUP3 SSTORE PUSH1 0x1 DUP3 ADD SWAP2 POP PUSH1 0x20 DUP6 ADD SWAP5 POP PUSH1 0x20 DUP2 ADD SWAP1 POP PUSH2 0x4A03 JUMP JUMPDEST DUP7 DUP4 LT ISZERO PUSH2 0x4A45 JUMPI DUP5 DUP10 ADD MLOAD PUSH2 0x4A41 PUSH1 0x1F DUP10 AND DUP3 PUSH2 0x4954 JUMP JUMPDEST DUP4 SSTORE POP JUMPDEST PUSH1 0x1 PUSH1 0x2 DUP9 MUL ADD DUP9 SSTORE POP POP POP JUMPDEST POP POP POP POP POP POP JUMP JUMPDEST PUSH32 0x496E76616C696420726F6C650000000000000000000000000000000000000000 PUSH0 DUP3 ADD MSTORE POP JUMP JUMPDEST PUSH0 PUSH2 0x4A8E PUSH1 0xC DUP4 PUSH2 0x39A2 JUMP JUMPDEST SWAP2 POP PUSH2 0x4A99 DUP3 PUSH2 0x4A5A JUMP JUMPDEST PUSH1 0x20 DUP3 ADD SWAP1 POP SWAP2 SWAP1 POP JUMP JUMPDEST PUSH0 PUSH1 0x20 DUP3 ADD SWAP1 POP DUP2 DUP2 SUB PUSH0 DUP4 ADD MSTORE PUSH2 0x4ABB DUP2 PUSH2 0x4A82 JUMP JUMPDEST SWAP1 POP SWAP2 SWAP1 POP JUMP JUMPDEST PUSH32 0x4E487B7100000000000000000000000000000000000000000000000000000000 PUSH0 MSTORE PUSH1 0x32 PUSH1 0x4 MSTORE PUSH1 0x24 PUSH0 REVERT JUMPDEST PUSH32 0x416C726561647920636F6E6669726D6564000000000000000000000000000000 PUSH0 DUP3 ADD MSTORE POP JUMP JUMPDEST PUSH0 PUSH2 0x4B23 PUSH1 0x11 DUP4 PUSH2 0x39A2 JUMP JUMPDEST SWAP2 POP PUSH2 0x4B2E DUP3 PUSH2 0x4AEF JUMP JUMPDEST PUSH1 0x20 DUP3 ADD SWAP1 POP SWAP2 SWAP1 POP JUMP JUMPDEST PUSH0 PUSH1 0x20 DUP3 ADD SWAP1 POP DUP2 DUP2 SUB PUSH0 DUP4 ADD MSTORE PUSH2 0x4B50 DUP2 PUSH2 0x4B17 JUMP JUMPDEST SWAP1 POP SWAP2 SWAP1 POP JUMP JUMPDEST PUSH32 0x53656C662D636F6E6669726D6174696F6E2064656E6965640000000000000000 PUSH0 DUP3 ADD MSTORE POP JUMP JUMPDEST PUSH0 PUSH2 0x4B8B PUSH1 0x18 DUP4 PUSH2 0x39A2 JUMP JUMPDEST SWAP2 POP PUSH2 0x4B96 DUP3 PUSH2 0x4B57 JUMP JUMPDEST PUSH1 0x20 DUP3 ADD SWAP1 POP SWAP2 SWAP1 POP JUMP JUMPDEST PUSH0 PUSH1 0x20 DUP3 ADD SWAP1 POP DUP2 DUP2 SUB PUSH0 DUP4 ADD MSTORE PUSH2 0x4BB8 DUP2 PUSH2 0x4B7F JUMP JUMPDEST SWAP1 POP SWAP2 SWAP1 POP JUMP JUMPDEST PUSH32 0x4361736520657869737473000000000000000000000000000000000000000000 PUSH0 DUP3 ADD MSTORE POP JUMP JUMPDEST PUSH0 PUSH2 0x4BF3 PUSH1 0xB DUP4 PUSH2 0x39A2 JUMP JUMPDEST SWAP2 POP PUSH2 0x4BFE DUP3 PUSH2 0x4BBF JUMP JUMPDEST PUSH1 0x20 DUP3 ADD SWAP1 POP SWAP2 SWAP1 POP JUMP JUMPDEST PUSH0 PUSH1 0x20 DUP3 ADD SWAP1 POP DUP2 DUP2 SUB PUSH0 DUP4 ADD MSTORE PUSH2 0x4C20 DUP2 PUSH2 0x4BE7 JUMP JUMPDEST SWAP1 POP SWAP2 SWAP1 POP JUMP JUMPDEST PUSH32 0x464952206E6F7420666F756E6400000000000000000000000000000000000000 PUSH0 DUP3 ADD MSTORE POP JUMP JUMPDEST PUSH0 PUSH2 0x4C5B PUSH1 0xD DUP4 PUSH2 0x39A2 JUMP JUMPDEST SWAP2 POP PUSH2 0x4C66 DUP3 PUSH2 0x4C27 JUMP JUMPDEST PUSH1 0x20 DUP3 ADD SWAP1 POP SWAP2 SWAP1 POP JUMP JUMPDEST PUSH0 PUSH1 0x20 DUP3 ADD SWAP1 POP DUP2 DUP2 SUB PUSH0 DUP4 ADD MSTORE PUSH2 0x4C88 DUP2 PUSH2 0x4C4F JUMP JUMPDEST SWAP1 POP SWAP2 SWAP1 POP JUMP JUMPDEST PUSH32 0x416C72656164792070726F6D6F74656400000000000000000000000000000000 PUSH0 DUP3 ADD MSTORE POP JUMP JUMPDEST PUSH0 PUSH2 0x4CC3 PUSH1 0x10 DUP4 PUSH2 0x39A2 JUMP JUMPDEST SWAP2 POP PUSH2 0x4CCE DUP3 PUSH2 0x4C8F JUMP JUMPDEST PUSH1 0x20 DUP3 ADD SWAP1 POP SWAP2 SWAP1 POP JUMP JUMPDEST PUSH0 PUSH1 0x20 DUP3 ADD SWAP1 POP DUP2 DUP2 SUB PUSH0 DUP4 ADD MSTORE PUSH2 0x4CF0 DUP2 PUSH2 0x4CB7 JUMP JUMPDEST SWAP1 POP SWAP2 SWAP1 POP JUMP JUMPDEST PUSH32 0x43617365206E6F74206F70656E00000000000000000000000000000000000000 PUSH0 DUP3 ADD MSTORE POP JUMP JUMPDEST PUSH0 PUSH2 0x4D2B PUSH1 0xD DUP4 PUSH2 0x39A2 JUMP JUMPDEST SWAP2 POP PUSH2 0x4D36 DUP3 PUSH2 0x4CF7 JUMP JUMPDEST PUSH1 0x20 DUP3 ADD SWAP1 POP SWAP2 SWAP1 POP JUMP JUMPDEST PUSH0 PUSH1 0x20 DUP3 ADD SWAP1 POP DUP2 DUP2 SUB PUSH0 DUP4 ADD MSTORE PUSH2 0x4D58 DUP2 PUSH2 0x4D1F JUMP JUMPDEST SWAP1 POP SWAP2 SWAP1 POP JUMP JUMPDEST PUSH32 0x556E617574686F72697A656420726F6C6520746F207375626D69742065766964 PUSH0 DUP3 ADD MSTORE PUSH32 0x656E636500000000000000000000000000000000000000000000000000000000 PUSH1 0x20 DUP3 ADD MSTORE POP JUMP JUMPDEST PUSH0 PUSH2 0x4DB9 PUSH1 0x24 DUP4 PUSH2 0x39A2 JUMP JUMPDEST SWAP2 POP PUSH2 0x4DC4 DUP3 PUSH2 0x4D5F JUMP JUMPDEST PUSH1 0x40 DUP3 ADD SWAP1 POP SWAP2 SWAP1 POP JUMP JUMPDEST PUSH0 PUSH1 0x20 DUP3 ADD SWAP1 POP DUP2 DUP2 SUB PUSH0 DUP4 ADD MSTORE PUSH2 0x4DE6 DUP2 PUSH2 0x4DAD JUMP JUMPDEST SWAP1 POP SWAP2 SWAP1 POP JUMP JUMPDEST PUSH0 PUSH2 0x4DF8 DUP3 DUP6 PUSH2 0x4470 JUMP JUMPDEST SWAP2 POP PUSH2 0x4E04 DUP3 DUP5 PUSH2 0x4470 JUMP JUMPDEST SWAP2 POP DUP2 SWAP1 POP SWAP4 SWAP3 POP POP POP JUMP JUMPDEST PUSH32 0x4475706C69636174652065766964656E63650000000000000000000000000000 PUSH0 DUP3 ADD MSTORE POP JUMP JUMPDEST PUSH0 PUSH2 0x4E44 PUSH1 0x12 DUP4 PUSH2 0x39A2 JUMP JUMPDEST SWAP2 POP PUSH2 0x4E4F DUP3 PUSH2 0x4E10 JUMP JUMPDEST PUSH1 0x20 DUP3 ADD SWAP1 POP SWAP2 SWAP1 POP JUMP JUMPDEST PUSH0 PUSH1 0x20 DUP3 ADD SWAP1 POP DUP2 DUP2 SUB PUSH0 DUP4 ADD MSTORE PUSH2 0x4E71 DUP2 PUSH2 0x4E38 JUMP JUMPDEST SWAP1 POP SWAP2 SWAP1 POP JUMP JUMPDEST PUSH32 0x556E617574686F72697A65640000000000000000000000000000000000000000 PUSH0 DUP3 ADD MSTORE POP JUMP JUMPDEST PUSH0 PUSH2 0x4EAC PUSH1 0xC DUP4 PUSH2 0x39A2 JUMP JUMPDEST SWAP2 POP PUSH2 0x4EB7 DUP3 PUSH2 0x4E78 JUMP JUMPDEST PUSH1 0x20 DUP3 ADD SWAP1 POP SWAP2 SWAP1 POP JUMP JUMPDEST PUSH0 PUSH1 0x20 DUP3 ADD SWAP1 POP DUP2 DUP2 SUB PUSH0 DUP4 ADD MSTORE PUSH2 0x4ED9 DUP2 PUSH2 0x4EA0 JUMP JUMPDEST SWAP1 POP SWAP2 SWAP1 POP JUMP JUMPDEST PUSH32 0x4649522070726F6D6F7465640000000000000000000000000000000000000000 PUSH0 DUP3 ADD MSTORE POP JUMP JUMPDEST PUSH0 PUSH2 0x4F14 PUSH1 0xC DUP4 PUSH2 0x39A2 JUMP JUMPDEST SWAP2 POP PUSH2 0x4F1F DUP3 PUSH2 0x4EE0 JUMP JUMPDEST PUSH1 0x20 DUP3 ADD SWAP1 POP SWAP2 SWAP1 POP JUMP JUMPDEST PUSH0 PUSH1 0x20 DUP3 ADD SWAP1 POP DUP2 DUP2 SUB PUSH0 DUP4 ADD MSTORE PUSH2 0x4F41 DUP2 PUSH2 0x4F08 JUMP JUMPDEST SWAP1 POP SWAP2 SWAP1 POP JUMP JUMPDEST PUSH32 0x43617365206E6F74206173736F63696174656400000000000000000000000000 PUSH0 DUP3 ADD MSTORE POP JUMP JUMPDEST PUSH0 PUSH2 0x4F7C PUSH1 0x13 DUP4 PUSH2 0x39A2 JUMP JUMPDEST SWAP2 POP PUSH2 0x4F87 DUP3 PUSH2 0x4F48 JUMP JUMPDEST PUSH1 0x20 DUP3 ADD SWAP1 POP SWAP2 SWAP1 POP JUMP JUMPDEST PUSH0 PUSH1 0x20 DUP3 ADD SWAP1 POP DUP2 DUP2 SUB PUSH0 DUP4 ADD MSTORE PUSH2 0x4FA9 DUP2 PUSH2 0x4F70 JUMP JUMPDEST SWAP1 POP SWAP2 SWAP1 POP JUMP JUMPDEST PUSH32 0x4E487B7100000000000000000000000000000000000000000000000000000000 PUSH0 MSTORE PUSH1 0x11 PUSH1 0x4 MSTORE PUSH1 0x24 PUSH0 REVERT JUMPDEST PUSH0 PUSH2 0x4FE7 DUP3 PUSH2 0x38C4 JUMP JUMPDEST SWAP2 POP PUSH32 0xFFFFFFFFFFFFFFFFFFFFFFFFFFFFFFFFFFFFFFFFFFFFFFFFFFFFFFFFFFFFFFFF DUP3 SUB PUSH2 0x5019 JUMPI PUSH2 0x5018 PUSH2 0x4FB0 JUMP JUMPDEST JUMPDEST PUSH1 0x1 DUP3 ADD SWAP1 POP SWAP2 SWAP1 POP JUMP INVALID LOG2 PUSH5 0x6970667358 0x22 SLT KECCAK256 0x2F 0x4F LOG2 NUMBER PUSH8 0x5ECF5BB8C844AADF 0x29 DUPN 0x11 INVALID CALLF 0x3B61 0x2D BLOCKHASH CALL PUSH8 0x9DE49780C90BD503 PUSH5 0x736F6C6343 STOP ADDMOD SAR STOP CALLER "
				},
				"gasEstimates": {
					"creation": {
						"codeDepositCost": "4114000",
						"executionCost": "53363",
						"totalCost": "4167363"
					},
					"external": {
						"accessEvidenceLog(string,uint256)": "infinite",
						"assignCaseRole(string,address,uint8)": "infinite",
						"caseAuditTrail(string,uint256)": "infinite",
						"caseEvidenceMapping(string,uint256)": "infinite",
						"caseRoles(string,address)": "infinite",
						"cases(string)": "infinite",
						"closeCase(string)": "infinite",
						"confirmCaseEvidence(string,uint256)": "infinite",
						"createCaseFromFIR(string,string,string,string,string[])": "infinite",
						"evidenceAccessed(string,uint256,address)": "infinite",
						"evidenceConfirmed(string,address)": "infinite",
						"fileFIR(string,string)": "infinite",
						"firs(string)": "infinite",
						"getCase(string)": "infinite",
						"getFIR(string)": "infinite",
						"getGlobalRole(address)": "3003",
						"getMyRoleInCase(string)": "infinite",
						"globalRoles(address)": "3033",
						"isSystemLocked()": "2560",
						"owner()": "2574",
						"reopenCase(string)": "infinite",
						"sealCase(string)": "infinite",
						"setGlobalRole(address,uint8)": "27412",
						"submitCaseEvidence(string,string,string,string,uint8)": "infinite",
						"submitFIREvidence(string,string,string,string,uint8)": "infinite",
						"toggleSystemLock()": "28990",
						"usedCIDHash(bytes32)": "2875"
					},
					"internal": {
						"_addNewEvidence(string memory,struct ForensicChain.Evidence memory)": "infinite"
					}
				},
				"methodIdentifiers": {
					"accessEvidenceLog(string,uint256)": "0871fd94",
					"assignCaseRole(string,address,uint8)": "95d95a60",
					"caseAuditTrail(string,uint256)": "a5fd3618",
					"caseEvidenceMapping(string,uint256)": "5df512eb",
					"caseRoles(string,address)": "a23140d2",
					"cases(string)": "df965829",
					"closeCase(string)": "832e943f",
					"confirmCaseEvidence(string,uint256)": "9d8d2a49",
					"createCaseFromFIR(string,string,string,string,string[])": "b934669f",
					"evidenceAccessed(string,uint256,address)": "f47dbf0d",
					"evidenceConfirmed(string,address)": "00a81646",
					"fileFIR(string,string)": "78ac0caf",
					"firs(string)": "2a8d05d8",
					"getCase(string)": "d4e06826",
					"getFIR(string)": "96853b85",
					"getGlobalRole(address)": "cbbfe1fc",
					"getMyRoleInCase(string)": "f6e715db",
					"globalRoles(address)": "4966a761",
					"isSystemLocked()": "d77bdf97",
					"owner()": "8da5cb5b",
					"reopenCase(string)": "3e6a1a4f",
					"sealCase(string)": "90712d6a",
					"setGlobalRole(address,uint8)": "79c7fdd3",
					"submitCaseEvidence(string,string,string,string,uint8)": "c0c0bd28",
					"submitFIREvidence(string,string,string,string,uint8)": "d235af82",
					"toggleSystemLock()": "6fa81f89",
					"usedCIDHash(bytes32)": "9dc17586"
				}
			},
			"storageLayout": {
				"storage": [
					{
						"astId": 64,
						"contract": "Capstone/ForensicChain.sol:ForensicChain",
						"label": "owner",
						"offset": 0,
						"slot": "0",
						"type": "t_address"
					},
					{
						"astId": 66,
						"contract": "Capstone/ForensicChain.sol:ForensicChain",
						"label": "isSystemLocked",
						"offset": 20,
						"slot": "0",
						"type": "t_bool"
					},
					{
						"astId": 71,
						"contract": "Capstone/ForensicChain.sol:ForensicChain",
						"label": "globalRoles",
						"offset": 0,
						"slot": "1",
						"type": "t_mapping(t_address,t_enum(Role)7)"
					},
					{
						"astId": 76,
						"contract": "Capstone/ForensicChain.sol:ForensicChain",
						"label": "firs",
						"offset": 0,
						"slot": "2",
						"type": "t_mapping(t_string_memory_ptr,t_struct(FIR)44_storage)"
					},
					{
						"astId": 81,
						"contract": "Capstone/ForensicChain.sol:ForensicChain",
						"label": "cases",
						"offset": 0,
						"slot": "3",
						"type": "t_mapping(t_string_memory_ptr,t_struct(Case)62_storage)"
					},
					{
						"astId": 88,
						"contract": "Capstone/ForensicChain.sol:ForensicChain",
						"label": "caseRoles",
						"offset": 0,
						"slot": "4",
						"type": "t_mapping(t_string_memory_ptr,t_mapping(t_address,t_enum(Role)7))"
					},
					{
						"astId": 94,
						"contract": "Capstone/ForensicChain.sol:ForensicChain",
						"label": "evidenceConfirmed",
						"offset": 0,
						"slot": "5",
						"type": "t_mapping(t_string_memory_ptr,t_mapping(t_address,t_bool))"
					},
					{
						"astId": 98,
						"contract": "Capstone/ForensicChain.sol:ForensicChain",
						"label": "usedCIDHash",
						"offset": 0,
						"slot": "6",
						"type": "t_mapping(t_bytes32,t_bool)"
					},
					{
						"astId": 103,
						"contract": "Capstone/ForensicChain.sol:ForensicChain",
						"label": "caseAuditTrail",
						"offset": 0,
						"slot": "7",
						"type": "t_mapping(t_string_memory_ptr,t_array(t_address)dyn_storage)"
					},
					{
						"astId": 111,
						"contract": "Capstone/ForensicChain.sol:ForensicChain",
						"label": "evidenceAccessed",
						"offset": 0,
						"slot": "8",
						"type": "t_mapping(t_string_memory_ptr,t_mapping(t_uint256,t_mapping(t_address,t_bool)))"
					},
					{
						"astId": 118,
						"contract": "Capstone/ForensicChain.sol:ForensicChain",
						"label": "caseEvidenceMapping",
						"offset": 0,
						"slot": "9",
						"type": "t_mapping(t_string_memory_ptr,t_mapping(t_uint256,t_struct(Evidence)31_storage))"
					}
				],
				"types": {
					"t_address": {
						"encoding": "inplace",
						"label": "address",
						"numberOfBytes": "20"
					},
					"t_array(t_address)dyn_storage": {
						"base": "t_address",
						"encoding": "dynamic_array",
						"label": "address[]",
						"numberOfBytes": "32"
					},
					"t_array(t_string_storage)dyn_storage": {
						"base": "t_string_storage",
						"encoding": "dynamic_array",
						"label": "string[]",
						"numberOfBytes": "32"
					},
					"t_bool": {
						"encoding": "inplace",
						"label": "bool",
						"numberOfBytes": "1"
					},
					"t_bytes32": {
						"encoding": "inplace",
						"label": "bytes32",
						"numberOfBytes": "32"
					},
					"t_enum(EvidenceType)12": {
						"encoding": "inplace",
						"label": "enum ForensicChain.EvidenceType",
						"numberOfBytes": "1"
					},
					"t_enum(Role)7": {
						"encoding": "inplace",
						"label": "enum ForensicChain.Role",
						"numberOfBytes": "1"
					},
					"t_mapping(t_address,t_bool)": {
						"encoding": "mapping",
						"key": "t_address",
						"label": "mapping(address => bool)",
						"numberOfBytes": "32",
						"value": "t_bool"
					},
					"t_mapping(t_address,t_enum(Role)7)": {
						"encoding": "mapping",
						"key": "t_address",
						"label": "mapping(address => enum ForensicChain.Role)",
						"numberOfBytes": "32",
						"value": "t_enum(Role)7"
					},
					"t_mapping(t_bytes32,t_bool)": {
						"encoding": "mapping",
						"key": "t_bytes32",
						"label": "mapping(bytes32 => bool)",
						"numberOfBytes": "32",
						"value": "t_bool"
					},
					"t_mapping(t_string_memory_ptr,t_array(t_address)dyn_storage)": {
						"encoding": "mapping",
						"key": "t_string_memory_ptr",
						"label": "mapping(string => address[])",
						"numberOfBytes": "32",
						"value": "t_array(t_address)dyn_storage"
					},
					"t_mapping(t_string_memory_ptr,t_mapping(t_address,t_bool))": {
						"encoding": "mapping",
						"key": "t_string_memory_ptr",
						"label": "mapping(string => mapping(address => bool))",
						"numberOfBytes": "32",
						"value": "t_mapping(t_address,t_bool)"
					},
					"t_mapping(t_string_memory_ptr,t_mapping(t_address,t_enum(Role)7))": {
						"encoding": "mapping",
						"key": "t_string_memory_ptr",
						"label": "mapping(string => mapping(address => enum ForensicChain.Role))",
						"numberOfBytes": "32",
						"value": "t_mapping(t_address,t_enum(Role)7)"
					},
					"t_mapping(t_string_memory_ptr,t_mapping(t_uint256,t_mapping(t_address,t_bool)))": {
						"encoding": "mapping",
						"key": "t_string_memory_ptr",
						"label": "mapping(string => mapping(uint256 => mapping(address => bool)))",
						"numberOfBytes": "32",
						"value": "t_mapping(t_uint256,t_mapping(t_address,t_bool))"
					},
					"t_mapping(t_string_memory_ptr,t_mapping(t_uint256,t_struct(Evidence)31_storage))": {
						"encoding": "mapping",
						"key": "t_string_memory_ptr",
						"label": "mapping(string => mapping(uint256 => struct ForensicChain.Evidence))",
						"numberOfBytes": "32",
						"value": "t_mapping(t_uint256,t_struct(Evidence)31_storage)"
					},
					"t_mapping(t_string_memory_ptr,t_struct(Case)62_storage)": {
						"encoding": "mapping",
						"key": "t_string_memory_ptr",
						"label": "mapping(string => struct ForensicChain.Case)",
						"numberOfBytes": "32",
						"value": "t_struct(Case)62_storage"
					},
					"t_mapping(t_string_memory_ptr,t_struct(FIR)44_storage)": {
						"encoding": "mapping",
						"key": "t_string_memory_ptr",
						"label": "mapping(string => struct ForensicChain.FIR)",
						"numberOfBytes": "32",
						"value": "t_struct(FIR)44_storage"
					},
					"t_mapping(t_uint256,t_mapping(t_address,t_bool))": {
						"encoding": "mapping",
						"key": "t_uint256",
						"label": "mapping(uint256 => mapping(address => bool))",
						"numberOfBytes": "32",
						"value": "t_mapping(t_address,t_bool)"
					},
					"t_mapping(t_uint256,t_struct(Evidence)31_storage)": {
						"encoding": "mapping",
						"key": "t_uint256",
						"label": "mapping(uint256 => struct ForensicChain.Evidence)",
						"numberOfBytes": "32",
						"value": "t_struct(Evidence)31_storage"
					},
					"t_string_memory_ptr": {
						"encoding": "bytes",
						"label": "string",
						"numberOfBytes": "32"
					},
					"t_string_storage": {
						"encoding": "bytes",
						"label": "string",
						"numberOfBytes": "32"
					},
					"t_struct(Case)62_storage": {
						"encoding": "inplace",
						"label": "struct ForensicChain.Case",
						"members": [
							{
								"astId": 46,
								"contract": "Capstone/ForensicChain.sol:ForensicChain",
								"label": "caseId",
								"offset": 0,
								"slot": "0",
								"type": "t_string_storage"
							},
							{
								"astId": 48,
								"contract": "Capstone/ForensicChain.sol:ForensicChain",
								"label": "title",
								"offset": 0,
								"slot": "1",
								"type": "t_string_storage"
							},
							{
								"astId": 50,
								"contract": "Capstone/ForensicChain.sol:ForensicChain",
								"label": "description",
								"offset": 0,
								"slot": "2",
								"type": "t_string_storage"
							},
							{
								"astId": 52,
								"contract": "Capstone/ForensicChain.sol:ForensicChain",
								"label": "createdBy",
								"offset": 0,
								"slot": "3",
								"type": "t_address"
							},
							{
								"astId": 54,
								"contract": "Capstone/ForensicChain.sol:ForensicChain",
								"label": "seal",
								"offset": 20,
								"slot": "3",
								"type": "t_bool"
							},
							{
								"astId": 56,
								"contract": "Capstone/ForensicChain.sol:ForensicChain",
								"label": "open",
								"offset": 21,
								"slot": "3",
								"type": "t_bool"
							},
							{
								"astId": 59,
								"contract": "Capstone/ForensicChain.sol:ForensicChain",
								"label": "tags",
								"offset": 0,
								"slot": "4",
								"type": "t_array(t_string_storage)dyn_storage"
							},
							{
								"astId": 61,
								"contract": "Capstone/ForensicChain.sol:ForensicChain",
								"label": "evidenceCount",
								"offset": 0,
								"slot": "5",
								"type": "t_uint256"
							}
						],
						"numberOfBytes": "192"
					},
					"t_struct(Evidence)31_storage": {
						"encoding": "inplace",
						"label": "struct ForensicChain.Evidence",
						"members": [
							{
								"astId": 14,
								"contract": "Capstone/ForensicChain.sol:ForensicChain",
								"label": "evidenceId",
								"offset": 0,
								"slot": "0",
								"type": "t_string_storage"
							},
							{
								"astId": 16,
								"contract": "Capstone/ForensicChain.sol:ForensicChain",
								"label": "cidEncrypted",
								"offset": 0,
								"slot": "1",
								"type": "t_string_storage"
							},
							{
								"astId": 18,
								"contract": "Capstone/ForensicChain.sol:ForensicChain",
								"label": "hash",
								"offset": 0,
								"slot": "2",
								"type": "t_string_storage"
							},
							{
								"astId": 21,
								"contract": "Capstone/ForensicChain.sol:ForensicChain",
								"label": "evidenceType",
								"offset": 0,
								"slot": "3",
								"type": "t_enum(EvidenceType)12"
							},
							{
								"astId": 23,
								"contract": "Capstone/ForensicChain.sol:ForensicChain",
								"label": "submittedBy",
								"offset": 1,
								"slot": "3",
								"type": "t_address"
							},
							{
								"astId": 25,
								"contract": "Capstone/ForensicChain.sol:ForensicChain",
								"label": "confirmed",
								"offset": 21,
								"slot": "3",
								"type": "t_bool"
							},
							{
								"astId": 27,
								"contract": "Capstone/ForensicChain.sol:ForensicChain",
								"label": "submittedAt",
								"offset": 0,
								"slot": "4",
								"type": "t_uint256"
							},
							{
								"astId": 30,
								"contract": "Capstone/ForensicChain.sol:ForensicChain",
								"label": "chainOfCustody",
								"offset": 0,
								"slot": "5",
								"type": "t_array(t_address)dyn_storage"
							}
						],
						"numberOfBytes": "192"
					},
					"t_struct(FIR)44_storage": {
						"encoding": "inplace",
						"label": "struct ForensicChain.FIR",
						"members": [
							{
								"astId": 33,
								"contract": "Capstone/ForensicChain.sol:ForensicChain",
								"label": "firId",
								"offset": 0,
								"slot": "0",
								"type": "t_string_storage"
							},
							{
								"astId": 35,
								"contract": "Capstone/ForensicChain.sol:ForensicChain",
								"label": "filedBy",
								"offset": 0,
								"slot": "1",
								"type": "t_address"
							},
							{
								"astId": 37,
								"contract": "Capstone/ForensicChain.sol:ForensicChain",
								"label": "description",
								"offset": 0,
								"slot": "2",
								"type": "t_string_storage"
							},
							{
								"astId": 39,
								"contract": "Capstone/ForensicChain.sol:ForensicChain",
								"label": "timestamp",
								"offset": 0,
								"slot": "3",
								"type": "t_uint256"
							},
							{
								"astId": 41,
								"contract": "Capstone/ForensicChain.sol:ForensicChain",
								"label": "promotedToCase",
								"offset": 0,
								"slot": "4",
								"type": "t_bool"
							},
							{
								"astId": 43,
								"contract": "Capstone/ForensicChain.sol:ForensicChain",
								"label": "associatedCaseId",
								"offset": 0,
								"slot": "5",
								"type": "t_string_storage"
							}
						],
						"numberOfBytes": "192"
					},
					"t_uint256": {
						"encoding": "inplace",
						"label": "uint256",
						"numberOfBytes": "32"
					}
				}
			},
			"userdoc": {
				"kind": "user",
				"methods": {},
				"version": 1
			}
		}
	}
}